{
  "contractName": "iBNB",
  "abi": [
    {
      "inputs": [
        {
          "internalType": "address",
          "name": "_router",
          "type": "address"
        }
      ],
      "stateMutability": "nonpayable",
      "type": "constructor"
    },
    {
      "anonymous": false,
      "inputs": [
        {
          "indexed": false,
          "internalType": "string",
          "name": "",
          "type": "string"
        }
      ],
      "name": "AddLiq",
      "type": "event"
    },
    {
      "anonymous": false,
      "inputs": [
        {
          "indexed": false,
          "internalType": "address",
          "name": "",
          "type": "address"
        },
        {
          "indexed": false,
          "internalType": "address",
          "name": "",
          "type": "address"
        },
        {
          "indexed": false,
          "internalType": "uint256",
          "name": "",
          "type": "uint256"
        }
      ],
      "name": "Approval",
      "type": "event"
    },
    {
      "anonymous": false,
      "inputs": [
        {
          "indexed": false,
          "internalType": "uint256",
          "name": "",
          "type": "uint256"
        },
        {
          "indexed": false,
          "internalType": "uint256",
          "name": "",
          "type": "uint256"
        }
      ],
      "name": "BalancerRatio",
      "type": "event"
    },
    {
      "anonymous": false,
      "inputs": [
        {
          "indexed": true,
          "internalType": "address",
          "name": "previousOwner",
          "type": "address"
        },
        {
          "indexed": true,
          "internalType": "address",
          "name": "newOwner",
          "type": "address"
        }
      ],
      "name": "OwnershipTransferred",
      "type": "event"
    },
    {
      "anonymous": false,
      "inputs": [],
      "name": "RewardTaxChanged",
      "type": "event"
    },
    {
      "anonymous": false,
      "inputs": [
        {
          "indexed": false,
          "internalType": "string",
          "name": "",
          "type": "string"
        }
      ],
      "name": "SwapForBNB",
      "type": "event"
    },
    {
      "anonymous": false,
      "inputs": [],
      "name": "TaxRatesChanged",
      "type": "event"
    },
    {
      "anonymous": false,
      "inputs": [
        {
          "indexed": false,
          "internalType": "address",
          "name": "",
          "type": "address"
        },
        {
          "indexed": false,
          "internalType": "address",
          "name": "",
          "type": "address"
        },
        {
          "indexed": false,
          "internalType": "uint256",
          "name": "",
          "type": "uint256"
        }
      ],
      "name": "Transfer",
      "type": "event"
    },
    {
      "anonymous": false,
      "inputs": [
        {
          "indexed": false,
          "internalType": "uint256",
          "name": "",
          "type": "uint256"
        },
        {
          "indexed": false,
          "internalType": "uint256",
          "name": "",
          "type": "uint256"
        }
      ],
      "name": "balancerReset",
      "type": "event"
    },
    {
      "inputs": [],
      "name": "LP_recipient",
      "outputs": [
        {
          "internalType": "address",
          "name": "",
          "type": "address"
        }
      ],
      "stateMutability": "view",
      "type": "function"
    },
    {
      "inputs": [
        {
          "internalType": "address",
          "name": "",
          "type": "address"
        }
      ],
      "name": "_last_tx",
      "outputs": [
        {
          "internalType": "uint256",
          "name": "cum_transfer",
          "type": "uint256"
        },
        {
          "internalType": "uint256",
          "name": "last_timestamp",
          "type": "uint256"
        },
        {
          "internalType": "uint256",
          "name": "last_claim",
          "type": "uint256"
        }
      ],
      "stateMutability": "view",
      "type": "function"
    },
    {
      "inputs": [],
      "name": "balancer_balances",
      "outputs": [
        {
          "internalType": "uint256",
          "name": "reward_pool",
          "type": "uint256"
        },
        {
          "internalType": "uint256",
          "name": "liquidity_pool",
          "type": "uint256"
        }
      ],
      "stateMutability": "view",
      "type": "function"
    },
    {
      "inputs": [],
      "name": "circuit_breaker",
      "outputs": [
        {
          "internalType": "bool",
          "name": "",
          "type": "bool"
        }
      ],
      "stateMutability": "view",
      "type": "function"
    },
    {
      "inputs": [
        {
          "internalType": "uint256",
          "name": "",
          "type": "uint256"
        }
      ],
      "name": "claiming_taxes_rates",
      "outputs": [
        {
          "internalType": "uint8",
          "name": "",
          "type": "uint8"
        }
      ],
      "stateMutability": "view",
      "type": "function"
    },
    {
      "inputs": [],
      "name": "devWallet",
      "outputs": [
        {
          "internalType": "address",
          "name": "",
          "type": "address"
        }
      ],
      "stateMutability": "view",
      "type": "function"
    },
    {
      "inputs": [
        {
          "internalType": "address",
          "name": "",
          "type": "address"
        }
      ],
      "name": "excluded",
      "outputs": [
        {
          "internalType": "bool",
          "name": "",
          "type": "bool"
        }
      ],
      "stateMutability": "view",
      "type": "function"
    },
    {
      "inputs": [],
      "name": "owner",
      "outputs": [
        {
          "internalType": "address",
          "name": "",
          "type": "address"
        }
      ],
      "stateMutability": "view",
      "type": "function"
    },
    {
      "inputs": [],
      "name": "pair",
      "outputs": [
        {
          "internalType": "contract IUniswapV2Pair",
          "name": "",
          "type": "address"
        }
      ],
      "stateMutability": "view",
      "type": "function"
    },
    {
      "inputs": [],
      "name": "pcs_pool_to_circ_ratio",
      "outputs": [
        {
          "internalType": "uint256",
          "name": "",
          "type": "uint256"
        }
      ],
      "stateMutability": "view",
      "type": "function"
    },
    {
      "inputs": [],
      "name": "renounceOwnership",
      "outputs": [],
      "stateMutability": "nonpayable",
      "type": "function"
    },
    {
      "inputs": [],
      "name": "reward_rate",
      "outputs": [
        {
          "internalType": "uint256",
          "name": "",
          "type": "uint256"
        }
      ],
      "stateMutability": "view",
      "type": "function"
    },
    {
      "inputs": [],
      "name": "router",
      "outputs": [
        {
          "internalType": "contract IUniswapV2Router02",
          "name": "",
          "type": "address"
        }
      ],
      "stateMutability": "view",
      "type": "function"
    },
    {
      "inputs": [
        {
          "internalType": "uint256",
          "name": "",
          "type": "uint256"
        }
      ],
      "name": "selling_taxes_rates",
      "outputs": [
        {
          "internalType": "uint8",
          "name": "",
          "type": "uint8"
        }
      ],
      "stateMutability": "view",
      "type": "function"
    },
    {
      "inputs": [
        {
          "internalType": "uint256",
          "name": "",
          "type": "uint256"
        }
      ],
      "name": "selling_taxes_tranches",
      "outputs": [
        {
          "internalType": "uint16",
          "name": "",
          "type": "uint16"
        }
      ],
      "stateMutability": "view",
      "type": "function"
    },
    {
      "inputs": [],
      "name": "swap_for_liquidity_threshold",
      "outputs": [
        {
          "internalType": "uint256",
          "name": "",
          "type": "uint256"
        }
      ],
      "stateMutability": "view",
      "type": "function"
    },
    {
      "inputs": [],
      "name": "swap_for_reward_threshold",
      "outputs": [
        {
          "internalType": "uint256",
          "name": "",
          "type": "uint256"
        }
      ],
      "stateMutability": "view",
      "type": "function"
    },
    {
      "inputs": [
        {
          "internalType": "address",
          "name": "newOwner",
          "type": "address"
        }
      ],
      "name": "transferOwnership",
      "outputs": [],
      "stateMutability": "nonpayable",
      "type": "function"
    },
    {
      "stateMutability": "payable",
      "type": "receive"
    },
    {
      "inputs": [],
      "name": "decimals",
      "outputs": [
        {
          "internalType": "uint256",
          "name": "",
          "type": "uint256"
        }
      ],
      "stateMutability": "view",
      "type": "function"
    },
    {
      "inputs": [],
      "name": "name",
      "outputs": [
        {
          "internalType": "string",
          "name": "",
          "type": "string"
        }
      ],
      "stateMutability": "view",
      "type": "function"
    },
    {
      "inputs": [],
      "name": "symbol",
      "outputs": [
        {
          "internalType": "string",
          "name": "",
          "type": "string"
        }
      ],
      "stateMutability": "view",
      "type": "function"
    },
    {
      "inputs": [],
      "name": "totalSupply",
      "outputs": [
        {
          "internalType": "uint256",
          "name": "",
          "type": "uint256"
        }
      ],
      "stateMutability": "view",
      "type": "function"
    },
    {
      "inputs": [
        {
          "internalType": "address",
          "name": "account",
          "type": "address"
        }
      ],
      "name": "balanceOf",
      "outputs": [
        {
          "internalType": "uint256",
          "name": "",
          "type": "uint256"
        }
      ],
      "stateMutability": "view",
      "type": "function"
    },
    {
      "inputs": [
        {
          "internalType": "address",
          "name": "recipient",
          "type": "address"
        },
        {
          "internalType": "uint256",
          "name": "amount",
          "type": "uint256"
        }
      ],
      "name": "transfer",
      "outputs": [
        {
          "internalType": "bool",
          "name": "",
          "type": "bool"
        }
      ],
      "stateMutability": "nonpayable",
      "type": "function"
    },
    {
      "inputs": [
        {
          "internalType": "address",
          "name": "owner",
          "type": "address"
        },
        {
          "internalType": "address",
          "name": "spender",
          "type": "address"
        }
      ],
      "name": "allowance",
      "outputs": [
        {
          "internalType": "uint256",
          "name": "",
          "type": "uint256"
        }
      ],
      "stateMutability": "view",
      "type": "function"
    },
    {
      "inputs": [
        {
          "internalType": "address",
          "name": "spender",
          "type": "address"
        },
        {
          "internalType": "uint256",
          "name": "amount",
          "type": "uint256"
        }
      ],
      "name": "approve",
      "outputs": [
        {
          "internalType": "bool",
          "name": "",
          "type": "bool"
        }
      ],
      "stateMutability": "nonpayable",
      "type": "function"
    },
    {
      "inputs": [
        {
          "internalType": "address",
          "name": "sender",
          "type": "address"
        },
        {
          "internalType": "address",
          "name": "recipient",
          "type": "address"
        },
        {
          "internalType": "uint256",
          "name": "amount",
          "type": "uint256"
        }
      ],
      "name": "transferFrom",
      "outputs": [
        {
          "internalType": "bool",
          "name": "",
          "type": "bool"
        }
      ],
      "stateMutability": "nonpayable",
      "type": "function"
    },
    {
      "inputs": [
        {
          "internalType": "address",
          "name": "spender",
          "type": "address"
        },
        {
          "internalType": "uint256",
          "name": "addedValue",
          "type": "uint256"
        }
      ],
      "name": "increaseAllowance",
      "outputs": [
        {
          "internalType": "bool",
          "name": "",
          "type": "bool"
        }
      ],
      "stateMutability": "nonpayable",
      "type": "function"
    },
    {
      "inputs": [
        {
          "internalType": "address",
          "name": "spender",
          "type": "address"
        },
        {
          "internalType": "uint256",
          "name": "subtractedValue",
          "type": "uint256"
        }
      ],
      "name": "decreaseAllowance",
      "outputs": [
        {
          "internalType": "bool",
          "name": "",
          "type": "bool"
        }
      ],
      "stateMutability": "nonpayable",
      "type": "function"
    },
    {
      "inputs": [
        {
          "internalType": "uint256",
          "name": "amount",
          "type": "uint256"
        },
        {
          "internalType": "uint256",
          "name": "pool_balance",
          "type": "uint256"
        }
      ],
      "name": "balancer",
      "outputs": [],
      "stateMutability": "nonpayable",
      "type": "function"
    },
    {
      "inputs": [],
      "name": "computeReward",
      "outputs": [
        {
          "internalType": "uint256",
          "name": "",
          "type": "uint256"
        },
        {
          "internalType": "uint256",
          "name": "",
          "type": "uint256"
        }
      ],
      "stateMutability": "view",
      "type": "function"
    },
    {
      "inputs": [
        {
          "internalType": "uint256",
          "name": "amount",
          "type": "uint256"
        }
      ],
      "name": "taxOnClaim",
      "outputs": [
        {
          "internalType": "uint256",
          "name": "tax",
          "type": "uint256"
        }
      ],
      "stateMutability": "view",
      "type": "function"
    },
    {
      "inputs": [],
      "name": "endOfPeriod",
      "outputs": [
        {
          "internalType": "uint256",
          "name": "",
          "type": "uint256"
        }
      ],
      "stateMutability": "view",
      "type": "function"
    },
    {
      "inputs": [],
      "name": "claimReward",
      "outputs": [],
      "stateMutability": "nonpayable",
      "type": "function"
    },
    {
      "inputs": [
        {
          "internalType": "uint256",
          "name": "nb_token",
          "type": "uint256"
        }
      ],
      "name": "getQuoteInBNB",
      "outputs": [
        {
          "internalType": "uint256",
          "name": "",
          "type": "uint256"
        }
      ],
      "stateMutability": "view",
      "type": "function"
    },
    {
      "inputs": [
        {
          "internalType": "uint256",
          "name": "token_amount",
          "type": "uint256"
        },
        {
          "internalType": "address",
          "name": "receiver",
          "type": "address"
        }
      ],
      "name": "swapForBNB",
      "outputs": [
        {
          "internalType": "uint256",
          "name": "",
          "type": "uint256"
        }
      ],
      "stateMutability": "nonpayable",
      "type": "function"
    },
    {
      "inputs": [
        {
          "internalType": "address",
          "name": "adr",
          "type": "address"
        }
      ],
      "name": "excludeFromTaxes",
      "outputs": [],
      "stateMutability": "nonpayable",
      "type": "function"
    },
    {
      "inputs": [
        {
          "internalType": "address",
          "name": "adr",
          "type": "address"
        }
      ],
      "name": "includeInTaxes",
      "outputs": [],
      "stateMutability": "nonpayable",
      "type": "function"
    },
    {
      "inputs": [],
      "name": "resetBalancer",
      "outputs": [],
      "stateMutability": "nonpayable",
      "type": "function"
    },
    {
      "inputs": [
        {
          "internalType": "bool",
          "name": "status",
          "type": "bool"
        }
      ],
      "name": "setCircuitBreaker",
      "outputs": [],
      "stateMutability": "nonpayable",
      "type": "function"
    },
    {
      "inputs": [
        {
          "internalType": "address",
          "name": "_LP_recipient",
          "type": "address"
        }
      ],
      "name": "setLPContract",
      "outputs": [],
      "stateMutability": "nonpayable",
      "type": "function"
    },
    {
      "inputs": [
        {
          "internalType": "address",
          "name": "_devWallet",
          "type": "address"
        }
      ],
      "name": "setDevWallet",
      "outputs": [],
      "stateMutability": "nonpayable",
      "type": "function"
    },
    {
      "inputs": [
        {
          "internalType": "uint256",
          "name": "threshold_in_token",
          "type": "uint256"
        }
      ],
      "name": "setSwapFor_Liq_Threshold",
      "outputs": [],
      "stateMutability": "nonpayable",
      "type": "function"
    },
    {
      "inputs": [
        {
          "internalType": "uint256",
          "name": "threshold_in_token",
          "type": "uint256"
        }
      ],
      "name": "setSwapFor_Reward_Threshold",
      "outputs": [],
      "stateMutability": "nonpayable",
      "type": "function"
    },
    {
      "inputs": [
        {
          "internalType": "uint16[5]",
          "name": "new_tranches",
          "type": "uint16[5]"
        }
      ],
      "name": "setSellingTaxesTranches",
      "outputs": [],
      "stateMutability": "nonpayable",
      "type": "function"
    },
    {
      "inputs": [
        {
          "internalType": "uint8[4]",
          "name": "new_amounts",
          "type": "uint8[4]"
        }
      ],
      "name": "setSellingTaxesrates",
      "outputs": [],
      "stateMutability": "nonpayable",
      "type": "function"
    },
    {
      "inputs": [
        {
          "internalType": "uint8[5]",
          "name": "new_tranches",
          "type": "uint8[5]"
        }
      ],
      "name": "setRewardTaxesTranches",
      "outputs": [],
      "stateMutability": "nonpayable",
      "type": "function"
    },
    {
      "inputs": [
        {
          "internalType": "uint256",
          "name": "new_periodicity",
          "type": "uint256"
        }
      ],
      "name": "setRewardRate",
      "outputs": [],
      "stateMutability": "nonpayable",
      "type": "function"
    }
  ],
  "bytecode": "0x6080604052600960058190556200001890600a62000695565b6200002b9066038d7ea4c680006200077d565b6006556005546200003e90600a62000695565b62000050906509184e72a0006200077d565b6007556005546200006390600a62000695565b62000075906509184e72a0006200077d565b6008908155600a600981905562015180905560408051608081018252600281526004602082018190526006928201929092526060810192909252620000bd91600b9162000447565b506040805160a081018252600281526004602082015260069181019190915260086060820152600f6080820152620000fa90600c90600562000447565b506040805160a081018252607d815260fa60208201526101f4918101919091526102ee60608201526103e860808201526200013a90600d906005620004e1565b506040805180820190915260048082526334a1272160e11b60209092019182526200016891600f916200056a565b506040805180820190915260048082526334a1272160e11b602090920191825262000196916010916200056a565b50348015620001a457600080fd5b5060405162003b3b38038062003b3b833981016040819052620001c791620005fe565b6000620001d362000443565b600080546001600160a01b0319166001600160a01b0383169081178255604051929350917f8be0079c531659141344cd1fd0a4f28419497f9722a3daafe3b4186f6b6457e0908290a35060065433600090815260016020908152604080832093909355601480546001600160a01b0319166001600160a01b038681169190911791829055845163c45a015560e01b81529451939491169263c45a015592600480840193919291829003018186803b1580156200028e57600080fd5b505afa158015620002a3573d6000803e3d6000fd5b505050506040513d601f19601f82011682018060405250810190620002c99190620005fe565b9050806001600160a01b031663c9c6539630601460009054906101000a90046001600160a01b03166001600160a01b031663ad5c46486040518163ffffffff1660e01b815260040160206040518083038186803b1580156200032a57600080fd5b505afa1580156200033f573d6000803e3d6000fd5b505050506040513d601f19601f82011682018060405250810190620003659190620005fe565b6040518363ffffffff1660e01b8152600401620003849291906200062e565b602060405180830381600087803b1580156200039f57600080fd5b505af1158015620003b4573d6000803e3d6000fd5b505050506040513d601f19601f82011682018060405250810190620003da9190620005fe565b601380546001600160a01b03929092166001600160a01b03199283161790556011805482169055601280549091169055505033600090815260046020526040808220805460ff1990811660019081179092553084529190922080549091169091179055620007f2565b3390565b600183019183908215620004cf5791602002820160005b838211156200049e57835183826101000a81548160ff021916908360ff16021790555092602001926001016020816000010492830192600103026200045e565b8015620004cd5782816101000a81549060ff02191690556001016020816000010492830192600103026200049e565b505b50620004dd929150620005e7565b5090565b600183019183908215620004cf5791602002820160005b838211156200053a57835183826101000a81548161ffff021916908361ffff1602179055509260200192600201602081600101049283019260010302620004f8565b8015620004cd5782816101000a81549061ffff02191690556002016020816001010492830192600103026200053a565b82805462000578906200079f565b90600052602060002090601f0160209004810192826200059c5760008555620004cf565b82601f10620005b757805160ff1916838001178555620004cf565b82800160010185558215620004cf579182015b82811115620004cf578251825591602001919060010190620005ca565b5b80821115620004dd5760008155600101620005e8565b60006020828403121562000610578081fd5b81516001600160a01b038116811462000627578182fd5b9392505050565b6001600160a01b0392831681529116602082015260400190565b80825b60018086116200065c57506200068c565b818704821115620006715762000671620007dc565b808616156200067f57918102915b9490941c9380026200064b565b94509492505050565b6000620006276000198484600082620006b15750600162000627565b81620006c05750600062000627565b8160018114620006d95760028114620006e45762000718565b600191505062000627565b60ff841115620006f857620006f8620007dc565b6001841b915084821115620007115762000711620007dc565b5062000627565b5060208310610133831016604e8410600b841016171562000750575081810a838111156200074a576200074a620007dc565b62000627565b6200075f848484600162000648565b808604821115620007745762000774620007dc565b02949350505050565b60008160001904831182151516156200079a576200079a620007dc565b500290565b600281046001821680620007b457607f821691505b60208210811415620007d657634e487b7160e01b600052602260045260246000fd5b50919050565b634e487b7160e01b600052601160045260246000fd5b61333980620008026000396000f3fe6080604052600436106102975760003560e01c8063715018a61161015a578063a9059cbb116100c1578063ea9180ec1161007a578063ea9180ec1461079e578063f22b1084146107b3578063f2fde38b146107d3578063f887ea40146107f3578063fa04a97014610808578063fb3fbc12146108285761029e565b8063a9059cbb146106e6578063b88a802f14610706578063ca882eda1461071b578063d9a86cdf1461073b578063dd62ed3e1461075b578063e0e283361461077b5761029e565b8063983e915811610113578063983e91581461063c5780639bb907941461065c5780639e0ffbce1461067c5780639e447fc614610691578063a457c2d7146106b1578063a8aa1b31146106d15761029e565b8063715018a6146105b357806384d8f1dc146105c85780638da5cb5b146105e85780638ea5220f146105fd57806395d89b4114610612578063961a31ce146106275761029e565b806323b872dd116101fe5780633ebb7cb2116101b75780633ebb7cb2146104ef578063425064491461051e578063429cead11461053e57806345abb3831461055e57806367250b591461057e57806370a08231146105935761029e565b806323b872dd1461043857806328f4cdfc14610458578063313ce5671461047857806332fb782b1461048d57806339509351146104af5780633dbbc80f146104cf5761029e565b806316e6fa101161025057806316e6fa101461038c57806318160ddd146103b95780631e776cbf146103ce5780631f53ac02146103e35780631fc7472314610403578063222b03f6146104235761029e565b80630281d18e146102a357806306fdde03146102d9578063095ea7b3146102fb5780630ce6bb6f14610328578063131e00b71461034a57806313a55aa51461036c5761029e565b3661029e57005b600080fd5b3480156102af57600080fd5b506102c36102be366004612a09565b61083d565b6040516102d09190612fb9565b60405180910390f35b3480156102e557600080fd5b506102ee610867565b6040516102d09190612b45565b34801561030757600080fd5b5061031b610316366004612834565b6108fa565b6040516102d09190612b3a565b34801561033457600080fd5b5061033d610918565b6040516102d09190612efd565b34801561035657600080fd5b5061036a610365366004612784565b61091e565b005b34801561037857600080fd5b5061036a610387366004612938565b6109c3565b34801561039857600080fd5b506103ac6103a7366004612a09565b610a3c565b6040516102d09190612eee565b3480156103c557600080fd5b5061033d610a6a565b3480156103da57600080fd5b5061033d610a70565b3480156103ef57600080fd5b5061036a6103fe366004612784565b610a76565b34801561040f57600080fd5b5061033d61041e366004612a39565b610ad7565b34801561042f57600080fd5b5061033d610d6d565b34801561044457600080fd5b5061031b6104533660046127f4565b610d73565b34801561046457600080fd5b5061033d610473366004612a09565b610e0c565b34801561048457600080fd5b5061033d610fca565b34801561049957600080fd5b506104a2610fd0565b6040516102d09190612ac7565b3480156104bb57600080fd5b5061031b6104ca366004612834565b610fdf565b3480156104db57600080fd5b5061036a6104ea366004612a09565b61102e565b3480156104fb57600080fd5b5061050f61050a366004612784565b61108b565b6040516102d093929190612fa3565b34801561052a57600080fd5b5061036a61053936600461299b565b6110ab565b34801561054a57600080fd5b5061031b610559366004612784565b6110fd565b34801561056a57600080fd5b5061036a610579366004612a5d565b611112565b34801561058a57600080fd5b5061036a61130e565b34801561059f57600080fd5b5061033d6105ae366004612784565b6113b8565b3480156105bf57600080fd5b5061036a6113d3565b3480156105d457600080fd5b5061036a6105e3366004612a09565b61145c565b3480156105f457600080fd5b506104a26114b9565b34801561060957600080fd5b506104a26114c8565b34801561061e57600080fd5b506102ee6114d7565b34801561063357600080fd5b5061033d6114e6565b34801561064857600080fd5b5061036a610657366004612784565b61150b565b34801561066857600080fd5b5061036a610677366004612784565b6115a3565b34801561068857600080fd5b5061033d611604565b34801561069d57600080fd5b5061036a6106ac366004612a09565b61160a565b3480156106bd57600080fd5b5061031b6106cc366004612834565b61164e565b3480156106dd57600080fd5b506104a26116c9565b3480156106f257600080fd5b5061031b610701366004612834565b6116d8565b34801561071257600080fd5b5061036a6116ec565b34801561072757600080fd5b5061036a61073636600461285f565b611766565b34801561074757600080fd5b5061036a6107563660046128d5565b6117df565b34801561076757600080fd5b5061033d6107763660046127bc565b61182b565b34801561078757600080fd5b50610790611856565b6040516102d0929190612f95565b3480156107aa57600080fd5b506107906119b9565b3480156107bf57600080fd5b506102c36107ce366004612a09565b6119c2565b3480156107df57600080fd5b5061036a6107ee366004612784565b6119d2565b3480156107ff57600080fd5b506104a2611a92565b34801561081457600080fd5b5061033d610823366004612a09565b611aa1565b34801561083457600080fd5b5061031b611b6f565b600b816004811061084d57600080fd5b60209182820401919006915054906101000a900460ff1681565b6060600f8054610876906131a5565b80601f01602080910402602001604051908101604052809291908181526020018280546108a2906131a5565b80156108ef5780601f106108c4576101008083540402835291602001916108ef565b820191906000526020600020905b8154815290600101906020018083116108d257829003601f168201915b505050505090505b90565b600061090e610907611b78565b8484611b7c565b5060015b92915050565b60085481565b610926611b78565b6001600160a01b03166109376114b9565b6001600160a01b0316146109665760405162461bcd60e51b815260040161095d90612cfb565b60405180910390fd5b6001600160a01b03811660009081526004602052604090205460ff161561099f5760405162461bcd60e51b815260040161095d90612e7f565b6001600160a01b03166000908152600460205260409020805460ff19166001179055565b6109cb611b78565b6001600160a01b03166109dc6114b9565b6001600160a01b031614610a025760405162461bcd60e51b815260040161095d90612cfb565b610a0f600c826005612630565b506040517ffa718b2e3c4eff6c1ad7f30d8799d768c9c9c172a31e28102f58e23bdf2550c790600090a150565b600d8160058110610a4c57600080fd5b60109182820401919006600202915054906101000a900461ffff1681565b60065490565b60095481565b610a7e611b78565b6001600160a01b0316610a8f6114b9565b6001600160a01b031614610ab55760405162461bcd60e51b815260040161095d90612cfb565b601280546001600160a01b0319166001600160a01b0392909216919091179055565b604080516002808252606082018352600092839291906020830190803683370190505090503081600081518110610b1e57634e487b7160e01b600052603260045260246000fd5b6001600160a01b03928316602091820292909201810191909152601454604080516315ab88c960e31b81529051919093169263ad5c4648926004808301939192829003018186803b158015610b7257600080fd5b505afa158015610b86573d6000803e3d6000fd5b505050506040513d601f19601f82011682018060405250810190610baa91906127a0565b81600181518110610bcb57634e487b7160e01b600052603260045260246000fd5b6001600160a01b0392831660209182029290920101526014548591610bf29130911661182b565b1015610c6857306000818152600360209081526040808320601480546001600160a01b039081168652919093529281902060001990819055915490517f8c5be1e5ebec7d5bd14f71427d1e84f3dd0314c0f7b2291e5b200ac8c7c3b92594610c5f94909392169190612adb565b60405180910390a15b60145460405163791ac94760e01b81526001600160a01b039091169063791ac94790610ca1908790600090869089904290600401612f06565b600060405180830381600087803b158015610cbb57600080fd5b505af1925050508015610ccc575060015b610d2f57610cd8613226565b80610ce35750610d25565b7f63f96232640ee3b5914be68a756c36599d36b83c5f2ca097c9c40afdf6f7fc2d81604051610d129190612b45565b60405180910390a1600092505050610912565b3d6000803e3d6000fd5b7f63f96232640ee3b5914be68a756c36599d36b83c5f2ca097c9c40afdf6f7fc2d604051610d5c90612dd2565b60405180910390a183915050610912565b60075481565b6000610d80848484611c31565b6001600160a01b038416600090815260036020526040812081610da1611b78565b6001600160a01b03166001600160a01b0316815260200190815260200160002054905082811015610de45760405162461bcd60e51b815260040161095d90612cb3565b610dff85610df0611b78565b610dfa868561315e565b611b7c565b60019150505b9392505050565b6000806000601360009054906101000a90046001600160a01b03166001600160a01b0316630902f1ac6040518163ffffffff1660e01b815260040160606040518083038186803b158015610e5f57600080fd5b505afa158015610e73573d6000803e3d6000fd5b505050506040513d601f19601f82011682018060405250810190610e9791906129bb565b5091509150601360009054906101000a90046001600160a01b03166001600160a01b0316630dfe16816040518163ffffffff1660e01b815260040160206040518083038186803b158015610eea57600080fd5b505afa158015610efe573d6000803e3d6000fd5b505050506040513d601f19601f82011682018060405250810190610f2291906127a0565b6001600160a01b0316306001600160a01b031614610f3c57905b601454604051630153543560e21b81526001600160a01b039091169063054d50d490610f7090879086908690600401612f76565b60206040518083038186803b158015610f8857600080fd5b505afa158015610f9c573d6000803e3d6000fd5b505050506040513d601f19601f82011682018060405250810190610fc09190612a21565b925050505b919050565b60055490565b6011546001600160a01b031681565b600061090e610fec611b78565b848460036000610ffa611b78565b6001600160a01b03908116825260208083019390935260409182016000908120918b1681529252902054610dfa9190612fff565b611036611b78565b6001600160a01b03166110476114b9565b6001600160a01b03161461106d5760405162461bcd60e51b815260040161095d90612cfb565b60055461107b90600a613071565b611085908261313f565b60085550565b600260208190526000918252604090912080546001820154919092015483565b6110b3611b78565b6001600160a01b03166110c46114b9565b6001600160a01b0316146110ea5760405162461bcd60e51b815260040161095d90612cfb565b600e805460ff1916911515919091179055565b60046020526000908152604090205460ff1681565b61dead600081815260016020527fb34209a263f6c38fe55f099e9e70f9d67e93982480ff3234a5e0108028ad164d546111539061114d610a6a565b90611ff9565b90506000606460095483611167919061313f565b6111719190613017565b841061117d5783611197565b60646009548361118d919061313f565b6111979190613017565b905060006111bd826111b7633b9aca006111b1838a611ff9565b90612005565b90612011565b905060006111e1836111b7633b9aca006111b16111da848c611ff9565b8890611ff9565b9050611205633b9aca006111b78581836111b16111fe848e611ff9565b8e90612005565b60168054600090611217908490612fff565b909155506112429050633b9aca006111b78581836111b16111fe61123b858f611ff9565b8b90611ff9565b60158054600090611254908490612fff565b90915550506007546016541061129257600061127460156001015461201d565b9050806015600101600082825461128b919061315e565b9091555050505b600854601554106112cc5760006112ae60156000015430610ad7565b905080601560000160008282546112c5919061315e565b9091555050505b7fe3cfbc19c9b2799117ecb6d44aebbcf7204606ea626d36d9535314a9f20c270282826040516112fd929190612f95565b60405180910390a150505050505050565b611316611b78565b6001600160a01b03166113276114b9565b6001600160a01b03161461134d5760405162461bcd60e51b815260040161095d90612cfb565b30600090815260016020526040902054611368816002612011565b601555611376816002612011565b60168190556015546040517feac7c420776212140a54f51e3179e218232d622b4fa6556ab2ef0b973c0f5ab0926113ad9291612f95565b60405180910390a150565b6001600160a01b031660009081526001602052604090205490565b6113db611b78565b6001600160a01b03166113ec6114b9565b6001600160a01b0316146114125760405162461bcd60e51b815260040161095d90612cfb565b600080546040516001600160a01b03909116907f8be0079c531659141344cd1fd0a4f28419497f9722a3daafe3b4186f6b6457e0908390a3600080546001600160a01b0319169055565b611464611b78565b6001600160a01b03166114756114b9565b6001600160a01b03161461149b5760405162461bcd60e51b815260040161095d90612cfb565b6005546114a990600a613071565b6114b3908261313f565b60075550565b6000546001600160a01b031690565b6012546001600160a01b031681565b606060108054610876906131a5565b336000908152600260208190526040822001546115069062015180612fff565b905090565b611513611b78565b6001600160a01b03166115246114b9565b6001600160a01b03161461154a5760405162461bcd60e51b815260040161095d90612cfb565b6001600160a01b03811660009081526004602052604090205460ff166115825760405162461bcd60e51b815260040161095d90612c8c565b6001600160a01b03166000908152600460205260409020805460ff19169055565b6115ab611b78565b6001600160a01b03166115bc6114b9565b6001600160a01b0316146115e25760405162461bcd60e51b815260040161095d90612cfb565b601180546001600160a01b0319166001600160a01b0392909216919091179055565b600a5481565b611612611b78565b6001600160a01b03166116236114b9565b6001600160a01b0316146116495760405162461bcd60e51b815260040161095d90612cfb565b600a55565b6000806003600061165d611b78565b6001600160a01b03908116825260208083019390935260409182016000908120918816815292529020549050828110156116a95760405162461bcd60e51b815260040161095d90612ea9565b6116bf6116b4611b78565b85610dfa868561315e565b5060019392505050565b6013546001600160a01b031681565b600061090e6116e5611b78565b8484611c31565b6000806116f7611856565b915091506000821161171b5760405162461bcd60e51b815260040161095d90612c6a565b3360008181526002602081905260409182902042910155516000805160206132e4833981519152916117509130908590612adb565b60405180910390a16117623383612358565b5050565b61176e611b78565b6001600160a01b031661177f6114b9565b6001600160a01b0316146117a55760405162461bcd60e51b815260040161095d90612cfb565b6117b2600d8260056126c3565b506040517f3aaf767b2e63f4c5f274684ce36da44af23d293465914ee94908682af41e652790600090a150565b6117e7611b78565b6001600160a01b03166117f86114b9565b6001600160a01b03161461181e5760405162461bcd60e51b815260040161095d90612cfb565b6117b2600b826004612630565b6001600160a01b03918216600090815260036020908152604080832093909416825291909152205490565b3360009081526002602081815260408084208151606081018352815481526001820154938101939093529092015491810182905282914261189a8262015180612fff565b11156118ae576000809350935050506119b5565b6013546001600160a01b031660009081526001602052604081205461dead8083527fb34209a263f6c38fe55f099e9e70f9d67e93982480ff3234a5e0108028ad164d549092916119029161114d9081610a6a565b90506000600a54856020015142611919919061315e565b61192391906131e0565b33600090815260016020526040812054919250906119479083906111b19047612005565b905060006119588462015180612005565b905060006119668383612011565b905080156119a557600061197982610e0c565b9050600061198682611aa1565b90506119928282611ff9565b9b5099506119b598505050505050505050565b6000809950995050505050505050505b9091565b60155460165482565b600c816005811061084d57600080fd5b6119da611b78565b6001600160a01b03166119eb6114b9565b6001600160a01b031614611a115760405162461bcd60e51b815260040161095d90612cfb565b6001600160a01b038116611a375760405162461bcd60e51b815260040161095d90612b78565b600080546040516001600160a01b03808516939216917f8be0079c531659141344cd1fd0a4f28419497f9722a3daafe3b4186f6b6457e091a3600080546001600160a01b0319166001600160a01b0392909216919091179055565b6014546001600160a01b031681565b6000671bc16d674ec80000821115611ae357611adc60646111b7600c60045b6020810491909101548691601f166101000a900460ff16612005565b9050610fc5565b6714d1120d7b160000821115611b0457611adc60646111b7600c6003611ac0565b670de0b6b3a7640000821115611b2557611adc60646111b7600c6002611ac0565b6706f05b59d3b20000821115611b4657611adc60646111b7600c6001611ac0565b6703782dace9d90000821115611b6757611adc60646111b7600c6000611ac0565b506000610fc5565b600e5460ff1681565b3390565b6001600160a01b038316611ba25760405162461bcd60e51b815260040161095d90612df8565b6001600160a01b038216611bc85760405162461bcd60e51b815260040161095d90612bbe565b6001600160a01b0380841660009081526003602090815260408083209386168352929052819020829055517f8c5be1e5ebec7d5bd14f71427d1e84f3dd0314c0f7b2291e5b200ac8c7c3b92590611c2490859085908590612adb565b60405180910390a1505050565b6001600160a01b038316611c575760405162461bcd60e51b815260040161095d90612d67565b6001600160a01b03831660009081526001602052604090205481811015611c905760405162461bcd60e51b815260040161095d90612c00565b6001600160a01b0384166000908152600460205260408120548190819060ff16158015611cd657506001600160a01b03861660009081526004602052604090205460ff16155b8015611ce55750600e5460ff16155b15611ec757600080601360009054906101000a90046001600160a01b03166001600160a01b0316630902f1ac6040518163ffffffff1660e01b815260040160606040518083038186803b158015611d3b57600080fd5b505afa158015611d4f573d6000803e3d6000fd5b505050506040513d601f19601f82011682018060405250810190611d7391906129bb565b5091509150601360009054906101000a90046001600160a01b03166001600160a01b0316630dfe16816040518163ffffffff1660e01b815260040160206040518083038186803b158015611dc657600080fd5b505afa158015611dda573d6000803e3d6000fd5b505050506040513d601f19601f82011682018060405250810190611dfe91906127a0565b6001600160a01b0316306001600160a01b031614611e1857905b611e2c8988846001600160701b03166123ea565b9450611e3a876103e8612011565b9350611e4d6103e86111b7896063612005565b9250611e6283836001600160701b0316611112565b611e6c8584612624565b3060009081526001602052604081208054909190611e8b908490612fff565b90915550506012546001600160a01b031660009081526001602052604081208054869290611eba908490612fff565b90915550611ed192505050565b5060009150819050805b6001600160a01b038616600090815260026020526040902042600190910155611efa8486611ff9565b6001600160a01b038816600090815260016020526040902055611f238161114d84818988611ff9565b6001600160a01b03871660009081526001602052604081208054909190611f4b908490612fff565b90915550506040516000805160206132e483398151915290611f7290899089908990612adb565b60405180910390a16000805160206132e4833981519152873085604051611f9b93929190612adb565b60405180910390a16000805160206132e4833981519152873083604051611fc493929190612adb565b60405180910390a16012546040516000805160206132e4833981519152916112fd918a916001600160a01b0316908690612adb565b6000610e05828461315e565b6000610e05828461313f565b6000610e058284613017565b604080516002808252606082018352600092479284929091602083019080368337019050509050308160008151811061206657634e487b7160e01b600052603260045260246000fd5b6001600160a01b03928316602091820292909201810191909152601454604080516315ab88c960e31b81529051919093169263ad5c4648926004808301939192829003018186803b1580156120ba57600080fd5b505afa1580156120ce573d6000803e3d6000fd5b505050506040513d601f19601f820116820180604052508101906120f291906127a0565b8160018151811061211357634e487b7160e01b600052603260045260246000fd5b6001600160a01b039283166020918202929092010152601454859161213a9130911661182b565b10156121b057306000818152600360209081526040808320601480546001600160a01b039081168652919093529281902060001990819055915490517f8c5be1e5ebec7d5bd14f71427d1e84f3dd0314c0f7b2291e5b200ac8c7c3b925946121a794909392169190612adb565b60405180910390a15b6014546001600160a01b031663791ac9476121cc866002612011565b60008430426040518663ffffffff1660e01b81526004016121f1959493929190612f06565b600060405180830381600087803b15801561220b57600080fd5b505af192505050801561221c575060015b612260577facabbd54c23d6a523d8111565d14ae729de6bbe5ea4707cb6162c24d4fae03f460405161224d90612dac565b60405180910390a1600092505050610fc5565b600061226c4784611ff9565b6014549091506001600160a01b031663f305d719823061228d896002612011565b6011546040516001600160e01b031960e087901b1681526122c393929160009182916001600160a01b0316904290600401612aff565b6060604051808303818588803b1580156122dc57600080fd5b505af11580156122f0573d6000803e3d6000fd5b50505050506040513d601f19601f820116820180604052508101906123159190612a7e565b5050507facabbd54c23d6a523d8111565d14ae729de6bbe5ea4707cb6162c24d4fae03f460405161234590612c46565b60405180910390a1849350505050610fc5565b604080516000808252602082019092526001600160a01b0384169083906040516123829190612aab565b60006040518083038185875af1925050503d80600081146123bf576040519150601f19603f3d011682016040523d82523d6000602084013e6123c4565b606091505b50509050806123e55760405162461bcd60e51b815260040161095d90612e3c565b505050565b6040805160a0810191829052600091829190600d906005908285855b82829054906101000a900461ffff1661ffff168152602001906002019060208260010104928301926001038202915080841161240657505050506001600160a01b03881660009081526002602081815260408084208151606081018352815481526001820154938101849052930154908301529495509390925061248e915062015180612fff565b4211156124af576001600160a01b0387166000908152600260205260408120555b6001600160a01b0387166000908152600260205260408120546124d3908890612624565b90506124f26127106111b78660045b6020020151899061ffff16612005565b8111156125115760405162461bcd60e51b815260040161095d90612d30565b6125226127106111b78660036124e2565b8111156125595761255260646111b7600b60035b6020810491909101548b91601f166101000a900460ff16612005565b91506125d9565b61256a6127106111b78660026124e2565b8111156125825761255260646111b7600b6002612536565b6125936127106111b78660016124e2565b8111156125ab5761255260646111b7600b6001612536565b6125bc6127106111b78660006124e2565b8111156125d45761255260646111b7600b6000612536565b600091505b82516125e59088612624565b6001600160a01b03891660009081526002602052604081209190915560158054849290612613908490612fff565b909155509198975050505050505050565b6000610e058284612fff565b6001830191839082156126b35791602002820160005b8382111561268457835183826101000a81548160ff021916908360ff1602179055509260200192600101602081600001049283019260010302612646565b80156126b15782816101000a81549060ff0219169055600101602081600001049283019260010302612684565b505b506126bf929150612747565b5090565b6001830191839082156126b35791602002820160005b8382111561271957835183826101000a81548161ffff021916908361ffff16021790555092602001926002016020816001010492830192600103026126d9565b80156126b15782816101000a81549061ffff0219169055600201602081600101049283019260010302612719565b5b808211156126bf5760008155600101612748565b80516001600160701b0381168114610fc557600080fd5b803560ff81168114610fc557600080fd5b600060208284031215612795578081fd5b8135610e05816132cb565b6000602082840312156127b1578081fd5b8151610e05816132cb565b600080604083850312156127ce578081fd5b82356127d9816132cb565b915060208301356127e9816132cb565b809150509250929050565b600080600060608486031215612808578081fd5b8335612813816132cb565b92506020840135612823816132cb565b929592945050506040919091013590565b60008060408385031215612846578182fd5b8235612851816132cb565b946020939093013593505050565b600060a08284031215612870578081fd5b82601f83011261287e578081fd5b61288860a0612fc7565b80838560a086011115612899578384fd5b835b60058110156128ca57813561ffff811681146128b5578586fd5b8452602093840193919091019060010161289b565b509095945050505050565b6000608082840312156128e6578081fd5b82601f8301126128f4578081fd5b6128fe6080612fc7565b80838560808601111561290f578384fd5b835b60048110156128ca5761292382612773565b84526020938401939190910190600101612911565b600060a08284031215612949578081fd5b82601f830112612957578081fd5b61296160a0612fc7565b80838560a086011115612972578384fd5b835b60058110156128ca5761298682612773565b84526020938401939190910190600101612974565b6000602082840312156129ac578081fd5b81358015158114610e05578182fd5b6000806000606084860312156129cf578283fd5b6129d88461275c565b92506129e66020850161275c565b9150604084015163ffffffff811681146129fe578182fd5b809150509250925092565b600060208284031215612a1a578081fd5b5035919050565b600060208284031215612a32578081fd5b5051919050565b60008060408385031215612a4b578182fd5b8235915060208301356127e9816132cb565b60008060408385031215612a6f578182fd5b50508035926020909101359150565b600080600060608486031215612a92578081fd5b8351925060208401519150604084015190509250925092565b60008251612abd818460208701613175565b9190910192915050565b6001600160a01b0391909116815260200190565b6001600160a01b039384168152919092166020820152604081019190915260600190565b6001600160a01b039687168152602081019590955260408501939093526060840191909152909216608082015260a081019190915260c00190565b901515815260200190565b6000602082528251806020840152612b64816040850160208701613175565b601f01601f19169190910160400192915050565b60208082526026908201527f4f776e61626c653a206e6577206f776e657220697320746865207a65726f206160408201526564647265737360d01b606082015260800190565b60208082526022908201527f45524332303a20617070726f766520746f20746865207a65726f206164647265604082015261737360f01b606082015260800190565b60208082526026908201527f45524332303a207472616e7366657220616d6f756e7420657863656564732062604082015265616c616e636560d01b606082015260800190565b6020808252600a90820152696164644c69713a206f6b60b01b604082015260600190565b6020808252600890820152670436c61696d3a20360c41b604082015260600190565b6020808252600d908201526c185b1c9958591e481d185e1959609a1b604082015260600190565b60208082526028908201527f45524332303a207472616e7366657220616d6f756e74206578636565647320616040820152676c6c6f77616e636560c01b606082015260800190565b6020808252818101527f4f776e61626c653a2063616c6c6572206973206e6f7420746865206f776e6572604082015260600190565b6020808252601d908201527f53656c6c696e67207461783a2061626f7665206d617820616d6f756e74000000604082015260600190565b60208082526025908201527f45524332303a207472616e736665722066726f6d20746865207a65726f206164604082015264647265737360d81b606082015260800190565b6020808252600c908201526b185919131a5c4e8819985a5b60a21b604082015260600190565b6020808252600c908201526b53776170207375636365737360a01b604082015260600190565b60208082526024908201527f45524332303a20617070726f76652066726f6d20746865207a65726f206164646040820152637265737360e01b606082015260800190565b60208082526023908201527f5472616e7366657248656c7065723a204554485f5452414e534645525f46414960408201526213115160ea1b606082015260800190565b60208082526010908201526f185b1c9958591e48195e18db1d59195960821b604082015260600190565b60208082526025908201527f45524332303a2064656372656173656420616c6c6f77616e63652062656c6f77604082015264207a65726f60d81b606082015260800190565b61ffff91909116815260200190565b90815260200190565b600060a082018783526020878185015260a0604085015281875180845260c0860191508289019350845b81811015612f555784516001600160a01b031683529383019391830191600101612f30565b50506001600160a01b03969096166060850152505050608001529392505050565b9283526001600160701b03918216602084015216604082015260600190565b918252602082015260400190565b9283526020830191909152604082015260600190565b60ff91909116815260200190565b60405181810167ffffffffffffffff81118282101715612ff757634e487b7160e01b600052604160045260246000fd5b604052919050565b60008219821115613012576130126131f4565b500190565b6000826130265761302661320a565b500490565b80825b600180861161303d5750613068565b81870482111561304f5761304f6131f4565b8086161561305c57918102915b9490941c93800261302e565b94509492505050565b6000610e05600019848460008261308a57506001610e05565b8161309757506000610e05565b81600181146130ad57600281146130b7576130e4565b6001915050610e05565b60ff8411156130c8576130c86131f4565b6001841b9150848211156130de576130de6131f4565b50610e05565b5060208310610133831016604e8410600b8410161715613117575081810a83811115613112576131126131f4565b610e05565b613124848484600161302b565b808604821115613136576131366131f4565b02949350505050565b6000816000190483118215151615613159576131596131f4565b500290565b600082821015613170576131706131f4565b500390565b60005b83811015613190578181015183820152602001613178565b8381111561319f576000848401525b50505050565b6002810460018216806131b957607f821691505b602082108114156131da57634e487b7160e01b600052602260045260246000fd5b50919050565b6000826131ef576131ef61320a565b500690565b634e487b7160e01b600052601160045260246000fd5b634e487b7160e01b600052601260045260246000fd5b60e01c90565b600060443d1015613236576108f7565b600481823e6308c379a061324a8251613220565b14613254576108f7565b6040513d600319016004823e80513d67ffffffffffffffff816024840111818411171561328457505050506108f7565b8284019250825191508082111561329e57505050506108f7565b503d830160208284010111156132b6575050506108f7565b601f01601f1916810160200160405291505090565b6001600160a01b03811681146132e057600080fd5b5056feddf252ad1be2c89b69c2b068fc378daa952ba7f163c4a11628f55a4df523b3efa26469706673582212203d100a3c50cd042648c35e5da9828d14df87279ec18c89c174374823ed49d2d064736f6c63430008000033",
  "immutableReferences": {},
  "source": "// SPDX-License-Identifier: GPL\n\npragma solidity 0.8.0;\n\nimport \"@openzeppelin/contracts/utils/math/SafeMath.sol\";\nimport \"@openzeppelin/contracts/access/Ownable.sol\";\nimport \"@uniswap/v2-periphery/contracts/interfaces/IUniswapV2Router02.sol\";\nimport \"@uniswap/v2-core/contracts/interfaces/IUniswapV2Factory.sol\";\nimport \"@uniswap/v2-core/contracts/interfaces/IUniswapV2Pair.sol\";\n\n/**\n * @dev iBNB\n *\n *\n *\n *\n */\n\ncontract iBNB is Ownable {\n    using SafeMath for uint256;\n\n\n//TODO BEFORE DEPLOYMENT: Reduce visibility as needed --\n//FUNCTION ARE ALL PUBLIC FOR DEBUGGING PURPOSES\n\n\n    struct past_tx {\n      uint256 cum_transfer; //this is not what you think, you perv\n      uint256 last_timestamp;\n      uint256 last_claim;\n    }\n\n    struct prop_balances {\n      uint256 reward_pool;\n      uint256 liquidity_pool;\n    }\n\n    mapping (address => uint256) private _balances;\n    mapping (address => past_tx) public _last_tx;\n    mapping (address => mapping (address => uint256)) private _allowances;\n    mapping (address => bool) public excluded;\n\n    uint256 private _decimals = 9;\n    uint256 private _totalSupply = 10**15 * 10**_decimals;\n    uint256 public swap_for_liquidity_threshold = 10**13 * 10**_decimals; //1%\n    uint256 public swap_for_reward_threshold = 10**13 * 10**_decimals;\n    uint256 public pcs_pool_to_circ_ratio = 10;\n    uint256 public reward_rate = 86400;\n\n//TODO gas optim:\n\n    uint8[4] public selling_taxes_rates = [2, 4, 6, 8];\n    uint8[5] public claiming_taxes_rates = [2, 4, 6, 8, 15];\n    uint16[5] public selling_taxes_tranches = [125, 250, 500, 750, 1000]; // % and div by 10**4 0.0125% -0.025% -(...)\n\n    bool public circuit_breaker;\n\n    string private _name = \"iBNB\";\n    string private _symbol = \"iBNB\";\n\n    address public LP_recipient;\n    address public devWallet;\n\n    IUniswapV2Pair public pair;\n    IUniswapV2Router02 public router;\n\n    prop_balances public balancer_balances;\n\n    event Approval(address, address, uint256);\n    event Transfer(address, address, uint256);\n    event TaxRatesChanged();\n    event SwapForBNB(string);\n    event BalancerRatio(uint256,uint256);\n    event RewardTaxChanged();\n    event AddLiq(string);\n    event balancerReset(uint256, uint256);\n\n    constructor (address _router) {\n\n         _balances[msg.sender] = _totalSupply;\n\n         //create pair to get the pair address\n         router = IUniswapV2Router02(_router);\n         IUniswapV2Factory factory = IUniswapV2Factory(router.factory());\n         pair = IUniswapV2Pair(factory.createPair(address(this), router.WETH()));\n\n         LP_recipient = address(0);\n         devWallet = address(0);\n\n         excluded[msg.sender] = true;\n         excluded[address(this)] = true;\n\n         circuit_breaker == false;\n    }\n\n    function decimals() public view returns (uint256) {\n         return _decimals;\n    }\n    function name() public view returns (string memory) {\n        return _name;\n    }\n    function symbol() public view returns (string memory) {\n        return _symbol;\n    }\n    function totalSupply() public view virtual  returns (uint256) {\n        return _totalSupply;\n    }\n    function balanceOf(address account) public view virtual  returns (uint256) {\n        return _balances[account];\n    }\n    function transfer(address recipient, uint256 amount) public virtual  returns (bool) {\n        _transfer(_msgSender(), recipient, amount);\n        return true;\n    }\n    function allowance(address owner, address spender) public view virtual  returns (uint256) {\n        return _allowances[owner][spender];\n    }\n    function approve(address spender, uint256 amount) public virtual  returns (bool) {\n        _approve(_msgSender(), spender, amount);\n        return true;\n    }\n    function transferFrom(address sender, address recipient, uint256 amount) public virtual  returns (bool) {\n        _transfer(sender, recipient, amount);\n\n        uint256 currentAllowance = _allowances[sender][_msgSender()];\n        require(currentAllowance >= amount, \"ERC20: transfer amount exceeds allowance\");\n        _approve(sender, _msgSender(), currentAllowance - amount);\n\n        return true;\n    }\n    function increaseAllowance(address spender, uint256 addedValue) public virtual returns (bool) {\n        _approve(_msgSender(), spender, _allowances[_msgSender()][spender] + addedValue);\n        return true;\n    }\n    function decreaseAllowance(address spender, uint256 subtractedValue) public virtual returns (bool) {\n        uint256 currentAllowance = _allowances[_msgSender()][spender];\n        require(currentAllowance >= subtractedValue, \"ERC20: decreased allowance below zero\");\n        _approve(_msgSender(), spender, currentAllowance - subtractedValue);\n\n        return true;\n    }\n    function _approve(address owner, address spender, uint256 amount) internal virtual {\n        require(owner != address(0), \"ERC20: approve from the zero address\");\n        require(spender != address(0), \"ERC20: approve to the zero address\");\n\n        _allowances[owner][spender] = amount;\n        emit Approval(owner, spender, amount);\n    }\n\n\n    function _transfer(address sender, address recipient, uint256 amount) internal virtual {\n        require(sender != address(0), \"ERC20: transfer from the zero address\");\n\n        uint256 senderBalance = _balances[sender]; // gas SLOAD: 200 vs MLOAD: 3 ...\n        require(senderBalance >= amount, \"ERC20: transfer amount exceeds balance\");\n\n        uint256 sell_tax;\n        uint256 dev_tax;\n        uint256 balancer_amount;\n\n        if(excluded[sender] == false && excluded[recipient] == false && circuit_breaker == false) {\n\n        // ----  Sell tax  ----\n          (uint112 _reserve0, uint112 _reserve1,) = pair.getReserves(); // returns reserve0, reserve1, timestamp last tx\n          if(address(this) != pair.token0()) { // 0 := iBNB\n            (_reserve0, _reserve1) = (_reserve1, _reserve0);\n          }\n          sell_tax = sellingTax(sender, amount, _reserve0); //will update the balancer ledger too\n\n        // ------ dev tax 0.1% -------\n          dev_tax = amount.div(1000);\n\n        // ------ balancer tax 9.9% ------\n          balancer_amount = amount.mul(99).div(1000);\n          balancer(balancer_amount, _reserve0);\n\n          //@dev every extra token are collected into address(this), it's the balancer job to then split them\n          //between pool and reward, using the dedicated struct\n          _balances[address(this)] += sell_tax.add(balancer_amount);\n          _balances[devWallet] += dev_tax;\n        }\n        else {\n          sell_tax = 0;\n          dev_tax = 0;\n          balancer_amount = 0;\n        }\n\n        //reward reinit\n        _last_tx[recipient].last_timestamp = block.timestamp;\n\n        _balances[sender] = senderBalance.sub(amount);\n        _balances[recipient] += amount.sub(sell_tax).sub(dev_tax).sub(balancer_amount);\n\n        emit Transfer(sender, recipient, amount);\n        emit Transfer(sender, address(this), sell_tax);\n        emit Transfer(sender, address(this), balancer_amount);\n        emit Transfer(sender, devWallet, dev_tax);\n    }\n\n    //@dev take a selling tax if transfer from a non-excluded address or from the pair contract exceed\n    //the thresholds defined in selling_taxes_thresholds on 24h floating window\n    function sellingTax(address sender, uint256 amount, uint256 pool_balance) private returns(uint256) {\n        uint16[5] memory _tax_tranches = selling_taxes_tranches;\n        past_tx memory sender_last_tx = _last_tx[sender];\n\n        uint256 sell_tax;\n\n        //>1 day since last tx\n        if(block.timestamp > sender_last_tx.last_timestamp + 1 days) {\n          _last_tx[sender].cum_transfer = 0; // a.k.a The Virgin\n        }\n\n        uint256 new_cum_sum = amount.add(_last_tx[sender].cum_transfer);\n\n        if(new_cum_sum > pool_balance.mul(_tax_tranches[4]).div(10**4)) {\n          revert(\"Selling tax: above max amount\");\n        }\n        else if(new_cum_sum > pool_balance.mul(_tax_tranches[3]).div(10**4)) {\n          sell_tax = amount.mul(selling_taxes_rates[3]).div(100);\n        }\n        else if(new_cum_sum > pool_balance.mul(_tax_tranches[2]).div(10**4)) {\n          sell_tax = amount.mul(selling_taxes_rates[2]).div(100);\n        }\n        else if(new_cum_sum > pool_balance.mul(_tax_tranches[1]).div(10**4)) {\n          sell_tax = amount.mul(selling_taxes_rates[1]).div(100);\n        }\n        else if(new_cum_sum > pool_balance.mul(_tax_tranches[0]).div(10**4)) {\n          sell_tax = amount.mul(selling_taxes_rates[0]).div(100);\n        }\n        else { sell_tax = 0; }\n\n        _last_tx[sender].cum_transfer = sender_last_tx.cum_transfer.add(amount);\n\n        balancer_balances.reward_pool += sell_tax; //sell tax is for reward:)\n\n        return sell_tax;\n    }\n\n    //@dev take the 9.9% taxes as input, split it between reward and liq subpools\n    //    according to pool condition -> circ-pool/circ supply closer to one implies\n    //    priority to the reward pool\n    function balancer(uint256 amount, uint256 pool_balance) public {\n\n        address DEAD = address(0x000000000000000000000000000000000000dEaD);\n        uint256 unwght_circ_supply = totalSupply().sub(_balances[DEAD]);\n\n        uint256 circ_supply = (pool_balance < unwght_circ_supply * pcs_pool_to_circ_ratio / 100) ? unwght_circ_supply * pcs_pool_to_circ_ratio / 100 : pool_balance;\n\n        uint256 liq_ratio = (circ_supply.sub(pool_balance)).mul(10**9).div(circ_supply);\n        uint256 rew_ratio = (circ_supply.sub((circ_supply.sub(pool_balance)))).mul(10**9).div(circ_supply);\n\n        balancer_balances.liquidity_pool += (amount.mul(circ_supply.sub(pool_balance)).mul(10**9).div(circ_supply)).div(10**9);\n        balancer_balances.reward_pool += (amount.mul(circ_supply.sub((circ_supply.sub(pool_balance)))).mul(10**9).div(circ_supply)).div(10**9);\n\n        if(balancer_balances.liquidity_pool >= swap_for_liquidity_threshold) {\n            uint256 token_out = addLiquidity(balancer_balances.liquidity_pool);\n            balancer_balances.liquidity_pool -= token_out; //not balanceOf, in case addLiq revert\n        }\n\n        if(balancer_balances.reward_pool >= swap_for_reward_threshold) {\n            uint256 token_out = swapForBNB(balancer_balances.reward_pool, address(this));\n            balancer_balances.reward_pool -= token_out;\n        }\n\n        emit BalancerRatio(liq_ratio, rew_ratio);\n    }\n\n    //@dev when triggered, will swap and provide liquidity\n    //    BNBfromSwap being the difference between and after the swap, slippage\n    //    will result in extra-BNB for the reward pool (free money for the guys:)\n    function addLiquidity(uint256 token_amount) internal returns (uint256) {\n      uint256 BNBfromReward = address(this).balance;\n\n      address[] memory route = new address[](2);\n      route[0] = address(this);\n      route[1] = router.WETH();\n\n      if(allowance(address(this), address(router)) < token_amount) {\n        _allowances[address(this)][address(router)] = ~uint256(0);\n        emit Approval(address(this), address(router), ~uint256(0));\n      }\n\n      try router.swapExactTokensForETHSupportingFeeOnTransferTokens(token_amount.div(2), 0, route, address(this), block.timestamp) {\n        uint256 BNBfromSwap = address(this).balance.sub(BNBfromReward);\n        router.addLiquidityETH{value: BNBfromSwap}(address(this), token_amount.div(2), 0, 0, LP_recipient, block.timestamp); //will not be catched\n        emit AddLiq(\"addLiq: ok\");\n        return token_amount;\n      }\n      catch {\n        emit AddLiq(\"addLiq: fail\");\n        return 0;\n      }\n    }\n\n    //@dev individual reward is growing linearly througout 24h, and is the portion of the reward pool\n    //     weighted by the \"free\" (ie non-pool non-death) supply owned.\n    //     reward = (balance/free supply) * [(now - lastClaim) / 1d] * BNB_balance\n    //     If an extra-buy occurs in the last 24h, reset 24h timer (in sell tax)\n    //     (frontend will automatize claim then buy)\n    function computeReward() public view returns(uint256, uint256) {\n\n      past_tx memory sender_last_tx = _last_tx[msg.sender];\n      uint256 last_claim = sender_last_tx.last_claim;\n\n      if(last_claim + 1 days > block.timestamp) { // 1 claim every 24h max\n        return (0, 0);\n      }\n\n      address DEAD = address(0x000000000000000000000000000000000000dEaD);\n\n      uint256 claimable_supply = totalSupply().sub(_balances[DEAD]).sub(_balances[address(pair)]);\n      uint256 time_factor = (block.timestamp - sender_last_tx.last_timestamp) % reward_rate;\n\n      uint256 _nom = _balances[msg.sender].mul(address(this).balance).mul(time_factor);\n      uint256 _denom = claimable_supply.mul(1 days);\n\n      uint256 gross_reward_in_tokens = _nom.div(_denom);\n\n      //@dev getQuote reverts on 0\n      if(gross_reward_in_tokens > 0) {\n        uint256 gross_reward_in_BNB = getQuoteInBNB(gross_reward_in_tokens);\n        uint256 tax_to_pay = taxOnClaim(gross_reward_in_BNB);\n        return (gross_reward_in_BNB.sub(tax_to_pay), tax_to_pay);\n      }\n\n      return (0,0); //too small (that's what she said)\n    }\n\n    //@dev Compute the tax on claimed reward - labelled in BNB (as per team agreement)\n    function taxOnClaim(uint256 amount) public view returns(uint256 tax){\n\n      if(amount > 2 ether) { return amount.mul(claiming_taxes_rates[4]).div(100); } //GIVE US FINNEY'S BACK\n      else if(amount > 1.50 ether) { return amount.mul(claiming_taxes_rates[3]).div(100); }\n      else if(amount > 1 ether) { return amount.mul(claiming_taxes_rates[2]).div(100); }\n      else if(amount > 0.5 ether) { return amount.mul(claiming_taxes_rates[1]).div(100); }\n      else if(amount > 0.25 ether) { return amount.mul(claiming_taxes_rates[0]).div(100); }\n      else { return 0; }\n\n    }\n\n    //@dev frontend integration\n    function endOfPeriod() public view returns (uint256) {\n      return _last_tx[msg.sender].last_claim + 1 days;\n    }\n\n    //@dev computeReward check if last claim is less than 1d ago\n    function claimReward() public {\n      (uint256 claimable, uint256 tax) = computeReward();\n      require(claimable > 0, \"Claim: 0\");\n      _last_tx[msg.sender].last_claim = block.timestamp;\n      emit Transfer(msg.sender, address(this), tax);\n      safeTransferETH(msg.sender, claimable);\n    }\n\n    function getQuoteInBNB(uint256 nb_token) public view returns (uint256) {\n      (uint112 _reserve0, uint112 _reserve1,) = pair.getReserves(); // returns reserve0, reserve1, timestamp last tx\n      if(address(this) != pair.token0()) { // 0 <- iBNB\n        (_reserve0, _reserve1) = (_reserve1, _reserve0);\n      }\n      return router.getAmountOut(nb_token, _reserve0, _reserve1);\n    }\n\n    function swapForBNB(uint256 token_amount, address receiver) public returns (uint256) {\n      address[] memory route = new address[](2);\n      route[0] = address(this);\n      route[1] = router.WETH();\n\n      if(allowance(address(this), address(router)) < token_amount) {\n        _allowances[address(this)][address(router)] = ~uint256(0);\n        emit Approval(address(this), address(router), ~uint256(0));\n      }\n\n      try router.swapExactTokensForETHSupportingFeeOnTransferTokens(token_amount, 0, route, receiver, block.timestamp) {\n        emit SwapForBNB(\"Swap success\");\n        return token_amount;\n      }\n      catch Error(string memory _err) {\n        emit SwapForBNB(_err);\n        return 0;\n      }\n    }\n\n    //@dev taken from uniswapV2 TransferHelper lib\n    function safeTransferETH(address to, uint value) internal {\n        (bool success,) = to.call{value:value}(new bytes(0));\n        require(success, 'TransferHelper: ETH_TRANSFER_FAILED');\n    }\n\n    function excludeFromTaxes(address adr) public onlyOwner {\n      require(!excluded[adr], \"already excluded\");\n      excluded[adr] = true;\n    }\n\n    function includeInTaxes(address adr) public onlyOwner {\n      require(excluded[adr], \"already taxed\");\n      excluded[adr] = false;\n    }\n\n    function resetBalancer() public onlyOwner {\n      uint256 _contract_balance = _balances[address(this)];\n      balancer_balances.reward_pool = _contract_balance.div(2);\n      balancer_balances.liquidity_pool = _contract_balance.div(2);\n      emit balancerReset(balancer_balances.reward_pool, balancer_balances.liquidity_pool);\n    }\n\n    //@dev will bypass all the taxes and act as erc20.\n    //     pools & balancer balances will remain untouched\n    function setCircuitBreaker(bool status) public onlyOwner {\n      circuit_breaker = status;\n    }\n\n    function setLPContract(address _LP_recipient) public onlyOwner {\n      LP_recipient = _LP_recipient;\n    }\n\n    function setDevWallet(address _devWallet) public onlyOwner {\n      devWallet = _devWallet;\n    }\n\n    function setSwapFor_Liq_Threshold(uint256 threshold_in_token) public onlyOwner {\n      swap_for_liquidity_threshold = threshold_in_token * 10**_decimals;\n    }\n\n    function setSwapFor_Reward_Threshold(uint256 threshold_in_token) public onlyOwner {\n      swap_for_reward_threshold = threshold_in_token * 10**_decimals;\n    }\n\n    function setSellingTaxesTranches(uint16[5] memory new_tranches) public onlyOwner {\n      selling_taxes_tranches = new_tranches;\n      emit TaxRatesChanged();\n    }\n\n    function setSellingTaxesrates(uint8[4] memory new_amounts) public onlyOwner {\n      selling_taxes_rates = new_amounts;\n      emit TaxRatesChanged();\n    }\n\n    function setRewardTaxesTranches(uint8[5] memory new_tranches) public onlyOwner {\n      claiming_taxes_rates = new_tranches;\n      emit RewardTaxChanged();\n    }\n\n    function setRewardRate(uint256 new_periodicity) public onlyOwner {\n      reward_rate = new_periodicity;\n    }\n\n    //@dev fallback in order to receive BNB from swapToBNB\n    receive () external payable {}\n}\n",
  "sourcePath": "/home/drgorilla/Documents/solidity/iBNB/contracts/iBNB.sol",
  "compiler": {
    "name": "solc",
    "version": "0.8.0+commit.c7dfd78e.Emscripten.clang"
  },
  "schemaVersion": "3.4.0",
  "updatedAt": "2021-06-15T10:56:34.217Z",
  "devdoc": {
    "details": "iBNB",
    "kind": "dev",
    "methods": {
      "owner()": {
        "details": "Returns the address of the current owner."
      },
      "renounceOwnership()": {
        "details": "Leaves the contract without owner. It will not be possible to call `onlyOwner` functions anymore. Can only be called by the current owner. NOTE: Renouncing ownership will leave the contract without an owner, thereby removing any functionality that is only available to the owner."
      },
      "transferOwnership(address)": {
        "details": "Transfers ownership of the contract to a new account (`newOwner`). Can only be called by the current owner."
      }
    },
    "version": 1
  },
  "userdoc": {
    "kind": "user",
    "methods": {},
    "version": 1
  }
}