{
  "contractName": "iBNB",
  "abi": [
    {
      "inputs": [
        {
          "internalType": "address",
          "name": "_router",
          "type": "address"
        }
      ],
      "stateMutability": "nonpayable",
      "type": "constructor"
    },
    {
      "anonymous": false,
      "inputs": [
        {
          "indexed": true,
          "internalType": "address",
          "name": "owner",
          "type": "address"
        },
        {
          "indexed": true,
          "internalType": "address",
          "name": "spender",
          "type": "address"
        },
        {
          "indexed": false,
          "internalType": "uint256",
          "name": "value",
          "type": "uint256"
        }
      ],
      "name": "Approval",
      "type": "event"
    },
    {
      "anonymous": false,
      "inputs": [
        {
          "indexed": true,
          "internalType": "address",
          "name": "previousOwner",
          "type": "address"
        },
        {
          "indexed": true,
          "internalType": "address",
          "name": "newOwner",
          "type": "address"
        }
      ],
      "name": "OwnershipTransferred",
      "type": "event"
    },
    {
      "anonymous": false,
      "inputs": [
        {
          "indexed": true,
          "internalType": "address",
          "name": "from",
          "type": "address"
        },
        {
          "indexed": true,
          "internalType": "address",
          "name": "to",
          "type": "address"
        },
        {
          "indexed": false,
          "internalType": "uint256",
          "name": "value",
          "type": "uint256"
        }
      ],
      "name": "Transfer",
      "type": "event"
    },
    {
      "inputs": [
        {
          "internalType": "address",
          "name": "",
          "type": "address"
        }
      ],
      "name": "excluded_from_taxes",
      "outputs": [
        {
          "internalType": "bool",
          "name": "",
          "type": "bool"
        }
      ],
      "stateMutability": "view",
      "type": "function"
    },
    {
      "inputs": [],
      "name": "owner",
      "outputs": [
        {
          "internalType": "address",
          "name": "",
          "type": "address"
        }
      ],
      "stateMutability": "view",
      "type": "function"
    },
    {
      "inputs": [],
      "name": "renounceOwnership",
      "outputs": [],
      "stateMutability": "nonpayable",
      "type": "function"
    },
    {
      "inputs": [
        {
          "internalType": "address",
          "name": "newOwner",
          "type": "address"
        }
      ],
      "name": "transferOwnership",
      "outputs": [],
      "stateMutability": "nonpayable",
      "type": "function"
    },
    {
      "inputs": [],
      "name": "decimals",
      "outputs": [
        {
          "internalType": "uint256",
          "name": "",
          "type": "uint256"
        }
      ],
      "stateMutability": "view",
      "type": "function"
    },
    {
      "inputs": [],
      "name": "name",
      "outputs": [
        {
          "internalType": "string",
          "name": "",
          "type": "string"
        }
      ],
      "stateMutability": "view",
      "type": "function"
    },
    {
      "inputs": [],
      "name": "symbol",
      "outputs": [
        {
          "internalType": "string",
          "name": "",
          "type": "string"
        }
      ],
      "stateMutability": "view",
      "type": "function"
    },
    {
      "inputs": [],
      "name": "totalSupply",
      "outputs": [
        {
          "internalType": "uint256",
          "name": "",
          "type": "uint256"
        }
      ],
      "stateMutability": "view",
      "type": "function"
    },
    {
      "inputs": [
        {
          "internalType": "address",
          "name": "account",
          "type": "address"
        }
      ],
      "name": "balanceOf",
      "outputs": [
        {
          "internalType": "uint256",
          "name": "",
          "type": "uint256"
        }
      ],
      "stateMutability": "view",
      "type": "function"
    },
    {
      "inputs": [
        {
          "internalType": "address",
          "name": "recipient",
          "type": "address"
        },
        {
          "internalType": "uint256",
          "name": "amount",
          "type": "uint256"
        }
      ],
      "name": "transfer",
      "outputs": [
        {
          "internalType": "bool",
          "name": "",
          "type": "bool"
        }
      ],
      "stateMutability": "nonpayable",
      "type": "function"
    },
    {
      "inputs": [
        {
          "internalType": "address",
          "name": "owner",
          "type": "address"
        },
        {
          "internalType": "address",
          "name": "spender",
          "type": "address"
        }
      ],
      "name": "allowance",
      "outputs": [
        {
          "internalType": "uint256",
          "name": "",
          "type": "uint256"
        }
      ],
      "stateMutability": "view",
      "type": "function"
    },
    {
      "inputs": [
        {
          "internalType": "address",
          "name": "spender",
          "type": "address"
        },
        {
          "internalType": "uint256",
          "name": "amount",
          "type": "uint256"
        }
      ],
      "name": "approve",
      "outputs": [
        {
          "internalType": "bool",
          "name": "",
          "type": "bool"
        }
      ],
      "stateMutability": "nonpayable",
      "type": "function"
    },
    {
      "inputs": [
        {
          "internalType": "address",
          "name": "sender",
          "type": "address"
        },
        {
          "internalType": "address",
          "name": "recipient",
          "type": "address"
        },
        {
          "internalType": "uint256",
          "name": "amount",
          "type": "uint256"
        }
      ],
      "name": "transferFrom",
      "outputs": [
        {
          "internalType": "bool",
          "name": "",
          "type": "bool"
        }
      ],
      "stateMutability": "nonpayable",
      "type": "function"
    },
    {
      "inputs": [
        {
          "internalType": "address",
          "name": "spender",
          "type": "address"
        },
        {
          "internalType": "uint256",
          "name": "addedValue",
          "type": "uint256"
        }
      ],
      "name": "increaseAllowance",
      "outputs": [
        {
          "internalType": "bool",
          "name": "",
          "type": "bool"
        }
      ],
      "stateMutability": "nonpayable",
      "type": "function"
    },
    {
      "inputs": [
        {
          "internalType": "address",
          "name": "spender",
          "type": "address"
        },
        {
          "internalType": "uint256",
          "name": "subtractedValue",
          "type": "uint256"
        }
      ],
      "name": "decreaseAllowance",
      "outputs": [
        {
          "internalType": "bool",
          "name": "",
          "type": "bool"
        }
      ],
      "stateMutability": "nonpayable",
      "type": "function"
    }
  ],
  "bytecode": "0x6080604052600960058190556200001890600a62000437565b6200002b9066038d7ea4c680006200051f565b6006556040805180820190915260048082526334a1272160e11b60209092019182526200005b91600791620002fa565b506040805180820190915260048082526334a1272160e11b60209092019182526200008991600891620002fa565b503480156200009757600080fd5b506040516200149738038062001497833981016040819052620000ba91620003a0565b6000620000c6620002f6565b600080546001600160a01b0319166001600160a01b0383169081178255604051929350917f8be0079c531659141344cd1fd0a4f28419497f9722a3daafe3b4186f6b6457e0908290a35060065433600090815260016020908152604080832093909355600a80546001600160a01b0319166001600160a01b038681169190911791829055845163c45a015560e01b81529451939491169263c45a015592600480840193919291829003018186803b1580156200018157600080fd5b505afa15801562000196573d6000803e3d6000fd5b505050506040513d601f19601f82011682018060405250810190620001bc9190620003a0565b9050806001600160a01b031663c9c6539630600a60009054906101000a90046001600160a01b03166001600160a01b031663ad5c46486040518163ffffffff1660e01b815260040160206040518083038186803b1580156200021d57600080fd5b505afa15801562000232573d6000803e3d6000fd5b505050506040513d601f19601f82011682018060405250810190620002589190620003a0565b6040518363ffffffff1660e01b815260040162000277929190620003d0565b602060405180830381600087803b1580156200029257600080fd5b505af1158015620002a7573d6000803e3d6000fd5b505050506040513d601f19601f82011682018060405250810190620002cd9190620003a0565b600980546001600160a01b0319166001600160a01b039290921691909117905550620005949050565b3390565b828054620003089062000541565b90600052602060002090601f0160209004810192826200032c576000855562000377565b82601f106200034757805160ff191683800117855562000377565b8280016001018555821562000377579182015b82811115620003775782518255916020019190600101906200035a565b506200038592915062000389565b5090565b5b808211156200038557600081556001016200038a565b600060208284031215620003b2578081fd5b81516001600160a01b0381168114620003c9578182fd5b9392505050565b6001600160a01b0392831681529116602082015260400190565b80825b6001808611620003fe57506200042e565b8187048211156200041357620004136200057e565b808616156200042157918102915b9490941c938002620003ed565b94509492505050565b6000620003c960001984846000826200045357506001620003c9565b816200046257506000620003c9565b81600181146200047b57600281146200048657620004ba565b6001915050620003c9565b60ff8411156200049a576200049a6200057e565b6001841b915084821115620004b357620004b36200057e565b50620003c9565b5060208310610133831016604e8410600b8410161715620004f2575081810a83811115620004ec57620004ec6200057e565b620003c9565b620005018484846001620003ea565b8086048211156200051657620005166200057e565b02949350505050565b60008160001904831182151516156200053c576200053c6200057e565b500290565b6002810460018216806200055657607f821691505b602082108114156200057857634e487b7160e01b600052602260045260246000fd5b50919050565b634e487b7160e01b600052601160045260246000fd5b610ef380620005a46000396000f3fe608060405234801561001057600080fd5b50600436106100f55760003560e01c8063715018a611610097578063a457c2d711610066578063a457c2d7146101c8578063a9059cbb146101db578063dd62ed3e146101ee578063f2fde38b14610201576100f5565b8063715018a61461018e5780638da5cb5b1461019857806393b96a61146101ad57806395d89b41146101c0576100f5565b806323b872dd116100d357806323b872dd1461014d578063313ce56714610160578063395093511461016857806370a082311461017b576100f5565b806306fdde03146100fa578063095ea7b31461011857806318160ddd14610138575b600080fd5b610102610214565b60405161010f9190610b61565b60405180910390f35b61012b610126366004610ab1565b6102a6565b60405161010f9190610b56565b6101406102c3565b60405161010f9190610dfd565b61012b61015b366004610a71565b6102c9565b610140610369565b61012b610176366004610ab1565b61036f565b6101406101893660046109fa565b6103be565b6101966103dd565b005b6101a0610466565b60405161010f9190610b42565b61012b6101bb3660046109fa565b610475565b61010261048a565b61012b6101d6366004610ab1565b610499565b61012b6101e9366004610ab1565b610514565b6101406101fc366004610a39565b610528565b61019661020f3660046109fa565b610553565b60606007805461022390610e54565b80601f016020809104026020016040519081016040528092919081815260200182805461024f90610e54565b801561029c5780601f106102715761010080835404028352916020019161029c565b820191906000526020600020905b81548152906001019060200180831161027f57829003601f168201915b5050505050905090565b60006102ba6102b3610613565b8484610617565b50600192915050565b60065490565b60006102d68484846106cb565b6001600160a01b0384166000908152600360205260408120816102f7610613565b6001600160a01b03166001600160a01b03168152602001908152602001600020549050828110156103435760405162461bcd60e51b815260040161033a90610cb2565b60405180910390fd5b61035e8561034f610613565b6103598685610e3d565b610617565b506001949350505050565b60055490565b60006102ba61037c610613565b84846003600061038a610613565b6001600160a01b03908116825260208083019390935260409182016000908120918b16815292529020546103599190610e25565b6001600160a01b0381166000908152600160205260409020545b919050565b6103e5610613565b6001600160a01b03166103f6610466565b6001600160a01b03161461041c5760405162461bcd60e51b815260040161033a90610cfa565b600080546040516001600160a01b03909116907f8be0079c531659141344cd1fd0a4f28419497f9722a3daafe3b4186f6b6457e0908390a3600080546001600160a01b0319169055565b6000546001600160a01b031690565b60046020526000908152604090205460ff1681565b60606008805461022390610e54565b600080600360006104a8610613565b6001600160a01b03908116825260208083019390935260409182016000908120918816815292529020549050828110156104f45760405162461bcd60e51b815260040161033a90610db8565b61050a6104ff610613565b856103598685610e3d565b5060019392505050565b60006102ba610521610613565b84846106cb565b6001600160a01b03918216600090815260036020908152604080832093909416825291909152205490565b61055b610613565b6001600160a01b031661056c610466565b6001600160a01b0316146105925760405162461bcd60e51b815260040161033a90610cfa565b6001600160a01b0381166105b85760405162461bcd60e51b815260040161033a90610bb4565b600080546040516001600160a01b03808516939216917f8be0079c531659141344cd1fd0a4f28419497f9722a3daafe3b4186f6b6457e091a3600080546001600160a01b0319166001600160a01b0392909216919091179055565b3390565b6001600160a01b03831661063d5760405162461bcd60e51b815260040161033a90610d74565b6001600160a01b0382166106635760405162461bcd60e51b815260040161033a90610bfa565b6001600160a01b0380841660008181526003602090815260408083209487168084529490915290819020849055517f8c5be1e5ebec7d5bd14f71427d1e84f3dd0314c0f7b2291e5b200ac8c7c3b925906106be908590610dfd565b60405180910390a3505050565b6001600160a01b0383166106f15760405162461bcd60e51b815260040161033a90610d2f565b600080600960009054906101000a90046001600160a01b03166001600160a01b0316630902f1ac6040518163ffffffff1660e01b815260040160606040518083038186803b15801561074257600080fd5b505afa158015610756573d6000803e3d6000fd5b505050506040513d601f19601f8201168201806040525081019061077a9190610adc565b5091509150600960009054906101000a90046001600160a01b03166001600160a01b0316630dfe16816040518163ffffffff1660e01b815260040160206040518083038186803b1580156107cd57600080fd5b505afa1580156107e1573d6000803e3d6000fd5b505050506040513d601f19601f820116820180604052508101906108059190610a1d565b6001600160a01b0316306001600160a01b03161461081f57905b600a54604051632b58577b60e21b81526000916001600160a01b03169063ad615dec9061085490879087908790600401610e06565b60206040518083038186803b15801561086c57600080fd5b505afa158015610880573d6000803e3d6000fd5b505050506040513d601f19601f820116820180604052508101906108a49190610b2a565b90506108b18685836109a1565b6108cd5760405162461bcd60e51b815260040161033a90610c82565b6001600160a01b038616600090815260016020526040902054848110156109065760405162461bcd60e51b815260040161033a90610c3c565b6109108582610e3d565b6001600160a01b038089166000908152600160205260408082209390935590881681529081208054879290610946908490610e25565b92505081905550856001600160a01b0316876001600160a01b03167fddf252ad1be2c89b69c2b068fc378daa952ba7f163c4a11628f55a4df523b3ef876040516109909190610dfd565b60405180910390a350505050505050565b6009546000906001600160a01b038581169116148015906109db57506001600160a01b03841660009081526004602052604090205460ff16155b509392505050565b80516001600160701b03811681146103d857600080fd5b600060208284031215610a0b578081fd5b8135610a1681610ea5565b9392505050565b600060208284031215610a2e578081fd5b8151610a1681610ea5565b60008060408385031215610a4b578081fd5b8235610a5681610ea5565b91506020830135610a6681610ea5565b809150509250929050565b600080600060608486031215610a85578081fd5b8335610a9081610ea5565b92506020840135610aa081610ea5565b929592945050506040919091013590565b60008060408385031215610ac3578182fd5b8235610ace81610ea5565b946020939093013593505050565b600080600060608486031215610af0578283fd5b610af9846109e3565b9250610b07602085016109e3565b9150604084015163ffffffff81168114610b1f578182fd5b809150509250925092565b600060208284031215610b3b578081fd5b5051919050565b6001600160a01b0391909116815260200190565b901515815260200190565b6000602080835283518082850152825b81811015610b8d57858101830151858201604001528201610b71565b81811115610b9e5783604083870101525b50601f01601f1916929092016040019392505050565b60208082526026908201527f4f776e61626c653a206e6577206f776e657220697320746865207a65726f206160408201526564647265737360d01b606082015260800190565b60208082526022908201527f45524332303a20617070726f766520746f20746865207a65726f206164647265604082015261737360f01b606082015260800190565b60208082526026908201527f45524332303a207472616e7366657220616d6f756e7420657863656564732062604082015265616c616e636560d01b606082015260800190565b6020808252601690820152751a5093908e8813585e081cd95b1b081c995858da195960521b604082015260600190565b60208082526028908201527f45524332303a207472616e7366657220616d6f756e74206578636565647320616040820152676c6c6f77616e636560c01b606082015260800190565b6020808252818101527f4f776e61626c653a2063616c6c6572206973206e6f7420746865206f776e6572604082015260600190565b60208082526025908201527f45524332303a207472616e736665722066726f6d20746865207a65726f206164604082015264647265737360d81b606082015260800190565b60208082526024908201527f45524332303a20617070726f76652066726f6d20746865207a65726f206164646040820152637265737360e01b606082015260800190565b60208082526025908201527f45524332303a2064656372656173656420616c6c6f77616e63652062656c6f77604082015264207a65726f60d81b606082015260800190565b90815260200190565b9283526001600160701b03918216602084015216604082015260600190565b60008219821115610e3857610e38610e8f565b500190565b600082821015610e4f57610e4f610e8f565b500390565b600281046001821680610e6857607f821691505b60208210811415610e8957634e487b7160e01b600052602260045260246000fd5b50919050565b634e487b7160e01b600052601160045260246000fd5b6001600160a01b0381168114610eba57600080fd5b5056fea2646970667358221220c40d21e74e28d9619755dbdf734508be63a38343150aafaf0653e68899d3848464736f6c63430008000033",
  "immutableReferences": {},
  "source": "// SPDX-License-Identifier: GPL\n\npragma solidity ^0.8.0;\n\nimport \"@openzeppelin/contracts/token/ERC20/IERC20.sol\";\nimport \"@openzeppelin/contracts/utils/math/SafeMath.sol\";\nimport \"@openzeppelin/contracts/access/Ownable.sol\";\nimport \"@uniswap/v2-periphery/contracts/interfaces/IUniswapV2Router02.sol\";\nimport \"@uniswap/v2-core/contracts/interfaces/IUniswapV2Factory.sol\";\nimport \"@uniswap/v2-core/contracts/interfaces/IUniswapV2Pair.sol\";\n\n\n\n\n\n/**\n * @dev iBNB\n *\n *\n *\n *\n */\n\ncontract iBNB is IERC20, Ownable {\n\n    mapping (address => uint256) private _balances;\n    mapping (address => uint256) private _last_tx;\n    mapping (address => mapping (address => uint256)) private _allowances;\n    mapping (address => bool) public excluded_from_taxes;\n\n    uint256 private _decimals = 9;\n    uint256 private _totalSupply = 10**15 * 10**_decimals;\n\n\n\n    string private _name = \"iBNB\";\n    string private _symbol = \"iBNB\";\n\n    IUniswapV2Pair pair;\n    IUniswapV2Router02 router;\n\n    constructor (address _router) {\n         _balances[msg.sender] = _totalSupply;\n         //create pair to get the pair address\n         router = IUniswapV2Router02(_router);\n         IUniswapV2Factory factory = IUniswapV2Factory(router.factory());\n         pair = IUniswapV2Pair(factory.createPair(address(this), router.WETH()));\n\n// TODO : retrieve token0 and 1 -> what is what (ordered by addresses in factory)\n//ie which one is address(this) and save this for uni oracle\n    }\n\n    function decimals() public view returns (uint256) {\n         return _decimals;\n    }\n    function name() public view returns (string memory) {\n        return _name;\n    }\n    function symbol() public view returns (string memory) {\n        return _symbol;\n    }\n    function totalSupply() public view virtual override returns (uint256) {\n        return _totalSupply;\n    }\n    function balanceOf(address account) public view virtual override returns (uint256) {\n        return _balances[account];\n    }\n    function transfer(address recipient, uint256 amount) public virtual override returns (bool) {\n        _transfer(_msgSender(), recipient, amount);\n        return true;\n    }\n    function allowance(address owner, address spender) public view virtual override returns (uint256) {\n        return _allowances[owner][spender];\n    }\n    function approve(address spender, uint256 amount) public virtual override returns (bool) {\n        _approve(_msgSender(), spender, amount);\n        return true;\n    }\n    function transferFrom(address sender, address recipient, uint256 amount) public virtual override returns (bool) {\n        _transfer(sender, recipient, amount);\n\n        uint256 currentAllowance = _allowances[sender][_msgSender()];\n        require(currentAllowance >= amount, \"ERC20: transfer amount exceeds allowance\");\n        _approve(sender, _msgSender(), currentAllowance - amount);\n\n        return true;\n    }\n    function increaseAllowance(address spender, uint256 addedValue) public virtual returns (bool) {\n        _approve(_msgSender(), spender, _allowances[_msgSender()][spender] + addedValue);\n        return true;\n    }\n    function decreaseAllowance(address spender, uint256 subtractedValue) public virtual returns (bool) {\n        uint256 currentAllowance = _allowances[_msgSender()][spender];\n        require(currentAllowance >= subtractedValue, \"ERC20: decreased allowance below zero\");\n        _approve(_msgSender(), spender, currentAllowance - subtractedValue);\n\n        return true;\n    }\n\n    function _transfer(address sender, address recipient, uint256 amount) internal virtual {\n        require(sender != address(0), \"ERC20: transfer from the zero address\");\n\n        (uint112 _reserve0, uint112 _reserve1,) = pair.getReserves(); // reserve0, reserve1, timestamp last tx\n        if(address(this) != pair.token0()) {\n          (_reserve0, _reserve1) = (_reserve1, _reserve0); // swap solidity-style\n        }\n        \n        //amount BNB = quote(amount token, reserve token, reserve bnb)\n        uint256 current_quote_in_BNB = router.quote(amount, _reserve0, _reserve1);\n\n\n        require(antiDump(sender, amount, current_quote_in_BNB), \"iBNB: Max sell reached\"); //dumping_check -> to(pair) & > 0.1 in 24h\n\n\n        uint256 senderBalance = _balances[sender];\n        require(senderBalance >= amount, \"ERC20: transfer amount exceeds balance\");\n        _balances[sender] = senderBalance - amount;\n        _balances[recipient] += amount;\n\n        emit Transfer(sender, recipient, amount);\n    }\n\n    //@dev prevent transaction >0.1bnb if not\n    function antiDump(address sender, uint256 amount, uint256 current_quote_in_BNB) private returns(bool proceed) {\n      if(sender != address(pair) && excluded_from_taxes[sender] == false) {\n        // volume on 24h check\n      }\n\n    }\n\n\n\n    function _approve(address owner, address spender, uint256 amount) internal virtual {\n        require(owner != address(0), \"ERC20: approve from the zero address\");\n        require(spender != address(0), \"ERC20: approve to the zero address\");\n\n        _allowances[owner][spender] = amount;\n        emit Approval(owner, spender, amount);\n    }\n\n}\n",
  "sourcePath": "/home/drgorilla/Documents/solidity/iBNB/contracts/iBNB.sol",
  "compiler": {
    "name": "solc",
    "version": "0.8.0+commit.c7dfd78e.Emscripten.clang"
  },
  "schemaVersion": "3.4.0",
  "updatedAt": "2021-06-06T00:10:53.854Z",
  "devdoc": {
    "details": "iBNB",
    "kind": "dev",
    "methods": {
      "allowance(address,address)": {
        "details": "Returns the remaining number of tokens that `spender` will be allowed to spend on behalf of `owner` through {transferFrom}. This is zero by default. This value changes when {approve} or {transferFrom} are called."
      },
      "approve(address,uint256)": {
        "details": "Sets `amount` as the allowance of `spender` over the caller's tokens. Returns a boolean value indicating whether the operation succeeded. IMPORTANT: Beware that changing an allowance with this method brings the risk that someone may use both the old and the new allowance by unfortunate transaction ordering. One possible solution to mitigate this race condition is to first reduce the spender's allowance to 0 and set the desired value afterwards: https://github.com/ethereum/EIPs/issues/20#issuecomment-263524729 Emits an {Approval} event."
      },
      "balanceOf(address)": {
        "details": "Returns the amount of tokens owned by `account`."
      },
      "owner()": {
        "details": "Returns the address of the current owner."
      },
      "renounceOwnership()": {
        "details": "Leaves the contract without owner. It will not be possible to call `onlyOwner` functions anymore. Can only be called by the current owner. NOTE: Renouncing ownership will leave the contract without an owner, thereby removing any functionality that is only available to the owner."
      },
      "totalSupply()": {
        "details": "Returns the amount of tokens in existence."
      },
      "transfer(address,uint256)": {
        "details": "Moves `amount` tokens from the caller's account to `recipient`. Returns a boolean value indicating whether the operation succeeded. Emits a {Transfer} event."
      },
      "transferFrom(address,address,uint256)": {
        "details": "Moves `amount` tokens from `sender` to `recipient` using the allowance mechanism. `amount` is then deducted from the caller's allowance. Returns a boolean value indicating whether the operation succeeded. Emits a {Transfer} event."
      },
      "transferOwnership(address)": {
        "details": "Transfers ownership of the contract to a new account (`newOwner`). Can only be called by the current owner."
      }
    },
    "version": 1
  },
  "userdoc": {
    "kind": "user",
    "methods": {},
    "version": 1
  }
}