{
  "contractName": "iBNB",
  "abi": [
    {
      "inputs": [
        {
          "internalType": "address",
          "name": "_router",
          "type": "address"
        }
      ],
      "stateMutability": "nonpayable",
      "type": "constructor"
    },
    {
      "anonymous": false,
      "inputs": [
        {
          "indexed": true,
          "internalType": "address",
          "name": "owner",
          "type": "address"
        },
        {
          "indexed": true,
          "internalType": "address",
          "name": "spender",
          "type": "address"
        },
        {
          "indexed": false,
          "internalType": "uint256",
          "name": "value",
          "type": "uint256"
        }
      ],
      "name": "Approval",
      "type": "event"
    },
    {
      "anonymous": false,
      "inputs": [
        {
          "indexed": true,
          "internalType": "address",
          "name": "previousOwner",
          "type": "address"
        },
        {
          "indexed": true,
          "internalType": "address",
          "name": "newOwner",
          "type": "address"
        }
      ],
      "name": "OwnershipTransferred",
      "type": "event"
    },
    {
      "anonymous": false,
      "inputs": [],
      "name": "TaxRatesChanged",
      "type": "event"
    },
    {
      "anonymous": false,
      "inputs": [
        {
          "indexed": true,
          "internalType": "address",
          "name": "from",
          "type": "address"
        },
        {
          "indexed": true,
          "internalType": "address",
          "name": "to",
          "type": "address"
        },
        {
          "indexed": false,
          "internalType": "uint256",
          "name": "value",
          "type": "uint256"
        }
      ],
      "name": "Transfer",
      "type": "event"
    },
    {
      "anonymous": false,
      "inputs": [
        {
          "indexed": false,
          "internalType": "string",
          "name": "",
          "type": "string"
        }
      ],
      "name": "swapForLiquidity",
      "type": "event"
    },
    {
      "inputs": [
        {
          "internalType": "address",
          "name": "",
          "type": "address"
        }
      ],
      "name": "excluded_from_taxes",
      "outputs": [
        {
          "internalType": "bool",
          "name": "",
          "type": "bool"
        }
      ],
      "stateMutability": "view",
      "type": "function"
    },
    {
      "inputs": [],
      "name": "owner",
      "outputs": [
        {
          "internalType": "address",
          "name": "",
          "type": "address"
        }
      ],
      "stateMutability": "view",
      "type": "function"
    },
    {
      "inputs": [],
      "name": "renounceOwnership",
      "outputs": [],
      "stateMutability": "nonpayable",
      "type": "function"
    },
    {
      "inputs": [
        {
          "internalType": "uint256",
          "name": "",
          "type": "uint256"
        }
      ],
      "name": "selling_taxes_rates",
      "outputs": [
        {
          "internalType": "uint8",
          "name": "",
          "type": "uint8"
        }
      ],
      "stateMutability": "view",
      "type": "function"
    },
    {
      "inputs": [
        {
          "internalType": "uint256",
          "name": "",
          "type": "uint256"
        }
      ],
      "name": "selling_taxes_tranches",
      "outputs": [
        {
          "internalType": "uint16",
          "name": "",
          "type": "uint16"
        }
      ],
      "stateMutability": "view",
      "type": "function"
    },
    {
      "inputs": [],
      "name": "swap_for_liquidity_threshold",
      "outputs": [
        {
          "internalType": "uint256",
          "name": "",
          "type": "uint256"
        }
      ],
      "stateMutability": "view",
      "type": "function"
    },
    {
      "inputs": [
        {
          "internalType": "address",
          "name": "newOwner",
          "type": "address"
        }
      ],
      "name": "transferOwnership",
      "outputs": [],
      "stateMutability": "nonpayable",
      "type": "function"
    },
    {
      "inputs": [],
      "name": "decimals",
      "outputs": [
        {
          "internalType": "uint256",
          "name": "",
          "type": "uint256"
        }
      ],
      "stateMutability": "view",
      "type": "function"
    },
    {
      "inputs": [],
      "name": "name",
      "outputs": [
        {
          "internalType": "string",
          "name": "",
          "type": "string"
        }
      ],
      "stateMutability": "view",
      "type": "function"
    },
    {
      "inputs": [],
      "name": "symbol",
      "outputs": [
        {
          "internalType": "string",
          "name": "",
          "type": "string"
        }
      ],
      "stateMutability": "view",
      "type": "function"
    },
    {
      "inputs": [],
      "name": "totalSupply",
      "outputs": [
        {
          "internalType": "uint256",
          "name": "",
          "type": "uint256"
        }
      ],
      "stateMutability": "view",
      "type": "function"
    },
    {
      "inputs": [
        {
          "internalType": "address",
          "name": "account",
          "type": "address"
        }
      ],
      "name": "balanceOf",
      "outputs": [
        {
          "internalType": "uint256",
          "name": "",
          "type": "uint256"
        }
      ],
      "stateMutability": "view",
      "type": "function"
    },
    {
      "inputs": [
        {
          "internalType": "address",
          "name": "recipient",
          "type": "address"
        },
        {
          "internalType": "uint256",
          "name": "amount",
          "type": "uint256"
        }
      ],
      "name": "transfer",
      "outputs": [
        {
          "internalType": "bool",
          "name": "",
          "type": "bool"
        }
      ],
      "stateMutability": "nonpayable",
      "type": "function"
    },
    {
      "inputs": [
        {
          "internalType": "address",
          "name": "owner",
          "type": "address"
        },
        {
          "internalType": "address",
          "name": "spender",
          "type": "address"
        }
      ],
      "name": "allowance",
      "outputs": [
        {
          "internalType": "uint256",
          "name": "",
          "type": "uint256"
        }
      ],
      "stateMutability": "view",
      "type": "function"
    },
    {
      "inputs": [
        {
          "internalType": "address",
          "name": "spender",
          "type": "address"
        },
        {
          "internalType": "uint256",
          "name": "amount",
          "type": "uint256"
        }
      ],
      "name": "approve",
      "outputs": [
        {
          "internalType": "bool",
          "name": "",
          "type": "bool"
        }
      ],
      "stateMutability": "nonpayable",
      "type": "function"
    },
    {
      "inputs": [
        {
          "internalType": "address",
          "name": "sender",
          "type": "address"
        },
        {
          "internalType": "address",
          "name": "recipient",
          "type": "address"
        },
        {
          "internalType": "uint256",
          "name": "amount",
          "type": "uint256"
        }
      ],
      "name": "transferFrom",
      "outputs": [
        {
          "internalType": "bool",
          "name": "",
          "type": "bool"
        }
      ],
      "stateMutability": "nonpayable",
      "type": "function"
    },
    {
      "inputs": [
        {
          "internalType": "address",
          "name": "spender",
          "type": "address"
        },
        {
          "internalType": "uint256",
          "name": "addedValue",
          "type": "uint256"
        }
      ],
      "name": "increaseAllowance",
      "outputs": [
        {
          "internalType": "bool",
          "name": "",
          "type": "bool"
        }
      ],
      "stateMutability": "nonpayable",
      "type": "function"
    },
    {
      "inputs": [
        {
          "internalType": "address",
          "name": "spender",
          "type": "address"
        },
        {
          "internalType": "uint256",
          "name": "subtractedValue",
          "type": "uint256"
        }
      ],
      "name": "decreaseAllowance",
      "outputs": [
        {
          "internalType": "bool",
          "name": "",
          "type": "bool"
        }
      ],
      "stateMutability": "nonpayable",
      "type": "function"
    },
    {
      "inputs": [
        {
          "internalType": "uint16[5]",
          "name": "new_tranches",
          "type": "uint16[5]"
        }
      ],
      "name": "setSellingTaxesTranches",
      "outputs": [],
      "stateMutability": "nonpayable",
      "type": "function"
    },
    {
      "inputs": [
        {
          "internalType": "uint8[4]",
          "name": "new_amounts",
          "type": "uint8[4]"
        }
      ],
      "name": "setSellingTaxesrates",
      "outputs": [],
      "stateMutability": "nonpayable",
      "type": "function"
    },
    {
      "inputs": [
        {
          "internalType": "address",
          "name": "_LP_contract",
          "type": "address"
        }
      ],
      "name": "setLPContract",
      "outputs": [],
      "stateMutability": "nonpayable",
      "type": "function"
    },
    {
      "inputs": [
        {
          "internalType": "address",
          "name": "_devWallet",
          "type": "address"
        }
      ],
      "name": "setDevWallet",
      "outputs": [],
      "stateMutability": "nonpayable",
      "type": "function"
    },
    {
      "inputs": [
        {
          "internalType": "uint256",
          "name": "threshold_in_token",
          "type": "uint256"
        }
      ],
      "name": "setSwapThreshold",
      "outputs": [],
      "stateMutability": "nonpayable",
      "type": "function"
    }
  ],
  "bytecode": "0x6080604052600960058190556200001890600a620005fe565b6200002b9066038d7ea4c68000620006e6565b6006556005546200003e90600a620005fe565b6200005090655af3107a4000620006e6565b6008556040805160a081018252607d815260fa60208201526101f4918101919091526102ee60608201526103e8608082015262000092906009906005620003b0565b50604080516080810182526002815260046020820181905260069282019290925260086060820152620000c991600a91906200044d565b506040805180820190915260048082526334a1272160e11b6020909201918252620000f791600b91620004d3565b506040805180820190915260048082526334a1272160e11b60209092019182526200012591600c91620004d3565b503480156200013357600080fd5b50604051620025db380380620025db833981016040819052620001569162000567565b600062000162620003ac565b600080546001600160a01b0319166001600160a01b0383169081178255604051929350917f8be0079c531659141344cd1fd0a4f28419497f9722a3daafe3b4186f6b6457e0908290a35060065433600090815260016020908152604080832093909355601080546001600160a01b0319166001600160a01b038681169190911791829055845163c45a015560e01b81529451939491169263c45a015592600480840193919291829003018186803b1580156200021d57600080fd5b505afa15801562000232573d6000803e3d6000fd5b505050506040513d601f19601f8201168201806040525081019062000258919062000567565b9050806001600160a01b031663c9c6539630601060009054906101000a90046001600160a01b03166001600160a01b031663ad5c46486040518163ffffffff1660e01b815260040160206040518083038186803b158015620002b957600080fd5b505afa158015620002ce573d6000803e3d6000fd5b505050506040513d601f19601f82011682018060405250810190620002f4919062000567565b6040518363ffffffff1660e01b81526004016200031392919062000597565b602060405180830381600087803b1580156200032e57600080fd5b505af115801562000343573d6000803e3d6000fd5b505050506040513d601f19601f8201168201806040525081019062000369919062000567565b600f80546001600160a01b03929092166001600160a01b031992831617905542600755600d8054821633908117909155600e8054909216179055506200075b9050565b3390565b6001830191839082156200043b5791602002820160005b838211156200040957835183826101000a81548161ffff021916908361ffff1602179055509260200192600201602081600101049283019260010302620003c7565b8015620004395782816101000a81549061ffff021916905560020160208160010104928301926001030262000409565b505b506200044992915062000550565b5090565b6001830191839082156200043b5791602002820160005b83821115620004a457835183826101000a81548160ff021916908360ff160217905550926020019260010160208160000104928301926001030262000464565b8015620004395782816101000a81549060ff0219169055600101602081600001049283019260010302620004a4565b828054620004e19062000708565b90600052602060002090601f0160209004810192826200050557600085556200043b565b82601f106200052057805160ff19168380011785556200043b565b828001600101855582156200043b579182015b828111156200043b57825182559160200191906001019062000533565b5b8082111562000449576000815560010162000551565b60006020828403121562000579578081fd5b81516001600160a01b038116811462000590578182fd5b9392505050565b6001600160a01b0392831681529116602082015260400190565b80825b6001808611620005c55750620005f5565b818704821115620005da57620005da62000745565b80861615620005e857918102915b9490941c938002620005b4565b94509492505050565b60006200059060001984846000826200061a5750600162000590565b81620006295750600062000590565b81600181146200064257600281146200064d5762000681565b600191505062000590565b60ff84111562000661576200066162000745565b6001841b9150848211156200067a576200067a62000745565b5062000590565b5060208310610133831016604e8410600b8410161715620006b9575081810a83811115620006b357620006b362000745565b62000590565b620006c88484846001620005b1565b808604821115620006dd57620006dd62000745565b02949350505050565b600081600019048311821515161562000703576200070362000745565b500290565b6002810460018216806200071d57607f821691505b602082108114156200073f57634e487b7160e01b600052602260045260246000fd5b50919050565b634e487b7160e01b600052601160045260246000fd5b611e70806200076b6000396000f3fe608060405234801561001057600080fd5b506004361061014d5760003560e01c8063715018a6116100c3578063a457c2d71161007c578063a457c2d7146102a1578063a9059cbb146102b4578063ca882eda146102c7578063d9a86cdf146102da578063dd62ed3e146102ed578063f2fde38b146103005761014d565b8063715018a6146102435780638da5cb5b1461024b57806393b96a611461026057806395d89b41146102735780639bb907941461027b5780639d0014b11461028e5761014d565b80631f53ac02116101155780631f53ac02146101e5578063222b03f6146101fa57806323b872dd14610202578063313ce56714610215578063395093511461021d57806370a08231146102305761014d565b80630281d18e1461015257806306fdde031461017b578063095ea7b31461019057806316e6fa10146101b057806318160ddd146101d0575b600080fd5b6101656101603660046117cb565b610313565b6040516101729190611be9565b60405180910390f35b61018361033d565b604051610172919061186a565b6101a361019e366004611672565b6103cf565b604051610172919061185f565b6101c36101be3660046117cb565b6103ec565b6040516101729190611b61565b6101d861041a565b6040516101729190611b70565b6101f86101f33660046115c2565b610420565b005b6101d861048a565b6101a3610210366004611632565b610490565b6101d8610529565b6101a361022b366004611672565b61052f565b6101d861023e3660046115c2565b61057e565b6101f861059d565b610253610626565b6040516101729190611810565b6101a361026e3660046115c2565b610635565b61018361064a565b6101f86102893660046115c2565b610659565b6101f861029c3660046117cb565b6106ba565b6101a36102af366004611672565b610717565b6101a36102c2366004611672565b610792565b6101f86102d536600461169d565b6107a6565b6101f86102e8366004611713565b61081f565b6101d86102fb3660046115fa565b61086b565b6101f861030e3660046115c2565b610896565b600a816004811061032357600080fd5b60209182820401919006915054906101000a900460ff1681565b6060600b805461034c90611db1565b80601f016020809104026020016040519081016040528092919081815260200182805461037890611db1565b80156103c55780601f1061039a576101008083540402835291602001916103c5565b820191906000526020600020905b8154815290600101906020018083116103a857829003601f168201915b5050505050905090565b60006103e36103dc610956565b848461095a565b50600192915050565b600981600581106103fc57600080fd5b60109182820401919006600202915054906101000a900461ffff1681565b60065490565b610428610956565b6001600160a01b0316610439610626565b6001600160a01b0316146104685760405162461bcd60e51b815260040161045f906119d3565b60405180910390fd5b600e80546001600160a01b0319166001600160a01b0392909216919091179055565b60085481565b600061049d848484610a0e565b6001600160a01b0384166000908152600360205260408120816104be610956565b6001600160a01b03166001600160a01b03168152602001908152602001600020549050828110156105015760405162461bcd60e51b815260040161045f9061198b565b61051c8561050d610956565b6105178685611d9a565b61095a565b60019150505b9392505050565b60055490565b60006103e361053c610956565b84846003600061054a610956565b6001600160a01b03908116825260208083019390935260409182016000908120918b16815292529020546105179190611c2f565b6001600160a01b0381166000908152600160205260409020545b919050565b6105a5610956565b6001600160a01b03166105b6610626565b6001600160a01b0316146105dc5760405162461bcd60e51b815260040161045f906119d3565b600080546040516001600160a01b03909116907f8be0079c531659141344cd1fd0a4f28419497f9722a3daafe3b4186f6b6457e0908390a3600080546001600160a01b0319169055565b6000546001600160a01b031690565b60046020526000908152604090205460ff1681565b6060600c805461034c90611db1565b610661610956565b6001600160a01b0316610672610626565b6001600160a01b0316146106985760405162461bcd60e51b815260040161045f906119d3565b600d80546001600160a01b0319166001600160a01b0392909216919091179055565b6106c2610956565b6001600160a01b03166106d3610626565b6001600160a01b0316146106f95760405162461bcd60e51b815260040161045f906119d3565b60055461070790600a611cad565b6107119082611d7b565b60085550565b60008060036000610726610956565b6001600160a01b03908116825260208083019390935260409182016000908120918816815292529020549050828110156107725760405162461bcd60e51b815260040161045f90611b1c565b61078861077d610956565b856105178685611d9a565b5060019392505050565b60006103e361079f610956565b8484610a0e565b6107ae610956565b6001600160a01b03166107bf610626565b6001600160a01b0316146107e55760405162461bcd60e51b815260040161045f906119d3565b6107f2600982600561147f565b506040517f3aaf767b2e63f4c5f274684ce36da44af23d293465914ee94908682af41e652790600090a150565b610827610956565b6001600160a01b0316610838610626565b6001600160a01b03161461085e5760405162461bcd60e51b815260040161045f906119d3565b6107f2600a826004611515565b6001600160a01b03918216600090815260036020908152604080832093909416825291909152205490565b61089e610956565b6001600160a01b03166108af610626565b6001600160a01b0316146108d55760405162461bcd60e51b815260040161045f906119d3565b6001600160a01b0381166108fb5760405162461bcd60e51b815260040161045f906118bd565b600080546040516001600160a01b03808516939216917f8be0079c531659141344cd1fd0a4f28419497f9722a3daafe3b4186f6b6457e091a3600080546001600160a01b0319166001600160a01b0392909216919091179055565b3390565b6001600160a01b0383166109805760405162461bcd60e51b815260040161045f90611aaf565b6001600160a01b0382166109a65760405162461bcd60e51b815260040161045f90611903565b6001600160a01b0380841660008181526003602090815260408083209487168084529490915290819020849055517f8c5be1e5ebec7d5bd14f71427d1e84f3dd0314c0f7b2291e5b200ac8c7c3b92590610a01908590611b70565b60405180910390a3505050565b6001600160a01b038316610a345760405162461bcd60e51b815260040161045f90611a3f565b6001600160a01b03831660009081526001602052604090205481811015610a6d5760405162461bcd60e51b815260040161045f90611945565b60008080600080600f60009054906101000a90046001600160a01b03166001600160a01b0316630902f1ac6040518163ffffffff1660e01b815260040160606040518083038186803b158015610ac257600080fd5b505afa158015610ad6573d6000803e3d6000fd5b505050506040513d601f19601f82011682018060405250810190610afa919061177d565b5091509150600f60009054906101000a90046001600160a01b03166001600160a01b0316630dfe16816040518163ffffffff1660e01b815260040160206040518083038186803b158015610b4d57600080fd5b505afa158015610b61573d6000803e3d6000fd5b505050506040513d601f19601f82011682018060405250810190610b8591906115de565b6001600160a01b0316306001600160a01b031614610b9f57905b600f546001600160a01b038a8116911614801590610bd657506001600160a01b03891660009081526004602052604090205460ff16155b15610bf257610bef8988846001600160701b0316610def565b94505b610c096103e8610c03896001611074565b90611080565b9250610c1c6103e8610c03896063611074565b9350610c3184836001600160701b031661108c565b610c3b8787611d9a565b6001600160a01b038a166000908152600160205260409020558383610c60878a611d9a565b610c6a9190611d9a565b610c749190611d9a565b6001600160a01b03891660009081526001602052604081208054909190610c9c908490611c2f565b90915550610cac90508486611c2f565b3060009081526001602052604081208054909190610ccb908490611c2f565b9091555050600e546001600160a01b031660009081526001602052604081208054859290610cfa908490611c2f565b92505081905550876001600160a01b0316896001600160a01b0316600080516020611e1b83398151915289604051610d329190611b70565b60405180910390a3306001600160a01b0316896001600160a01b0316600080516020611e1b83398151915287604051610d6b9190611b70565b60405180910390a3306001600160a01b0316896001600160a01b0316600080516020611e1b83398151915286604051610da49190611b70565b60405180910390a3600e546040516001600160a01b03918216918b1690600080516020611e1b83398151915290610ddc908790611b70565b60405180910390a3505050505050505050565b6040805160a08101918290526000918291906009906005908285855b82829054906101000a900461ffff1661ffff1681526020019060020190602082600101049283019260010382029150808411610e0b57505050506001600160a01b038816600090815260026020908152604080832081518083019092528054808352600190910154928201929092529495509092506120d09150610e8f9042611d9a565b610e999190611c47565b6120d060075442610eaa9190611d9a565b610eb49190611c47565b1115610ed7576001600160a01b0387166000908152600260205260408120600101555b6001600160a01b038716600090815260026020526040812060010154610efe908890611174565b9050610f1e62989680610c038660045b6020020151899061ffff16611074565b811115610f3d5760405162461bcd60e51b815260040161045f90611a08565b610f4f62989680610c03866003610f0e565b811115610f8657610f7f6064610c03600a60035b6020810491909101548b91601f166101000a900460ff16611074565b9150611007565b610f9862989680610c03866002610f0e565b811115610fb057610f7f6064610c03600a6002610f63565b610fc262989680610c03866001610f0e565b811115610fda57610f7f6064610c03600a6001610f63565b610fec62989680610c03866000610f0e565b811115611007576110046064610c03600a6000610f63565b91505b6001600160a01b03881660009081526002602090815260409091204290558301516110329088611174565b6001600160a01b03891660009081526002602052604081206001019190915560118054849290611063908490611c2f565b909155509198975050505050505050565b60006105228284611d7b565b60006105228284611c47565b61dead600081815260016020527fb34209a263f6c38fe55f099e9e70f9d67e93982480ff3234a5e0108028ad164d546110dc906110c761041a565b6110d19190611d9a565b610c03856064611074565b90506110ed6064610c038684611074565b601180546000906110ff908490611c2f565b9091555061111e90506064610c036111178483611d9a565b8790611074565b60128054600090611130908490611c2f565b90915550506008546012541061116e576000611150601160010154611180565b905080601160010160008282546111679190611d9a565b9091555050505b50505050565b60006105228284611c2f565b60408051600280825260608201835260009247928492909160208301908036833701905050905030816000815181106111c957634e487b7160e01b600052603260045260246000fd5b6001600160a01b03928316602091820292909201810191909152601054604080516315ab88c960e31b81529051919093169263ad5c4648926004808301939192829003018186803b15801561121d57600080fd5b505afa158015611231573d6000803e3d6000fd5b505050506040513d601f19601f8201168201806040525081019061125591906115de565b8160018151811061127657634e487b7160e01b600052603260045260246000fd5b6001600160a01b039283166020918202929092010152601054859161129d9130911661086b565b10156112bd576010546112bd9030906001600160a01b031660001961095a565b6010546001600160a01b031663791ac9476112d9866002611080565b600d546040516001600160e01b031960e085901b16815261130e929160009187916001600160a01b0316904290600401611b79565b600060405180830381600087803b15801561132857600080fd5b505af1925050508015611339575060015b61137d577f80d593224edb0215aefab844ec7f7bf2ffdbd1f6f4254277dca5f1c8eb7477c260405161136a90611a84565b60405180910390a1600092505050610598565b60006113894784611473565b6010549091506001600160a01b031663f305d71982306113aa896002611080565b600d546040516001600160e01b031960e087901b1681526113e093929160009182916001600160a01b0316904290600401611824565b6060604051808303818588803b1580156113f957600080fd5b505af115801561140d573d6000803e3d6000fd5b50505050506040513d601f19601f8201168201806040525081019061143291906117e3565b505050507f80d593224edb0215aefab844ec7f7bf2ffdbd1f6f4254277dca5f1c8eb7477c260405161146390611af3565b60405180910390a1509192915050565b60006105228284611d9a565b6001830191839082156115055791602002820160005b838211156114d557835183826101000a81548161ffff021916908361ffff1602179055509260200192600201602081600101049283019260010302611495565b80156115035782816101000a81549061ffff02191690556002016020816001010492830192600103026114d5565b505b50611511929150611596565b5090565b6001830191839082156115055791602002820160005b8382111561156957835183826101000a81548160ff021916908360ff160217905550926020019260010160208160000104928301926001030261152b565b80156115035782816101000a81549060ff0219169055600101602081600001049283019260010302611569565b5b808211156115115760008155600101611597565b80516001600160701b038116811461059857600080fd5b6000602082840312156115d3578081fd5b813561052281611e02565b6000602082840312156115ef578081fd5b815161052281611e02565b6000806040838503121561160c578081fd5b823561161781611e02565b9150602083013561162781611e02565b809150509250929050565b600080600060608486031215611646578081fd5b833561165181611e02565b9250602084013561166181611e02565b929592945050506040919091013590565b60008060408385031215611684578182fd5b823561168f81611e02565b946020939093013593505050565b600060a082840312156116ae578081fd5b82601f8301126116bc578081fd5b6116c660a0611bf7565b80838560a0860111156116d7578384fd5b835b600581101561170857813561ffff811681146116f3578586fd5b845260209384019391909101906001016116d9565b509095945050505050565b600060808284031215611724578081fd5b82601f830112611732578081fd5b61173c6080611bf7565b80838560808601111561174d578384fd5b835b600481101561170857813560ff81168114611768578586fd5b8452602093840193919091019060010161174f565b600080600060608486031215611791578283fd5b61179a846115ab565b92506117a8602085016115ab565b9150604084015163ffffffff811681146117c0578182fd5b809150509250925092565b6000602082840312156117dc578081fd5b5035919050565b6000806000606084860312156117f7578283fd5b8351925060208401519150604084015190509250925092565b6001600160a01b0391909116815260200190565b6001600160a01b039687168152602081019590955260408501939093526060840191909152909216608082015260a081019190915260c00190565b901515815260200190565b6000602080835283518082850152825b818110156118965785810183015185820160400152820161187a565b818111156118a75783604083870101525b50601f01601f1916929092016040019392505050565b60208082526026908201527f4f776e61626c653a206e6577206f776e657220697320746865207a65726f206160408201526564647265737360d01b606082015260800190565b60208082526022908201527f45524332303a20617070726f766520746f20746865207a65726f206164647265604082015261737360f01b606082015260800190565b60208082526026908201527f45524332303a207472616e7366657220616d6f756e7420657863656564732062604082015265616c616e636560d01b606082015260800190565b60208082526028908201527f45524332303a207472616e7366657220616d6f756e74206578636565647320616040820152676c6c6f77616e636560c01b606082015260800190565b6020808252818101527f4f776e61626c653a2063616c6c6572206973206e6f7420746865206f776e6572604082015260600190565b6020808252601d908201527f53656c6c696e67207461783a2061626f7665206d617820616d6f756e74000000604082015260600190565b60208082526025908201527f45524332303a207472616e736665722066726f6d20746865207a65726f206164604082015264647265737360d81b606082015260800190565b60208082526011908201527073776170546f6b656e206661696c75726560781b604082015260600190565b60208082526024908201527f45524332303a20617070726f76652066726f6d20746865207a65726f206164646040820152637265737360e01b606082015260800190565b6020808252600f908201526e131a5c5d5a591a5d1e481859191959608a1b604082015260600190565b60208082526025908201527f45524332303a2064656372656173656420616c6c6f77616e63652062656c6f77604082015264207a65726f60d81b606082015260800190565b61ffff91909116815260200190565b90815260200190565b600060a082018783526020878185015260a0604085015281875180845260c0860191508289019350845b81811015611bc85784516001600160a01b031683529383019391830191600101611ba3565b50506001600160a01b03969096166060850152505050608001529392505050565b60ff91909116815260200190565b60405181810167ffffffffffffffff81118282101715611c2757634e487b7160e01b600052604160045260246000fd5b604052919050565b60008219821115611c4257611c42611dec565b500190565b600082611c6257634e487b7160e01b81526012600452602481fd5b500490565b80825b6001808611611c795750611ca4565b818704821115611c8b57611c8b611dec565b80861615611c9857918102915b9490941c938002611c6a565b94509492505050565b60006105226000198484600082611cc657506001610522565b81611cd357506000610522565b8160018114611ce95760028114611cf357611d20565b6001915050610522565b60ff841115611d0457611d04611dec565b6001841b915084821115611d1a57611d1a611dec565b50610522565b5060208310610133831016604e8410600b8410161715611d53575081810a83811115611d4e57611d4e611dec565b610522565b611d608484846001611c67565b808604821115611d7257611d72611dec565b02949350505050565b6000816000190483118215151615611d9557611d95611dec565b500290565b600082821015611dac57611dac611dec565b500390565b600281046001821680611dc557607f821691505b60208210811415611de657634e487b7160e01b600052602260045260246000fd5b50919050565b634e487b7160e01b600052601160045260246000fd5b6001600160a01b0381168114611e1757600080fd5b5056feddf252ad1be2c89b69c2b068fc378daa952ba7f163c4a11628f55a4df523b3efa2646970667358221220bfff0b98ddc6189bc270169fd575fac44719eef1f70235b9371c88b95204e73c64736f6c63430008000033",
  "immutableReferences": {},
  "source": "// SPDX-License-Identifier: GPL\n\npragma solidity ^0.8.0;\n\nimport \"@openzeppelin/contracts/token/ERC20/IERC20.sol\";\nimport \"@openzeppelin/contracts/utils/math/SafeMath.sol\";\nimport \"@openzeppelin/contracts/access/Ownable.sol\";\nimport \"@uniswap/v2-periphery/contracts/interfaces/IUniswapV2Router02.sol\";\nimport \"@uniswap/v2-core/contracts/interfaces/IUniswapV2Factory.sol\";\nimport \"@uniswap/v2-core/contracts/interfaces/IUniswapV2Pair.sol\";\n\n\n\n\n\n/**\n * @dev iBNB\n *\n *\n *\n *\n */\n\ncontract iBNB is IERC20, Ownable {\n    using SafeMath for uint256;\n\n    struct past_tx {\n      uint256 last_timestamp; //no choice, uint256\n      uint256 cum_transfer; //this is not what you think, you perv\n    }\n\n    struct prop_balances {\n      uint256 reward_pool;\n      uint256 liquidity_pool;\n    }\n\n    mapping (address => uint256) private _balances;\n    mapping (address => past_tx) private _last_tx;\n    mapping (address => mapping (address => uint256)) private _allowances;\n    mapping (address => bool) public excluded_from_taxes;\n\n    uint256 private _decimals = 9;\n    uint256 private _totalSupply = 10**15 * 10**_decimals;\n    uint256 genesis_timestamp;\n    uint256 public swap_for_liquidity_threshold = 10**14 * 10**_decimals; //10%\n\n//TODO gas optim:\n    //@dev in percents : 0.125% - 0.25 - 0.5 - 0.75 - 0.1%\n    //therefore value are div by 10**7\n    uint16[5] public selling_taxes_tranches = [125, 250, 500, 750, 1000];\n    uint8[4] public selling_taxes_rates = [2, 4, 6, 8];\n\n    string private _name = \"iBNB\";\n    string private _symbol = \"iBNB\";\n\n    address LP_contract;\n    address devWallet;\n\n    IUniswapV2Pair pair;\n    IUniswapV2Router02 router;\n\n    prop_balances balancer_balances;\n\n    event TaxRatesChanged();\n    event swapForLiquidity(string);\n\n    constructor (address _router) {\n         _balances[msg.sender] = _totalSupply;\n         //create pair to get the pair address\n         router = IUniswapV2Router02(_router);\n         IUniswapV2Factory factory = IUniswapV2Factory(router.factory());\n         pair = IUniswapV2Pair(factory.createPair(address(this), router.WETH()));\n\n         genesis_timestamp = block.timestamp;\n         LP_contract = msg.sender;  //temp set, then switch to the LP Lock\n         devWallet = msg.sender;\n    }\n\n    function decimals() public view returns (uint256) {\n         return _decimals;\n    }\n    function name() public view returns (string memory) {\n        return _name;\n    }\n    function symbol() public view returns (string memory) {\n        return _symbol;\n    }\n    function totalSupply() public view virtual override returns (uint256) {\n        return _totalSupply;\n    }\n    function balanceOf(address account) public view virtual override returns (uint256) {\n        return _balances[account];\n    }\n    function transfer(address recipient, uint256 amount) public virtual override returns (bool) {\n        _transfer(_msgSender(), recipient, amount);\n        return true;\n    }\n    function allowance(address owner, address spender) public view virtual override returns (uint256) {\n        return _allowances[owner][spender];\n    }\n    function approve(address spender, uint256 amount) public virtual override returns (bool) {\n        _approve(_msgSender(), spender, amount);\n        return true;\n    }\n    function transferFrom(address sender, address recipient, uint256 amount) public virtual override returns (bool) {\n        _transfer(sender, recipient, amount);\n\n        uint256 currentAllowance = _allowances[sender][_msgSender()];\n        require(currentAllowance >= amount, \"ERC20: transfer amount exceeds allowance\");\n        _approve(sender, _msgSender(), currentAllowance - amount);\n\n        return true;\n    }\n    function increaseAllowance(address spender, uint256 addedValue) public virtual returns (bool) {\n        _approve(_msgSender(), spender, _allowances[_msgSender()][spender] + addedValue);\n        return true;\n    }\n    function decreaseAllowance(address spender, uint256 subtractedValue) public virtual returns (bool) {\n        uint256 currentAllowance = _allowances[_msgSender()][spender];\n        require(currentAllowance >= subtractedValue, \"ERC20: decreased allowance below zero\");\n        _approve(_msgSender(), spender, currentAllowance - subtractedValue);\n\n        return true;\n    }\n\n\n//TODO: circuit breaker !!!!!\n    function _transfer(address sender, address recipient, uint256 amount) internal virtual {\n        require(sender != address(0), \"ERC20: transfer from the zero address\");\n        uint256 senderBalance = _balances[sender];\n        require(senderBalance >= amount, \"ERC20: transfer amount exceeds balance\");\n        uint256 sell_tax = 0;\n        uint256 balancer_amount;\n        uint256 dev_tax;\n\n        // ----  Sell tax  ----\n        (uint112 _reserve0, uint112 _reserve1,) = pair.getReserves(); // returns reserve0, reserve1, timestamp last tx\n        if(address(this) != pair.token0()) { // 0 := iBNB\n          (_reserve0, _reserve1) = (_reserve1, _reserve0);\n        }\n        if(sender != address(pair) && excluded_from_taxes[sender] == false) {\n          sell_tax = sellingTax(sender, amount, _reserve0); //will update the balancer ledger too\n        }\n        // else sell_tax stays 0;\n\n        // ------ dev tax 0.1% -------\n        dev_tax = amount.mul(1).div(1000);\n\n        // ------ balancer tax 9.9% ------\n        balancer_amount = amount.mul(99).div(1000);\n        balancer(balancer_amount, _reserve0);\n\n\n        //@dev every extra token are collected into address(this), it's the balancer job to then split them\n        //between pool and reward, using his the dedicated struct\n        _balances[sender] = senderBalance - amount;\n        _balances[recipient] += amount - sell_tax - dev_tax - balancer_amount;\n        _balances[address(this)] += sell_tax + balancer_amount;\n        _balances[devWallet] += dev_tax;\n\n        emit Transfer(sender, recipient, amount);\n        emit Transfer(sender, address(this), sell_tax);\n        emit Transfer(sender, address(this), balancer_amount);\n        emit Transfer(sender, devWallet, dev_tax);\n    }\n\n//TODO Gas optim\n    //@dev take a selling tax if transfer from a non-excluded address or from the pair contract exceed\n    //the thresholds defined in selling_taxes_thresholds on a daily (calendar) basis\n  function sellingTax(address sender, uint256 amount, uint256 pool_balance) private returns(uint256) {\n\n        uint16[5] memory _tax_tranches = selling_taxes_tranches; //gas optim\n        past_tx memory sender_last_tx = _last_tx[sender];\n        uint256 sell_tax = 0;\n\n        //num days since genesis > num of days since last tx ?\n        if((block.timestamp - genesis_timestamp) / 8400 > (block.timestamp - sender_last_tx.last_timestamp) / 8400) {\n          _last_tx[sender].cum_transfer = 0;\n        }\n\n        uint256 new_cum_sum = amount.add(_last_tx[sender].cum_transfer);\n\n        if(new_cum_sum > pool_balance.mul(_tax_tranches[4]).div(10**7)) {\n          revert(\"Selling tax: above max amount\");\n        }\n        else if(new_cum_sum > pool_balance.mul(_tax_tranches[3]).div(10**7)) {\n          sell_tax = amount.mul(selling_taxes_rates[3]).div(100);\n        }\n        else if(new_cum_sum > pool_balance.mul(_tax_tranches[2]).div(10**7)) {\n          sell_tax = amount.mul(selling_taxes_rates[2]).div(100);\n        }\n        else if(new_cum_sum > pool_balance.mul(_tax_tranches[1]).div(10**7)) {\n          sell_tax = amount.mul(selling_taxes_rates[1]).div(100);\n        }\n        else if(new_cum_sum > pool_balance.mul(_tax_tranches[0]).div(10**7)) {\n          sell_tax = amount.mul(selling_taxes_rates[0]).div(100);\n        }\n        //else sell_tax stays at 0\n\n        _last_tx[sender].last_timestamp = block.timestamp;\n        _last_tx[sender].cum_transfer = sender_last_tx.cum_transfer.add(amount);\n\n        balancer_balances.reward_pool += sell_tax;\n\n        return sell_tax;\n    }\n\n\n    function setSellingTaxesTranches(uint16[5] memory new_tranches) public onlyOwner {\n      selling_taxes_tranches = new_tranches;\n      emit TaxRatesChanged();\n    }\n\n    function setSellingTaxesrates(uint8[4] memory new_amounts) public onlyOwner {\n      selling_taxes_rates = new_amounts;\n      emit TaxRatesChanged();\n    }\n\n//---------------------- TODO balancer--------------------------------\n\n//TODO : GAS OPTIM/Glob var\n    //@dev take the 9.9% taxes as input, split it according to pool condition\n    function balancer(uint256 amount, uint256 pool_balance) private {\n\n      address DEAD = address(0x000000000000000000000000000000000000dEaD);\n      uint256 ratio = pool_balance.mul(100).div(totalSupply()-_balances[DEAD]);\n\n      balancer_balances.reward_pool += amount.mul(ratio).div(100);\n      balancer_balances.liquidity_pool += amount.mul(100 - ratio).div(100);\n\n\n      if(balancer_balances.liquidity_pool >= swap_for_liquidity_threshold) {\n          uint256 token_out = addLiquidity(balancer_balances.liquidity_pool);\n          balancer_balances.liquidity_pool -= token_out; //not balanceOf, in case addLiq revert\n      }\n\n\n\n//todo with reward pool too\n//todo resync function for reinit balancer\n\n    }\n\n    //@dev when triggered, will get a quote and provide liquidity with a 20% max slippage\n    //    BNBfromSwap being the difference between and after the swap, potential slippage\n    //    will result in extra-BNB for the reward pool (free money for the guys:)\n    function addLiquidity(uint256 token_amount) internal returns (uint256) {\n      uint256 BNBfromReward = address(this).balance;\n\n      address[] memory route = new address[](2);\n      route[0] = address(this);\n      route[1] = router.WETH();\n\n      if(allowance(address(this), address(router)) < token_amount) {\n        _approve(address(this), address(router), ~uint256(0));\n      }\n\n      try router.swapExactTokensForETHSupportingFeeOnTransferTokens(token_amount.div(2), 0, route, LP_contract, block.timestamp) {\n        uint256 BNBfromSwap = address(this).balance.sub(BNBfromReward);\n        router.addLiquidityETH{value: BNBfromSwap}(address(this), token_amount.div(2), 0, 0, LP_contract, block.timestamp); //will not be catched\n      }\n      catch {\n        emit swapForLiquidity(\"swapToken failure\");\n        return 0;\n      }\n\n      emit swapForLiquidity(\"Liquidity added\");\n      return token_amount;\n    }\n\n//-----------------------------TODO BNB reward computing&claim + tax\n\n    function _approve(address owner, address spender, uint256 amount) internal virtual {\n        require(owner != address(0), \"ERC20: approve from the zero address\");\n        require(spender != address(0), \"ERC20: approve to the zero address\");\n\n        _allowances[owner][spender] = amount;\n        emit Approval(owner, spender, amount);\n    }\n\n    function setLPContract(address _LP_contract) public onlyOwner {\n      LP_contract = _LP_contract;\n    }\n    function setDevWallet(address _devWallet) public onlyOwner {\n      devWallet = _devWallet;\n    }\n    function setSwapThreshold(uint256 threshold_in_token) public onlyOwner {\n      swap_for_liquidity_threshold = threshold_in_token * 10**_decimals;\n    }\n}\n",
  "sourcePath": "/home/drgorilla/Documents/solidity/iBNB/contracts/iBNB.sol",
  "compiler": {
    "name": "solc",
    "version": "0.8.0+commit.c7dfd78e.Emscripten.clang"
  },
  "schemaVersion": "3.4.0",
  "updatedAt": "2021-06-07T17:25:48.003Z",
  "devdoc": {
    "details": "iBNB",
    "kind": "dev",
    "methods": {
      "allowance(address,address)": {
        "details": "Returns the remaining number of tokens that `spender` will be allowed to spend on behalf of `owner` through {transferFrom}. This is zero by default. This value changes when {approve} or {transferFrom} are called."
      },
      "approve(address,uint256)": {
        "details": "Sets `amount` as the allowance of `spender` over the caller's tokens. Returns a boolean value indicating whether the operation succeeded. IMPORTANT: Beware that changing an allowance with this method brings the risk that someone may use both the old and the new allowance by unfortunate transaction ordering. One possible solution to mitigate this race condition is to first reduce the spender's allowance to 0 and set the desired value afterwards: https://github.com/ethereum/EIPs/issues/20#issuecomment-263524729 Emits an {Approval} event."
      },
      "balanceOf(address)": {
        "details": "Returns the amount of tokens owned by `account`."
      },
      "owner()": {
        "details": "Returns the address of the current owner."
      },
      "renounceOwnership()": {
        "details": "Leaves the contract without owner. It will not be possible to call `onlyOwner` functions anymore. Can only be called by the current owner. NOTE: Renouncing ownership will leave the contract without an owner, thereby removing any functionality that is only available to the owner."
      },
      "totalSupply()": {
        "details": "Returns the amount of tokens in existence."
      },
      "transfer(address,uint256)": {
        "details": "Moves `amount` tokens from the caller's account to `recipient`. Returns a boolean value indicating whether the operation succeeded. Emits a {Transfer} event."
      },
      "transferFrom(address,address,uint256)": {
        "details": "Moves `amount` tokens from `sender` to `recipient` using the allowance mechanism. `amount` is then deducted from the caller's allowance. Returns a boolean value indicating whether the operation succeeded. Emits a {Transfer} event."
      },
      "transferOwnership(address)": {
        "details": "Transfers ownership of the contract to a new account (`newOwner`). Can only be called by the current owner."
      }
    },
    "version": 1
  },
  "userdoc": {
    "kind": "user",
    "methods": {},
    "version": 1
  }
}