{
  "contractName": "iBNB",
  "abi": [
    {
      "inputs": [
        {
          "internalType": "address",
          "name": "_router",
          "type": "address"
        }
      ],
      "stateMutability": "nonpayable",
      "type": "constructor"
    },
    {
      "anonymous": false,
      "inputs": [
        {
          "indexed": false,
          "internalType": "string",
          "name": "",
          "type": "string"
        }
      ],
      "name": "AddLiq",
      "type": "event"
    },
    {
      "anonymous": false,
      "inputs": [
        {
          "indexed": false,
          "internalType": "address",
          "name": "",
          "type": "address"
        },
        {
          "indexed": false,
          "internalType": "address",
          "name": "",
          "type": "address"
        },
        {
          "indexed": false,
          "internalType": "uint256",
          "name": "",
          "type": "uint256"
        }
      ],
      "name": "Approval",
      "type": "event"
    },
    {
      "anonymous": false,
      "inputs": [
        {
          "indexed": false,
          "internalType": "uint256",
          "name": "",
          "type": "uint256"
        },
        {
          "indexed": false,
          "internalType": "uint256",
          "name": "",
          "type": "uint256"
        }
      ],
      "name": "BalancerRatio",
      "type": "event"
    },
    {
      "anonymous": false,
      "inputs": [
        {
          "indexed": true,
          "internalType": "address",
          "name": "previousOwner",
          "type": "address"
        },
        {
          "indexed": true,
          "internalType": "address",
          "name": "newOwner",
          "type": "address"
        }
      ],
      "name": "OwnershipTransferred",
      "type": "event"
    },
    {
      "anonymous": false,
      "inputs": [],
      "name": "RewardTaxChanged",
      "type": "event"
    },
    {
      "anonymous": false,
      "inputs": [
        {
          "indexed": false,
          "internalType": "string",
          "name": "",
          "type": "string"
        }
      ],
      "name": "SwapForBNB",
      "type": "event"
    },
    {
      "anonymous": false,
      "inputs": [],
      "name": "TaxRatesChanged",
      "type": "event"
    },
    {
      "anonymous": false,
      "inputs": [
        {
          "indexed": false,
          "internalType": "address",
          "name": "",
          "type": "address"
        },
        {
          "indexed": false,
          "internalType": "address",
          "name": "",
          "type": "address"
        },
        {
          "indexed": false,
          "internalType": "uint256",
          "name": "",
          "type": "uint256"
        }
      ],
      "name": "Transfer",
      "type": "event"
    },
    {
      "anonymous": false,
      "inputs": [
        {
          "indexed": false,
          "internalType": "uint256",
          "name": "",
          "type": "uint256"
        },
        {
          "indexed": false,
          "internalType": "uint256",
          "name": "",
          "type": "uint256"
        }
      ],
      "name": "balancerReset",
      "type": "event"
    },
    {
      "inputs": [],
      "name": "LP_recipient",
      "outputs": [
        {
          "internalType": "address",
          "name": "",
          "type": "address"
        }
      ],
      "stateMutability": "view",
      "type": "function"
    },
    {
      "inputs": [],
      "name": "balancer_balances",
      "outputs": [
        {
          "internalType": "uint256",
          "name": "reward_pool",
          "type": "uint256"
        },
        {
          "internalType": "uint256",
          "name": "liquidity_pool",
          "type": "uint256"
        }
      ],
      "stateMutability": "view",
      "type": "function"
    },
    {
      "inputs": [],
      "name": "circuit_breaker",
      "outputs": [
        {
          "internalType": "bool",
          "name": "",
          "type": "bool"
        }
      ],
      "stateMutability": "view",
      "type": "function"
    },
    {
      "inputs": [
        {
          "internalType": "uint256",
          "name": "",
          "type": "uint256"
        }
      ],
      "name": "claiming_taxes_rates",
      "outputs": [
        {
          "internalType": "uint8",
          "name": "",
          "type": "uint8"
        }
      ],
      "stateMutability": "view",
      "type": "function"
    },
    {
      "inputs": [],
      "name": "devWallet",
      "outputs": [
        {
          "internalType": "address",
          "name": "",
          "type": "address"
        }
      ],
      "stateMutability": "view",
      "type": "function"
    },
    {
      "inputs": [
        {
          "internalType": "address",
          "name": "",
          "type": "address"
        }
      ],
      "name": "excluded",
      "outputs": [
        {
          "internalType": "bool",
          "name": "",
          "type": "bool"
        }
      ],
      "stateMutability": "view",
      "type": "function"
    },
    {
      "inputs": [],
      "name": "owner",
      "outputs": [
        {
          "internalType": "address",
          "name": "",
          "type": "address"
        }
      ],
      "stateMutability": "view",
      "type": "function"
    },
    {
      "inputs": [],
      "name": "pair",
      "outputs": [
        {
          "internalType": "contract IUniswapV2Pair",
          "name": "",
          "type": "address"
        }
      ],
      "stateMutability": "view",
      "type": "function"
    },
    {
      "inputs": [],
      "name": "pcs_pool_to_circ_ratio",
      "outputs": [
        {
          "internalType": "uint256",
          "name": "",
          "type": "uint256"
        }
      ],
      "stateMutability": "view",
      "type": "function"
    },
    {
      "inputs": [],
      "name": "renounceOwnership",
      "outputs": [],
      "stateMutability": "nonpayable",
      "type": "function"
    },
    {
      "inputs": [],
      "name": "router",
      "outputs": [
        {
          "internalType": "contract IUniswapV2Router02",
          "name": "",
          "type": "address"
        }
      ],
      "stateMutability": "view",
      "type": "function"
    },
    {
      "inputs": [
        {
          "internalType": "uint256",
          "name": "",
          "type": "uint256"
        }
      ],
      "name": "selling_taxes_rates",
      "outputs": [
        {
          "internalType": "uint8",
          "name": "",
          "type": "uint8"
        }
      ],
      "stateMutability": "view",
      "type": "function"
    },
    {
      "inputs": [
        {
          "internalType": "uint256",
          "name": "",
          "type": "uint256"
        }
      ],
      "name": "selling_taxes_tranches",
      "outputs": [
        {
          "internalType": "uint16",
          "name": "",
          "type": "uint16"
        }
      ],
      "stateMutability": "view",
      "type": "function"
    },
    {
      "inputs": [],
      "name": "swap_for_liquidity_threshold",
      "outputs": [
        {
          "internalType": "uint256",
          "name": "",
          "type": "uint256"
        }
      ],
      "stateMutability": "view",
      "type": "function"
    },
    {
      "inputs": [],
      "name": "swap_for_reward_threshold",
      "outputs": [
        {
          "internalType": "uint256",
          "name": "",
          "type": "uint256"
        }
      ],
      "stateMutability": "view",
      "type": "function"
    },
    {
      "inputs": [
        {
          "internalType": "address",
          "name": "newOwner",
          "type": "address"
        }
      ],
      "name": "transferOwnership",
      "outputs": [],
      "stateMutability": "nonpayable",
      "type": "function"
    },
    {
      "stateMutability": "payable",
      "type": "receive"
    },
    {
      "inputs": [],
      "name": "decimals",
      "outputs": [
        {
          "internalType": "uint256",
          "name": "",
          "type": "uint256"
        }
      ],
      "stateMutability": "view",
      "type": "function"
    },
    {
      "inputs": [],
      "name": "name",
      "outputs": [
        {
          "internalType": "string",
          "name": "",
          "type": "string"
        }
      ],
      "stateMutability": "view",
      "type": "function"
    },
    {
      "inputs": [],
      "name": "symbol",
      "outputs": [
        {
          "internalType": "string",
          "name": "",
          "type": "string"
        }
      ],
      "stateMutability": "view",
      "type": "function"
    },
    {
      "inputs": [],
      "name": "totalSupply",
      "outputs": [
        {
          "internalType": "uint256",
          "name": "",
          "type": "uint256"
        }
      ],
      "stateMutability": "view",
      "type": "function"
    },
    {
      "inputs": [
        {
          "internalType": "address",
          "name": "account",
          "type": "address"
        }
      ],
      "name": "balanceOf",
      "outputs": [
        {
          "internalType": "uint256",
          "name": "",
          "type": "uint256"
        }
      ],
      "stateMutability": "view",
      "type": "function"
    },
    {
      "inputs": [
        {
          "internalType": "address",
          "name": "recipient",
          "type": "address"
        },
        {
          "internalType": "uint256",
          "name": "amount",
          "type": "uint256"
        }
      ],
      "name": "transfer",
      "outputs": [
        {
          "internalType": "bool",
          "name": "",
          "type": "bool"
        }
      ],
      "stateMutability": "nonpayable",
      "type": "function"
    },
    {
      "inputs": [
        {
          "internalType": "address",
          "name": "owner",
          "type": "address"
        },
        {
          "internalType": "address",
          "name": "spender",
          "type": "address"
        }
      ],
      "name": "allowance",
      "outputs": [
        {
          "internalType": "uint256",
          "name": "",
          "type": "uint256"
        }
      ],
      "stateMutability": "view",
      "type": "function"
    },
    {
      "inputs": [
        {
          "internalType": "address",
          "name": "spender",
          "type": "address"
        },
        {
          "internalType": "uint256",
          "name": "amount",
          "type": "uint256"
        }
      ],
      "name": "approve",
      "outputs": [
        {
          "internalType": "bool",
          "name": "",
          "type": "bool"
        }
      ],
      "stateMutability": "nonpayable",
      "type": "function"
    },
    {
      "inputs": [
        {
          "internalType": "address",
          "name": "sender",
          "type": "address"
        },
        {
          "internalType": "address",
          "name": "recipient",
          "type": "address"
        },
        {
          "internalType": "uint256",
          "name": "amount",
          "type": "uint256"
        }
      ],
      "name": "transferFrom",
      "outputs": [
        {
          "internalType": "bool",
          "name": "",
          "type": "bool"
        }
      ],
      "stateMutability": "nonpayable",
      "type": "function"
    },
    {
      "inputs": [
        {
          "internalType": "address",
          "name": "spender",
          "type": "address"
        },
        {
          "internalType": "uint256",
          "name": "addedValue",
          "type": "uint256"
        }
      ],
      "name": "increaseAllowance",
      "outputs": [
        {
          "internalType": "bool",
          "name": "",
          "type": "bool"
        }
      ],
      "stateMutability": "nonpayable",
      "type": "function"
    },
    {
      "inputs": [
        {
          "internalType": "address",
          "name": "spender",
          "type": "address"
        },
        {
          "internalType": "uint256",
          "name": "subtractedValue",
          "type": "uint256"
        }
      ],
      "name": "decreaseAllowance",
      "outputs": [
        {
          "internalType": "bool",
          "name": "",
          "type": "bool"
        }
      ],
      "stateMutability": "nonpayable",
      "type": "function"
    },
    {
      "inputs": [
        {
          "internalType": "uint256",
          "name": "amount",
          "type": "uint256"
        },
        {
          "internalType": "uint256",
          "name": "pool_balance",
          "type": "uint256"
        }
      ],
      "name": "balancer",
      "outputs": [],
      "stateMutability": "nonpayable",
      "type": "function"
    },
    {
      "inputs": [],
      "name": "computeReward",
      "outputs": [
        {
          "internalType": "uint256",
          "name": "",
          "type": "uint256"
        },
        {
          "internalType": "uint256",
          "name": "",
          "type": "uint256"
        }
      ],
      "stateMutability": "view",
      "type": "function"
    },
    {
      "inputs": [
        {
          "internalType": "uint256",
          "name": "amount",
          "type": "uint256"
        }
      ],
      "name": "taxOnClaim",
      "outputs": [
        {
          "internalType": "uint256",
          "name": "tax",
          "type": "uint256"
        }
      ],
      "stateMutability": "view",
      "type": "function"
    },
    {
      "inputs": [],
      "name": "whenClaim",
      "outputs": [
        {
          "internalType": "uint256",
          "name": "",
          "type": "uint256"
        }
      ],
      "stateMutability": "view",
      "type": "function"
    },
    {
      "inputs": [],
      "name": "claimReward",
      "outputs": [],
      "stateMutability": "nonpayable",
      "type": "function"
    },
    {
      "inputs": [
        {
          "internalType": "uint256",
          "name": "nb_token",
          "type": "uint256"
        }
      ],
      "name": "getQuoteInBNB",
      "outputs": [
        {
          "internalType": "uint256",
          "name": "",
          "type": "uint256"
        }
      ],
      "stateMutability": "view",
      "type": "function"
    },
    {
      "inputs": [
        {
          "internalType": "uint256",
          "name": "token_amount",
          "type": "uint256"
        },
        {
          "internalType": "address",
          "name": "receiver",
          "type": "address"
        }
      ],
      "name": "swapForBNB",
      "outputs": [
        {
          "internalType": "uint256",
          "name": "",
          "type": "uint256"
        }
      ],
      "stateMutability": "nonpayable",
      "type": "function"
    },
    {
      "inputs": [
        {
          "internalType": "address",
          "name": "adr",
          "type": "address"
        }
      ],
      "name": "excludeFromTaxes",
      "outputs": [],
      "stateMutability": "nonpayable",
      "type": "function"
    },
    {
      "inputs": [
        {
          "internalType": "address",
          "name": "adr",
          "type": "address"
        }
      ],
      "name": "includeInTaxes",
      "outputs": [],
      "stateMutability": "nonpayable",
      "type": "function"
    },
    {
      "inputs": [],
      "name": "resetBalancer",
      "outputs": [],
      "stateMutability": "nonpayable",
      "type": "function"
    },
    {
      "inputs": [
        {
          "internalType": "bool",
          "name": "status",
          "type": "bool"
        }
      ],
      "name": "setCircuitBreaker",
      "outputs": [],
      "stateMutability": "nonpayable",
      "type": "function"
    },
    {
      "inputs": [
        {
          "internalType": "address",
          "name": "_LP_recipient",
          "type": "address"
        }
      ],
      "name": "setLPContract",
      "outputs": [],
      "stateMutability": "nonpayable",
      "type": "function"
    },
    {
      "inputs": [
        {
          "internalType": "address",
          "name": "_devWallet",
          "type": "address"
        }
      ],
      "name": "setDevWallet",
      "outputs": [],
      "stateMutability": "nonpayable",
      "type": "function"
    },
    {
      "inputs": [
        {
          "internalType": "uint256",
          "name": "threshold_in_token",
          "type": "uint256"
        }
      ],
      "name": "setSwapFor_Liq_Threshold",
      "outputs": [],
      "stateMutability": "nonpayable",
      "type": "function"
    },
    {
      "inputs": [
        {
          "internalType": "uint256",
          "name": "threshold_in_token",
          "type": "uint256"
        }
      ],
      "name": "setSwapFor_Reward_Threshold",
      "outputs": [],
      "stateMutability": "nonpayable",
      "type": "function"
    },
    {
      "inputs": [
        {
          "internalType": "uint16[5]",
          "name": "new_tranches",
          "type": "uint16[5]"
        }
      ],
      "name": "setSellingTaxesTranches",
      "outputs": [],
      "stateMutability": "nonpayable",
      "type": "function"
    },
    {
      "inputs": [
        {
          "internalType": "uint8[4]",
          "name": "new_amounts",
          "type": "uint8[4]"
        }
      ],
      "name": "setSellingTaxesrates",
      "outputs": [],
      "stateMutability": "nonpayable",
      "type": "function"
    },
    {
      "inputs": [
        {
          "internalType": "uint8[5]",
          "name": "new_tranches",
          "type": "uint8[5]"
        }
      ],
      "name": "setRewardTaxesTranches",
      "outputs": [],
      "stateMutability": "nonpayable",
      "type": "function"
    }
  ],
  "bytecode": "0x6080604052600960058190556200001890600a6200068d565b6200002b9066038d7ea4c6800062000775565b6006556005546200003e90600a6200068d565b62000050906509184e72a00062000775565b6007556005546200006390600a6200068d565b62000075906509184e72a00062000775565b6008908155600a600981905560408051608081018252600281526004602082018190526006928201929092526060810193909352620000b592906200043f565b506040805160a081018252600281526004602082015260069181019190915260086060820152600f6080820152620000f290600b9060056200043f565b506040805160a081018252607d815260fa60208201526101f4918101919091526102ee60608201526103e860808201526200013290600c906005620004d9565b506040805180820190915260048082526334a1272160e11b60209092019182526200016091600e9162000562565b506040805180820190915260048082526334a1272160e11b60209092019182526200018e91600f9162000562565b503480156200019c57600080fd5b50604051620039f0380380620039f0833981016040819052620001bf91620005f6565b6000620001cb6200043b565b600080546001600160a01b0319166001600160a01b0383169081178255604051929350917f8be0079c531659141344cd1fd0a4f28419497f9722a3daafe3b4186f6b6457e0908290a35060065433600090815260016020908152604080832093909355601380546001600160a01b0319166001600160a01b038681169190911791829055845163c45a015560e01b81529451939491169263c45a015592600480840193919291829003018186803b1580156200028657600080fd5b505afa1580156200029b573d6000803e3d6000fd5b505050506040513d601f19601f82011682018060405250810190620002c19190620005f6565b9050806001600160a01b031663c9c6539630601360009054906101000a90046001600160a01b03166001600160a01b031663ad5c46486040518163ffffffff1660e01b815260040160206040518083038186803b1580156200032257600080fd5b505afa15801562000337573d6000803e3d6000fd5b505050506040513d601f19601f820116820180604052508101906200035d9190620005f6565b6040518363ffffffff1660e01b81526004016200037c92919062000626565b602060405180830381600087803b1580156200039757600080fd5b505af1158015620003ac573d6000803e3d6000fd5b505050506040513d601f19601f82011682018060405250810190620003d29190620005f6565b601280546001600160a01b03929092166001600160a01b03199283161790556010805482169055601180549091169055505033600090815260046020526040808220805460ff1990811660019081179092553084529190922080549091169091179055620007ea565b3390565b600183019183908215620004c75791602002820160005b838211156200049657835183826101000a81548160ff021916908360ff160217905550926020019260010160208160000104928301926001030262000456565b8015620004c55782816101000a81549060ff021916905560010160208160000104928301926001030262000496565b505b50620004d5929150620005df565b5090565b600183019183908215620004c75791602002820160005b838211156200053257835183826101000a81548161ffff021916908361ffff1602179055509260200192600201602081600101049283019260010302620004f0565b8015620004c55782816101000a81549061ffff021916905560020160208160010104928301926001030262000532565b828054620005709062000797565b90600052602060002090601f016020900481019282620005945760008555620004c7565b82601f10620005af57805160ff1916838001178555620004c7565b82800160010185558215620004c7579182015b82811115620004c7578251825591602001919060010190620005c2565b5b80821115620004d55760008155600101620005e0565b60006020828403121562000608578081fd5b81516001600160a01b03811681146200061f578182fd5b9392505050565b6001600160a01b0392831681529116602082015260400190565b80825b600180861162000654575062000684565b818704821115620006695762000669620007d4565b808616156200067757918102915b9490941c93800262000643565b94509492505050565b60006200061f6000198484600082620006a9575060016200061f565b81620006b8575060006200061f565b8160018114620006d15760028114620006dc5762000710565b60019150506200061f565b60ff841115620006f057620006f0620007d4565b6001841b915084821115620007095762000709620007d4565b506200061f565b5060208310610133831016604e8410600b841016171562000748575081810a83811115620007425762000742620007d4565b6200061f565b62000757848484600162000640565b8086048211156200076c576200076c620007d4565b02949350505050565b6000816000190483118215151615620007925762000792620007d4565b500290565b600281046001821680620007ac57607f821691505b60208210811415620007ce57634e487b7160e01b600052602260045260246000fd5b50919050565b634e487b7160e01b600052601160045260246000fd5b6131f680620007fa6000396000f3fe6080604052600436106102765760003560e01c806370a082311161014f578063b88a802f116100c1578063ecefbb211161007a578063ecefbb2114610719578063f22b10841461072e578063f2fde38b1461074e578063f887ea401461076e578063fa04a97014610783578063fb3fbc12146107a35761027d565b8063b88a802f1461066c578063ca882eda14610681578063d9a86cdf146106a1578063dd62ed3e146106c1578063e0e28336146106e1578063ea9180ec146107045761027d565b806395d89b411161011357806395d89b41146105c2578063983e9158146105d75780639bb90794146105f7578063a457c2d714610617578063a8aa1b3114610637578063a9059cbb1461064c5761027d565b806370a0823114610543578063715018a61461056357806384d8f1dc146105785780638da5cb5b146105985780638ea5220f146105ad5761027d565b8063222b03f6116101e857806339509351116101ac578063395093511461048e5780633dbbc80f146104ae57806342506449146104ce578063429cead1146104ee57806345abb3831461050e57806367250b591461052e5761027d565b8063222b03f61461040257806323b872dd1461041757806328f4cdfc14610437578063313ce5671461045757806332fb782b1461046c5761027d565b806313a55aa51161023a57806313a55aa51461034b57806316e6fa101461036b57806318160ddd146103985780631e776cbf146103ad5780631f53ac02146103c25780631fc74723146103e25761027d565b80630281d18e1461028257806306fdde03146102b8578063095ea7b3146102da5780630ce6bb6f14610307578063131e00b7146103295761027d565b3661027d57005b600080fd5b34801561028e57600080fd5b506102a261029d3660046128fa565b6107b8565b6040516102af9190612e94565b60405180910390f35b3480156102c457600080fd5b506102cd6107e2565b6040516102af9190612a36565b3480156102e657600080fd5b506102fa6102f5366004612725565b610875565b6040516102af9190612a2b565b34801561031357600080fd5b5061031c610893565b6040516102af9190612dee565b34801561033557600080fd5b50610349610344366004612675565b610899565b005b34801561035757600080fd5b50610349610366366004612829565b61093e565b34801561037757600080fd5b5061038b6103863660046128fa565b6109b7565b6040516102af9190612ddf565b3480156103a457600080fd5b5061031c6109e5565b3480156103b957600080fd5b5061031c6109eb565b3480156103ce57600080fd5b506103496103dd366004612675565b6109f1565b3480156103ee57600080fd5b5061031c6103fd36600461292a565b610a52565b34801561040e57600080fd5b5061031c610ce8565b34801561042357600080fd5b506102fa6104323660046126e5565b610cee565b34801561044357600080fd5b5061031c6104523660046128fa565b610d87565b34801561046357600080fd5b5061031c610f45565b34801561047857600080fd5b50610481610f4b565b6040516102af91906129b8565b34801561049a57600080fd5b506102fa6104a9366004612725565b610f5a565b3480156104ba57600080fd5b506103496104c93660046128fa565b610fa9565b3480156104da57600080fd5b506103496104e936600461288c565b611006565b3480156104fa57600080fd5b506102fa610509366004612675565b611058565b34801561051a57600080fd5b5061034961052936600461294e565b61106d565b34801561053a57600080fd5b50610349611269565b34801561054f57600080fd5b5061031c61055e366004612675565b611313565b34801561056f57600080fd5b5061034961132e565b34801561058457600080fd5b506103496105933660046128fa565b6113b7565b3480156105a457600080fd5b50610481611414565b3480156105b957600080fd5b50610481611423565b3480156105ce57600080fd5b506102cd611432565b3480156105e357600080fd5b506103496105f2366004612675565b611441565b34801561060357600080fd5b50610349610612366004612675565b6114d9565b34801561062357600080fd5b506102fa610632366004612725565b61153a565b34801561064357600080fd5b506104816115b5565b34801561065857600080fd5b506102fa610667366004612725565b6115c4565b34801561067857600080fd5b506103496115d8565b34801561068d57600080fd5b5061034961069c366004612750565b61166b565b3480156106ad57600080fd5b506103496106bc3660046127c6565b6116e4565b3480156106cd57600080fd5b5061031c6106dc3660046126ad565b611730565b3480156106ed57600080fd5b506106f661175b565b6040516102af929190612e86565b34801561071057600080fd5b506106f6611885565b34801561072557600080fd5b5061031c61188e565b34801561073a57600080fd5b506102a26107493660046128fa565b6118b3565b34801561075a57600080fd5b50610349610769366004612675565b6118c3565b34801561077a57600080fd5b50610481611983565b34801561078f57600080fd5b5061031c61079e3660046128fa565b611992565b3480156107af57600080fd5b506102fa611a60565b600a81600481106107c857600080fd5b60209182820401919006915054906101000a900460ff1681565b6060600e80546107f19061308c565b80601f016020809104026020016040519081016040528092919081815260200182805461081d9061308c565b801561086a5780601f1061083f5761010080835404028352916020019161086a565b820191906000526020600020905b81548152906001019060200180831161084d57829003601f168201915b505050505090505b90565b6000610889610882611a69565b8484611a6d565b5060015b92915050565b60085481565b6108a1611a69565b6001600160a01b03166108b2611414565b6001600160a01b0316146108e15760405162461bcd60e51b81526004016108d890612bec565b60405180910390fd5b6001600160a01b03811660009081526004602052604090205460ff161561091a5760405162461bcd60e51b81526004016108d890612d70565b6001600160a01b03166000908152600460205260409020805460ff19166001179055565b610946611a69565b6001600160a01b0316610957611414565b6001600160a01b03161461097d5760405162461bcd60e51b81526004016108d890612bec565b61098a600b826005612521565b506040517ffa718b2e3c4eff6c1ad7f30d8799d768c9c9c172a31e28102f58e23bdf2550c790600090a150565b600c81600581106109c757600080fd5b60109182820401919006600202915054906101000a900461ffff1681565b60065490565b60095481565b6109f9611a69565b6001600160a01b0316610a0a611414565b6001600160a01b031614610a305760405162461bcd60e51b81526004016108d890612bec565b601180546001600160a01b0319166001600160a01b0392909216919091179055565b604080516002808252606082018352600092839291906020830190803683370190505090503081600081518110610a9957634e487b7160e01b600052603260045260246000fd5b6001600160a01b03928316602091820292909201810191909152601354604080516315ab88c960e31b81529051919093169263ad5c4648926004808301939192829003018186803b158015610aed57600080fd5b505afa158015610b01573d6000803e3d6000fd5b505050506040513d601f19601f82011682018060405250810190610b259190612691565b81600181518110610b4657634e487b7160e01b600052603260045260246000fd5b6001600160a01b0392831660209182029290920101526013548591610b6d91309116611730565b1015610be357306000818152600360209081526040808320601380546001600160a01b039081168652919093529281902060001990819055915490517f8c5be1e5ebec7d5bd14f71427d1e84f3dd0314c0f7b2291e5b200ac8c7c3b92594610bda949093921691906129cc565b60405180910390a15b60135460405163791ac94760e01b81526001600160a01b039091169063791ac94790610c1c908790600090869089904290600401612df7565b600060405180830381600087803b158015610c3657600080fd5b505af1925050508015610c47575060015b610caa57610c536130e3565b80610c5e5750610ca0565b7f63f96232640ee3b5914be68a756c36599d36b83c5f2ca097c9c40afdf6f7fc2d81604051610c8d9190612a36565b60405180910390a160009250505061088d565b3d6000803e3d6000fd5b7f63f96232640ee3b5914be68a756c36599d36b83c5f2ca097c9c40afdf6f7fc2d604051610cd790612cc3565b60405180910390a18391505061088d565b60075481565b6000610cfb848484611b22565b6001600160a01b038416600090815260036020526040812081610d1c611a69565b6001600160a01b03166001600160a01b0316815260200190815260200160002054905082811015610d5f5760405162461bcd60e51b81526004016108d890612ba4565b610d7a85610d6b611a69565b610d758685613045565b611a6d565b60019150505b9392505050565b6000806000601260009054906101000a90046001600160a01b03166001600160a01b0316630902f1ac6040518163ffffffff1660e01b815260040160606040518083038186803b158015610dda57600080fd5b505afa158015610dee573d6000803e3d6000fd5b505050506040513d601f19601f82011682018060405250810190610e1291906128ac565b5091509150601260009054906101000a90046001600160a01b03166001600160a01b0316630dfe16816040518163ffffffff1660e01b815260040160206040518083038186803b158015610e6557600080fd5b505afa158015610e79573d6000803e3d6000fd5b505050506040513d601f19601f82011682018060405250810190610e9d9190612691565b6001600160a01b0316306001600160a01b031614610eb757905b601354604051630153543560e21b81526001600160a01b039091169063054d50d490610eeb90879086908690600401612e67565b60206040518083038186803b158015610f0357600080fd5b505afa158015610f17573d6000803e3d6000fd5b505050506040513d601f19601f82011682018060405250810190610f3b9190612912565b925050505b919050565b60055490565b6010546001600160a01b031681565b6000610889610f67611a69565b848460036000610f75611a69565b6001600160a01b03908116825260208083019390935260409182016000908120918b1681529252902054610d759190612eda565b610fb1611a69565b6001600160a01b0316610fc2611414565b6001600160a01b031614610fe85760405162461bcd60e51b81526004016108d890612bec565b600554610ff690600a612f58565b6110009082613026565b60085550565b61100e611a69565b6001600160a01b031661101f611414565b6001600160a01b0316146110455760405162461bcd60e51b81526004016108d890612bec565b600d805460ff1916911515919091179055565b60046020526000908152604090205460ff1681565b61dead600081815260016020527fb34209a263f6c38fe55f099e9e70f9d67e93982480ff3234a5e0108028ad164d546110ae906110a86109e5565b90611eea565b905060006064600954836110c29190613026565b6110cc9190612ef2565b84106110d857836110f2565b6064600954836110e89190613026565b6110f29190612ef2565b9050600061111882611112633b9aca0061110c838a611eea565b90611ef6565b90611f02565b9050600061113c83611112633b9aca0061110c611135848c611eea565b8890611eea565b9050611160633b9aca0061111285818361110c611159848e611eea565b8e90611ef6565b60158054600090611172908490612eda565b9091555061119d9050633b9aca0061111285818361110c611159611196858f611eea565b8b90611eea565b601480546000906111af908490612eda565b9091555050600754601554106111ed5760006111cf601460010154611f0e565b905080601460010160008282546111e69190613045565b9091555050505b6008546014541061122757600061120960146000015430610a52565b905080601460000160008282546112209190613045565b9091555050505b7fe3cfbc19c9b2799117ecb6d44aebbcf7204606ea626d36d9535314a9f20c27028282604051611258929190612e86565b60405180910390a150505050505050565b611271611a69565b6001600160a01b0316611282611414565b6001600160a01b0316146112a85760405162461bcd60e51b81526004016108d890612bec565b306000908152600160205260409020546112c3816002611f02565b6014556112d1816002611f02565b60158190556014546040517feac7c420776212140a54f51e3179e218232d622b4fa6556ab2ef0b973c0f5ab0926113089291612e86565b60405180910390a150565b6001600160a01b031660009081526001602052604090205490565b611336611a69565b6001600160a01b0316611347611414565b6001600160a01b03161461136d5760405162461bcd60e51b81526004016108d890612bec565b600080546040516001600160a01b03909116907f8be0079c531659141344cd1fd0a4f28419497f9722a3daafe3b4186f6b6457e0908390a3600080546001600160a01b0319169055565b6113bf611a69565b6001600160a01b03166113d0611414565b6001600160a01b0316146113f65760405162461bcd60e51b81526004016108d890612bec565b60055461140490600a612f58565b61140e9082613026565b60075550565b6000546001600160a01b031690565b6011546001600160a01b031681565b6060600f80546107f19061308c565b611449611a69565b6001600160a01b031661145a611414565b6001600160a01b0316146114805760405162461bcd60e51b81526004016108d890612bec565b6001600160a01b03811660009081526004602052604090205460ff166114b85760405162461bcd60e51b81526004016108d890612b7d565b6001600160a01b03166000908152600460205260409020805460ff19169055565b6114e1611a69565b6001600160a01b03166114f2611414565b6001600160a01b0316146115185760405162461bcd60e51b81526004016108d890612bec565b601080546001600160a01b0319166001600160a01b0392909216919091179055565b60008060036000611549611a69565b6001600160a01b03908116825260208083019390935260409182016000908120918816815292529020549050828110156115955760405162461bcd60e51b81526004016108d890612d9a565b6115ab6115a0611a69565b85610d758685613045565b5060019392505050565b6012546001600160a01b031681565b60006108896115d1611a69565b8484611b22565b6000806115e361175b565b91509150600082116116075760405162461bcd60e51b81526004016108d890612b5b565b3360009081526002602081905260408220429101556014805483929061162e908490612eda565b90915550506040516000805160206131a183398151915290611655903390309085906129cc565b60405180910390a16116673383612249565b5050565b611673611a69565b6001600160a01b0316611684611414565b6001600160a01b0316146116aa5760405162461bcd60e51b81526004016108d890612bec565b6116b7600c8260056125b4565b506040517f3aaf767b2e63f4c5f274684ce36da44af23d293465914ee94908682af41e652790600090a150565b6116ec611a69565b6001600160a01b03166116fd611414565b6001600160a01b0316146117235760405162461bcd60e51b81526004016108d890612bec565b6116b7600a826004612521565b6001600160a01b03918216600090815260036020908152604080832093909416825291909152205490565b3360009081526002602081815260408084208151606081018352815481526001820154938101939093529092015491810182905282914261179f8262015180612eda565b11156117b357600080935093505050611881565b6012546001600160a01b031660009081526001602052604081205461dead8083527fb34209a263f6c38fe55f099e9e70f9d67e93982480ff3234a5e0108028ad164d54909291611807916110a890816109e5565b9050600061183a6118188542613045565b61110c61182430611313565b3360009081526001602052604090205490611ef6565b9050600061184b8362015180611ef6565b905060006118598383611f02565b9050600061186961079e83610d87565b90506118758282611eea565b99509750505050505050505b9091565b60145460155482565b336000908152600260208190526040822001546118ae9062015180612eda565b905090565b600b81600581106107c857600080fd5b6118cb611a69565b6001600160a01b03166118dc611414565b6001600160a01b0316146119025760405162461bcd60e51b81526004016108d890612bec565b6001600160a01b0381166119285760405162461bcd60e51b81526004016108d890612a69565b600080546040516001600160a01b03808516939216917f8be0079c531659141344cd1fd0a4f28419497f9722a3daafe3b4186f6b6457e091a3600080546001600160a01b0319166001600160a01b0392909216919091179055565b6013546001600160a01b031681565b6000671bc16d674ec800008211156119d4576119cd6064611112600b60045b6020810491909101548691601f166101000a900460ff16611ef6565b9050610f40565b6714d1120d7b1600008211156119f5576119cd6064611112600b60036119b1565b670de0b6b3a7640000821115611a16576119cd6064611112600b60026119b1565b6706f05b59d3b20000821115611a37576119cd6064611112600b60016119b1565b6703782dace9d90000821115611a58576119cd6064611112600b60006119b1565b506000610f40565b600d5460ff1681565b3390565b6001600160a01b038316611a935760405162461bcd60e51b81526004016108d890612ce9565b6001600160a01b038216611ab95760405162461bcd60e51b81526004016108d890612aaf565b6001600160a01b0380841660009081526003602090815260408083209386168352929052819020829055517f8c5be1e5ebec7d5bd14f71427d1e84f3dd0314c0f7b2291e5b200ac8c7c3b92590611b15908590859085906129cc565b60405180910390a1505050565b6001600160a01b038316611b485760405162461bcd60e51b81526004016108d890612c58565b6001600160a01b03831660009081526001602052604090205481811015611b815760405162461bcd60e51b81526004016108d890612af1565b6001600160a01b0384166000908152600460205260408120548190819060ff16158015611bc757506001600160a01b03861660009081526004602052604090205460ff16155b8015611bd65750600d5460ff16155b15611db857600080601260009054906101000a90046001600160a01b03166001600160a01b0316630902f1ac6040518163ffffffff1660e01b815260040160606040518083038186803b158015611c2c57600080fd5b505afa158015611c40573d6000803e3d6000fd5b505050506040513d601f19601f82011682018060405250810190611c6491906128ac565b5091509150601260009054906101000a90046001600160a01b03166001600160a01b0316630dfe16816040518163ffffffff1660e01b815260040160206040518083038186803b158015611cb757600080fd5b505afa158015611ccb573d6000803e3d6000fd5b505050506040513d601f19601f82011682018060405250810190611cef9190612691565b6001600160a01b0316306001600160a01b031614611d0957905b611d1d8988846001600160701b03166122db565b9450611d2b876103e8611f02565b9350611d3e6103e8611112896063611ef6565b9250611d5383836001600160701b031661106d565b611d5d8584612515565b3060009081526001602052604081208054909190611d7c908490612eda565b90915550506011546001600160a01b031660009081526001602052604081208054869290611dab908490612eda565b90915550611dc292505050565b5060009150819050805b6001600160a01b038616600090815260026020526040902042600190910155611deb8486611eea565b6001600160a01b038816600090815260016020526040902055611e14816110a884818988611eea565b6001600160a01b03871660009081526001602052604081208054909190611e3c908490612eda565b90915550506040516000805160206131a183398151915290611e63908990899089906129cc565b60405180910390a16000805160206131a1833981519152873085604051611e8c939291906129cc565b60405180910390a16000805160206131a1833981519152873083604051611eb5939291906129cc565b60405180910390a16011546040516000805160206131a183398151915291611258918a916001600160a01b03169086906129cc565b6000610d808284613045565b6000610d808284613026565b6000610d808284612ef2565b6040805160028082526060820183526000924792849290916020830190803683370190505090503081600081518110611f5757634e487b7160e01b600052603260045260246000fd5b6001600160a01b03928316602091820292909201810191909152601354604080516315ab88c960e31b81529051919093169263ad5c4648926004808301939192829003018186803b158015611fab57600080fd5b505afa158015611fbf573d6000803e3d6000fd5b505050506040513d601f19601f82011682018060405250810190611fe39190612691565b8160018151811061200457634e487b7160e01b600052603260045260246000fd5b6001600160a01b039283166020918202929092010152601354859161202b91309116611730565b10156120a157306000818152600360209081526040808320601380546001600160a01b039081168652919093529281902060001990819055915490517f8c5be1e5ebec7d5bd14f71427d1e84f3dd0314c0f7b2291e5b200ac8c7c3b92594612098949093921691906129cc565b60405180910390a15b6013546001600160a01b031663791ac9476120bd866002611f02565b60008430426040518663ffffffff1660e01b81526004016120e2959493929190612df7565b600060405180830381600087803b1580156120fc57600080fd5b505af192505050801561210d575060015b612151577facabbd54c23d6a523d8111565d14ae729de6bbe5ea4707cb6162c24d4fae03f460405161213e90612c9d565b60405180910390a1600092505050610f40565b600061215d4784611eea565b6013549091506001600160a01b031663f305d719823061217e896002611f02565b6010546040516001600160e01b031960e087901b1681526121b493929160009182916001600160a01b03169042906004016129f0565b6060604051808303818588803b1580156121cd57600080fd5b505af11580156121e1573d6000803e3d6000fd5b50505050506040513d601f19601f82011682018060405250810190612206919061296f565b5050507facabbd54c23d6a523d8111565d14ae729de6bbe5ea4707cb6162c24d4fae03f460405161223690612b37565b60405180910390a1849350505050610f40565b604080516000808252602082019092526001600160a01b038416908390604051612273919061299c565b60006040518083038185875af1925050503d80600081146122b0576040519150601f19603f3d011682016040523d82523d6000602084013e6122b5565b606091505b50509050806122d65760405162461bcd60e51b81526004016108d890612d2d565b505050565b6040805160a0810191829052600091829190600c906005908285855b82829054906101000a900461ffff1661ffff16815260200190600201906020826001010492830192600103820291508084116122f757505050506001600160a01b03881660009081526002602081815260408084208151606081018352815481526001820154938101849052930154908301529495509390925061237f915062015180612eda565b4211156123a0576001600160a01b0387166000908152600260205260408120555b6001600160a01b0387166000908152600260205260408120546123c4908890612515565b90506123e36127106111128660045b6020020151899061ffff16611ef6565b8111156124025760405162461bcd60e51b81526004016108d890612c21565b6124136127106111128660036123d3565b81111561244a576124436064611112600a60035b6020810491909101548b91601f166101000a900460ff16611ef6565b91506124ca565b61245b6127106111128660026123d3565b811115612473576124436064611112600a6002612427565b6124846127106111128660016123d3565b81111561249c576124436064611112600a6001612427565b6124ad6127106111128660006123d3565b8111156124c5576124436064611112600a6000612427565b600091505b82516124d69088612515565b6001600160a01b03891660009081526002602052604081209190915560148054849290612504908490612eda565b909155509198975050505050505050565b6000610d808284612eda565b6001830191839082156125a45791602002820160005b8382111561257557835183826101000a81548160ff021916908360ff1602179055509260200192600101602081600001049283019260010302612537565b80156125a25782816101000a81549060ff0219169055600101602081600001049283019260010302612575565b505b506125b0929150612638565b5090565b6001830191839082156125a45791602002820160005b8382111561260a57835183826101000a81548161ffff021916908361ffff16021790555092602001926002016020816001010492830192600103026125ca565b80156125a25782816101000a81549061ffff021916905560020160208160010104928301926001030261260a565b5b808211156125b05760008155600101612639565b80516001600160701b0381168114610f4057600080fd5b803560ff81168114610f4057600080fd5b600060208284031215612686578081fd5b8135610d8081613188565b6000602082840312156126a2578081fd5b8151610d8081613188565b600080604083850312156126bf578081fd5b82356126ca81613188565b915060208301356126da81613188565b809150509250929050565b6000806000606084860312156126f9578081fd5b833561270481613188565b9250602084013561271481613188565b929592945050506040919091013590565b60008060408385031215612737578182fd5b823561274281613188565b946020939093013593505050565b600060a08284031215612761578081fd5b82601f83011261276f578081fd5b61277960a0612ea2565b80838560a08601111561278a578384fd5b835b60058110156127bb57813561ffff811681146127a6578586fd5b8452602093840193919091019060010161278c565b509095945050505050565b6000608082840312156127d7578081fd5b82601f8301126127e5578081fd5b6127ef6080612ea2565b808385608086011115612800578384fd5b835b60048110156127bb5761281482612664565b84526020938401939190910190600101612802565b600060a0828403121561283a578081fd5b82601f830112612848578081fd5b61285260a0612ea2565b80838560a086011115612863578384fd5b835b60058110156127bb5761287782612664565b84526020938401939190910190600101612865565b60006020828403121561289d578081fd5b81358015158114610d80578182fd5b6000806000606084860312156128c0578283fd5b6128c98461264d565b92506128d76020850161264d565b9150604084015163ffffffff811681146128ef578182fd5b809150509250925092565b60006020828403121561290b578081fd5b5035919050565b600060208284031215612923578081fd5b5051919050565b6000806040838503121561293c578182fd5b8235915060208301356126da81613188565b60008060408385031215612960578182fd5b50508035926020909101359150565b600080600060608486031215612983578081fd5b8351925060208401519150604084015190509250925092565b600082516129ae81846020870161305c565b9190910192915050565b6001600160a01b0391909116815260200190565b6001600160a01b039384168152919092166020820152604081019190915260600190565b6001600160a01b039687168152602081019590955260408501939093526060840191909152909216608082015260a081019190915260c00190565b901515815260200190565b6000602082528251806020840152612a5581604085016020870161305c565b601f01601f19169190910160400192915050565b60208082526026908201527f4f776e61626c653a206e6577206f776e657220697320746865207a65726f206160408201526564647265737360d01b606082015260800190565b60208082526022908201527f45524332303a20617070726f766520746f20746865207a65726f206164647265604082015261737360f01b606082015260800190565b60208082526026908201527f45524332303a207472616e7366657220616d6f756e7420657863656564732062604082015265616c616e636560d01b606082015260800190565b6020808252600a90820152696164644c69713a206f6b60b01b604082015260600190565b6020808252600890820152670436c61696d3a20360c41b604082015260600190565b6020808252600d908201526c185b1c9958591e481d185e1959609a1b604082015260600190565b60208082526028908201527f45524332303a207472616e7366657220616d6f756e74206578636565647320616040820152676c6c6f77616e636560c01b606082015260800190565b6020808252818101527f4f776e61626c653a2063616c6c6572206973206e6f7420746865206f776e6572604082015260600190565b6020808252601d908201527f53656c6c696e67207461783a2061626f7665206d617820616d6f756e74000000604082015260600190565b60208082526025908201527f45524332303a207472616e736665722066726f6d20746865207a65726f206164604082015264647265737360d81b606082015260800190565b6020808252600c908201526b185919131a5c4e8819985a5b60a21b604082015260600190565b6020808252600c908201526b53776170207375636365737360a01b604082015260600190565b60208082526024908201527f45524332303a20617070726f76652066726f6d20746865207a65726f206164646040820152637265737360e01b606082015260800190565b60208082526023908201527f5472616e7366657248656c7065723a204554485f5452414e534645525f46414960408201526213115160ea1b606082015260800190565b60208082526010908201526f185b1c9958591e48195e18db1d59195960821b604082015260600190565b60208082526025908201527f45524332303a2064656372656173656420616c6c6f77616e63652062656c6f77604082015264207a65726f60d81b606082015260800190565b61ffff91909116815260200190565b90815260200190565b600060a082018783526020878185015260a0604085015281875180845260c0860191508289019350845b81811015612e465784516001600160a01b031683529383019391830191600101612e21565b50506001600160a01b03969096166060850152505050608001529392505050565b9283526001600160701b03918216602084015216604082015260600190565b918252602082015260400190565b60ff91909116815260200190565b60405181810167ffffffffffffffff81118282101715612ed257634e487b7160e01b600052604160045260246000fd5b604052919050565b60008219821115612eed57612eed6130c7565b500190565b600082612f0d57634e487b7160e01b81526012600452602481fd5b500490565b80825b6001808611612f245750612f4f565b818704821115612f3657612f366130c7565b80861615612f4357918102915b9490941c938002612f15565b94509492505050565b6000610d806000198484600082612f7157506001610d80565b81612f7e57506000610d80565b8160018114612f945760028114612f9e57612fcb565b6001915050610d80565b60ff841115612faf57612faf6130c7565b6001841b915084821115612fc557612fc56130c7565b50610d80565b5060208310610133831016604e8410600b8410161715612ffe575081810a83811115612ff957612ff96130c7565b610d80565b61300b8484846001612f12565b80860482111561301d5761301d6130c7565b02949350505050565b6000816000190483118215151615613040576130406130c7565b500290565b600082821015613057576130576130c7565b500390565b60005b8381101561307757818101518382015260200161305f565b83811115613086576000848401525b50505050565b6002810460018216806130a057607f821691505b602082108114156130c157634e487b7160e01b600052602260045260246000fd5b50919050565b634e487b7160e01b600052601160045260246000fd5b60e01c90565b600060443d10156130f357610872565b600481823e6308c379a061310782516130dd565b1461311157610872565b6040513d600319016004823e80513d67ffffffffffffffff81602484011181841117156131415750505050610872565b8284019250825191508082111561315b5750505050610872565b503d8301602082840101111561317357505050610872565b601f01601f1916810160200160405291505090565b6001600160a01b038116811461319d57600080fd5b5056feddf252ad1be2c89b69c2b068fc378daa952ba7f163c4a11628f55a4df523b3efa26469706673582212203e36bc43ec7fc1cfa23193ad0eb2ffb8a536d777bc53929e755dc81c5163959664736f6c63430008000033",
  "immutableReferences": {},
  "source": "// SPDX-License-Identifier: GPL\n\npragma solidity 0.8.0;\n\nimport \"@openzeppelin/contracts/utils/math/SafeMath.sol\";\nimport \"@openzeppelin/contracts/access/Ownable.sol\";\nimport \"@uniswap/v2-periphery/contracts/interfaces/IUniswapV2Router02.sol\";\nimport \"@uniswap/v2-core/contracts/interfaces/IUniswapV2Factory.sol\";\nimport \"@uniswap/v2-core/contracts/interfaces/IUniswapV2Pair.sol\";\n\n/**\n * @dev iBNB\n *\n *\n *\n *\n */\n\ncontract iBNB is Ownable {\n    using SafeMath for uint256;\n\n\n//TODO BEFORE DEPLOYMENT: Reduce visibility as needed --\n//FUNCTION ARE ALL PUBLIC FOR DEBUGGING PURPOSES\n\n\n    struct past_tx {\n      uint256 cum_transfer; //this is not what you think, you perv\n      uint256 last_timestamp;\n      uint256 last_claim;\n    }\n\n    struct prop_balances {\n      uint256 reward_pool;\n      uint256 liquidity_pool;\n    }\n\n    mapping (address => uint256) private _balances;\n    mapping (address => past_tx) private _last_tx;\n    mapping (address => mapping (address => uint256)) private _allowances;\n    mapping (address => bool) public excluded;\n\n    uint256 private _decimals = 9;\n    uint256 private _totalSupply = 10**15 * 10**_decimals;\n    uint256 public swap_for_liquidity_threshold = 10**13 * 10**_decimals; //1%\n    uint256 public swap_for_reward_threshold = 10**13 * 10**_decimals;\n    uint256 public pcs_pool_to_circ_ratio = 10;\n\n//TODO gas optim:\n\n    uint8[4] public selling_taxes_rates = [2, 4, 6, 8];\n    uint8[5] public claiming_taxes_rates = [2, 4, 6, 8, 15];\n    uint16[5] public selling_taxes_tranches = [125, 250, 500, 750, 1000]; // % and div by 10**4 0.0125% -0.025% -(...)\n\n    bool public circuit_breaker;\n\n    string private _name = \"iBNB\";\n    string private _symbol = \"iBNB\";\n\n    address public LP_recipient;\n    address public devWallet;\n\n    IUniswapV2Pair public pair;\n    IUniswapV2Router02 public router;\n\n    prop_balances public balancer_balances;\n\n    event Approval(address, address, uint256);\n    event Transfer(address, address, uint256);\n    event TaxRatesChanged();\n    event SwapForBNB(string);\n    event BalancerRatio(uint256,uint256);\n    event RewardTaxChanged();\n    event AddLiq(string);\n    event balancerReset(uint256, uint256);\n\n    constructor (address _router) {\n\n         _balances[msg.sender] = _totalSupply;\n\n         //create pair to get the pair address\n         router = IUniswapV2Router02(_router);\n         IUniswapV2Factory factory = IUniswapV2Factory(router.factory());\n         pair = IUniswapV2Pair(factory.createPair(address(this), router.WETH()));\n\n         LP_recipient = address(0);\n         devWallet = address(0);\n\n         excluded[msg.sender] = true;\n         excluded[address(this)] = true;\n\n         circuit_breaker == false;\n    }\n\n    function decimals() public view returns (uint256) {\n         return _decimals;\n    }\n    function name() public view returns (string memory) {\n        return _name;\n    }\n    function symbol() public view returns (string memory) {\n        return _symbol;\n    }\n    function totalSupply() public view virtual  returns (uint256) {\n        return _totalSupply;\n    }\n    function balanceOf(address account) public view virtual  returns (uint256) {\n        return _balances[account];\n    }\n    function transfer(address recipient, uint256 amount) public virtual  returns (bool) {\n        _transfer(_msgSender(), recipient, amount);\n        return true;\n    }\n    function allowance(address owner, address spender) public view virtual  returns (uint256) {\n        return _allowances[owner][spender];\n    }\n    function approve(address spender, uint256 amount) public virtual  returns (bool) {\n        _approve(_msgSender(), spender, amount);\n        return true;\n    }\n    function transferFrom(address sender, address recipient, uint256 amount) public virtual  returns (bool) {\n        _transfer(sender, recipient, amount);\n\n        uint256 currentAllowance = _allowances[sender][_msgSender()];\n        require(currentAllowance >= amount, \"ERC20: transfer amount exceeds allowance\");\n        _approve(sender, _msgSender(), currentAllowance - amount);\n\n        return true;\n    }\n    function increaseAllowance(address spender, uint256 addedValue) public virtual returns (bool) {\n        _approve(_msgSender(), spender, _allowances[_msgSender()][spender] + addedValue);\n        return true;\n    }\n    function decreaseAllowance(address spender, uint256 subtractedValue) public virtual returns (bool) {\n        uint256 currentAllowance = _allowances[_msgSender()][spender];\n        require(currentAllowance >= subtractedValue, \"ERC20: decreased allowance below zero\");\n        _approve(_msgSender(), spender, currentAllowance - subtractedValue);\n\n        return true;\n    }\n    function _approve(address owner, address spender, uint256 amount) internal virtual {\n        require(owner != address(0), \"ERC20: approve from the zero address\");\n        require(spender != address(0), \"ERC20: approve to the zero address\");\n\n        _allowances[owner][spender] = amount;\n        emit Approval(owner, spender, amount);\n    }\n\n\n    function _transfer(address sender, address recipient, uint256 amount) internal virtual {\n        require(sender != address(0), \"ERC20: transfer from the zero address\");\n\n        uint256 senderBalance = _balances[sender]; // gas SLOAD: 200 vs MLOAD: 3 ...\n        require(senderBalance >= amount, \"ERC20: transfer amount exceeds balance\");\n\n        uint256 sell_tax;\n        uint256 dev_tax;\n        uint256 balancer_amount;\n\n        if(excluded[sender] == false && excluded[recipient] == false && circuit_breaker == false) {\n\n        // ----  Sell tax  ----\n          (uint112 _reserve0, uint112 _reserve1,) = pair.getReserves(); // returns reserve0, reserve1, timestamp last tx\n          if(address(this) != pair.token0()) { // 0 := iBNB\n            (_reserve0, _reserve1) = (_reserve1, _reserve0);\n          }\n          sell_tax = sellingTax(sender, amount, _reserve0); //will update the balancer ledger too\n\n        // ------ dev tax 0.1% -------\n          dev_tax = amount.div(1000);\n\n        // ------ balancer tax 9.9% ------\n          balancer_amount = amount.mul(99).div(1000);\n          balancer(balancer_amount, _reserve0);\n\n          //@dev every extra token are collected into address(this), it's the balancer job to then split them\n          //between pool and reward, using the dedicated struct\n          _balances[address(this)] += sell_tax.add(balancer_amount);\n          _balances[devWallet] += dev_tax;\n        }\n        else {\n          sell_tax = 0;\n          dev_tax = 0;\n          balancer_amount = 0;\n        }\n\n        //reward reinit\n        _last_tx[recipient].last_timestamp = block.timestamp;\n\n        _balances[sender] = senderBalance.sub(amount);\n        _balances[recipient] += amount.sub(sell_tax).sub(dev_tax).sub(balancer_amount);\n\n        emit Transfer(sender, recipient, amount);\n        emit Transfer(sender, address(this), sell_tax);\n        emit Transfer(sender, address(this), balancer_amount);\n        emit Transfer(sender, devWallet, dev_tax);\n    }\n\n    //@dev take a selling tax if transfer from a non-excluded address or from the pair contract exceed\n    //the thresholds defined in selling_taxes_thresholds on 24h floating window\n    function sellingTax(address sender, uint256 amount, uint256 pool_balance) private returns(uint256) {\n        uint16[5] memory _tax_tranches = selling_taxes_tranches;\n        past_tx memory sender_last_tx = _last_tx[sender];\n\n        uint256 sell_tax;\n\n        //>1 day since last tx\n        if(block.timestamp > sender_last_tx.last_timestamp + 1 days) {\n          _last_tx[sender].cum_transfer = 0; // a.k.a The Virgin\n        }\n\n        uint256 new_cum_sum = amount.add(_last_tx[sender].cum_transfer);\n\n        if(new_cum_sum > pool_balance.mul(_tax_tranches[4]).div(10**4)) {\n          revert(\"Selling tax: above max amount\");\n        }\n        else if(new_cum_sum > pool_balance.mul(_tax_tranches[3]).div(10**4)) {\n          sell_tax = amount.mul(selling_taxes_rates[3]).div(100);\n        }\n        else if(new_cum_sum > pool_balance.mul(_tax_tranches[2]).div(10**4)) {\n          sell_tax = amount.mul(selling_taxes_rates[2]).div(100);\n        }\n        else if(new_cum_sum > pool_balance.mul(_tax_tranches[1]).div(10**4)) {\n          sell_tax = amount.mul(selling_taxes_rates[1]).div(100);\n        }\n        else if(new_cum_sum > pool_balance.mul(_tax_tranches[0]).div(10**4)) {\n          sell_tax = amount.mul(selling_taxes_rates[0]).div(100);\n        }\n        else { sell_tax = 0; }\n\n        _last_tx[sender].cum_transfer = sender_last_tx.cum_transfer.add(amount);\n\n        balancer_balances.reward_pool += sell_tax; //sell tax is for reward:)\n\n        return sell_tax;\n    }\n\n    //@dev take the 9.9% taxes as input, split it between reward and liq subpools\n    //    according to pool condition -> circ-pool/circ supply closer to one implies\n    //    priority to the reward pool\n    function balancer(uint256 amount, uint256 pool_balance) public {\n\n        address DEAD = address(0x000000000000000000000000000000000000dEaD);\n        uint256 unwght_circ_supply = totalSupply().sub(_balances[DEAD]);\n\n        uint256 circ_supply = (pool_balance < unwght_circ_supply * pcs_pool_to_circ_ratio / 100) ? unwght_circ_supply * pcs_pool_to_circ_ratio / 100 : pool_balance;\n\n        uint256 liq_ratio = (circ_supply.sub(pool_balance)).mul(10**9).div(circ_supply);\n        uint256 rew_ratio = (circ_supply.sub((circ_supply.sub(pool_balance)))).mul(10**9).div(circ_supply);\n\n        balancer_balances.liquidity_pool += (amount.mul(circ_supply.sub(pool_balance)).mul(10**9).div(circ_supply)).div(10**9);\n        balancer_balances.reward_pool += (amount.mul(circ_supply.sub((circ_supply.sub(pool_balance)))).mul(10**9).div(circ_supply)).div(10**9);\n\n        if(balancer_balances.liquidity_pool >= swap_for_liquidity_threshold) {\n            uint256 token_out = addLiquidity(balancer_balances.liquidity_pool);\n            balancer_balances.liquidity_pool -= token_out; //not balanceOf, in case addLiq revert\n        }\n\n        if(balancer_balances.reward_pool >= swap_for_reward_threshold) {\n            uint256 token_out = swapForBNB(balancer_balances.reward_pool, address(this));\n            balancer_balances.reward_pool -= token_out;\n        }\n\n        emit BalancerRatio(liq_ratio, rew_ratio);\n    }\n\n    //@dev when triggered, will swap and provide liquidity\n    //    BNBfromSwap being the difference between and after the swap, slippage\n    //    will result in extra-BNB for the reward pool (free money for the guys:)\n    function addLiquidity(uint256 token_amount) internal returns (uint256) {\n      uint256 BNBfromReward = address(this).balance;\n\n      address[] memory route = new address[](2);\n      route[0] = address(this);\n      route[1] = router.WETH();\n\n      if(allowance(address(this), address(router)) < token_amount) {\n        _allowances[address(this)][address(router)] = ~uint256(0);\n        emit Approval(address(this), address(router), ~uint256(0));\n      }\n\n      try router.swapExactTokensForETHSupportingFeeOnTransferTokens(token_amount.div(2), 0, route, address(this), block.timestamp) {\n        uint256 BNBfromSwap = address(this).balance.sub(BNBfromReward);\n        router.addLiquidityETH{value: BNBfromSwap}(address(this), token_amount.div(2), 0, 0, LP_recipient, block.timestamp); //will not be catched\n        emit AddLiq(\"addLiq: ok\");\n        return token_amount;\n      }\n      catch {\n        emit AddLiq(\"addLiq: fail\");\n        return 0;\n      }\n    }\n\n    //@dev individual reward is growing linearly througout 24h, and is the portion of the reward pool\n    //     weighted by the circ. supply owned.\n    //     reward = (balance/circ supply) * [(now - lastClaim) / 1d] * BNB_balance\n    //     If an extra-buy occurs in the last 24h, reset 24h timer (in sell tax)\n    //     (frontend will automatize claim then buy)\n    function computeReward() public view returns(uint256, uint256) {\n\n      past_tx memory sender_last_tx = _last_tx[msg.sender];\n      uint256 last_claim = sender_last_tx.last_claim;\n\n      if(last_claim + 1 days > block.timestamp) { // 1 claim every 24h max\n        return (0, 0);\n      }\n\n      address DEAD = address(0x000000000000000000000000000000000000dEaD);\n\n      uint256 circulating_supply = totalSupply().sub(_balances[DEAD]).sub(_balances[address(pair)]);\n\n      uint256 _nom = _balances[msg.sender].mul(balanceOf(address(this))).mul(block.timestamp - last_claim);\n      uint256 _denom = circulating_supply.mul(1 days);\n\n      uint256 reward_without_penalty = _nom.div(_denom);\n\n      uint256 tax_to_pay = taxOnClaim(getQuoteInBNB(reward_without_penalty));\n\n      return (reward_without_penalty.sub(tax_to_pay), tax_to_pay);\n    }\n\n    //@dev Compute the tax on claimed reward - labelled in BNB (as per team agreement)\n    //    but *not* swapped before actual claim (token from claimer staying in the reward pool).\n    function taxOnClaim(uint256 amount) public view returns(uint256 tax){\n\n      if(amount > 2 ether) { return amount.mul(claiming_taxes_rates[4]).div(100); } //GIVE US FINNEY'S BACK\n      else if(amount > 1.50 ether) { return amount.mul(claiming_taxes_rates[3]).div(100); }\n      else if(amount > 1 ether) { return amount.mul(claiming_taxes_rates[2]).div(100); }\n      else if(amount > 0.5 ether) { return amount.mul(claiming_taxes_rates[1]).div(100); }\n      else if(amount > 0.25 ether) { return amount.mul(claiming_taxes_rates[0]).div(100); }\n      else { return 0; }\n\n    }\n\n    //@dev frontend integration\n    function whenClaim() public view returns (uint256) {\n      return _last_tx[msg.sender].last_claim + 1 days;\n    }\n\n    //@dev computeReward check if last claim is less than 1d ago\n    function claimReward() public {\n      (uint256 claimable, uint256 tax) = computeReward();\n      require(claimable > 0, \"Claim: 0\");\n      _last_tx[msg.sender].last_claim = block.timestamp;\n      balancer_balances.reward_pool += tax;\n      emit Transfer(msg.sender, address(this), tax);\n      safeTransferETH(msg.sender, claimable);\n    }\n\n    function getQuoteInBNB(uint256 nb_token) public view returns (uint256) {\n      (uint112 _reserve0, uint112 _reserve1,) = pair.getReserves(); // returns reserve0, reserve1, timestamp last tx\n      if(address(this) != pair.token0()) { // 0 <- iBNB\n        (_reserve0, _reserve1) = (_reserve1, _reserve0);\n      }\n      return router.getAmountOut(nb_token, _reserve0, _reserve1);\n    }\n\n    function swapForBNB(uint256 token_amount, address receiver) public returns (uint256) {\n      address[] memory route = new address[](2);\n      route[0] = address(this);\n      route[1] = router.WETH();\n\n      if(allowance(address(this), address(router)) < token_amount) {\n        _allowances[address(this)][address(router)] = ~uint256(0);\n        emit Approval(address(this), address(router), ~uint256(0));\n      }\n\n      try router.swapExactTokensForETHSupportingFeeOnTransferTokens(token_amount, 0, route, receiver, block.timestamp) {\n        emit SwapForBNB(\"Swap success\");\n        return token_amount;\n      }\n      catch Error(string memory _err) {\n        emit SwapForBNB(_err);\n        return 0;\n      }\n    }\n\n    //@dev taken from uniswapV2 TransferHelper lib\n    function safeTransferETH(address to, uint value) internal {\n        (bool success,) = to.call{value:value}(new bytes(0));\n        require(success, 'TransferHelper: ETH_TRANSFER_FAILED');\n    }\n\n    function excludeFromTaxes(address adr) public onlyOwner {\n      require(!excluded[adr], \"already excluded\");\n      excluded[adr] = true;\n    }\n\n    function includeInTaxes(address adr) public onlyOwner {\n      require(excluded[adr], \"already taxed\");\n      excluded[adr] = false;\n    }\n\n    function resetBalancer() public onlyOwner {\n      uint256 _contract_balance = _balances[address(this)];\n      balancer_balances.reward_pool = _contract_balance.div(2);\n      balancer_balances.liquidity_pool = _contract_balance.div(2);\n      emit balancerReset(balancer_balances.reward_pool, balancer_balances.liquidity_pool);\n    }\n\n    //@dev will bypass all the taxes and act as erc20.\n    //     pools & balancer balances will remain untouched\n    function setCircuitBreaker(bool status) public onlyOwner {\n      circuit_breaker = status;\n    }\n\n    function setLPContract(address _LP_recipient) public onlyOwner {\n      LP_recipient = _LP_recipient;\n    }\n\n    function setDevWallet(address _devWallet) public onlyOwner {\n      devWallet = _devWallet;\n    }\n\n    function setSwapFor_Liq_Threshold(uint256 threshold_in_token) public onlyOwner {\n      swap_for_liquidity_threshold = threshold_in_token * 10**_decimals;\n    }\n\n    function setSwapFor_Reward_Threshold(uint256 threshold_in_token) public onlyOwner {\n      swap_for_reward_threshold = threshold_in_token * 10**_decimals;\n    }\n\n    function setSellingTaxesTranches(uint16[5] memory new_tranches) public onlyOwner {\n      selling_taxes_tranches = new_tranches;\n      emit TaxRatesChanged();\n    }\n\n    function setSellingTaxesrates(uint8[4] memory new_amounts) public onlyOwner {\n      selling_taxes_rates = new_amounts;\n      emit TaxRatesChanged();\n    }\n\n    function setRewardTaxesTranches(uint8[5] memory new_tranches) public onlyOwner {\n      claiming_taxes_rates = new_tranches;\n      emit RewardTaxChanged();\n    }\n\n    //@dev fallback in order to receive BNB from swapToBNB\n    receive () external payable {}\n}\n",
  "sourcePath": "/home/drgorilla/Documents/solidity/iBNB/contracts/iBNB.sol",
  "compiler": {
    "name": "solc",
    "version": "0.8.0+commit.c7dfd78e.Emscripten.clang"
  },
  "schemaVersion": "3.4.0",
  "updatedAt": "2021-06-13T15:49:16.007Z",
  "devdoc": {
    "details": "iBNB",
    "kind": "dev",
    "methods": {
      "owner()": {
        "details": "Returns the address of the current owner."
      },
      "renounceOwnership()": {
        "details": "Leaves the contract without owner. It will not be possible to call `onlyOwner` functions anymore. Can only be called by the current owner. NOTE: Renouncing ownership will leave the contract without an owner, thereby removing any functionality that is only available to the owner."
      },
      "transferOwnership(address)": {
        "details": "Transfers ownership of the contract to a new account (`newOwner`). Can only be called by the current owner."
      }
    },
    "version": 1
  },
  "userdoc": {
    "kind": "user",
    "methods": {},
    "version": 1
  }
}