{
  "contractName": "iBNB",
  "abi": [
    {
      "inputs": [
        {
          "internalType": "address",
          "name": "_router",
          "type": "address"
        }
      ],
      "stateMutability": "nonpayable",
      "type": "constructor"
    },
    {
      "anonymous": false,
      "inputs": [
        {
          "indexed": false,
          "internalType": "string",
          "name": "",
          "type": "string"
        }
      ],
      "name": "AddLiq",
      "type": "event"
    },
    {
      "anonymous": false,
      "inputs": [
        {
          "indexed": true,
          "internalType": "address",
          "name": "owner",
          "type": "address"
        },
        {
          "indexed": true,
          "internalType": "address",
          "name": "spender",
          "type": "address"
        },
        {
          "indexed": false,
          "internalType": "uint256",
          "name": "value",
          "type": "uint256"
        }
      ],
      "name": "Approval",
      "type": "event"
    },
    {
      "anonymous": false,
      "inputs": [
        {
          "indexed": false,
          "internalType": "uint256",
          "name": "",
          "type": "uint256"
        }
      ],
      "name": "BalancerRatio",
      "type": "event"
    },
    {
      "anonymous": false,
      "inputs": [
        {
          "indexed": true,
          "internalType": "address",
          "name": "previousOwner",
          "type": "address"
        },
        {
          "indexed": true,
          "internalType": "address",
          "name": "newOwner",
          "type": "address"
        }
      ],
      "name": "OwnershipTransferred",
      "type": "event"
    },
    {
      "anonymous": false,
      "inputs": [],
      "name": "RewardTaxChanged",
      "type": "event"
    },
    {
      "anonymous": false,
      "inputs": [
        {
          "indexed": false,
          "internalType": "string",
          "name": "",
          "type": "string"
        }
      ],
      "name": "SwapForBNB",
      "type": "event"
    },
    {
      "anonymous": false,
      "inputs": [],
      "name": "TaxRatesChanged",
      "type": "event"
    },
    {
      "anonymous": false,
      "inputs": [
        {
          "indexed": true,
          "internalType": "address",
          "name": "from",
          "type": "address"
        },
        {
          "indexed": true,
          "internalType": "address",
          "name": "to",
          "type": "address"
        },
        {
          "indexed": false,
          "internalType": "uint256",
          "name": "value",
          "type": "uint256"
        }
      ],
      "name": "Transfer",
      "type": "event"
    },
    {
      "inputs": [],
      "name": "LP_recipient",
      "outputs": [
        {
          "internalType": "address",
          "name": "",
          "type": "address"
        }
      ],
      "stateMutability": "view",
      "type": "function"
    },
    {
      "inputs": [],
      "name": "balancer_balances",
      "outputs": [
        {
          "internalType": "uint256",
          "name": "reward_pool",
          "type": "uint256"
        },
        {
          "internalType": "uint256",
          "name": "liquidity_pool",
          "type": "uint256"
        }
      ],
      "stateMutability": "view",
      "type": "function"
    },
    {
      "inputs": [],
      "name": "circuit_breaker",
      "outputs": [
        {
          "internalType": "bool",
          "name": "",
          "type": "bool"
        }
      ],
      "stateMutability": "view",
      "type": "function"
    },
    {
      "inputs": [
        {
          "internalType": "uint256",
          "name": "",
          "type": "uint256"
        }
      ],
      "name": "claiming_taxes_rates",
      "outputs": [
        {
          "internalType": "uint8",
          "name": "",
          "type": "uint8"
        }
      ],
      "stateMutability": "view",
      "type": "function"
    },
    {
      "inputs": [],
      "name": "devWallet",
      "outputs": [
        {
          "internalType": "address",
          "name": "",
          "type": "address"
        }
      ],
      "stateMutability": "view",
      "type": "function"
    },
    {
      "inputs": [
        {
          "internalType": "address",
          "name": "",
          "type": "address"
        }
      ],
      "name": "excluded",
      "outputs": [
        {
          "internalType": "bool",
          "name": "",
          "type": "bool"
        }
      ],
      "stateMutability": "view",
      "type": "function"
    },
    {
      "inputs": [],
      "name": "owner",
      "outputs": [
        {
          "internalType": "address",
          "name": "",
          "type": "address"
        }
      ],
      "stateMutability": "view",
      "type": "function"
    },
    {
      "inputs": [],
      "name": "pair",
      "outputs": [
        {
          "internalType": "contract IUniswapV2Pair",
          "name": "",
          "type": "address"
        }
      ],
      "stateMutability": "view",
      "type": "function"
    },
    {
      "inputs": [],
      "name": "renounceOwnership",
      "outputs": [],
      "stateMutability": "nonpayable",
      "type": "function"
    },
    {
      "inputs": [],
      "name": "router",
      "outputs": [
        {
          "internalType": "contract IUniswapV2Router02",
          "name": "",
          "type": "address"
        }
      ],
      "stateMutability": "view",
      "type": "function"
    },
    {
      "inputs": [
        {
          "internalType": "uint256",
          "name": "",
          "type": "uint256"
        }
      ],
      "name": "selling_taxes_rates",
      "outputs": [
        {
          "internalType": "uint8",
          "name": "",
          "type": "uint8"
        }
      ],
      "stateMutability": "view",
      "type": "function"
    },
    {
      "inputs": [
        {
          "internalType": "uint256",
          "name": "",
          "type": "uint256"
        }
      ],
      "name": "selling_taxes_tranches",
      "outputs": [
        {
          "internalType": "uint16",
          "name": "",
          "type": "uint16"
        }
      ],
      "stateMutability": "view",
      "type": "function"
    },
    {
      "inputs": [],
      "name": "swap_for_liquidity_threshold",
      "outputs": [
        {
          "internalType": "uint256",
          "name": "",
          "type": "uint256"
        }
      ],
      "stateMutability": "view",
      "type": "function"
    },
    {
      "inputs": [],
      "name": "swap_for_reward_threshold",
      "outputs": [
        {
          "internalType": "uint256",
          "name": "",
          "type": "uint256"
        }
      ],
      "stateMutability": "view",
      "type": "function"
    },
    {
      "inputs": [
        {
          "internalType": "address",
          "name": "newOwner",
          "type": "address"
        }
      ],
      "name": "transferOwnership",
      "outputs": [],
      "stateMutability": "nonpayable",
      "type": "function"
    },
    {
      "inputs": [],
      "name": "decimals",
      "outputs": [
        {
          "internalType": "uint256",
          "name": "",
          "type": "uint256"
        }
      ],
      "stateMutability": "view",
      "type": "function"
    },
    {
      "inputs": [],
      "name": "name",
      "outputs": [
        {
          "internalType": "string",
          "name": "",
          "type": "string"
        }
      ],
      "stateMutability": "view",
      "type": "function"
    },
    {
      "inputs": [],
      "name": "symbol",
      "outputs": [
        {
          "internalType": "string",
          "name": "",
          "type": "string"
        }
      ],
      "stateMutability": "view",
      "type": "function"
    },
    {
      "inputs": [],
      "name": "totalSupply",
      "outputs": [
        {
          "internalType": "uint256",
          "name": "",
          "type": "uint256"
        }
      ],
      "stateMutability": "view",
      "type": "function"
    },
    {
      "inputs": [
        {
          "internalType": "address",
          "name": "account",
          "type": "address"
        }
      ],
      "name": "balanceOf",
      "outputs": [
        {
          "internalType": "uint256",
          "name": "",
          "type": "uint256"
        }
      ],
      "stateMutability": "view",
      "type": "function"
    },
    {
      "inputs": [
        {
          "internalType": "address",
          "name": "recipient",
          "type": "address"
        },
        {
          "internalType": "uint256",
          "name": "amount",
          "type": "uint256"
        }
      ],
      "name": "transfer",
      "outputs": [
        {
          "internalType": "bool",
          "name": "",
          "type": "bool"
        }
      ],
      "stateMutability": "nonpayable",
      "type": "function"
    },
    {
      "inputs": [
        {
          "internalType": "address",
          "name": "owner",
          "type": "address"
        },
        {
          "internalType": "address",
          "name": "spender",
          "type": "address"
        }
      ],
      "name": "allowance",
      "outputs": [
        {
          "internalType": "uint256",
          "name": "",
          "type": "uint256"
        }
      ],
      "stateMutability": "view",
      "type": "function"
    },
    {
      "inputs": [
        {
          "internalType": "address",
          "name": "spender",
          "type": "address"
        },
        {
          "internalType": "uint256",
          "name": "amount",
          "type": "uint256"
        }
      ],
      "name": "approve",
      "outputs": [
        {
          "internalType": "bool",
          "name": "",
          "type": "bool"
        }
      ],
      "stateMutability": "nonpayable",
      "type": "function"
    },
    {
      "inputs": [
        {
          "internalType": "address",
          "name": "sender",
          "type": "address"
        },
        {
          "internalType": "address",
          "name": "recipient",
          "type": "address"
        },
        {
          "internalType": "uint256",
          "name": "amount",
          "type": "uint256"
        }
      ],
      "name": "transferFrom",
      "outputs": [
        {
          "internalType": "bool",
          "name": "",
          "type": "bool"
        }
      ],
      "stateMutability": "nonpayable",
      "type": "function"
    },
    {
      "inputs": [
        {
          "internalType": "address",
          "name": "spender",
          "type": "address"
        },
        {
          "internalType": "uint256",
          "name": "addedValue",
          "type": "uint256"
        }
      ],
      "name": "increaseAllowance",
      "outputs": [
        {
          "internalType": "bool",
          "name": "",
          "type": "bool"
        }
      ],
      "stateMutability": "nonpayable",
      "type": "function"
    },
    {
      "inputs": [
        {
          "internalType": "address",
          "name": "spender",
          "type": "address"
        },
        {
          "internalType": "uint256",
          "name": "subtractedValue",
          "type": "uint256"
        }
      ],
      "name": "decreaseAllowance",
      "outputs": [
        {
          "internalType": "bool",
          "name": "",
          "type": "bool"
        }
      ],
      "stateMutability": "nonpayable",
      "type": "function"
    },
    {
      "inputs": [],
      "name": "computeReward",
      "outputs": [
        {
          "internalType": "uint256",
          "name": "",
          "type": "uint256"
        },
        {
          "internalType": "uint256",
          "name": "",
          "type": "uint256"
        }
      ],
      "stateMutability": "view",
      "type": "function"
    },
    {
      "inputs": [
        {
          "internalType": "uint256",
          "name": "amount",
          "type": "uint256"
        }
      ],
      "name": "taxOnClaim",
      "outputs": [
        {
          "internalType": "uint256",
          "name": "tax",
          "type": "uint256"
        }
      ],
      "stateMutability": "view",
      "type": "function"
    },
    {
      "inputs": [],
      "name": "whenClaim",
      "outputs": [
        {
          "internalType": "uint256",
          "name": "",
          "type": "uint256"
        }
      ],
      "stateMutability": "view",
      "type": "function"
    },
    {
      "inputs": [],
      "name": "claimReward",
      "outputs": [],
      "stateMutability": "nonpayable",
      "type": "function"
    },
    {
      "inputs": [
        {
          "internalType": "uint256",
          "name": "nb_token",
          "type": "uint256"
        }
      ],
      "name": "getQuoteInBNB",
      "outputs": [
        {
          "internalType": "uint256",
          "name": "",
          "type": "uint256"
        }
      ],
      "stateMutability": "view",
      "type": "function"
    },
    {
      "inputs": [
        {
          "internalType": "uint256",
          "name": "token_amount",
          "type": "uint256"
        },
        {
          "internalType": "address",
          "name": "receiver",
          "type": "address"
        }
      ],
      "name": "swapForBNB",
      "outputs": [
        {
          "internalType": "uint256",
          "name": "",
          "type": "uint256"
        }
      ],
      "stateMutability": "nonpayable",
      "type": "function"
    },
    {
      "inputs": [
        {
          "internalType": "address",
          "name": "adr",
          "type": "address"
        }
      ],
      "name": "excludeFromTaxes",
      "outputs": [],
      "stateMutability": "nonpayable",
      "type": "function"
    },
    {
      "inputs": [
        {
          "internalType": "address",
          "name": "adr",
          "type": "address"
        }
      ],
      "name": "includeInTaxes",
      "outputs": [],
      "stateMutability": "nonpayable",
      "type": "function"
    },
    {
      "inputs": [],
      "name": "resetBalancer",
      "outputs": [],
      "stateMutability": "nonpayable",
      "type": "function"
    },
    {
      "inputs": [
        {
          "internalType": "bool",
          "name": "status",
          "type": "bool"
        }
      ],
      "name": "setCircuitBreaker",
      "outputs": [],
      "stateMutability": "nonpayable",
      "type": "function"
    },
    {
      "inputs": [
        {
          "internalType": "address",
          "name": "_LP_recipient",
          "type": "address"
        }
      ],
      "name": "setLPContract",
      "outputs": [],
      "stateMutability": "nonpayable",
      "type": "function"
    },
    {
      "inputs": [
        {
          "internalType": "address",
          "name": "_devWallet",
          "type": "address"
        }
      ],
      "name": "setDevWallet",
      "outputs": [],
      "stateMutability": "nonpayable",
      "type": "function"
    },
    {
      "inputs": [
        {
          "internalType": "uint256",
          "name": "threshold_in_token",
          "type": "uint256"
        }
      ],
      "name": "setSwapForLiqThreshold",
      "outputs": [],
      "stateMutability": "nonpayable",
      "type": "function"
    },
    {
      "inputs": [
        {
          "internalType": "uint16[5]",
          "name": "new_tranches",
          "type": "uint16[5]"
        }
      ],
      "name": "setSellingTaxesTranches",
      "outputs": [],
      "stateMutability": "nonpayable",
      "type": "function"
    },
    {
      "inputs": [
        {
          "internalType": "uint8[4]",
          "name": "new_amounts",
          "type": "uint8[4]"
        }
      ],
      "name": "setSellingTaxesrates",
      "outputs": [],
      "stateMutability": "nonpayable",
      "type": "function"
    },
    {
      "inputs": [
        {
          "internalType": "uint8[5]",
          "name": "new_tranches",
          "type": "uint8[5]"
        }
      ],
      "name": "setRewardTaxesTranches",
      "outputs": [],
      "stateMutability": "nonpayable",
      "type": "function"
    }
  ],
  "bytecode": "0x6080604052600960058190556200001890600a62000671565b6200002b9066038d7ea4c6800062000759565b6006556005546200003e90600a62000671565b6200005090655af3107a400062000759565b6007556005546200006390600a62000671565b6200007590655af3107a400062000759565b600890815560408051608081018252600281526004602082018190526006928201929092526060810192909252620000b09160099162000423565b506040805160a081018252600281526004602082015260069181019190915260086060820152600f6080820152620000ed90600a90600562000423565b506040805160a081018252607d815260fa60208201526101f4918101919091526102ee60608201526103e860808201526200012d90600b906005620004bd565b506040805180820190915260048082526334a1272160e11b60209092019182526200015b91600d9162000546565b506040805180820190915260048082526334a1272160e11b60209092019182526200018991600e9162000546565b503480156200019757600080fd5b50604051620034a6380380620034a6833981016040819052620001ba91620005da565b6000620001c66200041f565b600080546001600160a01b0319166001600160a01b0383169081178255604051929350917f8be0079c531659141344cd1fd0a4f28419497f9722a3daafe3b4186f6b6457e0908290a35060065433600090815260016020908152604080832093909355601280546001600160a01b0319166001600160a01b038681169190911791829055845163c45a015560e01b81529451939491169263c45a015592600480840193919291829003018186803b1580156200028157600080fd5b505afa15801562000296573d6000803e3d6000fd5b505050506040513d601f19601f82011682018060405250810190620002bc9190620005da565b9050806001600160a01b031663c9c6539630601260009054906101000a90046001600160a01b03166001600160a01b031663ad5c46486040518163ffffffff1660e01b815260040160206040518083038186803b1580156200031d57600080fd5b505afa15801562000332573d6000803e3d6000fd5b505050506040513d601f19601f82011682018060405250810190620003589190620005da565b6040518363ffffffff1660e01b8152600401620003779291906200060a565b602060405180830381600087803b1580156200039257600080fd5b505af1158015620003a7573d6000803e3d6000fd5b505050506040513d601f19601f82011682018060405250810190620003cd9190620005da565b601180546001600160a01b03929092166001600160a01b0319928316179055600f8054821690556010805490911690555050336000908152600460205260409020805460ff19166001179055620007ce565b3390565b600183019183908215620004ab5791602002820160005b838211156200047a57835183826101000a81548160ff021916908360ff16021790555092602001926001016020816000010492830192600103026200043a565b8015620004a95782816101000a81549060ff02191690556001016020816000010492830192600103026200047a565b505b50620004b9929150620005c3565b5090565b600183019183908215620004ab5791602002820160005b838211156200051657835183826101000a81548161ffff021916908361ffff1602179055509260200192600201602081600101049283019260010302620004d4565b8015620004a95782816101000a81549061ffff021916905560020160208160010104928301926001030262000516565b82805462000554906200077b565b90600052602060002090601f016020900481019282620005785760008555620004ab565b82601f106200059357805160ff1916838001178555620004ab565b82800160010185558215620004ab579182015b82811115620004ab578251825591602001919060010190620005a6565b5b80821115620004b95760008155600101620005c4565b600060208284031215620005ec578081fd5b81516001600160a01b038116811462000603578182fd5b9392505050565b6001600160a01b0392831681529116602082015260400190565b80825b600180861162000638575062000668565b8187048211156200064d576200064d620007b8565b808616156200065b57918102915b9490941c93800262000627565b94509492505050565b60006200060360001984846000826200068d5750600162000603565b816200069c5750600062000603565b8160018114620006b55760028114620006c057620006f4565b600191505062000603565b60ff841115620006d457620006d4620007b8565b6001841b915084821115620006ed57620006ed620007b8565b5062000603565b5060208310610133831016604e8410600b84101617156200072c575081810a83811115620007265762000726620007b8565b62000603565b6200073b848484600162000624565b808604821115620007505762000750620007b8565b02949350505050565b6000816000190483118215151615620007765762000776620007b8565b500290565b6002810460018216806200079057607f821691505b60208210811415620007b257634e487b7160e01b600052602260045260246000fd5b50919050565b634e487b7160e01b600052601160045260246000fd5b612cc880620007de6000396000f3fe608060405234801561001057600080fd5b506004361061025e5760003560e01c80638da5cb5b11610146578063d1a65d8f116100c3578063ecefbb2111610087578063ecefbb21146104d1578063f22b1084146104d9578063f2fde38b146104ec578063f887ea40146104ff578063fa04a97014610507578063fb3fbc121461051a5761025e565b8063d1a65d8f1461047a578063d9a86cdf1461048d578063dd62ed3e146104a0578063e0e28336146104b3578063ea9180ec146104c95761025e565b8063a457c2d71161010a578063a457c2d714610431578063a8aa1b3114610444578063a9059cbb1461044c578063b88a802f1461045f578063ca882eda146104675761025e565b80638da5cb5b146103f35780638ea5220f146103fb57806395d89b4114610403578063983e91581461040b5780639bb907941461041e5761025e565b8063222b03f6116101df57806339509351116101a3578063395093511461039757806342506449146103aa578063429cead1146103bd57806367250b59146103d057806370a08231146103d8578063715018a6146103eb5761025e565b8063222b03f61461034c57806323b872dd1461035457806328f4cdfc14610367578063313ce5671461037a57806332fb782b146103825761025e565b806313a55aa51161022657806313a55aa5146102eb57806316e6fa10146102fe57806318160ddd1461031e5780631f53ac02146103265780631fc74723146103395761025e565b80630281d18e1461026357806306fdde031461028c578063095ea7b3146102a15780630ce6bb6f146102c1578063131e00b7146102d6575b600080fd5b6102766102713660046124a8565b610522565b6040516102839190612a11565b60405180910390f35b61029461054c565b604051610283919061259f565b6102b46102af3660046122d3565b6105de565b6040516102839190612594565b6102c96105fc565b604051610283919061296b565b6102e96102e4366004612223565b610602565b005b6102e96102f93660046123d7565b6106a7565b61031161030c3660046124a8565b610720565b604051610283919061295c565b6102c961074e565b6102e9610334366004612223565b610754565b6102c96103473660046124d8565b6107b5565b6102c96109d5565b6102b4610362366004612293565b6109db565b6102c96103753660046124a8565b610a74565b6102c9610c32565b61038a610c38565b6040516102839190612545565b6102b46103a53660046122d3565b610c47565b6102e96103b836600461243a565b610c96565b6102b46103cb366004612223565b610ce8565b6102e9610cfd565b6102c96103e6366004612223565b610d68565b6102e9610d83565b61038a610e0c565b61038a610e1b565b610294610e2a565b6102e9610419366004612223565b610e39565b6102e961042c366004612223565b610ed1565b6102b461043f3660046122d3565b610f32565b61038a610fad565b6102b461045a3660046122d3565b610fbc565b6102e9610fd0565b6102e96104753660046122fe565b611063565b6102e96104883660046124a8565b6110dc565b6102e961049b366004612374565b611139565b6102c96104ae36600461225b565b611185565b6104bb6111b0565b604051610283929190612a03565b6104bb6112e6565b6102c96112ef565b6102766104e73660046124a8565b611314565b6102e96104fa366004612223565b611324565b61038a6113e4565b6102c96105153660046124a8565b6113f3565b6102b46114c7565b6009816004811061053257600080fd5b60209182820401919006915054906101000a900460ff1681565b6060600d805461055b90612c09565b80601f016020809104026020016040519081016040528092919081815260200182805461058790612c09565b80156105d45780601f106105a9576101008083540402835291602001916105d4565b820191906000526020600020905b8154815290600101906020018083116105b757829003601f168201915b5050505050905090565b60006105f26105eb6114d0565b84846114d4565b5060015b92915050565b60085481565b61060a6114d0565b6001600160a01b031661061b610e0c565b6001600160a01b03161461064a5760405162461bcd60e51b81526004016106419061278f565b60405180910390fd5b6001600160a01b03811660009081526004602052604090205460ff16156106835760405162461bcd60e51b8152600401610641906128ed565b6001600160a01b03166000908152600460205260409020805460ff19166001179055565b6106af6114d0565b6001600160a01b03166106c0610e0c565b6001600160a01b0316146106e65760405162461bcd60e51b81526004016106419061278f565b6106f3600a8260056120cf565b506040517ffa718b2e3c4eff6c1ad7f30d8799d768c9c9c172a31e28102f58e23bdf2550c790600090a150565b600b816005811061073057600080fd5b60109182820401919006600202915054906101000a900461ffff1681565b60065490565b61075c6114d0565b6001600160a01b031661076d610e0c565b6001600160a01b0316146107935760405162461bcd60e51b81526004016106419061278f565b601080546001600160a01b0319166001600160a01b0392909216919091179055565b6040805160028082526060820183526000928392919060208301908036833701905050905030816000815181106107fc57634e487b7160e01b600052603260045260246000fd5b6001600160a01b03928316602091820292909201810191909152601254604080516315ab88c960e31b81529051919093169263ad5c4648926004808301939192829003018186803b15801561085057600080fd5b505afa158015610864573d6000803e3d6000fd5b505050506040513d601f19601f82011682018060405250810190610888919061223f565b816001815181106108a957634e487b7160e01b600052603260045260246000fd5b6001600160a01b03928316602091820292909201015260125485916108d091309116611185565b10156108f0576012546108f09030906001600160a01b03166000196114d4565b60125460405163791ac94760e01b81526001600160a01b039091169063791ac94790610929908790600090869089904290600401612974565b600060405180830381600087803b15801561094357600080fd5b505af1925050508015610954575060015b610997577f63f96232640ee3b5914be68a756c36599d36b83c5f2ca097c9c40afdf6f7fc2d60405161098590612729565b60405180910390a160009150506105f6565b7f63f96232640ee3b5914be68a756c36599d36b83c5f2ca097c9c40afdf6f7fc2d6040516109c49061265a565b60405180910390a1839150506105f6565b60075481565b60006109e8848484611588565b6001600160a01b038416600090815260036020526040812081610a096114d0565b6001600160a01b03166001600160a01b0316815260200190815260200160002054905082811015610a4c5760405162461bcd60e51b815260040161064190612747565b610a6785610a586114d0565b610a628685612bc2565b6114d4565b60019150505b9392505050565b6000806000601160009054906101000a90046001600160a01b03166001600160a01b0316630902f1ac6040518163ffffffff1660e01b815260040160606040518083038186803b158015610ac757600080fd5b505afa158015610adb573d6000803e3d6000fd5b505050506040513d601f19601f82011682018060405250810190610aff919061245a565b5091509150601160009054906101000a90046001600160a01b03166001600160a01b0316630dfe16816040518163ffffffff1660e01b815260040160206040518083038186803b158015610b5257600080fd5b505afa158015610b66573d6000803e3d6000fd5b505050506040513d601f19601f82011682018060405250810190610b8a919061223f565b6001600160a01b0316306001600160a01b031614610ba457905b601254604051630153543560e21b81526001600160a01b039091169063054d50d490610bd8908790869086906004016129e4565b60206040518083038186803b158015610bf057600080fd5b505afa158015610c04573d6000803e3d6000fd5b505050506040513d601f19601f82011682018060405250810190610c2891906124c0565b925050505b919050565b60055490565b600f546001600160a01b031681565b60006105f2610c546114d0565b848460036000610c626114d0565b6001600160a01b03908116825260208083019390935260409182016000908120918b1681529252902054610a629190612a57565b610c9e6114d0565b6001600160a01b0316610caf610e0c565b6001600160a01b031614610cd55760405162461bcd60e51b81526004016106419061278f565b600c805460ff1916911515919091179055565b60046020526000908152604090205460ff1681565b610d056114d0565b6001600160a01b0316610d16610e0c565b6001600160a01b031614610d3c5760405162461bcd60e51b81526004016106419061278f565b6000610d4730610d68565b9050610d54816002611995565b601355610d62816002611995565b60145550565b6001600160a01b031660009081526001602052604090205490565b610d8b6114d0565b6001600160a01b0316610d9c610e0c565b6001600160a01b031614610dc25760405162461bcd60e51b81526004016106419061278f565b600080546040516001600160a01b03909116907f8be0079c531659141344cd1fd0a4f28419497f9722a3daafe3b4186f6b6457e0908390a3600080546001600160a01b0319169055565b6000546001600160a01b031690565b6010546001600160a01b031681565b6060600e805461055b90612c09565b610e416114d0565b6001600160a01b0316610e52610e0c565b6001600160a01b031614610e785760405162461bcd60e51b81526004016106419061278f565b6001600160a01b03811660009081526004602052604090205460ff16610eb05760405162461bcd60e51b815260040161064190612702565b6001600160a01b03166000908152600460205260409020805460ff19169055565b610ed96114d0565b6001600160a01b0316610eea610e0c565b6001600160a01b031614610f105760405162461bcd60e51b81526004016106419061278f565b600f80546001600160a01b0319166001600160a01b0392909216919091179055565b60008060036000610f416114d0565b6001600160a01b0390811682526020808301939093526040918201600090812091881681529252902054905082811015610f8d5760405162461bcd60e51b815260040161064190612917565b610fa3610f986114d0565b85610a628685612bc2565b5060019392505050565b6011546001600160a01b031681565b60006105f2610fc96114d0565b8484611588565b600080610fdb6111b0565b9150915060008211610fff5760405162461bcd60e51b8152600401610641906126e0565b33600090815260026020819052604082204291015560138054839290611026908490612a57565b909155505060405130903390600080516020612c738339815191529061104d90859061296b565b60405180910390a361105f33836119a1565b5050565b61106b6114d0565b6001600160a01b031661107c610e0c565b6001600160a01b0316146110a25760405162461bcd60e51b81526004016106419061278f565b6110af600b826005612162565b506040517f3aaf767b2e63f4c5f274684ce36da44af23d293465914ee94908682af41e652790600090a150565b6110e46114d0565b6001600160a01b03166110f5610e0c565b6001600160a01b03161461111b5760405162461bcd60e51b81526004016106419061278f565b60055461112990600a612ad5565b6111339082612ba3565b60075550565b6111416114d0565b6001600160a01b0316611152610e0c565b6001600160a01b0316146111785760405162461bcd60e51b81526004016106419061278f565b6110af60098260046120cf565b6001600160a01b03918216600090815260036020908152604080832093909416825291909152205490565b336000908152600260208181526040808420815160608101835281548152600182015493810193909352909201549181018290528291426111f48262015180612a57565b1115611208576000809350935050506112e2565b6011546001600160a01b031660009081526001602052604081205461dead8083527fb34209a263f6c38fe55f099e9e70f9d67e93982480ff3234a5e0108028ad164d549092916112629161125c908161074e565b90611a33565b9050600061129b6112738542612bc2565b61129561127f30610d68565b3360009081526001602052604090205490611a3f565b90611a3f565b905060006112ac8362015180611a3f565b905060006112ba8383611995565b905060006112ca61051583610a74565b90506112d68282611a33565b99509750505050505050505b9091565b60135460145482565b3360009081526002602081905260408220015461130f9062015180612a57565b905090565b600a816005811061053257600080fd5b61132c6114d0565b6001600160a01b031661133d610e0c565b6001600160a01b0316146113635760405162461bcd60e51b81526004016106419061278f565b6001600160a01b0381166113895760405162461bcd60e51b8152600401610641906125d2565b600080546040516001600160a01b03808516939216917f8be0079c531659141344cd1fd0a4f28419497f9722a3daafe3b4186f6b6457e091a3600080546001600160a01b0319166001600160a01b0392909216919091179055565b6012546001600160a01b031681565b6000671bc16d674ec8000082111561143b57611434606461142e600a60045b6020810491909101548691601f166101000a900460ff16611a3f565b90611995565b9050610c2d565b6714d1120d7b16000082111561145c57611434606461142e600a6003611412565b670de0b6b3a764000082111561147d57611434606461142e600a6002611412565b6706f05b59d3b2000082111561149e57611434606461142e600a6001611412565b6703782dace9d900008211156114bf57611434606461142e600a6000611412565b506000610c2d565b600c5460ff1681565b3390565b6001600160a01b0383166114fa5760405162461bcd60e51b815260040161064190612866565b6001600160a01b0382166115205760405162461bcd60e51b815260040161064190612618565b6001600160a01b0380841660008181526003602090815260408083209487168084529490915290819020849055517f8c5be1e5ebec7d5bd14f71427d1e84f3dd0314c0f7b2291e5b200ac8c7c3b9259061157b90859061296b565b60405180910390a3505050565b6001600160a01b0383166115ae5760405162461bcd60e51b8152600401610641906127fb565b6001600160a01b038316600090815260016020526040902054818110156115e75760405162461bcd60e51b815260040161064190612676565b6001600160a01b0384166000908152600460205260408120548190819060ff1615801561162d57506001600160a01b03861660009081526004602052604090205460ff16155b801561163c5750600c5460ff16155b1561181e57600080601160009054906101000a90046001600160a01b03166001600160a01b0316630902f1ac6040518163ffffffff1660e01b815260040160606040518083038186803b15801561169257600080fd5b505afa1580156116a6573d6000803e3d6000fd5b505050506040513d601f19601f820116820180604052508101906116ca919061245a565b5091509150601160009054906101000a90046001600160a01b03166001600160a01b0316630dfe16816040518163ffffffff1660e01b815260040160206040518083038186803b15801561171d57600080fd5b505afa158015611731573d6000803e3d6000fd5b505050506040513d601f19601f82011682018060405250810190611755919061223f565b6001600160a01b0316306001600160a01b03161461176f57905b6117838988846001600160701b0316611a4b565b9450611791876103e8611995565b93506117a46103e861142e896063611a3f565b92506117b983836001600160701b0316611c85565b6117c38584611dde565b30600090815260016020526040812080549091906117e2908490612a57565b90915550506010546001600160a01b031660009081526001602052604081208054869290611811908490612a57565b9091555061182892505050565b5060009150819050805b6001600160a01b0386166000908152600260205260409020426001909101556118518486611a33565b6001600160a01b03881660009081526001602052604090205561187a8161125c84818988611a33565b6001600160a01b038716600090815260016020526040812080549091906118a2908490612a57565b92505081905550856001600160a01b0316876001600160a01b0316600080516020612c73833981519152876040516118da919061296b565b60405180910390a3306001600160a01b0316876001600160a01b0316600080516020612c7383398151915285604051611913919061296b565b60405180910390a3306001600160a01b0316876001600160a01b0316600080516020612c738339815191528360405161194c919061296b565b60405180910390a36010546040516001600160a01b0391821691891690600080516020612c738339815191529061198490869061296b565b60405180910390a350505050505050565b6000610a6d8284612a6f565b604080516000808252602082019092526001600160a01b0384169083906040516119cb9190612529565b60006040518083038185875af1925050503d8060008114611a08576040519150601f19603f3d011682016040523d82523d6000602084013e611a0d565b606091505b5050905080611a2e5760405162461bcd60e51b8152600401610641906128aa565b505050565b6000610a6d8284612bc2565b6000610a6d8284612ba3565b6040805160a0810191829052600091829190600b906005908285855b82829054906101000a900461ffff1661ffff1681526020019060020190602082600101049283019260010382029150808411611a6757505050506001600160a01b038816600090815260026020818152604080842081516060810183528154815260018201549381018490529301549083015294955093909250611aef915062015180612a57565b421115611b10576001600160a01b0387166000908152600260205260408120555b6001600160a01b038716600090815260026020526040812054611b34908890611dde565b9050611b5361271061142e8660045b6020020151899061ffff16611a3f565b811115611b725760405162461bcd60e51b8152600401610641906127c4565b611b8361271061142e866003611b43565b811115611bba57611bb3606461142e600960035b6020810491909101548b91601f166101000a900460ff16611a3f565b9150611c3a565b611bcb61271061142e866002611b43565b811115611be357611bb3606461142e60096002611b97565b611bf461271061142e866001611b43565b811115611c0c57611bb3606461142e60096001611b97565b611c1d61271061142e866000611b43565b811115611c3557611bb3606461142e60096000611b97565b600091505b8251611c469088611dde565b6001600160a01b03891660009081526002602052604081209190915560138054849290611c74908490612a57565b909155509198975050505050505050565b61dead600081815260016020527fb34209a263f6c38fe55f099e9e70f9d67e93982480ff3234a5e0108028ad164d54611cd590611cc061074e565b611cca9190612bc2565b61142e856064611a3f565b9050611ce6606461142e8684611a3f565b60138054600090611cf8908490612a57565b90915550611d179050606461142e611d108483612bc2565b8790611a3f565b60148054600090611d29908490612a57565b909155505060075460145410611d67576000611d49601360010154611dea565b90508060136001016000828254611d609190612bc2565b9091555050505b60085460135410611da1576000611d83601360000154306107b5565b90508060136000016000828254611d9a9190612bc2565b9091555050505b7fbeab98375c8e72ee310ff00a1a8958ff6f7c2afa012bb7386f243bad1d041f3b81604051611dd0919061296b565b60405180910390a150505050565b6000610a6d8284612a57565b6040805160028082526060820183526000924792849290916020830190803683370190505090503081600081518110611e3357634e487b7160e01b600052603260045260246000fd5b6001600160a01b03928316602091820292909201810191909152601254604080516315ab88c960e31b81529051919093169263ad5c4648926004808301939192829003018186803b158015611e8757600080fd5b505afa158015611e9b573d6000803e3d6000fd5b505050506040513d601f19601f82011682018060405250810190611ebf919061223f565b81600181518110611ee057634e487b7160e01b600052603260045260246000fd5b6001600160a01b0392831660209182029290920101526012548591611f0791309116611185565b1015611f2757601254611f279030906001600160a01b03166000196114d4565b6012546001600160a01b031663791ac947611f43866002611995565b60008430426040518663ffffffff1660e01b8152600401611f68959493929190612974565b600060405180830381600087803b158015611f8257600080fd5b505af1925050508015611f93575060015b611fd7577facabbd54c23d6a523d8111565d14ae729de6bbe5ea4707cb6162c24d4fae03f4604051611fc490612840565b60405180910390a1600092505050610c2d565b6000611fe34784611a33565b6012549091506001600160a01b031663f305d7198230612004896002611995565b600f546040516001600160e01b031960e087901b16815261203a93929160009182916001600160a01b0316904290600401612559565b6060604051808303818588803b15801561205357600080fd5b505af1158015612067573d6000803e3d6000fd5b50505050506040513d601f19601f8201168201806040525081019061208c91906124fc565b5050507facabbd54c23d6a523d8111565d14ae729de6bbe5ea4707cb6162c24d4fae03f46040516120bc906126bc565b60405180910390a1849350505050610c2d565b6001830191839082156121525791602002820160005b8382111561212357835183826101000a81548160ff021916908360ff16021790555092602001926001016020816000010492830192600103026120e5565b80156121505782816101000a81549060ff0219169055600101602081600001049283019260010302612123565b505b5061215e9291506121e6565b5090565b6001830191839082156121525791602002820160005b838211156121b857835183826101000a81548161ffff021916908361ffff1602179055509260200192600201602081600101049283019260010302612178565b80156121505782816101000a81549061ffff02191690556002016020816001010492830192600103026121b8565b5b8082111561215e57600081556001016121e7565b80516001600160701b0381168114610c2d57600080fd5b803560ff81168114610c2d57600080fd5b600060208284031215612234578081fd5b8135610a6d81612c5a565b600060208284031215612250578081fd5b8151610a6d81612c5a565b6000806040838503121561226d578081fd5b823561227881612c5a565b9150602083013561228881612c5a565b809150509250929050565b6000806000606084860312156122a7578081fd5b83356122b281612c5a565b925060208401356122c281612c5a565b929592945050506040919091013590565b600080604083850312156122e5578182fd5b82356122f081612c5a565b946020939093013593505050565b600060a0828403121561230f578081fd5b82601f83011261231d578081fd5b61232760a0612a1f565b80838560a086011115612338578384fd5b835b600581101561236957813561ffff81168114612354578586fd5b8452602093840193919091019060010161233a565b509095945050505050565b600060808284031215612385578081fd5b82601f830112612393578081fd5b61239d6080612a1f565b8083856080860111156123ae578384fd5b835b6004811015612369576123c282612212565b845260209384019391909101906001016123b0565b600060a082840312156123e8578081fd5b82601f8301126123f6578081fd5b61240060a0612a1f565b80838560a086011115612411578384fd5b835b60058110156123695761242582612212565b84526020938401939190910190600101612413565b60006020828403121561244b578081fd5b81358015158114610a6d578182fd5b60008060006060848603121561246e578283fd5b612477846121fb565b9250612485602085016121fb565b9150604084015163ffffffff8116811461249d578182fd5b809150509250925092565b6000602082840312156124b9578081fd5b5035919050565b6000602082840312156124d1578081fd5b5051919050565b600080604083850312156124ea578182fd5b82359150602083013561228881612c5a565b600080600060608486031215612510578081fd5b8351925060208401519150604084015190509250925092565b6000825161253b818460208701612bd9565b9190910192915050565b6001600160a01b0391909116815260200190565b6001600160a01b039687168152602081019590955260408501939093526060840191909152909216608082015260a081019190915260c00190565b901515815260200190565b60006020825282518060208401526125be816040850160208701612bd9565b601f01601f19169190910160400192915050565b60208082526026908201527f4f776e61626c653a206e6577206f776e657220697320746865207a65726f206160408201526564647265737360d01b606082015260800190565b60208082526022908201527f45524332303a20617070726f766520746f20746865207a65726f206164647265604082015261737360f01b606082015260800190565b6020808252600290820152614f6b60f01b604082015260600190565b60208082526026908201527f45524332303a207472616e7366657220616d6f756e7420657863656564732062604082015265616c616e636560d01b606082015260800190565b6020808252600a90820152696164644c69713a206f6b60b01b604082015260600190565b6020808252600890820152670436c61696d3a20360c41b604082015260600190565b6020808252600d908201526c185b1c9958591e481d185e1959609a1b604082015260600190565b60208082526004908201526311985a5b60e21b604082015260600190565b60208082526028908201527f45524332303a207472616e7366657220616d6f756e74206578636565647320616040820152676c6c6f77616e636560c01b606082015260800190565b6020808252818101527f4f776e61626c653a2063616c6c6572206973206e6f7420746865206f776e6572604082015260600190565b6020808252601d908201527f53656c6c696e67207461783a2061626f7665206d617820616d6f756e74000000604082015260600190565b60208082526025908201527f45524332303a207472616e736665722066726f6d20746865207a65726f206164604082015264647265737360d81b606082015260800190565b6020808252600c908201526b185919131a5c4e8819985a5b60a21b604082015260600190565b60208082526024908201527f45524332303a20617070726f76652066726f6d20746865207a65726f206164646040820152637265737360e01b606082015260800190565b60208082526023908201527f5472616e7366657248656c7065723a204554485f5452414e534645525f46414960408201526213115160ea1b606082015260800190565b60208082526010908201526f185b1c9958591e48195e18db1d59195960821b604082015260600190565b60208082526025908201527f45524332303a2064656372656173656420616c6c6f77616e63652062656c6f77604082015264207a65726f60d81b606082015260800190565b61ffff91909116815260200190565b90815260200190565b600060a082018783526020878185015260a0604085015281875180845260c0860191508289019350845b818110156129c35784516001600160a01b03168352938301939183019160010161299e565b50506001600160a01b03969096166060850152505050608001529392505050565b9283526001600160701b03918216602084015216604082015260600190565b918252602082015260400190565b60ff91909116815260200190565b60405181810167ffffffffffffffff81118282101715612a4f57634e487b7160e01b600052604160045260246000fd5b604052919050565b60008219821115612a6a57612a6a612c44565b500190565b600082612a8a57634e487b7160e01b81526012600452602481fd5b500490565b80825b6001808611612aa15750612acc565b818704821115612ab357612ab3612c44565b80861615612ac057918102915b9490941c938002612a92565b94509492505050565b6000610a6d6000198484600082612aee57506001610a6d565b81612afb57506000610a6d565b8160018114612b115760028114612b1b57612b48565b6001915050610a6d565b60ff841115612b2c57612b2c612c44565b6001841b915084821115612b4257612b42612c44565b50610a6d565b5060208310610133831016604e8410600b8410161715612b7b575081810a83811115612b7657612b76612c44565b610a6d565b612b888484846001612a8f565b808604821115612b9a57612b9a612c44565b02949350505050565b6000816000190483118215151615612bbd57612bbd612c44565b500290565b600082821015612bd457612bd4612c44565b500390565b60005b83811015612bf4578181015183820152602001612bdc565b83811115612c03576000848401525b50505050565b600281046001821680612c1d57607f821691505b60208210811415612c3e57634e487b7160e01b600052602260045260246000fd5b50919050565b634e487b7160e01b600052601160045260246000fd5b6001600160a01b0381168114612c6f57600080fd5b5056feddf252ad1be2c89b69c2b068fc378daa952ba7f163c4a11628f55a4df523b3efa26469706673582212209b655e9b3e055e92ef23f083ac1f48c9983ed00ec72c3a15f3b8c962052c391b64736f6c63430008000033",
  "immutableReferences": {},
  "source": "// SPDX-License-Identifier: GPL\n\npragma solidity ^0.8.0;\n\nimport \"@openzeppelin/contracts/token/ERC20/IERC20.sol\";\nimport \"@openzeppelin/contracts/utils/math/SafeMath.sol\";\nimport \"@openzeppelin/contracts/access/Ownable.sol\";\nimport \"@uniswap/v2-periphery/contracts/interfaces/IUniswapV2Router02.sol\";\nimport \"@uniswap/v2-core/contracts/interfaces/IUniswapV2Factory.sol\";\nimport \"@uniswap/v2-core/contracts/interfaces/IUniswapV2Pair.sol\";\n\n/**\n * @dev iBNB\n *\n *\n *\n *\n */\n\ncontract iBNB is IERC20, Ownable {\n    using SafeMath for uint256;\n\n\n//TODO BEFORE DEPLOYMENT: Reduce visibility as needed --\n//FUNCTION ARE ALL PUBLIC FOR DEBUGGING PURPOSE\n\n\n\n    struct past_tx {\n      uint256 cum_transfer; //this is not what you think, you perv\n      uint256 last_timestamp;\n      uint256 last_claim;\n    }\n\n    struct prop_balances {\n      uint256 reward_pool;\n      uint256 liquidity_pool;\n    }\n\n    mapping (address => uint256) private _balances;\n    mapping (address => past_tx) private _last_tx;\n    mapping (address => mapping (address => uint256)) private _allowances;\n    mapping (address => bool) public excluded;\n\n    uint256 private _decimals = 9;\n    uint256 private _totalSupply = 10**15 * 10**_decimals;\n    uint256 public swap_for_liquidity_threshold = 10**14 * 10**_decimals; //10%\n    uint256 public swap_for_reward_threshold = 10**14 * 10**_decimals;\n\n//TODO gas optim:\n    //@dev in percents : 0.125% - 0.25 - 0.5 - 0.75 - 0.1%\n    //therefore value are div by 10**7\n    uint8[4] public selling_taxes_rates = [2, 4, 6, 8];\n    uint8[5] public claiming_taxes_rates = [2, 4, 6, 8, 15];\n    uint16[5] public selling_taxes_tranches = [125, 250, 500, 750, 1000]; // div by 10**4 0.0125-0.0250-(...)\n\n    bool public circuit_breaker;\n\n    string private _name = \"iBNB\";\n    string private _symbol = \"iBNB\";\n\n    address public LP_recipient;\n    address public devWallet;\n\n    IUniswapV2Pair public pair;\n    IUniswapV2Router02 public router;\n\n    prop_balances public balancer_balances;\n\n    //modifier inSwap {\n    //    just kidding, we're not safemoon\n    //}\n\n    event TaxRatesChanged();\n    event SwapForBNB(string);\n    event BalancerRatio(uint256);\n    event RewardTaxChanged();\n    event AddLiq(string);\n\n    constructor (address _router) {\n\n         _balances[msg.sender] = _totalSupply;\n\n         //create pair to get the pair address\n         router = IUniswapV2Router02(_router);\n         IUniswapV2Factory factory = IUniswapV2Factory(router.factory());\n         pair = IUniswapV2Pair(factory.createPair(address(this), router.WETH()));\n\n         LP_recipient = address(0);\n         devWallet = address(0);\n\n         excluded[msg.sender] = true;\n\n         circuit_breaker == false;\n    }\n\n    function decimals() public view returns (uint256) {\n         return _decimals;\n    }\n    function name() public view returns (string memory) {\n        return _name;\n    }\n    function symbol() public view returns (string memory) {\n        return _symbol;\n    }\n    function totalSupply() public view virtual override returns (uint256) {\n        return _totalSupply;\n    }\n    function balanceOf(address account) public view virtual override returns (uint256) {\n        return _balances[account];\n    }\n    function transfer(address recipient, uint256 amount) public virtual override returns (bool) {\n        _transfer(_msgSender(), recipient, amount);\n        return true;\n    }\n    function allowance(address owner, address spender) public view virtual override returns (uint256) {\n        return _allowances[owner][spender];\n    }\n    function approve(address spender, uint256 amount) public virtual override returns (bool) {\n        _approve(_msgSender(), spender, amount);\n        return true;\n    }\n    function transferFrom(address sender, address recipient, uint256 amount) public virtual override returns (bool) {\n        _transfer(sender, recipient, amount);\n\n        uint256 currentAllowance = _allowances[sender][_msgSender()];\n        require(currentAllowance >= amount, \"ERC20: transfer amount exceeds allowance\");\n        _approve(sender, _msgSender(), currentAllowance - amount);\n\n        return true;\n    }\n    function increaseAllowance(address spender, uint256 addedValue) public virtual returns (bool) {\n        _approve(_msgSender(), spender, _allowances[_msgSender()][spender] + addedValue);\n        return true;\n    }\n    function decreaseAllowance(address spender, uint256 subtractedValue) public virtual returns (bool) {\n        uint256 currentAllowance = _allowances[_msgSender()][spender];\n        require(currentAllowance >= subtractedValue, \"ERC20: decreased allowance below zero\");\n        _approve(_msgSender(), spender, currentAllowance - subtractedValue);\n\n        return true;\n    }\n    function _approve(address owner, address spender, uint256 amount) internal virtual {\n        require(owner != address(0), \"ERC20: approve from the zero address\");\n        require(spender != address(0), \"ERC20: approve to the zero address\");\n\n        _allowances[owner][spender] = amount;\n        emit Approval(owner, spender, amount);\n    }\n\n\n    function _transfer(address sender, address recipient, uint256 amount) internal virtual {\n        require(sender != address(0), \"ERC20: transfer from the zero address\");\n\n        uint256 senderBalance = _balances[sender]; // gas SLOAD: 200 vs MLOAD: 3 ...\n        require(senderBalance >= amount, \"ERC20: transfer amount exceeds balance\");\n\n        uint256 sell_tax;\n        uint256 dev_tax;\n        uint256 balancer_amount;\n\n        if(excluded[sender] == false && excluded[recipient] == false && circuit_breaker == false) {\n\n        // ----  Sell tax  ----\n          (uint112 _reserve0, uint112 _reserve1,) = pair.getReserves(); // returns reserve0, reserve1, timestamp last tx\n          if(address(this) != pair.token0()) { // 0 := iBNB\n            (_reserve0, _reserve1) = (_reserve1, _reserve0);\n          }\n          sell_tax = sellingTax(sender, amount, _reserve0); //will update the balancer ledger too\n\n        // ------ dev tax 0.1% -------\n          dev_tax = amount.div(1000);\n\n        // ------ balancer tax 9.9% ------\n          balancer_amount = amount.mul(99).div(1000);\n          balancer(balancer_amount, _reserve0);\n\n          //@dev every extra token are collected into address(this), it's the balancer job to then split them\n          //between pool and reward, using the dedicated struct\n          _balances[address(this)] += sell_tax.add(balancer_amount);\n          _balances[devWallet] += dev_tax;\n        }\n        else {\n          sell_tax = 0;\n          dev_tax = 0;\n          balancer_amount = 0;\n        }\n\n        //reward reinit\n        _last_tx[recipient].last_timestamp = block.timestamp;\n\n        _balances[sender] = senderBalance.sub(amount);\n        _balances[recipient] += amount.sub(sell_tax).sub(dev_tax).sub(balancer_amount);\n\n        emit Transfer(sender, recipient, amount);\n        emit Transfer(sender, address(this), sell_tax);\n        emit Transfer(sender, address(this), balancer_amount);\n        emit Transfer(sender, devWallet, dev_tax);\n    }\n\n    //@dev take a selling tax if transfer from a non-excluded address or from the pair contract exceed\n    //the thresholds defined in selling_taxes_thresholds on 24h floating window\n    function sellingTax(address sender, uint256 amount, uint256 pool_balance) private returns(uint256) {\n        uint16[5] memory _tax_tranches = selling_taxes_tranches;\n        past_tx memory sender_last_tx = _last_tx[sender];\n\n        uint256 sell_tax;\n\n        //>1 day since last tx\n        if(block.timestamp > sender_last_tx.last_timestamp + 1 days) {\n          _last_tx[sender].cum_transfer = 0; // a.k.a The Virgin\n        }\n\n        uint256 new_cum_sum = amount.add(_last_tx[sender].cum_transfer);\n\n        if(new_cum_sum > pool_balance.mul(_tax_tranches[4]).div(10**4)) {\n          revert(\"Selling tax: above max amount\");\n        }\n        else if(new_cum_sum > pool_balance.mul(_tax_tranches[3]).div(10**4)) {\n          sell_tax = amount.mul(selling_taxes_rates[3]).div(100);\n        }\n        else if(new_cum_sum > pool_balance.mul(_tax_tranches[2]).div(10**4)) {\n          sell_tax = amount.mul(selling_taxes_rates[2]).div(100);\n        }\n        else if(new_cum_sum > pool_balance.mul(_tax_tranches[1]).div(10**4)) {\n          sell_tax = amount.mul(selling_taxes_rates[1]).div(100);\n        }\n        else if(new_cum_sum > pool_balance.mul(_tax_tranches[0]).div(10**4)) {\n          sell_tax = amount.mul(selling_taxes_rates[0]).div(100);\n        }\n        else { sell_tax = 0; }\n\n        _last_tx[sender].cum_transfer = sender_last_tx.cum_transfer.add(amount);\n\n        balancer_balances.reward_pool += sell_tax; //sell tax is for reward:)\n\n        return sell_tax;\n    }\n\n    //@dev take the 9.9% taxes as input, split it between reward and liq subpools\n    //    according to pool condition -> pool/circ supply closer to one implies\n    //    priority to the reward pool\n    function balancer(uint256 amount, uint256 pool_balance) private {\n\n        address DEAD = address(0x000000000000000000000000000000000000dEaD);\n        uint256 ratio = pool_balance.mul(100).div(totalSupply()-_balances[DEAD]); //in % to minimize rounding err\n\n        balancer_balances.reward_pool += amount.mul(ratio).div(100);\n        balancer_balances.liquidity_pool += amount.mul(100 - ratio).div(100);\n\n        if(balancer_balances.liquidity_pool >= swap_for_liquidity_threshold) {\n            uint256 token_out = addLiquidity(balancer_balances.liquidity_pool);\n            balancer_balances.liquidity_pool -= token_out; //not balanceOf, in case addLiq revert\n        }\n\n        if(balancer_balances.reward_pool >= swap_for_reward_threshold) {\n            uint256 token_out = swapForBNB(balancer_balances.reward_pool, address(this));\n            balancer_balances.reward_pool -= token_out;\n        }\n\n        emit BalancerRatio(ratio);\n    }\n\n    //@dev when triggered, will swap and provide liquidity\n    //    BNBfromSwap being the difference between and after the swap, slippage\n    //    will result in extra-BNB for the reward pool (free money for the guys:)\n    function addLiquidity(uint256 token_amount) internal returns (uint256) {\n      uint256 BNBfromReward = address(this).balance;\n\n      address[] memory route = new address[](2);\n      route[0] = address(this);\n      route[1] = router.WETH();\n\n      if(allowance(address(this), address(router)) < token_amount) {\n        _approve(address(this), address(router), ~uint256(0));\n      }\n\n      try router.swapExactTokensForETHSupportingFeeOnTransferTokens(token_amount.div(2), 0, route, address(this), block.timestamp) {\n        uint256 BNBfromSwap = address(this).balance.sub(BNBfromReward);\n        router.addLiquidityETH{value: BNBfromSwap}(address(this), token_amount.div(2), 0, 0, LP_recipient, block.timestamp); //will not be catched\n        emit AddLiq(\"addLiq: ok\");\n        return token_amount;\n      }\n      catch {\n        emit AddLiq(\"addLiq: fail\");\n        return 0;\n      }\n    }\n\n    //@dev individual reward is growing linearly througout 24h, and is the portion of the reward pool\n    //     weighted by the circ. supply owned.\n    //     reward = (balance/circ supply) * [(now - lastClaim) / 1d] * BNB_balance\n    //     If an extra-buy occurs in the last 24h, reset 24h timer (in sell tax)\n    //     (frontend will automatize claim then buy)\n    function computeReward() public view returns(uint256, uint256) {\n\n      past_tx memory sender_last_tx = _last_tx[msg.sender];\n      uint256 last_claim = sender_last_tx.last_claim;\n\n      if(last_claim + 1 days > block.timestamp) { // 1 claim every 24h max\n        return (0, 0);\n      }\n\n      address DEAD = address(0x000000000000000000000000000000000000dEaD);\n\n      uint256 circulating_supply = totalSupply().sub(_balances[DEAD]).sub(_balances[address(pair)]);\n\n      uint256 _nom = _balances[msg.sender].mul(balanceOf(address(this))).mul(block.timestamp - last_claim);\n      uint256 _denom = circulating_supply.mul(1 days);\n\n      uint256 reward_without_penalty = _nom.div(_denom);\n\n      uint256 tax_to_pay = taxOnClaim(getQuoteInBNB(reward_without_penalty));\n\n      return (reward_without_penalty.sub(tax_to_pay), tax_to_pay);\n    }\n\n    //@dev Compute the tax on claimed reward - labelled in BNB (as per team agreement)\n    //    but *not* swapped before actual claim (token from claimer staying in the reward pool).\n    function taxOnClaim(uint256 amount) public view returns(uint256 tax){\n\n      if(amount > 2 ether) { return amount.mul(claiming_taxes_rates[4]).div(100); } //GIVE US FINNEY'S BACK\n      else if(amount > 1.50 ether) { return amount.mul(claiming_taxes_rates[3]).div(100); }\n      else if(amount > 1 ether) { return amount.mul(claiming_taxes_rates[2]).div(100); }\n      else if(amount > 0.5 ether) { return amount.mul(claiming_taxes_rates[1]).div(100); }\n      else if(amount > 0.25 ether) { return amount.mul(claiming_taxes_rates[0]).div(100); }\n      else { return 0; }\n\n    }\n\n    //@dev frontend integration\n    function whenClaim() public view returns (uint256) {\n      return _last_tx[msg.sender].last_claim + 1 days;\n    }\n\n    //@dev computeReward check if last claim is less than 1d ago\n    function claimReward() public {\n      (uint256 claimable, uint256 tax) = computeReward();\n      require(claimable > 0, \"Claim: 0\");\n      _last_tx[msg.sender].last_claim = block.timestamp;\n      balancer_balances.reward_pool += tax;\n      emit Transfer(msg.sender, address(this), tax);\n      safeTransferETH(msg.sender, claimable);\n    }\n\n    function getQuoteInBNB(uint256 nb_token) public view returns (uint256) {\n      (uint112 _reserve0, uint112 _reserve1,) = pair.getReserves(); // returns reserve0, reserve1, timestamp last tx\n      if(address(this) != pair.token0()) { // 0 <- iBNB\n        (_reserve0, _reserve1) = (_reserve1, _reserve0);\n      }\n      return router.getAmountOut(nb_token, _reserve0, _reserve1);\n    }\n\n    function swapForBNB(uint256 token_amount, address receiver) public returns (uint256) {\n      address[] memory route = new address[](2);\n      route[0] = address(this);\n      route[1] = router.WETH();\n\n      if(allowance(address(this), address(router)) < token_amount) {\n        _approve(address(this), address(router), ~uint256(0));\n      }\n\n      try router.swapExactTokensForETHSupportingFeeOnTransferTokens(token_amount, 0, route, receiver, block.timestamp) {\n        emit SwapForBNB(\"Ok\");\n        return token_amount;\n      }\n      catch {\n        emit SwapForBNB(\"Fail\");\n        return 0;\n      }\n    }\n\n    //@dev taken from uniswapV2 TransferHelper lib\n    function safeTransferETH(address to, uint value) internal {\n        (bool success,) = to.call{value:value}(new bytes(0));\n        require(success, 'TransferHelper: ETH_TRANSFER_FAILED');\n    }\n\n    function excludeFromTaxes(address adr) public onlyOwner {\n      require(!excluded[adr], \"already excluded\");\n      excluded[adr] = true;\n    }\n    function includeInTaxes(address adr) public onlyOwner {\n      require(excluded[adr], \"already taxed\");\n      excluded[adr] = false;\n    }\n    function resetBalancer() public onlyOwner {\n      uint256 _contract_balance = balanceOf(address(this));\n      balancer_balances.reward_pool = _contract_balance.div(2);\n      balancer_balances.liquidity_pool = _contract_balance.div(2);\n    }\n\n    //@dev will bypass all the taxes and act as erc20.\n    //     pools & balancer balances will remain untouched\n    function setCircuitBreaker(bool status) public onlyOwner {\n      circuit_breaker = status;\n    }\n    function setLPContract(address _LP_recipient) public onlyOwner {\n      LP_recipient = _LP_recipient;\n    }\n    function setDevWallet(address _devWallet) public onlyOwner {\n      devWallet = _devWallet;\n    }\n    function setSwapForLiqThreshold(uint256 threshold_in_token) public onlyOwner {\n      swap_for_liquidity_threshold = threshold_in_token * 10**_decimals;\n    }\n    function setSellingTaxesTranches(uint16[5] memory new_tranches) public onlyOwner {\n      selling_taxes_tranches = new_tranches;\n      emit TaxRatesChanged();\n    }\n    function setSellingTaxesrates(uint8[4] memory new_amounts) public onlyOwner {\n      selling_taxes_rates = new_amounts;\n      emit TaxRatesChanged();\n    }\n    function setRewardTaxesTranches(uint8[5] memory new_tranches) public onlyOwner {\n      claiming_taxes_rates = new_tranches;\n      emit RewardTaxChanged();\n    }\n}\n",
  "sourcePath": "/home/drgorilla/Documents/solidity/iBNB/contracts/iBNB.sol",
  "compiler": {
    "name": "solc",
    "version": "0.8.0+commit.c7dfd78e.Emscripten.clang"
  },
  "schemaVersion": "3.4.0",
  "updatedAt": "2021-06-11T13:32:30.182Z",
  "devdoc": {
    "details": "iBNB",
    "kind": "dev",
    "methods": {
      "allowance(address,address)": {
        "details": "Returns the remaining number of tokens that `spender` will be allowed to spend on behalf of `owner` through {transferFrom}. This is zero by default. This value changes when {approve} or {transferFrom} are called."
      },
      "approve(address,uint256)": {
        "details": "Sets `amount` as the allowance of `spender` over the caller's tokens. Returns a boolean value indicating whether the operation succeeded. IMPORTANT: Beware that changing an allowance with this method brings the risk that someone may use both the old and the new allowance by unfortunate transaction ordering. One possible solution to mitigate this race condition is to first reduce the spender's allowance to 0 and set the desired value afterwards: https://github.com/ethereum/EIPs/issues/20#issuecomment-263524729 Emits an {Approval} event."
      },
      "balanceOf(address)": {
        "details": "Returns the amount of tokens owned by `account`."
      },
      "owner()": {
        "details": "Returns the address of the current owner."
      },
      "renounceOwnership()": {
        "details": "Leaves the contract without owner. It will not be possible to call `onlyOwner` functions anymore. Can only be called by the current owner. NOTE: Renouncing ownership will leave the contract without an owner, thereby removing any functionality that is only available to the owner."
      },
      "totalSupply()": {
        "details": "Returns the amount of tokens in existence."
      },
      "transfer(address,uint256)": {
        "details": "Moves `amount` tokens from the caller's account to `recipient`. Returns a boolean value indicating whether the operation succeeded. Emits a {Transfer} event."
      },
      "transferFrom(address,address,uint256)": {
        "details": "Moves `amount` tokens from `sender` to `recipient` using the allowance mechanism. `amount` is then deducted from the caller's allowance. Returns a boolean value indicating whether the operation succeeded. Emits a {Transfer} event."
      },
      "transferOwnership(address)": {
        "details": "Transfers ownership of the contract to a new account (`newOwner`). Can only be called by the current owner."
      }
    },
    "version": 1
  },
  "userdoc": {
    "kind": "user",
    "methods": {},
    "version": 1
  }
}