{
  "contractName": "iBNB",
  "abi": [
    {
      "inputs": [
        {
          "internalType": "address",
          "name": "_router",
          "type": "address"
        }
      ],
      "stateMutability": "nonpayable",
      "type": "constructor"
    },
    {
      "anonymous": false,
      "inputs": [
        {
          "indexed": false,
          "internalType": "string",
          "name": "",
          "type": "string"
        }
      ],
      "name": "AddLiq",
      "type": "event"
    },
    {
      "anonymous": false,
      "inputs": [
        {
          "indexed": false,
          "internalType": "address",
          "name": "",
          "type": "address"
        },
        {
          "indexed": false,
          "internalType": "address",
          "name": "",
          "type": "address"
        },
        {
          "indexed": false,
          "internalType": "uint256",
          "name": "",
          "type": "uint256"
        }
      ],
      "name": "Approval",
      "type": "event"
    },
    {
      "anonymous": false,
      "inputs": [
        {
          "indexed": false,
          "internalType": "uint256",
          "name": "",
          "type": "uint256"
        },
        {
          "indexed": false,
          "internalType": "uint256",
          "name": "",
          "type": "uint256"
        }
      ],
      "name": "BalancerRatio",
      "type": "event"
    },
    {
      "anonymous": false,
      "inputs": [
        {
          "indexed": true,
          "internalType": "address",
          "name": "previousOwner",
          "type": "address"
        },
        {
          "indexed": true,
          "internalType": "address",
          "name": "newOwner",
          "type": "address"
        }
      ],
      "name": "OwnershipTransferred",
      "type": "event"
    },
    {
      "anonymous": false,
      "inputs": [],
      "name": "RewardTaxChanged",
      "type": "event"
    },
    {
      "anonymous": false,
      "inputs": [
        {
          "indexed": false,
          "internalType": "string",
          "name": "",
          "type": "string"
        }
      ],
      "name": "SwapForBNB",
      "type": "event"
    },
    {
      "anonymous": false,
      "inputs": [],
      "name": "TaxRatesChanged",
      "type": "event"
    },
    {
      "anonymous": false,
      "inputs": [
        {
          "indexed": false,
          "internalType": "address",
          "name": "",
          "type": "address"
        },
        {
          "indexed": false,
          "internalType": "address",
          "name": "",
          "type": "address"
        },
        {
          "indexed": false,
          "internalType": "uint256",
          "name": "",
          "type": "uint256"
        }
      ],
      "name": "Transfer",
      "type": "event"
    },
    {
      "anonymous": false,
      "inputs": [
        {
          "indexed": false,
          "internalType": "uint256",
          "name": "",
          "type": "uint256"
        },
        {
          "indexed": false,
          "internalType": "uint256",
          "name": "",
          "type": "uint256"
        }
      ],
      "name": "balancerReset",
      "type": "event"
    },
    {
      "inputs": [],
      "name": "LP_recipient",
      "outputs": [
        {
          "internalType": "address",
          "name": "",
          "type": "address"
        }
      ],
      "stateMutability": "view",
      "type": "function"
    },
    {
      "inputs": [],
      "name": "balancer_balances",
      "outputs": [
        {
          "internalType": "uint256",
          "name": "reward_pool",
          "type": "uint256"
        },
        {
          "internalType": "uint256",
          "name": "liquidity_pool",
          "type": "uint256"
        }
      ],
      "stateMutability": "view",
      "type": "function"
    },
    {
      "inputs": [],
      "name": "circuit_breaker",
      "outputs": [
        {
          "internalType": "bool",
          "name": "",
          "type": "bool"
        }
      ],
      "stateMutability": "view",
      "type": "function"
    },
    {
      "inputs": [
        {
          "internalType": "uint256",
          "name": "",
          "type": "uint256"
        }
      ],
      "name": "claiming_taxes_rates",
      "outputs": [
        {
          "internalType": "uint8",
          "name": "",
          "type": "uint8"
        }
      ],
      "stateMutability": "view",
      "type": "function"
    },
    {
      "inputs": [],
      "name": "devWallet",
      "outputs": [
        {
          "internalType": "address",
          "name": "",
          "type": "address"
        }
      ],
      "stateMutability": "view",
      "type": "function"
    },
    {
      "inputs": [
        {
          "internalType": "address",
          "name": "",
          "type": "address"
        }
      ],
      "name": "excluded",
      "outputs": [
        {
          "internalType": "bool",
          "name": "",
          "type": "bool"
        }
      ],
      "stateMutability": "view",
      "type": "function"
    },
    {
      "inputs": [],
      "name": "owner",
      "outputs": [
        {
          "internalType": "address",
          "name": "",
          "type": "address"
        }
      ],
      "stateMutability": "view",
      "type": "function"
    },
    {
      "inputs": [],
      "name": "pair",
      "outputs": [
        {
          "internalType": "contract IUniswapV2Pair",
          "name": "",
          "type": "address"
        }
      ],
      "stateMutability": "view",
      "type": "function"
    },
    {
      "inputs": [],
      "name": "renounceOwnership",
      "outputs": [],
      "stateMutability": "nonpayable",
      "type": "function"
    },
    {
      "inputs": [],
      "name": "router",
      "outputs": [
        {
          "internalType": "contract IUniswapV2Router02",
          "name": "",
          "type": "address"
        }
      ],
      "stateMutability": "view",
      "type": "function"
    },
    {
      "inputs": [
        {
          "internalType": "uint256",
          "name": "",
          "type": "uint256"
        }
      ],
      "name": "selling_taxes_rates",
      "outputs": [
        {
          "internalType": "uint8",
          "name": "",
          "type": "uint8"
        }
      ],
      "stateMutability": "view",
      "type": "function"
    },
    {
      "inputs": [
        {
          "internalType": "uint256",
          "name": "",
          "type": "uint256"
        }
      ],
      "name": "selling_taxes_tranches",
      "outputs": [
        {
          "internalType": "uint16",
          "name": "",
          "type": "uint16"
        }
      ],
      "stateMutability": "view",
      "type": "function"
    },
    {
      "inputs": [],
      "name": "swap_for_liquidity_threshold",
      "outputs": [
        {
          "internalType": "uint256",
          "name": "",
          "type": "uint256"
        }
      ],
      "stateMutability": "view",
      "type": "function"
    },
    {
      "inputs": [],
      "name": "swap_for_reward_threshold",
      "outputs": [
        {
          "internalType": "uint256",
          "name": "",
          "type": "uint256"
        }
      ],
      "stateMutability": "view",
      "type": "function"
    },
    {
      "inputs": [
        {
          "internalType": "address",
          "name": "newOwner",
          "type": "address"
        }
      ],
      "name": "transferOwnership",
      "outputs": [],
      "stateMutability": "nonpayable",
      "type": "function"
    },
    {
      "stateMutability": "payable",
      "type": "receive"
    },
    {
      "inputs": [],
      "name": "decimals",
      "outputs": [
        {
          "internalType": "uint256",
          "name": "",
          "type": "uint256"
        }
      ],
      "stateMutability": "view",
      "type": "function"
    },
    {
      "inputs": [],
      "name": "name",
      "outputs": [
        {
          "internalType": "string",
          "name": "",
          "type": "string"
        }
      ],
      "stateMutability": "view",
      "type": "function"
    },
    {
      "inputs": [],
      "name": "symbol",
      "outputs": [
        {
          "internalType": "string",
          "name": "",
          "type": "string"
        }
      ],
      "stateMutability": "view",
      "type": "function"
    },
    {
      "inputs": [],
      "name": "totalSupply",
      "outputs": [
        {
          "internalType": "uint256",
          "name": "",
          "type": "uint256"
        }
      ],
      "stateMutability": "view",
      "type": "function"
    },
    {
      "inputs": [
        {
          "internalType": "address",
          "name": "account",
          "type": "address"
        }
      ],
      "name": "balanceOf",
      "outputs": [
        {
          "internalType": "uint256",
          "name": "",
          "type": "uint256"
        }
      ],
      "stateMutability": "view",
      "type": "function"
    },
    {
      "inputs": [
        {
          "internalType": "address",
          "name": "recipient",
          "type": "address"
        },
        {
          "internalType": "uint256",
          "name": "amount",
          "type": "uint256"
        }
      ],
      "name": "transfer",
      "outputs": [
        {
          "internalType": "bool",
          "name": "",
          "type": "bool"
        }
      ],
      "stateMutability": "nonpayable",
      "type": "function"
    },
    {
      "inputs": [
        {
          "internalType": "address",
          "name": "owner",
          "type": "address"
        },
        {
          "internalType": "address",
          "name": "spender",
          "type": "address"
        }
      ],
      "name": "allowance",
      "outputs": [
        {
          "internalType": "uint256",
          "name": "",
          "type": "uint256"
        }
      ],
      "stateMutability": "view",
      "type": "function"
    },
    {
      "inputs": [
        {
          "internalType": "address",
          "name": "spender",
          "type": "address"
        },
        {
          "internalType": "uint256",
          "name": "amount",
          "type": "uint256"
        }
      ],
      "name": "approve",
      "outputs": [
        {
          "internalType": "bool",
          "name": "",
          "type": "bool"
        }
      ],
      "stateMutability": "nonpayable",
      "type": "function"
    },
    {
      "inputs": [
        {
          "internalType": "address",
          "name": "sender",
          "type": "address"
        },
        {
          "internalType": "address",
          "name": "recipient",
          "type": "address"
        },
        {
          "internalType": "uint256",
          "name": "amount",
          "type": "uint256"
        }
      ],
      "name": "transferFrom",
      "outputs": [
        {
          "internalType": "bool",
          "name": "",
          "type": "bool"
        }
      ],
      "stateMutability": "nonpayable",
      "type": "function"
    },
    {
      "inputs": [
        {
          "internalType": "address",
          "name": "spender",
          "type": "address"
        },
        {
          "internalType": "uint256",
          "name": "addedValue",
          "type": "uint256"
        }
      ],
      "name": "increaseAllowance",
      "outputs": [
        {
          "internalType": "bool",
          "name": "",
          "type": "bool"
        }
      ],
      "stateMutability": "nonpayable",
      "type": "function"
    },
    {
      "inputs": [
        {
          "internalType": "address",
          "name": "spender",
          "type": "address"
        },
        {
          "internalType": "uint256",
          "name": "subtractedValue",
          "type": "uint256"
        }
      ],
      "name": "decreaseAllowance",
      "outputs": [
        {
          "internalType": "bool",
          "name": "",
          "type": "bool"
        }
      ],
      "stateMutability": "nonpayable",
      "type": "function"
    },
    {
      "inputs": [
        {
          "internalType": "uint256",
          "name": "amount",
          "type": "uint256"
        },
        {
          "internalType": "uint256",
          "name": "pool_balance",
          "type": "uint256"
        }
      ],
      "name": "balancer",
      "outputs": [],
      "stateMutability": "nonpayable",
      "type": "function"
    },
    {
      "inputs": [],
      "name": "computeReward",
      "outputs": [
        {
          "internalType": "uint256",
          "name": "",
          "type": "uint256"
        },
        {
          "internalType": "uint256",
          "name": "",
          "type": "uint256"
        }
      ],
      "stateMutability": "view",
      "type": "function"
    },
    {
      "inputs": [
        {
          "internalType": "uint256",
          "name": "amount",
          "type": "uint256"
        }
      ],
      "name": "taxOnClaim",
      "outputs": [
        {
          "internalType": "uint256",
          "name": "tax",
          "type": "uint256"
        }
      ],
      "stateMutability": "view",
      "type": "function"
    },
    {
      "inputs": [],
      "name": "whenClaim",
      "outputs": [
        {
          "internalType": "uint256",
          "name": "",
          "type": "uint256"
        }
      ],
      "stateMutability": "view",
      "type": "function"
    },
    {
      "inputs": [],
      "name": "claimReward",
      "outputs": [],
      "stateMutability": "nonpayable",
      "type": "function"
    },
    {
      "inputs": [
        {
          "internalType": "uint256",
          "name": "nb_token",
          "type": "uint256"
        }
      ],
      "name": "getQuoteInBNB",
      "outputs": [
        {
          "internalType": "uint256",
          "name": "",
          "type": "uint256"
        }
      ],
      "stateMutability": "view",
      "type": "function"
    },
    {
      "inputs": [
        {
          "internalType": "uint256",
          "name": "token_amount",
          "type": "uint256"
        },
        {
          "internalType": "address",
          "name": "receiver",
          "type": "address"
        }
      ],
      "name": "swapForBNB",
      "outputs": [
        {
          "internalType": "uint256",
          "name": "",
          "type": "uint256"
        }
      ],
      "stateMutability": "nonpayable",
      "type": "function"
    },
    {
      "inputs": [
        {
          "internalType": "address",
          "name": "adr",
          "type": "address"
        }
      ],
      "name": "excludeFromTaxes",
      "outputs": [],
      "stateMutability": "nonpayable",
      "type": "function"
    },
    {
      "inputs": [
        {
          "internalType": "address",
          "name": "adr",
          "type": "address"
        }
      ],
      "name": "includeInTaxes",
      "outputs": [],
      "stateMutability": "nonpayable",
      "type": "function"
    },
    {
      "inputs": [],
      "name": "resetBalancer",
      "outputs": [],
      "stateMutability": "nonpayable",
      "type": "function"
    },
    {
      "inputs": [
        {
          "internalType": "bool",
          "name": "status",
          "type": "bool"
        }
      ],
      "name": "setCircuitBreaker",
      "outputs": [],
      "stateMutability": "nonpayable",
      "type": "function"
    },
    {
      "inputs": [
        {
          "internalType": "address",
          "name": "_LP_recipient",
          "type": "address"
        }
      ],
      "name": "setLPContract",
      "outputs": [],
      "stateMutability": "nonpayable",
      "type": "function"
    },
    {
      "inputs": [
        {
          "internalType": "address",
          "name": "_devWallet",
          "type": "address"
        }
      ],
      "name": "setDevWallet",
      "outputs": [],
      "stateMutability": "nonpayable",
      "type": "function"
    },
    {
      "inputs": [
        {
          "internalType": "uint256",
          "name": "threshold_in_token",
          "type": "uint256"
        }
      ],
      "name": "setSwapFor_Liq_Threshold",
      "outputs": [],
      "stateMutability": "nonpayable",
      "type": "function"
    },
    {
      "inputs": [
        {
          "internalType": "uint256",
          "name": "threshold_in_token",
          "type": "uint256"
        }
      ],
      "name": "setSwapFor_Reward_Threshold",
      "outputs": [],
      "stateMutability": "nonpayable",
      "type": "function"
    },
    {
      "inputs": [
        {
          "internalType": "uint16[5]",
          "name": "new_tranches",
          "type": "uint16[5]"
        }
      ],
      "name": "setSellingTaxesTranches",
      "outputs": [],
      "stateMutability": "nonpayable",
      "type": "function"
    },
    {
      "inputs": [
        {
          "internalType": "uint8[4]",
          "name": "new_amounts",
          "type": "uint8[4]"
        }
      ],
      "name": "setSellingTaxesrates",
      "outputs": [],
      "stateMutability": "nonpayable",
      "type": "function"
    },
    {
      "inputs": [
        {
          "internalType": "uint8[5]",
          "name": "new_tranches",
          "type": "uint8[5]"
        }
      ],
      "name": "setRewardTaxesTranches",
      "outputs": [],
      "stateMutability": "nonpayable",
      "type": "function"
    }
  ],
  "bytecode": "0x6080604052600960058190556200001890600a62000688565b6200002b9066038d7ea4c6800062000770565b6006556005546200003e90600a62000688565b62000050906509184e72a00062000770565b6007556005546200006390600a62000688565b62000075906509184e72a00062000770565b600890815560408051608081018252600281526004602082018190526006928201929092526060810192909252620000b0916009916200043a565b506040805160a081018252600281526004602082015260069181019190915260086060820152600f6080820152620000ed90600a9060056200043a565b506040805160a081018252607d815260fa60208201526101f4918101919091526102ee60608201526103e860808201526200012d90600b906005620004d4565b506040805180820190915260048082526334a1272160e11b60209092019182526200015b91600d916200055d565b506040805180820190915260048082526334a1272160e11b60209092019182526200018991600e916200055d565b503480156200019757600080fd5b506040516200399138038062003991833981016040819052620001ba91620005f1565b6000620001c662000436565b600080546001600160a01b0319166001600160a01b0383169081178255604051929350917f8be0079c531659141344cd1fd0a4f28419497f9722a3daafe3b4186f6b6457e0908290a35060065433600090815260016020908152604080832093909355601280546001600160a01b0319166001600160a01b038681169190911791829055845163c45a015560e01b81529451939491169263c45a015592600480840193919291829003018186803b1580156200028157600080fd5b505afa15801562000296573d6000803e3d6000fd5b505050506040513d601f19601f82011682018060405250810190620002bc9190620005f1565b9050806001600160a01b031663c9c6539630601260009054906101000a90046001600160a01b03166001600160a01b031663ad5c46486040518163ffffffff1660e01b815260040160206040518083038186803b1580156200031d57600080fd5b505afa15801562000332573d6000803e3d6000fd5b505050506040513d601f19601f82011682018060405250810190620003589190620005f1565b6040518363ffffffff1660e01b81526004016200037792919062000621565b602060405180830381600087803b1580156200039257600080fd5b505af1158015620003a7573d6000803e3d6000fd5b505050506040513d601f19601f82011682018060405250810190620003cd9190620005f1565b601180546001600160a01b03929092166001600160a01b0319928316179055600f805482169055601080549091169055505033600090815260046020526040808220805460ff1990811660019081179092553084529190922080549091169091179055620007e5565b3390565b600183019183908215620004c25791602002820160005b838211156200049157835183826101000a81548160ff021916908360ff160217905550926020019260010160208160000104928301926001030262000451565b8015620004c05782816101000a81549060ff021916905560010160208160000104928301926001030262000491565b505b50620004d0929150620005da565b5090565b600183019183908215620004c25791602002820160005b838211156200052d57835183826101000a81548161ffff021916908361ffff1602179055509260200192600201602081600101049283019260010302620004eb565b8015620004c05782816101000a81549061ffff02191690556002016020816001010492830192600103026200052d565b8280546200056b9062000792565b90600052602060002090601f0160209004810192826200058f5760008555620004c2565b82601f10620005aa57805160ff1916838001178555620004c2565b82800160010185558215620004c2579182015b82811115620004c2578251825591602001919060010190620005bd565b5b80821115620004d05760008155600101620005db565b60006020828403121562000603578081fd5b81516001600160a01b03811681146200061a578182fd5b9392505050565b6001600160a01b0392831681529116602082015260400190565b80825b60018086116200064f57506200067f565b818704821115620006645762000664620007cf565b808616156200067257918102915b9490941c9380026200063e565b94509492505050565b60006200061a6000198484600082620006a4575060016200061a565b81620006b3575060006200061a565b8160018114620006cc5760028114620006d7576200070b565b60019150506200061a565b60ff841115620006eb57620006eb620007cf565b6001841b915084821115620007045762000704620007cf565b506200061a565b5060208310610133831016604e8410600b841016171562000743575081810a838111156200073d576200073d620007cf565b6200061a565b6200075284848460016200063b565b808604821115620007675762000767620007cf565b02949350505050565b60008160001904831182151516156200078d576200078d620007cf565b500290565b600281046001821680620007a757607f821691505b60208210811415620007c957634e487b7160e01b600052602260045260246000fd5b50919050565b634e487b7160e01b600052601160045260246000fd5b61319c80620007f56000396000f3fe60806040526004361061026b5760003560e01c8063715018a611610144578063ca882eda116100b6578063ecefbb211161007a578063ecefbb21146106f9578063f22b10841461070e578063f2fde38b1461072e578063f887ea401461074e578063fa04a97014610763578063fb3fbc121461078357610272565b8063ca882eda14610661578063d9a86cdf14610681578063dd62ed3e146106a1578063e0e28336146106c1578063ea9180ec146106e457610272565b8063983e915811610108578063983e9158146105b75780639bb90794146105d7578063a457c2d7146105f7578063a8aa1b3114610617578063a9059cbb1461062c578063b88a802f1461064c57610272565b8063715018a61461054357806384d8f1dc146105585780638da5cb5b146105785780638ea5220f1461058d57806395d89b41146105a257610272565b806323b872dd116101dd5780633dbbc80f116101a15780633dbbc80f1461048e57806342506449146104ae578063429cead1146104ce57806345abb383146104ee57806367250b591461050e57806370a082311461052357610272565b806323b872dd146103f757806328f4cdfc14610417578063313ce5671461043757806332fb782b1461044c578063395093511461046e57610272565b806313a55aa51161022f57806313a55aa51461034057806316e6fa101461036057806318160ddd1461038d5780631f53ac02146103a25780631fc74723146103c2578063222b03f6146103e257610272565b80630281d18e1461027757806306fdde03146102ad578063095ea7b3146102cf5780630ce6bb6f146102fc578063131e00b71461031e57610272565b3661027257005b600080fd5b34801561028357600080fd5b506102976102923660046128a0565b610798565b6040516102a49190612e3a565b60405180910390f35b3480156102b957600080fd5b506102c26107c2565b6040516102a491906129dc565b3480156102db57600080fd5b506102ef6102ea3660046126cb565b610855565b6040516102a491906129d1565b34801561030857600080fd5b50610311610873565b6040516102a49190612d94565b34801561032a57600080fd5b5061033e61033936600461261b565b610879565b005b34801561034c57600080fd5b5061033e61035b3660046127cf565b61091e565b34801561036c57600080fd5b5061038061037b3660046128a0565b610997565b6040516102a49190612d85565b34801561039957600080fd5b506103116109c5565b3480156103ae57600080fd5b5061033e6103bd36600461261b565b6109cb565b3480156103ce57600080fd5b506103116103dd3660046128d0565b610a2c565b3480156103ee57600080fd5b50610311610cc2565b34801561040357600080fd5b506102ef61041236600461268b565b610cc8565b34801561042357600080fd5b506103116104323660046128a0565b610d61565b34801561044357600080fd5b50610311610f1f565b34801561045857600080fd5b50610461610f25565b6040516102a4919061295e565b34801561047a57600080fd5b506102ef6104893660046126cb565b610f34565b34801561049a57600080fd5b5061033e6104a93660046128a0565b610f83565b3480156104ba57600080fd5b5061033e6104c9366004612832565b610fe0565b3480156104da57600080fd5b506102ef6104e936600461261b565b611032565b3480156104fa57600080fd5b5061033e6105093660046128f4565b611047565b34801561051a57600080fd5b5061033e6111fe565b34801561052f57600080fd5b5061031161053e36600461261b565b6112a8565b34801561054f57600080fd5b5061033e6112c3565b34801561056457600080fd5b5061033e6105733660046128a0565b61134c565b34801561058457600080fd5b506104616113a9565b34801561059957600080fd5b506104616113b8565b3480156105ae57600080fd5b506102c26113c7565b3480156105c357600080fd5b5061033e6105d236600461261b565b6113d6565b3480156105e357600080fd5b5061033e6105f236600461261b565b61146e565b34801561060357600080fd5b506102ef6106123660046126cb565b6114cf565b34801561062357600080fd5b5061046161154a565b34801561063857600080fd5b506102ef6106473660046126cb565b611559565b34801561065857600080fd5b5061033e61156d565b34801561066d57600080fd5b5061033e61067c3660046126f6565b611600565b34801561068d57600080fd5b5061033e61069c36600461276c565b611679565b3480156106ad57600080fd5b506103116106bc366004612653565b6116c5565b3480156106cd57600080fd5b506106d66116f0565b6040516102a4929190612e2c565b3480156106f057600080fd5b506106d661181a565b34801561070557600080fd5b50610311611823565b34801561071a57600080fd5b506102976107293660046128a0565b611848565b34801561073a57600080fd5b5061033e61074936600461261b565b611858565b34801561075a57600080fd5b50610461611918565b34801561076f57600080fd5b5061031161077e3660046128a0565b611927565b34801561078f57600080fd5b506102ef6119f5565b600981600481106107a857600080fd5b60209182820401919006915054906101000a900460ff1681565b6060600d80546107d190613032565b80601f01602080910402602001604051908101604052809291908181526020018280546107fd90613032565b801561084a5780601f1061081f5761010080835404028352916020019161084a565b820191906000526020600020905b81548152906001019060200180831161082d57829003601f168201915b505050505090505b90565b60006108696108626119fe565b8484611a02565b5060015b92915050565b60085481565b6108816119fe565b6001600160a01b03166108926113a9565b6001600160a01b0316146108c15760405162461bcd60e51b81526004016108b890612b92565b60405180910390fd5b6001600160a01b03811660009081526004602052604090205460ff16156108fa5760405162461bcd60e51b81526004016108b890612d16565b6001600160a01b03166000908152600460205260409020805460ff19166001179055565b6109266119fe565b6001600160a01b03166109376113a9565b6001600160a01b03161461095d5760405162461bcd60e51b81526004016108b890612b92565b61096a600a8260056124c7565b506040517ffa718b2e3c4eff6c1ad7f30d8799d768c9c9c172a31e28102f58e23bdf2550c790600090a150565b600b81600581106109a757600080fd5b60109182820401919006600202915054906101000a900461ffff1681565b60065490565b6109d36119fe565b6001600160a01b03166109e46113a9565b6001600160a01b031614610a0a5760405162461bcd60e51b81526004016108b890612b92565b601080546001600160a01b0319166001600160a01b0392909216919091179055565b604080516002808252606082018352600092839291906020830190803683370190505090503081600081518110610a7357634e487b7160e01b600052603260045260246000fd5b6001600160a01b03928316602091820292909201810191909152601254604080516315ab88c960e31b81529051919093169263ad5c4648926004808301939192829003018186803b158015610ac757600080fd5b505afa158015610adb573d6000803e3d6000fd5b505050506040513d601f19601f82011682018060405250810190610aff9190612637565b81600181518110610b2057634e487b7160e01b600052603260045260246000fd5b6001600160a01b0392831660209182029290920101526012548591610b47913091166116c5565b1015610bbd57306000818152600360209081526040808320601280546001600160a01b039081168652919093529281902060001990819055915490517f8c5be1e5ebec7d5bd14f71427d1e84f3dd0314c0f7b2291e5b200ac8c7c3b92594610bb494909392169190612972565b60405180910390a15b60125460405163791ac94760e01b81526001600160a01b039091169063791ac94790610bf6908790600090869089904290600401612d9d565b600060405180830381600087803b158015610c1057600080fd5b505af1925050508015610c21575060015b610c8457610c2d613089565b80610c385750610c7a565b7f63f96232640ee3b5914be68a756c36599d36b83c5f2ca097c9c40afdf6f7fc2d81604051610c6791906129dc565b60405180910390a160009250505061086d565b3d6000803e3d6000fd5b7f63f96232640ee3b5914be68a756c36599d36b83c5f2ca097c9c40afdf6f7fc2d604051610cb190612c69565b60405180910390a18391505061086d565b60075481565b6000610cd5848484611ab7565b6001600160a01b038416600090815260036020526040812081610cf66119fe565b6001600160a01b03166001600160a01b0316815260200190815260200160002054905082811015610d395760405162461bcd60e51b81526004016108b890612b4a565b610d5485610d456119fe565b610d4f8685612feb565b611a02565b60019150505b9392505050565b6000806000601160009054906101000a90046001600160a01b03166001600160a01b0316630902f1ac6040518163ffffffff1660e01b815260040160606040518083038186803b158015610db457600080fd5b505afa158015610dc8573d6000803e3d6000fd5b505050506040513d601f19601f82011682018060405250810190610dec9190612852565b5091509150601160009054906101000a90046001600160a01b03166001600160a01b0316630dfe16816040518163ffffffff1660e01b815260040160206040518083038186803b158015610e3f57600080fd5b505afa158015610e53573d6000803e3d6000fd5b505050506040513d601f19601f82011682018060405250810190610e779190612637565b6001600160a01b0316306001600160a01b031614610e9157905b601254604051630153543560e21b81526001600160a01b039091169063054d50d490610ec590879086908690600401612e0d565b60206040518083038186803b158015610edd57600080fd5b505afa158015610ef1573d6000803e3d6000fd5b505050506040513d601f19601f82011682018060405250810190610f1591906128b8565b925050505b919050565b60055490565b600f546001600160a01b031681565b6000610869610f416119fe565b848460036000610f4f6119fe565b6001600160a01b03908116825260208083019390935260409182016000908120918b1681529252902054610d4f9190612e80565b610f8b6119fe565b6001600160a01b0316610f9c6113a9565b6001600160a01b031614610fc25760405162461bcd60e51b81526004016108b890612b92565b600554610fd090600a612efe565b610fda9082612fcc565b60085550565b610fe86119fe565b6001600160a01b0316610ff96113a9565b6001600160a01b03161461101f5760405162461bcd60e51b81526004016108b890612b92565b600c805460ff1916911515919091179055565b60046020526000908152604090205460ff1681565b61dead600081815260016020527fb34209a263f6c38fe55f099e9e70f9d67e93982480ff3234a5e0108028ad164d54611088906110826109c5565b90611e90565b905060006110ae826110a8633b9aca006110a28389611e90565b90611e9c565b90611ea8565b905060006110d2836110a8633b9aca006110a26110cb848b611e90565b8890611e90565b90506110f6633b9aca006110a88581836110a26110ef848d611e90565b8d90611e9c565b60148054600090611108908490612e80565b909155506111339050633b9aca006110a88581836110a26110ef61112c858e611e90565b8b90611e90565b60138054600090611145908490612e80565b909155505060075460145410611183576000611165601360010154611eb4565b9050806013600101600082825461117c9190612feb565b9091555050505b600854601354106111bd57600061119f60136000015430610a2c565b905080601360000160008282546111b69190612feb565b9091555050505b7fe3cfbc19c9b2799117ecb6d44aebbcf7204606ea626d36d9535314a9f20c270282826040516111ee929190612e2c565b60405180910390a1505050505050565b6112066119fe565b6001600160a01b03166112176113a9565b6001600160a01b03161461123d5760405162461bcd60e51b81526004016108b890612b92565b30600090815260016020526040902054611258816002611ea8565b601355611266816002611ea8565b60148190556013546040517feac7c420776212140a54f51e3179e218232d622b4fa6556ab2ef0b973c0f5ab09261129d9291612e2c565b60405180910390a150565b6001600160a01b031660009081526001602052604090205490565b6112cb6119fe565b6001600160a01b03166112dc6113a9565b6001600160a01b0316146113025760405162461bcd60e51b81526004016108b890612b92565b600080546040516001600160a01b03909116907f8be0079c531659141344cd1fd0a4f28419497f9722a3daafe3b4186f6b6457e0908390a3600080546001600160a01b0319169055565b6113546119fe565b6001600160a01b03166113656113a9565b6001600160a01b03161461138b5760405162461bcd60e51b81526004016108b890612b92565b60055461139990600a612efe565b6113a39082612fcc565b60075550565b6000546001600160a01b031690565b6010546001600160a01b031681565b6060600e80546107d190613032565b6113de6119fe565b6001600160a01b03166113ef6113a9565b6001600160a01b0316146114155760405162461bcd60e51b81526004016108b890612b92565b6001600160a01b03811660009081526004602052604090205460ff1661144d5760405162461bcd60e51b81526004016108b890612b23565b6001600160a01b03166000908152600460205260409020805460ff19169055565b6114766119fe565b6001600160a01b03166114876113a9565b6001600160a01b0316146114ad5760405162461bcd60e51b81526004016108b890612b92565b600f80546001600160a01b0319166001600160a01b0392909216919091179055565b600080600360006114de6119fe565b6001600160a01b039081168252602080830193909352604091820160009081209188168152925290205490508281101561152a5760405162461bcd60e51b81526004016108b890612d40565b6115406115356119fe565b85610d4f8685612feb565b5060019392505050565b6011546001600160a01b031681565b60006108696115666119fe565b8484611ab7565b6000806115786116f0565b915091506000821161159c5760405162461bcd60e51b81526004016108b890612b01565b336000908152600260208190526040822042910155601380548392906115c3908490612e80565b9091555050604051600080516020613147833981519152906115ea90339030908590612972565b60405180910390a16115fc33836121ef565b5050565b6116086119fe565b6001600160a01b03166116196113a9565b6001600160a01b03161461163f5760405162461bcd60e51b81526004016108b890612b92565b61164c600b82600561255a565b506040517f3aaf767b2e63f4c5f274684ce36da44af23d293465914ee94908682af41e652790600090a150565b6116816119fe565b6001600160a01b03166116926113a9565b6001600160a01b0316146116b85760405162461bcd60e51b81526004016108b890612b92565b61164c60098260046124c7565b6001600160a01b03918216600090815260036020908152604080832093909416825291909152205490565b336000908152600260208181526040808420815160608101835281548152600182015493810193909352909201549181018290528291426117348262015180612e80565b111561174857600080935093505050611816565b6011546001600160a01b031660009081526001602052604081205461dead8083527fb34209a263f6c38fe55f099e9e70f9d67e93982480ff3234a5e0108028ad164d5490929161179c9161108290816109c5565b905060006117cf6117ad8542612feb565b6110a26117b9306112a8565b3360009081526001602052604090205490611e9c565b905060006117e08362015180611e9c565b905060006117ee8383611ea8565b905060006117fe61077e83610d61565b905061180a8282611e90565b99509750505050505050505b9091565b60135460145482565b336000908152600260208190526040822001546118439062015180612e80565b905090565b600a81600581106107a857600080fd5b6118606119fe565b6001600160a01b03166118716113a9565b6001600160a01b0316146118975760405162461bcd60e51b81526004016108b890612b92565b6001600160a01b0381166118bd5760405162461bcd60e51b81526004016108b890612a0f565b600080546040516001600160a01b03808516939216917f8be0079c531659141344cd1fd0a4f28419497f9722a3daafe3b4186f6b6457e091a3600080546001600160a01b0319166001600160a01b0392909216919091179055565b6012546001600160a01b031681565b6000671bc16d674ec800008211156119695761196260646110a8600a60045b6020810491909101548691601f166101000a900460ff16611e9c565b9050610f1a565b6714d1120d7b16000082111561198a5761196260646110a8600a6003611946565b670de0b6b3a76400008211156119ab5761196260646110a8600a6002611946565b6706f05b59d3b200008211156119cc5761196260646110a8600a6001611946565b6703782dace9d900008211156119ed5761196260646110a8600a6000611946565b506000610f1a565b600c5460ff1681565b3390565b6001600160a01b038316611a285760405162461bcd60e51b81526004016108b890612c8f565b6001600160a01b038216611a4e5760405162461bcd60e51b81526004016108b890612a55565b6001600160a01b0380841660009081526003602090815260408083209386168352929052819020829055517f8c5be1e5ebec7d5bd14f71427d1e84f3dd0314c0f7b2291e5b200ac8c7c3b92590611aaa90859085908590612972565b60405180910390a1505050565b6001600160a01b038316611add5760405162461bcd60e51b81526004016108b890612bfe565b6001600160a01b03831660009081526001602052604090205481811015611b165760405162461bcd60e51b81526004016108b890612a97565b6001600160a01b0384166000908152600460205260408120548190819060ff16158015611b5c57506001600160a01b03861660009081526004602052604090205460ff16155b8015611b6b5750600c5460ff16155b15611d4d57600080601160009054906101000a90046001600160a01b03166001600160a01b0316630902f1ac6040518163ffffffff1660e01b815260040160606040518083038186803b158015611bc157600080fd5b505afa158015611bd5573d6000803e3d6000fd5b505050506040513d601f19601f82011682018060405250810190611bf99190612852565b5091509150601160009054906101000a90046001600160a01b03166001600160a01b0316630dfe16816040518163ffffffff1660e01b815260040160206040518083038186803b158015611c4c57600080fd5b505afa158015611c60573d6000803e3d6000fd5b505050506040513d601f19601f82011682018060405250810190611c849190612637565b6001600160a01b0316306001600160a01b031614611c9e57905b611cb28988846001600160701b0316612281565b9450611cc0876103e8611ea8565b9350611cd36103e86110a8896063611e9c565b9250611ce883836001600160701b0316611047565b611cf285846124bb565b3060009081526001602052604081208054909190611d11908490612e80565b90915550506010546001600160a01b031660009081526001602052604081208054869290611d40908490612e80565b90915550611d5792505050565b5060009150819050805b6001600160a01b038616600090815260026020526040902042600190910155611d808486611e90565b6001600160a01b038816600090815260016020526040902055611da98161108284818988611e90565b6001600160a01b03871660009081526001602052604081208054909190611dd1908490612e80565b909155505060405160008051602061314783398151915290611df890899089908990612972565b60405180910390a1600080516020613147833981519152873085604051611e2193929190612972565b60405180910390a1600080516020613147833981519152873083604051611e4a93929190612972565b60405180910390a160105460405160008051602061314783398151915291611e7f918a916001600160a01b0316908690612972565b60405180910390a150505050505050565b6000610d5a8284612feb565b6000610d5a8284612fcc565b6000610d5a8284612e98565b6040805160028082526060820183526000924792849290916020830190803683370190505090503081600081518110611efd57634e487b7160e01b600052603260045260246000fd5b6001600160a01b03928316602091820292909201810191909152601254604080516315ab88c960e31b81529051919093169263ad5c4648926004808301939192829003018186803b158015611f5157600080fd5b505afa158015611f65573d6000803e3d6000fd5b505050506040513d601f19601f82011682018060405250810190611f899190612637565b81600181518110611faa57634e487b7160e01b600052603260045260246000fd5b6001600160a01b0392831660209182029290920101526012548591611fd1913091166116c5565b101561204757306000818152600360209081526040808320601280546001600160a01b039081168652919093529281902060001990819055915490517f8c5be1e5ebec7d5bd14f71427d1e84f3dd0314c0f7b2291e5b200ac8c7c3b9259461203e94909392169190612972565b60405180910390a15b6012546001600160a01b031663791ac947612063866002611ea8565b60008430426040518663ffffffff1660e01b8152600401612088959493929190612d9d565b600060405180830381600087803b1580156120a257600080fd5b505af19250505080156120b3575060015b6120f7577facabbd54c23d6a523d8111565d14ae729de6bbe5ea4707cb6162c24d4fae03f46040516120e490612c43565b60405180910390a1600092505050610f1a565b60006121034784611e90565b6012549091506001600160a01b031663f305d7198230612124896002611ea8565b600f546040516001600160e01b031960e087901b16815261215a93929160009182916001600160a01b0316904290600401612996565b6060604051808303818588803b15801561217357600080fd5b505af1158015612187573d6000803e3d6000fd5b50505050506040513d601f19601f820116820180604052508101906121ac9190612915565b5050507facabbd54c23d6a523d8111565d14ae729de6bbe5ea4707cb6162c24d4fae03f46040516121dc90612add565b60405180910390a1849350505050610f1a565b604080516000808252602082019092526001600160a01b0384169083906040516122199190612942565b60006040518083038185875af1925050503d8060008114612256576040519150601f19603f3d011682016040523d82523d6000602084013e61225b565b606091505b505090508061227c5760405162461bcd60e51b81526004016108b890612cd3565b505050565b6040805160a0810191829052600091829190600b906005908285855b82829054906101000a900461ffff1661ffff168152602001906002019060208260010104928301926001038202915080841161229d57505050506001600160a01b038816600090815260026020818152604080842081516060810183528154815260018201549381018490529301549083015294955093909250612325915062015180612e80565b421115612346576001600160a01b0387166000908152600260205260408120555b6001600160a01b03871660009081526002602052604081205461236a9088906124bb565b90506123896127106110a88660045b6020020151899061ffff16611e9c565b8111156123a85760405162461bcd60e51b81526004016108b890612bc7565b6123b96127106110a8866003612379565b8111156123f0576123e960646110a8600960035b6020810491909101548b91601f166101000a900460ff16611e9c565b9150612470565b6124016127106110a8866002612379565b811115612419576123e960646110a8600960026123cd565b61242a6127106110a8866001612379565b811115612442576123e960646110a8600960016123cd565b6124536127106110a8866000612379565b81111561246b576123e960646110a8600960006123cd565b600091505b825161247c90886124bb565b6001600160a01b038916600090815260026020526040812091909155601380548492906124aa908490612e80565b909155509198975050505050505050565b6000610d5a8284612e80565b60018301918390821561254a5791602002820160005b8382111561251b57835183826101000a81548160ff021916908360ff16021790555092602001926001016020816000010492830192600103026124dd565b80156125485782816101000a81549060ff021916905560010160208160000104928301926001030261251b565b505b506125569291506125de565b5090565b60018301918390821561254a5791602002820160005b838211156125b057835183826101000a81548161ffff021916908361ffff1602179055509260200192600201602081600101049283019260010302612570565b80156125485782816101000a81549061ffff02191690556002016020816001010492830192600103026125b0565b5b8082111561255657600081556001016125df565b80516001600160701b0381168114610f1a57600080fd5b803560ff81168114610f1a57600080fd5b60006020828403121561262c578081fd5b8135610d5a8161312e565b600060208284031215612648578081fd5b8151610d5a8161312e565b60008060408385031215612665578081fd5b82356126708161312e565b915060208301356126808161312e565b809150509250929050565b60008060006060848603121561269f578081fd5b83356126aa8161312e565b925060208401356126ba8161312e565b929592945050506040919091013590565b600080604083850312156126dd578182fd5b82356126e88161312e565b946020939093013593505050565b600060a08284031215612707578081fd5b82601f830112612715578081fd5b61271f60a0612e48565b80838560a086011115612730578384fd5b835b600581101561276157813561ffff8116811461274c578586fd5b84526020938401939190910190600101612732565b509095945050505050565b60006080828403121561277d578081fd5b82601f83011261278b578081fd5b6127956080612e48565b8083856080860111156127a6578384fd5b835b6004811015612761576127ba8261260a565b845260209384019391909101906001016127a8565b600060a082840312156127e0578081fd5b82601f8301126127ee578081fd5b6127f860a0612e48565b80838560a086011115612809578384fd5b835b60058110156127615761281d8261260a565b8452602093840193919091019060010161280b565b600060208284031215612843578081fd5b81358015158114610d5a578182fd5b600080600060608486031215612866578283fd5b61286f846125f3565b925061287d602085016125f3565b9150604084015163ffffffff81168114612895578182fd5b809150509250925092565b6000602082840312156128b1578081fd5b5035919050565b6000602082840312156128c9578081fd5b5051919050565b600080604083850312156128e2578182fd5b8235915060208301356126808161312e565b60008060408385031215612906578182fd5b50508035926020909101359150565b600080600060608486031215612929578081fd5b8351925060208401519150604084015190509250925092565b60008251612954818460208701613002565b9190910192915050565b6001600160a01b0391909116815260200190565b6001600160a01b039384168152919092166020820152604081019190915260600190565b6001600160a01b039687168152602081019590955260408501939093526060840191909152909216608082015260a081019190915260c00190565b901515815260200190565b60006020825282518060208401526129fb816040850160208701613002565b601f01601f19169190910160400192915050565b60208082526026908201527f4f776e61626c653a206e6577206f776e657220697320746865207a65726f206160408201526564647265737360d01b606082015260800190565b60208082526022908201527f45524332303a20617070726f766520746f20746865207a65726f206164647265604082015261737360f01b606082015260800190565b60208082526026908201527f45524332303a207472616e7366657220616d6f756e7420657863656564732062604082015265616c616e636560d01b606082015260800190565b6020808252600a90820152696164644c69713a206f6b60b01b604082015260600190565b6020808252600890820152670436c61696d3a20360c41b604082015260600190565b6020808252600d908201526c185b1c9958591e481d185e1959609a1b604082015260600190565b60208082526028908201527f45524332303a207472616e7366657220616d6f756e74206578636565647320616040820152676c6c6f77616e636560c01b606082015260800190565b6020808252818101527f4f776e61626c653a2063616c6c6572206973206e6f7420746865206f776e6572604082015260600190565b6020808252601d908201527f53656c6c696e67207461783a2061626f7665206d617820616d6f756e74000000604082015260600190565b60208082526025908201527f45524332303a207472616e736665722066726f6d20746865207a65726f206164604082015264647265737360d81b606082015260800190565b6020808252600c908201526b185919131a5c4e8819985a5b60a21b604082015260600190565b6020808252600c908201526b53776170207375636365737360a01b604082015260600190565b60208082526024908201527f45524332303a20617070726f76652066726f6d20746865207a65726f206164646040820152637265737360e01b606082015260800190565b60208082526023908201527f5472616e7366657248656c7065723a204554485f5452414e534645525f46414960408201526213115160ea1b606082015260800190565b60208082526010908201526f185b1c9958591e48195e18db1d59195960821b604082015260600190565b60208082526025908201527f45524332303a2064656372656173656420616c6c6f77616e63652062656c6f77604082015264207a65726f60d81b606082015260800190565b61ffff91909116815260200190565b90815260200190565b600060a082018783526020878185015260a0604085015281875180845260c0860191508289019350845b81811015612dec5784516001600160a01b031683529383019391830191600101612dc7565b50506001600160a01b03969096166060850152505050608001529392505050565b9283526001600160701b03918216602084015216604082015260600190565b918252602082015260400190565b60ff91909116815260200190565b60405181810167ffffffffffffffff81118282101715612e7857634e487b7160e01b600052604160045260246000fd5b604052919050565b60008219821115612e9357612e9361306d565b500190565b600082612eb357634e487b7160e01b81526012600452602481fd5b500490565b80825b6001808611612eca5750612ef5565b818704821115612edc57612edc61306d565b80861615612ee957918102915b9490941c938002612ebb565b94509492505050565b6000610d5a6000198484600082612f1757506001610d5a565b81612f2457506000610d5a565b8160018114612f3a5760028114612f4457612f71565b6001915050610d5a565b60ff841115612f5557612f5561306d565b6001841b915084821115612f6b57612f6b61306d565b50610d5a565b5060208310610133831016604e8410600b8410161715612fa4575081810a83811115612f9f57612f9f61306d565b610d5a565b612fb18484846001612eb8565b808604821115612fc357612fc361306d565b02949350505050565b6000816000190483118215151615612fe657612fe661306d565b500290565b600082821015612ffd57612ffd61306d565b500390565b60005b8381101561301d578181015183820152602001613005565b8381111561302c576000848401525b50505050565b60028104600182168061304657607f821691505b6020821081141561306757634e487b7160e01b600052602260045260246000fd5b50919050565b634e487b7160e01b600052601160045260246000fd5b60e01c90565b600060443d101561309957610852565b600481823e6308c379a06130ad8251613083565b146130b757610852565b6040513d600319016004823e80513d67ffffffffffffffff81602484011181841117156130e75750505050610852565b828401925082519150808211156131015750505050610852565b503d8301602082840101111561311957505050610852565b601f01601f1916810160200160405291505090565b6001600160a01b038116811461314357600080fd5b5056feddf252ad1be2c89b69c2b068fc378daa952ba7f163c4a11628f55a4df523b3efa26469706673582212202aa4b0db0ab8c8afa13bbe90615cc6f62d36626336382519c4eecac72121d88064736f6c63430008000033",
  "immutableReferences": {},
  "source": "// SPDX-License-Identifier: GPL\n\npragma solidity 0.8.0;\n\nimport \"@openzeppelin/contracts/utils/math/SafeMath.sol\";\nimport \"@openzeppelin/contracts/access/Ownable.sol\";\nimport \"@uniswap/v2-periphery/contracts/interfaces/IUniswapV2Router02.sol\";\nimport \"@uniswap/v2-core/contracts/interfaces/IUniswapV2Factory.sol\";\nimport \"@uniswap/v2-core/contracts/interfaces/IUniswapV2Pair.sol\";\n\n/**\n * @dev iBNB\n *\n *\n *\n *\n */\n\ncontract iBNB is Ownable {\n    using SafeMath for uint256;\n\n\n//TODO BEFORE DEPLOYMENT: Reduce visibility as needed --\n//FUNCTION ARE ALL PUBLIC FOR DEBUGGING PURPOSES\n\n\n    struct past_tx {\n      uint256 cum_transfer; //this is not what you think, you perv\n      uint256 last_timestamp;\n      uint256 last_claim;\n    }\n\n    struct prop_balances {\n      uint256 reward_pool;\n      uint256 liquidity_pool;\n    }\n\n    mapping (address => uint256) private _balances;\n    mapping (address => past_tx) private _last_tx;\n    mapping (address => mapping (address => uint256)) private _allowances;\n    mapping (address => bool) public excluded;\n\n    uint256 private _decimals = 9;\n    uint256 private _totalSupply = 10**15 * 10**_decimals;\n    uint256 public swap_for_liquidity_threshold = 10**13 * 10**_decimals; //1%\n    uint256 public swap_for_reward_threshold = 10**13 * 10**_decimals;\n\n//TODO gas optim:\n    //@dev in percents : 0.125% - 0.25 - 0.5 - 0.75 - 0.1%\n    //therefore value are div by 10**7\n    uint8[4] public selling_taxes_rates = [2, 4, 6, 8];\n    uint8[5] public claiming_taxes_rates = [2, 4, 6, 8, 15];\n    uint16[5] public selling_taxes_tranches = [125, 250, 500, 750, 1000]; // div by 10**4 0.0125-0.0250-(...)\n\n    bool public circuit_breaker;\n\n    string private _name = \"iBNB\";\n    string private _symbol = \"iBNB\";\n\n    address public LP_recipient;\n    address public devWallet;\n\n    IUniswapV2Pair public pair;\n    IUniswapV2Router02 public router;\n\n    prop_balances public balancer_balances;\n\n    event Approval(address, address, uint256);\n    event Transfer(address, address, uint256);\n    event TaxRatesChanged();\n    event SwapForBNB(string);\n    event BalancerRatio(uint256,uint256);\n    event RewardTaxChanged();\n    event AddLiq(string);\n    event balancerReset(uint256, uint256);\n\n    constructor (address _router) {\n\n         _balances[msg.sender] = _totalSupply;\n\n         //create pair to get the pair address\n         router = IUniswapV2Router02(_router);\n         IUniswapV2Factory factory = IUniswapV2Factory(router.factory());\n         pair = IUniswapV2Pair(factory.createPair(address(this), router.WETH()));\n\n         LP_recipient = address(0);\n         devWallet = address(0);\n\n         excluded[msg.sender] = true;\n         excluded[address(this)] = true;\n\n         circuit_breaker == false;\n    }\n\n    function decimals() public view returns (uint256) {\n         return _decimals;\n    }\n    function name() public view returns (string memory) {\n        return _name;\n    }\n    function symbol() public view returns (string memory) {\n        return _symbol;\n    }\n    function totalSupply() public view virtual  returns (uint256) {\n        return _totalSupply;\n    }\n    function balanceOf(address account) public view virtual  returns (uint256) {\n        return _balances[account];\n    }\n    function transfer(address recipient, uint256 amount) public virtual  returns (bool) {\n        _transfer(_msgSender(), recipient, amount);\n        return true;\n    }\n    function allowance(address owner, address spender) public view virtual  returns (uint256) {\n        return _allowances[owner][spender];\n    }\n    function approve(address spender, uint256 amount) public virtual  returns (bool) {\n        _approve(_msgSender(), spender, amount);\n        return true;\n    }\n    function transferFrom(address sender, address recipient, uint256 amount) public virtual  returns (bool) {\n        _transfer(sender, recipient, amount);\n\n        uint256 currentAllowance = _allowances[sender][_msgSender()];\n        require(currentAllowance >= amount, \"ERC20: transfer amount exceeds allowance\");\n        _approve(sender, _msgSender(), currentAllowance - amount);\n\n        return true;\n    }\n    function increaseAllowance(address spender, uint256 addedValue) public virtual returns (bool) {\n        _approve(_msgSender(), spender, _allowances[_msgSender()][spender] + addedValue);\n        return true;\n    }\n    function decreaseAllowance(address spender, uint256 subtractedValue) public virtual returns (bool) {\n        uint256 currentAllowance = _allowances[_msgSender()][spender];\n        require(currentAllowance >= subtractedValue, \"ERC20: decreased allowance below zero\");\n        _approve(_msgSender(), spender, currentAllowance - subtractedValue);\n\n        return true;\n    }\n    function _approve(address owner, address spender, uint256 amount) internal virtual {\n        require(owner != address(0), \"ERC20: approve from the zero address\");\n        require(spender != address(0), \"ERC20: approve to the zero address\");\n\n        _allowances[owner][spender] = amount;\n        emit Approval(owner, spender, amount);\n    }\n\n\n    function _transfer(address sender, address recipient, uint256 amount) internal virtual {\n        require(sender != address(0), \"ERC20: transfer from the zero address\");\n\n        uint256 senderBalance = _balances[sender]; // gas SLOAD: 200 vs MLOAD: 3 ...\n        require(senderBalance >= amount, \"ERC20: transfer amount exceeds balance\");\n\n        uint256 sell_tax;\n        uint256 dev_tax;\n        uint256 balancer_amount;\n\n        if(excluded[sender] == false && excluded[recipient] == false && circuit_breaker == false) {\n\n        // ----  Sell tax  ----\n          (uint112 _reserve0, uint112 _reserve1,) = pair.getReserves(); // returns reserve0, reserve1, timestamp last tx\n          if(address(this) != pair.token0()) { // 0 := iBNB\n            (_reserve0, _reserve1) = (_reserve1, _reserve0);\n          }\n          sell_tax = sellingTax(sender, amount, _reserve0); //will update the balancer ledger too\n\n        // ------ dev tax 0.1% -------\n          dev_tax = amount.div(1000);\n\n        // ------ balancer tax 9.9% ------\n          balancer_amount = amount.mul(99).div(1000);\n          balancer(balancer_amount, _reserve0);\n\n          //@dev every extra token are collected into address(this), it's the balancer job to then split them\n          //between pool and reward, using the dedicated struct\n          _balances[address(this)] += sell_tax.add(balancer_amount);\n          _balances[devWallet] += dev_tax;\n        }\n        else {\n          sell_tax = 0;\n          dev_tax = 0;\n          balancer_amount = 0;\n        }\n\n        //reward reinit\n        _last_tx[recipient].last_timestamp = block.timestamp;\n\n        _balances[sender] = senderBalance.sub(amount);\n        _balances[recipient] += amount.sub(sell_tax).sub(dev_tax).sub(balancer_amount);\n\n        emit Transfer(sender, recipient, amount);\n        emit Transfer(sender, address(this), sell_tax);\n        emit Transfer(sender, address(this), balancer_amount);\n        emit Transfer(sender, devWallet, dev_tax);\n    }\n\n    //@dev take a selling tax if transfer from a non-excluded address or from the pair contract exceed\n    //the thresholds defined in selling_taxes_thresholds on 24h floating window\n    function sellingTax(address sender, uint256 amount, uint256 pool_balance) private returns(uint256) {\n        uint16[5] memory _tax_tranches = selling_taxes_tranches;\n        past_tx memory sender_last_tx = _last_tx[sender];\n\n        uint256 sell_tax;\n\n        //>1 day since last tx\n        if(block.timestamp > sender_last_tx.last_timestamp + 1 days) {\n          _last_tx[sender].cum_transfer = 0; // a.k.a The Virgin\n        }\n\n        uint256 new_cum_sum = amount.add(_last_tx[sender].cum_transfer);\n\n        if(new_cum_sum > pool_balance.mul(_tax_tranches[4]).div(10**4)) {\n          revert(\"Selling tax: above max amount\");\n        }\n        else if(new_cum_sum > pool_balance.mul(_tax_tranches[3]).div(10**4)) {\n          sell_tax = amount.mul(selling_taxes_rates[3]).div(100);\n        }\n        else if(new_cum_sum > pool_balance.mul(_tax_tranches[2]).div(10**4)) {\n          sell_tax = amount.mul(selling_taxes_rates[2]).div(100);\n        }\n        else if(new_cum_sum > pool_balance.mul(_tax_tranches[1]).div(10**4)) {\n          sell_tax = amount.mul(selling_taxes_rates[1]).div(100);\n        }\n        else if(new_cum_sum > pool_balance.mul(_tax_tranches[0]).div(10**4)) {\n          sell_tax = amount.mul(selling_taxes_rates[0]).div(100);\n        }\n        else { sell_tax = 0; }\n\n        _last_tx[sender].cum_transfer = sender_last_tx.cum_transfer.add(amount);\n\n        balancer_balances.reward_pool += sell_tax; //sell tax is for reward:)\n\n        return sell_tax;\n    }\n\n    //@dev take the 9.9% taxes as input, split it between reward and liq subpools\n    //    according to pool condition -> circ-pool/circ supply closer to one implies\n    //    priority to the reward pool\n    function balancer(uint256 amount, uint256 pool_balance) public {\n\n        address DEAD = address(0x000000000000000000000000000000000000dEaD);\n        uint256 circ_supply = totalSupply().sub(_balances[DEAD]);\n\n        uint256 liq_ratio = (circ_supply.sub(pool_balance)).mul(10**9).div(circ_supply);\n        uint256 rew_ratio = (circ_supply.sub((circ_supply.sub(pool_balance)))).mul(10**9).div(circ_supply);\n\n        balancer_balances.liquidity_pool += (amount.mul(circ_supply.sub(pool_balance)).mul(10**9).div(circ_supply)).div(10**9);\n        balancer_balances.reward_pool += (amount.mul(circ_supply.sub((circ_supply.sub(pool_balance)))).mul(10**9).div(circ_supply)).div(10**9);\n\n        if(balancer_balances.liquidity_pool >= swap_for_liquidity_threshold) {\n            uint256 token_out = addLiquidity(balancer_balances.liquidity_pool);\n            balancer_balances.liquidity_pool -= token_out; //not balanceOf, in case addLiq revert\n        }\n\n        if(balancer_balances.reward_pool >= swap_for_reward_threshold) {\n            uint256 token_out = swapForBNB(balancer_balances.reward_pool, address(this));\n            balancer_balances.reward_pool -= token_out;\n        }\n\n        emit BalancerRatio(liq_ratio, rew_ratio);\n    }\n\n    //@dev when triggered, will swap and provide liquidity\n    //    BNBfromSwap being the difference between and after the swap, slippage\n    //    will result in extra-BNB for the reward pool (free money for the guys:)\n    function addLiquidity(uint256 token_amount) internal returns (uint256) {\n      uint256 BNBfromReward = address(this).balance;\n\n      address[] memory route = new address[](2);\n      route[0] = address(this);\n      route[1] = router.WETH();\n\n      if(allowance(address(this), address(router)) < token_amount) {\n        _allowances[address(this)][address(router)] = ~uint256(0);\n        emit Approval(address(this), address(router), ~uint256(0));\n      }\n\n      try router.swapExactTokensForETHSupportingFeeOnTransferTokens(token_amount.div(2), 0, route, address(this), block.timestamp) {\n        uint256 BNBfromSwap = address(this).balance.sub(BNBfromReward);\n        router.addLiquidityETH{value: BNBfromSwap}(address(this), token_amount.div(2), 0, 0, LP_recipient, block.timestamp); //will not be catched\n        emit AddLiq(\"addLiq: ok\");\n        return token_amount;\n      }\n      catch {\n        emit AddLiq(\"addLiq: fail\");\n        return 0;\n      }\n    }\n\n    //@dev individual reward is growing linearly througout 24h, and is the portion of the reward pool\n    //     weighted by the circ. supply owned.\n    //     reward = (balance/circ supply) * [(now - lastClaim) / 1d] * BNB_balance\n    //     If an extra-buy occurs in the last 24h, reset 24h timer (in sell tax)\n    //     (frontend will automatize claim then buy)\n    function computeReward() public view returns(uint256, uint256) {\n\n      past_tx memory sender_last_tx = _last_tx[msg.sender];\n      uint256 last_claim = sender_last_tx.last_claim;\n\n      if(last_claim + 1 days > block.timestamp) { // 1 claim every 24h max\n        return (0, 0);\n      }\n\n      address DEAD = address(0x000000000000000000000000000000000000dEaD);\n\n      uint256 circulating_supply = totalSupply().sub(_balances[DEAD]).sub(_balances[address(pair)]);\n\n      uint256 _nom = _balances[msg.sender].mul(balanceOf(address(this))).mul(block.timestamp - last_claim);\n      uint256 _denom = circulating_supply.mul(1 days);\n\n      uint256 reward_without_penalty = _nom.div(_denom);\n\n      uint256 tax_to_pay = taxOnClaim(getQuoteInBNB(reward_without_penalty));\n\n      return (reward_without_penalty.sub(tax_to_pay), tax_to_pay);\n    }\n\n    //@dev Compute the tax on claimed reward - labelled in BNB (as per team agreement)\n    //    but *not* swapped before actual claim (token from claimer staying in the reward pool).\n    function taxOnClaim(uint256 amount) public view returns(uint256 tax){\n\n      if(amount > 2 ether) { return amount.mul(claiming_taxes_rates[4]).div(100); } //GIVE US FINNEY'S BACK\n      else if(amount > 1.50 ether) { return amount.mul(claiming_taxes_rates[3]).div(100); }\n      else if(amount > 1 ether) { return amount.mul(claiming_taxes_rates[2]).div(100); }\n      else if(amount > 0.5 ether) { return amount.mul(claiming_taxes_rates[1]).div(100); }\n      else if(amount > 0.25 ether) { return amount.mul(claiming_taxes_rates[0]).div(100); }\n      else { return 0; }\n\n    }\n\n    //@dev frontend integration\n    function whenClaim() public view returns (uint256) {\n      return _last_tx[msg.sender].last_claim + 1 days;\n    }\n\n    //@dev computeReward check if last claim is less than 1d ago\n    function claimReward() public {\n      (uint256 claimable, uint256 tax) = computeReward();\n      require(claimable > 0, \"Claim: 0\");\n      _last_tx[msg.sender].last_claim = block.timestamp;\n      balancer_balances.reward_pool += tax;\n      emit Transfer(msg.sender, address(this), tax);\n      safeTransferETH(msg.sender, claimable);\n    }\n\n    function getQuoteInBNB(uint256 nb_token) public view returns (uint256) {\n      (uint112 _reserve0, uint112 _reserve1,) = pair.getReserves(); // returns reserve0, reserve1, timestamp last tx\n      if(address(this) != pair.token0()) { // 0 <- iBNB\n        (_reserve0, _reserve1) = (_reserve1, _reserve0);\n      }\n      return router.getAmountOut(nb_token, _reserve0, _reserve1);\n    }\n\n    function swapForBNB(uint256 token_amount, address receiver) public returns (uint256) {\n      address[] memory route = new address[](2);\n      route[0] = address(this);\n      route[1] = router.WETH();\n\n      if(allowance(address(this), address(router)) < token_amount) {\n        _allowances[address(this)][address(router)] = ~uint256(0);\n        emit Approval(address(this), address(router), ~uint256(0));\n      }\n\n      try router.swapExactTokensForETHSupportingFeeOnTransferTokens(token_amount, 0, route, receiver, block.timestamp) {\n        emit SwapForBNB(\"Swap success\");\n        return token_amount;\n      }\n      catch Error(string memory _err) {\n        emit SwapForBNB(_err);\n        return 0;\n      }\n    }\n\n    //@dev taken from uniswapV2 TransferHelper lib\n    function safeTransferETH(address to, uint value) internal {\n        (bool success,) = to.call{value:value}(new bytes(0));\n        require(success, 'TransferHelper: ETH_TRANSFER_FAILED');\n    }\n\n    function excludeFromTaxes(address adr) public onlyOwner {\n      require(!excluded[adr], \"already excluded\");\n      excluded[adr] = true;\n    }\n    function includeInTaxes(address adr) public onlyOwner {\n      require(excluded[adr], \"already taxed\");\n      excluded[adr] = false;\n    }\n    function resetBalancer() public onlyOwner {\n      uint256 _contract_balance = _balances[address(this)];\n      balancer_balances.reward_pool = _contract_balance.div(2);\n      balancer_balances.liquidity_pool = _contract_balance.div(2);\n      emit balancerReset(balancer_balances.reward_pool, balancer_balances.liquidity_pool);\n    }\n\n    //@dev will bypass all the taxes and act as erc20.\n    //     pools & balancer balances will remain untouched\n    function setCircuitBreaker(bool status) public onlyOwner {\n      circuit_breaker = status;\n    }\n    function setLPContract(address _LP_recipient) public onlyOwner {\n      LP_recipient = _LP_recipient;\n    }\n    function setDevWallet(address _devWallet) public onlyOwner {\n      devWallet = _devWallet;\n    }\n    function setSwapFor_Liq_Threshold(uint256 threshold_in_token) public onlyOwner {\n      swap_for_liquidity_threshold = threshold_in_token * 10**_decimals;\n    }\n    function setSwapFor_Reward_Threshold(uint256 threshold_in_token) public onlyOwner {\n      swap_for_reward_threshold = threshold_in_token * 10**_decimals;\n    }\n    function setSellingTaxesTranches(uint16[5] memory new_tranches) public onlyOwner {\n      selling_taxes_tranches = new_tranches;\n      emit TaxRatesChanged();\n    }\n    function setSellingTaxesrates(uint8[4] memory new_amounts) public onlyOwner {\n      selling_taxes_rates = new_amounts;\n      emit TaxRatesChanged();\n    }\n    function setRewardTaxesTranches(uint8[5] memory new_tranches) public onlyOwner {\n      claiming_taxes_rates = new_tranches;\n      emit RewardTaxChanged();\n    }\n\n    receive () external payable {}\n}\n",
  "sourcePath": "/home/drgorilla/Documents/solidity/iBNB/contracts/iBNB.sol",
  "compiler": {
    "name": "solc",
    "version": "0.8.0+commit.c7dfd78e.Emscripten.clang"
  },
  "schemaVersion": "3.4.0",
  "updatedAt": "2021-06-12T22:31:32.067Z",
  "devdoc": {
    "details": "iBNB",
    "kind": "dev",
    "methods": {
      "owner()": {
        "details": "Returns the address of the current owner."
      },
      "renounceOwnership()": {
        "details": "Leaves the contract without owner. It will not be possible to call `onlyOwner` functions anymore. Can only be called by the current owner. NOTE: Renouncing ownership will leave the contract without an owner, thereby removing any functionality that is only available to the owner."
      },
      "transferOwnership(address)": {
        "details": "Transfers ownership of the contract to a new account (`newOwner`). Can only be called by the current owner."
      }
    },
    "version": 1
  },
  "userdoc": {
    "kind": "user",
    "methods": {},
    "version": 1
  }
}