{
  "contractName": "iBNB",
  "abi": [
    {
      "inputs": [
        {
          "internalType": "address",
          "name": "_router",
          "type": "address"
        }
      ],
      "stateMutability": "nonpayable",
      "type": "constructor"
    },
    {
      "anonymous": false,
      "inputs": [
        {
          "indexed": true,
          "internalType": "address",
          "name": "owner",
          "type": "address"
        },
        {
          "indexed": true,
          "internalType": "address",
          "name": "spender",
          "type": "address"
        },
        {
          "indexed": false,
          "internalType": "uint256",
          "name": "value",
          "type": "uint256"
        }
      ],
      "name": "Approval",
      "type": "event"
    },
    {
      "anonymous": false,
      "inputs": [
        {
          "indexed": true,
          "internalType": "address",
          "name": "previousOwner",
          "type": "address"
        },
        {
          "indexed": true,
          "internalType": "address",
          "name": "newOwner",
          "type": "address"
        }
      ],
      "name": "OwnershipTransferred",
      "type": "event"
    },
    {
      "anonymous": false,
      "inputs": [],
      "name": "TaxRatesChanged",
      "type": "event"
    },
    {
      "anonymous": false,
      "inputs": [
        {
          "indexed": true,
          "internalType": "address",
          "name": "from",
          "type": "address"
        },
        {
          "indexed": true,
          "internalType": "address",
          "name": "to",
          "type": "address"
        },
        {
          "indexed": false,
          "internalType": "uint256",
          "name": "value",
          "type": "uint256"
        }
      ],
      "name": "Transfer",
      "type": "event"
    },
    {
      "inputs": [
        {
          "internalType": "address",
          "name": "",
          "type": "address"
        }
      ],
      "name": "excluded_from_taxes",
      "outputs": [
        {
          "internalType": "bool",
          "name": "",
          "type": "bool"
        }
      ],
      "stateMutability": "view",
      "type": "function"
    },
    {
      "inputs": [],
      "name": "owner",
      "outputs": [
        {
          "internalType": "address",
          "name": "",
          "type": "address"
        }
      ],
      "stateMutability": "view",
      "type": "function"
    },
    {
      "inputs": [],
      "name": "renounceOwnership",
      "outputs": [],
      "stateMutability": "nonpayable",
      "type": "function"
    },
    {
      "inputs": [
        {
          "internalType": "uint256",
          "name": "",
          "type": "uint256"
        }
      ],
      "name": "selling_taxes_rates",
      "outputs": [
        {
          "internalType": "uint8",
          "name": "",
          "type": "uint8"
        }
      ],
      "stateMutability": "view",
      "type": "function"
    },
    {
      "inputs": [
        {
          "internalType": "uint256",
          "name": "",
          "type": "uint256"
        }
      ],
      "name": "selling_taxes_tranches",
      "outputs": [
        {
          "internalType": "uint16",
          "name": "",
          "type": "uint16"
        }
      ],
      "stateMutability": "view",
      "type": "function"
    },
    {
      "inputs": [
        {
          "internalType": "address",
          "name": "newOwner",
          "type": "address"
        }
      ],
      "name": "transferOwnership",
      "outputs": [],
      "stateMutability": "nonpayable",
      "type": "function"
    },
    {
      "inputs": [],
      "name": "decimals",
      "outputs": [
        {
          "internalType": "uint256",
          "name": "",
          "type": "uint256"
        }
      ],
      "stateMutability": "view",
      "type": "function"
    },
    {
      "inputs": [],
      "name": "name",
      "outputs": [
        {
          "internalType": "string",
          "name": "",
          "type": "string"
        }
      ],
      "stateMutability": "view",
      "type": "function"
    },
    {
      "inputs": [],
      "name": "symbol",
      "outputs": [
        {
          "internalType": "string",
          "name": "",
          "type": "string"
        }
      ],
      "stateMutability": "view",
      "type": "function"
    },
    {
      "inputs": [],
      "name": "totalSupply",
      "outputs": [
        {
          "internalType": "uint256",
          "name": "",
          "type": "uint256"
        }
      ],
      "stateMutability": "view",
      "type": "function"
    },
    {
      "inputs": [
        {
          "internalType": "address",
          "name": "account",
          "type": "address"
        }
      ],
      "name": "balanceOf",
      "outputs": [
        {
          "internalType": "uint256",
          "name": "",
          "type": "uint256"
        }
      ],
      "stateMutability": "view",
      "type": "function"
    },
    {
      "inputs": [
        {
          "internalType": "address",
          "name": "recipient",
          "type": "address"
        },
        {
          "internalType": "uint256",
          "name": "amount",
          "type": "uint256"
        }
      ],
      "name": "transfer",
      "outputs": [
        {
          "internalType": "bool",
          "name": "",
          "type": "bool"
        }
      ],
      "stateMutability": "nonpayable",
      "type": "function"
    },
    {
      "inputs": [
        {
          "internalType": "address",
          "name": "owner",
          "type": "address"
        },
        {
          "internalType": "address",
          "name": "spender",
          "type": "address"
        }
      ],
      "name": "allowance",
      "outputs": [
        {
          "internalType": "uint256",
          "name": "",
          "type": "uint256"
        }
      ],
      "stateMutability": "view",
      "type": "function"
    },
    {
      "inputs": [
        {
          "internalType": "address",
          "name": "spender",
          "type": "address"
        },
        {
          "internalType": "uint256",
          "name": "amount",
          "type": "uint256"
        }
      ],
      "name": "approve",
      "outputs": [
        {
          "internalType": "bool",
          "name": "",
          "type": "bool"
        }
      ],
      "stateMutability": "nonpayable",
      "type": "function"
    },
    {
      "inputs": [
        {
          "internalType": "address",
          "name": "sender",
          "type": "address"
        },
        {
          "internalType": "address",
          "name": "recipient",
          "type": "address"
        },
        {
          "internalType": "uint256",
          "name": "amount",
          "type": "uint256"
        }
      ],
      "name": "transferFrom",
      "outputs": [
        {
          "internalType": "bool",
          "name": "",
          "type": "bool"
        }
      ],
      "stateMutability": "nonpayable",
      "type": "function"
    },
    {
      "inputs": [
        {
          "internalType": "address",
          "name": "spender",
          "type": "address"
        },
        {
          "internalType": "uint256",
          "name": "addedValue",
          "type": "uint256"
        }
      ],
      "name": "increaseAllowance",
      "outputs": [
        {
          "internalType": "bool",
          "name": "",
          "type": "bool"
        }
      ],
      "stateMutability": "nonpayable",
      "type": "function"
    },
    {
      "inputs": [
        {
          "internalType": "address",
          "name": "spender",
          "type": "address"
        },
        {
          "internalType": "uint256",
          "name": "subtractedValue",
          "type": "uint256"
        }
      ],
      "name": "decreaseAllowance",
      "outputs": [
        {
          "internalType": "bool",
          "name": "",
          "type": "bool"
        }
      ],
      "stateMutability": "nonpayable",
      "type": "function"
    },
    {
      "inputs": [
        {
          "internalType": "uint16[5]",
          "name": "new_tranches",
          "type": "uint16[5]"
        }
      ],
      "name": "setSellingTaxesTranches",
      "outputs": [],
      "stateMutability": "nonpayable",
      "type": "function"
    },
    {
      "inputs": [
        {
          "internalType": "uint8[4]",
          "name": "new_amounts",
          "type": "uint8[4]"
        }
      ],
      "name": "setSellingTaxesrates",
      "outputs": [],
      "stateMutability": "nonpayable",
      "type": "function"
    }
  ],
  "bytecode": "0x6080604052600960058190556200001890600a620005c2565b6200002b9066038d7ea4c68000620006aa565b6006556040805160a081018252607d815260fa60208201526101f4918101919091526102ee60608201526103e860808201526200006d90600890600562000374565b50604080516080810182526002815260046020820181905260069282019290925260086060820152620000a4916009919062000411565b506040805180820190915260048082526334a1272160e11b6020909201918252620000d291600a9162000497565b506040805180820190915260048082526334a1272160e11b60209092019182526200010091600b9162000497565b503480156200010e57600080fd5b5060405162001ce038038062001ce083398101604081905262000131916200052b565b60006200013d62000370565b600080546001600160a01b0319166001600160a01b0383169081178255604051929350917f8be0079c531659141344cd1fd0a4f28419497f9722a3daafe3b4186f6b6457e0908290a35060065433600090815260016020908152604080832093909355600d80546001600160a01b0319166001600160a01b038681169190911791829055845163c45a015560e01b81529451939491169263c45a015592600480840193919291829003018186803b158015620001f857600080fd5b505afa1580156200020d573d6000803e3d6000fd5b505050506040513d601f19601f820116820180604052508101906200023391906200052b565b9050806001600160a01b031663c9c6539630600d60009054906101000a90046001600160a01b03166001600160a01b031663ad5c46486040518163ffffffff1660e01b815260040160206040518083038186803b1580156200029457600080fd5b505afa158015620002a9573d6000803e3d6000fd5b505050506040513d601f19601f82011682018060405250810190620002cf91906200052b565b6040518363ffffffff1660e01b8152600401620002ee9291906200055b565b602060405180830381600087803b1580156200030957600080fd5b505af11580156200031e573d6000803e3d6000fd5b505050506040513d601f19601f820116820180604052508101906200034491906200052b565b600c80546001600160a01b0319166001600160a01b03929092169190911790555050426007556200071f565b3390565b600183019183908215620003ff5791602002820160005b83821115620003cd57835183826101000a81548161ffff021916908361ffff16021790555092602001926002016020816001010492830192600103026200038b565b8015620003fd5782816101000a81549061ffff0219169055600201602081600101049283019260010302620003cd565b505b506200040d92915062000514565b5090565b600183019183908215620003ff5791602002820160005b838211156200046857835183826101000a81548160ff021916908360ff160217905550926020019260010160208160000104928301926001030262000428565b8015620003fd5782816101000a81549060ff021916905560010160208160000104928301926001030262000468565b828054620004a590620006cc565b90600052602060002090601f016020900481019282620004c95760008555620003ff565b82601f10620004e457805160ff1916838001178555620003ff565b82800160010185558215620003ff579182015b82811115620003ff578251825591602001919060010190620004f7565b5b808211156200040d576000815560010162000515565b6000602082840312156200053d578081fd5b81516001600160a01b038116811462000554578182fd5b9392505050565b6001600160a01b0392831681529116602082015260400190565b80825b6001808611620005895750620005b9565b8187048211156200059e576200059e62000709565b80861615620005ac57918102915b9490941c93800262000578565b94509492505050565b6000620005546000198484600082620005de5750600162000554565b81620005ed5750600062000554565b8160018114620006065760028114620006115762000645565b600191505062000554565b60ff84111562000625576200062562000709565b6001841b9150848211156200063e576200063e62000709565b5062000554565b5060208310610133831016604e8410600b84101617156200067d575081810a8381111562000677576200067762000709565b62000554565b6200068c848484600162000575565b808604821115620006a157620006a162000709565b02949350505050565b6000816000190483118215151615620006c757620006c762000709565b500290565b600281046001821680620006e157607f821691505b602082108114156200070357634e487b7160e01b600052602260045260246000fd5b50919050565b634e487b7160e01b600052601160045260246000fd5b6115b1806200072f6000396000f3fe608060405234801561001057600080fd5b50600436106101215760003560e01c8063715018a6116100ad578063a9059cbb11610071578063a9059cbb14610247578063ca882eda1461025a578063d9a86cdf1461026d578063dd62ed3e14610280578063f2fde38b1461029357610121565b8063715018a6146101fa5780638da5cb5b1461020457806393b96a611461021957806395d89b411461022c578063a457c2d71461023457610121565b806318160ddd116100f457806318160ddd146101a457806323b872dd146101b9578063313ce567146101cc57806339509351146101d457806370a08231146101e757610121565b80630281d18e1461012657806306fdde031461014f578063095ea7b31461016457806316e6fa1014610184575b600080fd5b61013961013436600461116c565b6102a6565b604051610146919061145e565b60405180910390f35b6101576102d0565b60405161014691906111a3565b610177610172366004611013565b610362565b6040516101469190611198565b61019761019236600461116c565b61037f565b6040516101469190611446565b6101ac6103ad565b6040516101469190611455565b6101776101c7366004610fd3565b6103b3565b6101ac610453565b6101776101e2366004611013565b610459565b6101ac6101f5366004610f63565b6104a8565b6102026104c7565b005b61020c610550565b6040516101469190611184565b610177610227366004610f63565b61055f565b610157610574565b610177610242366004611013565b610583565b610177610255366004611013565b6105fe565b61020261026836600461103e565b610612565b61020261027b3660046110b4565b61068b565b6101ac61028e366004610f9b565b6106d7565b6102026102a1366004610f63565b610702565b600981600481106102b657600080fd5b60209182820401919006915054906101000a900460ff1681565b6060600a80546102df90611512565b80601f016020809104026020016040519081016040528092919081815260200182805461030b90611512565b80156103585780601f1061032d57610100808354040283529160200191610358565b820191906000526020600020905b81548152906001019060200180831161033b57829003601f168201915b5050505050905090565b600061037661036f6107c2565b84846107c6565b50600192915050565b6008816005811061038f57600080fd5b60109182820401919006600202915054906101000a900461ffff1681565b60065490565b60006103c084848461087a565b6001600160a01b0384166000908152600360205260408120816103e16107c2565b6001600160a01b03166001600160a01b031681526020019081526020016000205490508281101561042d5760405162461bcd60e51b8152600401610424906112c4565b60405180910390fd5b610448856104396107c2565b61044386856114fb565b6107c6565b506001949350505050565b60055490565b60006103766104666107c2565b8484600360006104746107c2565b6001600160a01b03908116825260208083019390935260409182016000908120918b168152925290205461044391906114a4565b6001600160a01b0381166000908152600160205260409020545b919050565b6104cf6107c2565b6001600160a01b03166104e0610550565b6001600160a01b0316146105065760405162461bcd60e51b81526004016104249061130c565b600080546040516001600160a01b03909116907f8be0079c531659141344cd1fd0a4f28419497f9722a3daafe3b4186f6b6457e0908390a3600080546001600160a01b0319169055565b6000546001600160a01b031690565b60046020526000908152604090205460ff1681565b6060600b80546102df90611512565b600080600360006105926107c2565b6001600160a01b03908116825260208083019390935260409182016000908120918816815292529020549050828110156105de5760405162461bcd60e51b815260040161042490611401565b6105f46105e96107c2565b8561044386856114fb565b5060019392505050565b600061037661060b6107c2565b848461087a565b61061a6107c2565b6001600160a01b031661062b610550565b6001600160a01b0316146106515760405162461bcd60e51b81526004016104249061130c565b61065e6008826005610e20565b506040517f3aaf767b2e63f4c5f274684ce36da44af23d293465914ee94908682af41e652790600090a150565b6106936107c2565b6001600160a01b03166106a4610550565b6001600160a01b0316146106ca5760405162461bcd60e51b81526004016104249061130c565b61065e6009826004610eb6565b6001600160a01b03918216600090815260036020908152604080832093909416825291909152205490565b61070a6107c2565b6001600160a01b031661071b610550565b6001600160a01b0316146107415760405162461bcd60e51b81526004016104249061130c565b6001600160a01b0381166107675760405162461bcd60e51b8152600401610424906111f6565b600080546040516001600160a01b03808516939216917f8be0079c531659141344cd1fd0a4f28419497f9722a3daafe3b4186f6b6457e091a3600080546001600160a01b0319166001600160a01b0392909216919091179055565b3390565b6001600160a01b0383166107ec5760405162461bcd60e51b8152600401610424906113bd565b6001600160a01b0382166108125760405162461bcd60e51b81526004016104249061123c565b6001600160a01b0380841660008181526003602090815260408083209487168084529490915290819020849055517f8c5be1e5ebec7d5bd14f71427d1e84f3dd0314c0f7b2291e5b200ac8c7c3b9259061086d908590611455565b60405180910390a3505050565b6001600160a01b0383166108a05760405162461bcd60e51b815260040161042490611378565b6001600160a01b038316600090815260016020526040902054818110156108d95760405162461bcd60e51b81526004016104249061127e565b600080600c60009054906101000a90046001600160a01b03166001600160a01b0316630902f1ac6040518163ffffffff1660e01b815260040160606040518083038186803b15801561092a57600080fd5b505afa15801561093e573d6000803e3d6000fd5b505050506040513d601f19601f82011682018060405250810190610962919061111e565b5091509150600c60009054906101000a90046001600160a01b03166001600160a01b0316630dfe16816040518163ffffffff1660e01b815260040160206040518083038186803b1580156109b557600080fd5b505afa1580156109c9573d6000803e3d6000fd5b505050506040513d601f19601f820116820180604052508101906109ed9190610f7f565b6001600160a01b0316306001600160a01b031614610a0757905b600c546000906001600160a01b03888116911614801590610a4157506001600160a01b03871660009081526004602052604090205460ff16155b15610a6157610a5a8786856001600160701b0316610b84565b9050610a65565b5060005b610a6f85856114fb565b6001600160a01b038816600090815260016020526040902055610a9281866114fb565b6001600160a01b03871660009081526001602052604081208054909190610aba9084906114a4565b90915550503060009081526001602052604081208054839290610ade9084906114a4565b92505081905550856001600160a01b0316876001600160a01b03167fddf252ad1be2c89b69c2b068fc378daa952ba7f163c4a11628f55a4df523b3ef87604051610b289190611455565b60405180910390a3306001600160a01b0316876001600160a01b03167fddf252ad1be2c89b69c2b068fc378daa952ba7f163c4a11628f55a4df523b3ef83604051610b739190611455565b60405180910390a350505050505050565b6040805160a08101918290526000918291906008906005908285855b82829054906101000a900461ffff1661ffff1681526020019060020190602082600101049283019260010382029150808411610ba057505050506001600160a01b038816600090815260026020908152604080832081518083019092528054808352600190910154928201929092529495509092506120d09150610c2490426114fb565b610c2e91906114bc565b6120d060075442610c3f91906114fb565b610c4991906114bc565b1115610c6c576001600160a01b0387166000908152600260205260408120600101555b6001600160a01b038716600090815260026020526040812060010154610c93908890610df5565b9050610cb962989680610cb38660045b6020020151899061ffff16610e08565b90610e14565b811115610cd85760405162461bcd60e51b815260040161042490611341565b610cea62989680610cb3866003610ca3565b811115610d2157610d1a6064610cb3600960035b6020810491909101548b91601f166101000a900460ff16610e08565b9150610da2565b610d3362989680610cb3866002610ca3565b811115610d4b57610d1a6064610cb360096002610cfe565b610d5d62989680610cb3866001610ca3565b811115610d7557610d1a6064610cb360096001610cfe565b610d8762989680610cb3866000610ca3565b811115610da257610d9f6064610cb360096000610cfe565b91505b6001600160a01b0388166000908152600260209081526040909120429055830151610dcd9088610df5565b6001600160a01b03891660009081526002602052604090206001015550925050509392505050565b6000610e0182846114a4565b9392505050565b6000610e0182846114dc565b6000610e0182846114bc565b600183019183908215610ea65791602002820160005b83821115610e7657835183826101000a81548161ffff021916908361ffff1602179055509260200192600201602081600101049283019260010302610e36565b8015610ea45782816101000a81549061ffff0219169055600201602081600101049283019260010302610e76565b505b50610eb2929150610f37565b5090565b600183019183908215610ea65791602002820160005b83821115610f0a57835183826101000a81548160ff021916908360ff1602179055509260200192600101602081600001049283019260010302610ecc565b8015610ea45782816101000a81549060ff0219169055600101602081600001049283019260010302610f0a565b5b80821115610eb25760008155600101610f38565b80516001600160701b03811681146104c257600080fd5b600060208284031215610f74578081fd5b8135610e0181611563565b600060208284031215610f90578081fd5b8151610e0181611563565b60008060408385031215610fad578081fd5b8235610fb881611563565b91506020830135610fc881611563565b809150509250929050565b600080600060608486031215610fe7578081fd5b8335610ff281611563565b9250602084013561100281611563565b929592945050506040919091013590565b60008060408385031215611025578182fd5b823561103081611563565b946020939093013593505050565b600060a0828403121561104f578081fd5b82601f83011261105d578081fd5b61106760a061146c565b80838560a086011115611078578384fd5b835b60058110156110a957813561ffff81168114611094578586fd5b8452602093840193919091019060010161107a565b509095945050505050565b6000608082840312156110c5578081fd5b82601f8301126110d3578081fd5b6110dd608061146c565b8083856080860111156110ee578384fd5b835b60048110156110a957813560ff81168114611109578586fd5b845260209384019391909101906001016110f0565b600080600060608486031215611132578283fd5b61113b84610f4c565b925061114960208501610f4c565b9150604084015163ffffffff81168114611161578182fd5b809150509250925092565b60006020828403121561117d578081fd5b5035919050565b6001600160a01b0391909116815260200190565b901515815260200190565b6000602080835283518082850152825b818110156111cf578581018301518582016040015282016111b3565b818111156111e05783604083870101525b50601f01601f1916929092016040019392505050565b60208082526026908201527f4f776e61626c653a206e6577206f776e657220697320746865207a65726f206160408201526564647265737360d01b606082015260800190565b60208082526022908201527f45524332303a20617070726f766520746f20746865207a65726f206164647265604082015261737360f01b606082015260800190565b60208082526026908201527f45524332303a207472616e7366657220616d6f756e7420657863656564732062604082015265616c616e636560d01b606082015260800190565b60208082526028908201527f45524332303a207472616e7366657220616d6f756e74206578636565647320616040820152676c6c6f77616e636560c01b606082015260800190565b6020808252818101527f4f776e61626c653a2063616c6c6572206973206e6f7420746865206f776e6572604082015260600190565b6020808252601d908201527f53656c6c696e67207461783a2061626f7665206d617820616d6f756e74000000604082015260600190565b60208082526025908201527f45524332303a207472616e736665722066726f6d20746865207a65726f206164604082015264647265737360d81b606082015260800190565b60208082526024908201527f45524332303a20617070726f76652066726f6d20746865207a65726f206164646040820152637265737360e01b606082015260800190565b60208082526025908201527f45524332303a2064656372656173656420616c6c6f77616e63652062656c6f77604082015264207a65726f60d81b606082015260800190565b61ffff91909116815260200190565b90815260200190565b60ff91909116815260200190565b60405181810167ffffffffffffffff8111828210171561149c57634e487b7160e01b600052604160045260246000fd5b604052919050565b600082198211156114b7576114b761154d565b500190565b6000826114d757634e487b7160e01b81526012600452602481fd5b500490565b60008160001904831182151516156114f6576114f661154d565b500290565b60008282101561150d5761150d61154d565b500390565b60028104600182168061152657607f821691505b6020821081141561154757634e487b7160e01b600052602260045260246000fd5b50919050565b634e487b7160e01b600052601160045260246000fd5b6001600160a01b038116811461157857600080fd5b5056fea26469706673582212205bfb352b50e793aceaa174dc36169b5f738973583f6e7ae9eb2baf3e8c9db42a64736f6c63430008000033",
  "immutableReferences": {},
  "source": "// SPDX-License-Identifier: GPL\n\npragma solidity ^0.8.0;\n\nimport \"@openzeppelin/contracts/token/ERC20/IERC20.sol\";\nimport \"@openzeppelin/contracts/utils/math/SafeMath.sol\";\nimport \"@openzeppelin/contracts/access/Ownable.sol\";\nimport \"@uniswap/v2-periphery/contracts/interfaces/IUniswapV2Router02.sol\";\nimport \"@uniswap/v2-core/contracts/interfaces/IUniswapV2Factory.sol\";\nimport \"@uniswap/v2-core/contracts/interfaces/IUniswapV2Pair.sol\";\n\n\n\n\n\n/**\n * @dev iBNB\n *\n *\n *\n *\n */\n\ncontract iBNB is IERC20, Ownable {\n    using SafeMath for uint256;\n\n    struct past_tx {\n      uint256 last_timestamp;\n      uint256 cum_transfer; //this is not what you think, you perv\n    }\n\n    mapping (address => uint256) private _balances;\n    mapping (address => past_tx) private _last_tx;\n    mapping (address => mapping (address => uint256)) private _allowances;\n    mapping (address => bool) public excluded_from_taxes;\n\n    uint256 private _decimals = 9;\n    uint256 private _totalSupply = 10**15 * 10**_decimals;\n    uint256 genesis_timestamp;\n\n    //@dev in percents : 0.125% - 0.25 - 0.5 - 0.75 - 0.1%\n    //therefore value are div by 10**7\n    uint16[5] public selling_taxes_tranches = [125, 250, 500, 750, 1000];\n    uint8[4] public selling_taxes_rates = [2, 4, 6, 8];\n\n\n    string private _name = \"iBNB\";\n    string private _symbol = \"iBNB\";\n\n    IUniswapV2Pair pair;\n    IUniswapV2Router02 router;\n\n    event TaxRatesChanged();\n\n    constructor (address _router) {\n         _balances[msg.sender] = _totalSupply;\n         //create pair to get the pair address\n         router = IUniswapV2Router02(_router);\n         IUniswapV2Factory factory = IUniswapV2Factory(router.factory());\n         pair = IUniswapV2Pair(factory.createPair(address(this), router.WETH()));\n\n         genesis_timestamp = block.timestamp;\n    }\n\n    function decimals() public view returns (uint256) {\n         return _decimals;\n    }\n    function name() public view returns (string memory) {\n        return _name;\n    }\n    function symbol() public view returns (string memory) {\n        return _symbol;\n    }\n    function totalSupply() public view virtual override returns (uint256) {\n        return _totalSupply;\n    }\n    function balanceOf(address account) public view virtual override returns (uint256) {\n        return _balances[account];\n    }\n    function transfer(address recipient, uint256 amount) public virtual override returns (bool) {\n        _transfer(_msgSender(), recipient, amount);\n        return true;\n    }\n    function allowance(address owner, address spender) public view virtual override returns (uint256) {\n        return _allowances[owner][spender];\n    }\n    function approve(address spender, uint256 amount) public virtual override returns (bool) {\n        _approve(_msgSender(), spender, amount);\n        return true;\n    }\n    function transferFrom(address sender, address recipient, uint256 amount) public virtual override returns (bool) {\n        _transfer(sender, recipient, amount);\n\n        uint256 currentAllowance = _allowances[sender][_msgSender()];\n        require(currentAllowance >= amount, \"ERC20: transfer amount exceeds allowance\");\n        _approve(sender, _msgSender(), currentAllowance - amount);\n\n        return true;\n    }\n    function increaseAllowance(address spender, uint256 addedValue) public virtual returns (bool) {\n        _approve(_msgSender(), spender, _allowances[_msgSender()][spender] + addedValue);\n        return true;\n    }\n    function decreaseAllowance(address spender, uint256 subtractedValue) public virtual returns (bool) {\n        uint256 currentAllowance = _allowances[_msgSender()][spender];\n        require(currentAllowance >= subtractedValue, \"ERC20: decreased allowance below zero\");\n        _approve(_msgSender(), spender, currentAllowance - subtractedValue);\n\n        return true;\n    }\n\n\n//TODO: circuit breaker\n    function _transfer(address sender, address recipient, uint256 amount) internal virtual {\n        require(sender != address(0), \"ERC20: transfer from the zero address\");\n        uint256 senderBalance = _balances[sender];\n        require(senderBalance >= amount, \"ERC20: transfer amount exceeds balance\");\n\n\n        (uint112 _reserve0, uint112 _reserve1,) = pair.getReserves(); // returns reserve0, reserve1, timestamp last tx\n        if(address(this) != pair.token0()) { // 0 := iBNB\n          (_reserve0, _reserve1) = (_reserve1, _reserve0);\n        }\n        uint256 sell_tax;\n        if(sender != address(pair) && excluded_from_taxes[sender] == false) {\n          sell_tax = sellingTax(sender, amount, _reserve0);\n        }\n        else {\n          sell_tax = 0;\n        }\n\n\n\n\n        _balances[sender] = senderBalance - amount;\n        _balances[recipient] += amount - sell_tax ;\n        _balances[address(this)] += sell_tax;\n\n        emit Transfer(sender, recipient, amount);\n        emit Transfer(sender, address(this), sell_tax);\n    }\n\n    //@dev take a selling tax if transfer from a non-excluded address or from the pair contract exceed\n    //the thresholds defined in selling_taxes_thresholds on a daily basis (calendar)\n    function sellingTax(address sender, uint256 amount, uint256 pool_balance) private returns(uint256) {\n//TODO Gas optim\n        uint16[5] memory _tax_tranches = selling_taxes_tranches; //gas optim\n        past_tx memory sender_last_tx = _last_tx[sender];\n        uint256 sell_tax = 0;\n\n        //num days since genesis > num of days since last tx ?\n        if((block.timestamp - genesis_timestamp) / 8400 > (block.timestamp - sender_last_tx.last_timestamp) / 8400) {\n          _last_tx[sender].cum_transfer = 0;\n        }\n\n        uint256 new_cum_sum = amount.add(_last_tx[sender].cum_transfer);\n\n        if(new_cum_sum > pool_balance.mul(_tax_tranches[4]).div(10**7)) {\n          revert(\"Selling tax: above max amount\");\n        }\n        else if(new_cum_sum > pool_balance.mul(_tax_tranches[3]).div(10**7)) {\n          sell_tax = amount.mul(selling_taxes_rates[3]).div(100);\n        }\n        else if(new_cum_sum > pool_balance.mul(_tax_tranches[2]).div(10**7)) {\n          sell_tax = amount.mul(selling_taxes_rates[2]).div(100);\n        }\n        else if(new_cum_sum > pool_balance.mul(_tax_tranches[1]).div(10**7)) {\n          sell_tax = amount.mul(selling_taxes_rates[1]).div(100);\n        }\n        else if(new_cum_sum > pool_balance.mul(_tax_tranches[0]).div(10**7)) {\n          sell_tax = amount.mul(selling_taxes_rates[0]).div(100);\n        }\n        //else sell_tax stays at 0\n\n        _last_tx[sender].last_timestamp = block.timestamp;\n        _last_tx[sender].cum_transfer = sender_last_tx.cum_transfer.add(amount);\n\n        return sell_tax;\n    }\n\n\n    function setSellingTaxesTranches(uint16[5] memory new_tranches) public onlyOwner {\n      selling_taxes_tranches = new_tranches;\n      emit TaxRatesChanged();\n    }\n\n    function setSellingTaxesrates(uint8[4] memory new_amounts) public onlyOwner {\n      selling_taxes_rates = new_amounts;\n      emit TaxRatesChanged();\n    }\n\n\n    //@dev whe triggered, will get a quote and provide liquidity with a 20% max slippage\n    function swapForLiquidity(uint256 amount) internal {\n\n      (uint112 _reserve0, uint112 _reserve1,) = pair.getReserves(); // returns reserve0, reserve1, timestamp last tx\n      if(address(this) != pair.token0()) { // 0 := iBNB\n        (_reserve0, _reserve1) = (_reserve1, _reserve0);\n      }\n      //amount BNB = quote(amount token, reserve token, reserve bnb)\n      uint256 current_quote_in_BNB = router.quote(amount, _reserve0, _reserve1);\n\n\n    }\n\n    function _approve(address owner, address spender, uint256 amount) internal virtual {\n        require(owner != address(0), \"ERC20: approve from the zero address\");\n        require(spender != address(0), \"ERC20: approve to the zero address\");\n\n        _allowances[owner][spender] = amount;\n        emit Approval(owner, spender, amount);\n    }\n\n}\n",
  "sourcePath": "/home/drgorilla/Documents/solidity/iBNB/contracts/iBNB.sol",
  "compiler": {
    "name": "solc",
    "version": "0.8.0+commit.c7dfd78e.Emscripten.clang"
  },
  "schemaVersion": "3.4.0",
  "updatedAt": "2021-06-06T13:32:18.670Z",
  "devdoc": {
    "details": "iBNB",
    "kind": "dev",
    "methods": {
      "allowance(address,address)": {
        "details": "Returns the remaining number of tokens that `spender` will be allowed to spend on behalf of `owner` through {transferFrom}. This is zero by default. This value changes when {approve} or {transferFrom} are called."
      },
      "approve(address,uint256)": {
        "details": "Sets `amount` as the allowance of `spender` over the caller's tokens. Returns a boolean value indicating whether the operation succeeded. IMPORTANT: Beware that changing an allowance with this method brings the risk that someone may use both the old and the new allowance by unfortunate transaction ordering. One possible solution to mitigate this race condition is to first reduce the spender's allowance to 0 and set the desired value afterwards: https://github.com/ethereum/EIPs/issues/20#issuecomment-263524729 Emits an {Approval} event."
      },
      "balanceOf(address)": {
        "details": "Returns the amount of tokens owned by `account`."
      },
      "owner()": {
        "details": "Returns the address of the current owner."
      },
      "renounceOwnership()": {
        "details": "Leaves the contract without owner. It will not be possible to call `onlyOwner` functions anymore. Can only be called by the current owner. NOTE: Renouncing ownership will leave the contract without an owner, thereby removing any functionality that is only available to the owner."
      },
      "totalSupply()": {
        "details": "Returns the amount of tokens in existence."
      },
      "transfer(address,uint256)": {
        "details": "Moves `amount` tokens from the caller's account to `recipient`. Returns a boolean value indicating whether the operation succeeded. Emits a {Transfer} event."
      },
      "transferFrom(address,address,uint256)": {
        "details": "Moves `amount` tokens from `sender` to `recipient` using the allowance mechanism. `amount` is then deducted from the caller's allowance. Returns a boolean value indicating whether the operation succeeded. Emits a {Transfer} event."
      },
      "transferOwnership(address)": {
        "details": "Transfers ownership of the contract to a new account (`newOwner`). Can only be called by the current owner."
      }
    },
    "version": 1
  },
  "userdoc": {
    "kind": "user",
    "methods": {},
    "version": 1
  }
}