{
  "contractName": "iBNB",
  "abi": [
    {
      "inputs": [
        {
          "internalType": "address",
          "name": "_router",
          "type": "address"
        }
      ],
      "stateMutability": "nonpayable",
      "type": "constructor"
    },
    {
      "anonymous": false,
      "inputs": [
        {
          "indexed": false,
          "internalType": "string",
          "name": "",
          "type": "string"
        }
      ],
      "name": "AddLiq",
      "type": "event"
    },
    {
      "anonymous": false,
      "inputs": [
        {
          "indexed": false,
          "internalType": "address",
          "name": "",
          "type": "address"
        },
        {
          "indexed": false,
          "internalType": "address",
          "name": "",
          "type": "address"
        },
        {
          "indexed": false,
          "internalType": "uint256",
          "name": "",
          "type": "uint256"
        }
      ],
      "name": "Approval",
      "type": "event"
    },
    {
      "anonymous": false,
      "inputs": [
        {
          "indexed": false,
          "internalType": "uint256",
          "name": "",
          "type": "uint256"
        },
        {
          "indexed": false,
          "internalType": "uint256",
          "name": "",
          "type": "uint256"
        }
      ],
      "name": "BalancerRatio",
      "type": "event"
    },
    {
      "anonymous": false,
      "inputs": [
        {
          "indexed": true,
          "internalType": "address",
          "name": "previousOwner",
          "type": "address"
        },
        {
          "indexed": true,
          "internalType": "address",
          "name": "newOwner",
          "type": "address"
        }
      ],
      "name": "OwnershipTransferred",
      "type": "event"
    },
    {
      "anonymous": false,
      "inputs": [],
      "name": "RewardTaxChanged",
      "type": "event"
    },
    {
      "anonymous": false,
      "inputs": [
        {
          "indexed": false,
          "internalType": "string",
          "name": "",
          "type": "string"
        }
      ],
      "name": "SwapForBNB",
      "type": "event"
    },
    {
      "anonymous": false,
      "inputs": [],
      "name": "TaxRatesChanged",
      "type": "event"
    },
    {
      "anonymous": false,
      "inputs": [
        {
          "indexed": false,
          "internalType": "address",
          "name": "",
          "type": "address"
        },
        {
          "indexed": false,
          "internalType": "address",
          "name": "",
          "type": "address"
        },
        {
          "indexed": false,
          "internalType": "uint256",
          "name": "",
          "type": "uint256"
        }
      ],
      "name": "Transfer",
      "type": "event"
    },
    {
      "anonymous": false,
      "inputs": [
        {
          "indexed": false,
          "internalType": "uint256",
          "name": "",
          "type": "uint256"
        },
        {
          "indexed": false,
          "internalType": "uint256",
          "name": "",
          "type": "uint256"
        }
      ],
      "name": "balancerReset",
      "type": "event"
    },
    {
      "inputs": [],
      "name": "LP_recipient",
      "outputs": [
        {
          "internalType": "address",
          "name": "",
          "type": "address"
        }
      ],
      "stateMutability": "view",
      "type": "function"
    },
    {
      "inputs": [
        {
          "internalType": "address",
          "name": "",
          "type": "address"
        }
      ],
      "name": "_last_tx",
      "outputs": [
        {
          "internalType": "uint256",
          "name": "cum_transfer",
          "type": "uint256"
        },
        {
          "internalType": "uint256",
          "name": "last_timestamp",
          "type": "uint256"
        },
        {
          "internalType": "uint256",
          "name": "last_claim",
          "type": "uint256"
        }
      ],
      "stateMutability": "view",
      "type": "function"
    },
    {
      "inputs": [],
      "name": "balancer_balances",
      "outputs": [
        {
          "internalType": "uint256",
          "name": "reward_pool",
          "type": "uint256"
        },
        {
          "internalType": "uint256",
          "name": "liquidity_pool",
          "type": "uint256"
        }
      ],
      "stateMutability": "view",
      "type": "function"
    },
    {
      "inputs": [],
      "name": "circuit_breaker",
      "outputs": [
        {
          "internalType": "bool",
          "name": "",
          "type": "bool"
        }
      ],
      "stateMutability": "view",
      "type": "function"
    },
    {
      "inputs": [
        {
          "internalType": "uint256",
          "name": "",
          "type": "uint256"
        }
      ],
      "name": "claiming_taxes_rates",
      "outputs": [
        {
          "internalType": "uint8",
          "name": "",
          "type": "uint8"
        }
      ],
      "stateMutability": "view",
      "type": "function"
    },
    {
      "inputs": [],
      "name": "devWallet",
      "outputs": [
        {
          "internalType": "address",
          "name": "",
          "type": "address"
        }
      ],
      "stateMutability": "view",
      "type": "function"
    },
    {
      "inputs": [
        {
          "internalType": "address",
          "name": "",
          "type": "address"
        }
      ],
      "name": "excluded",
      "outputs": [
        {
          "internalType": "bool",
          "name": "",
          "type": "bool"
        }
      ],
      "stateMutability": "view",
      "type": "function"
    },
    {
      "inputs": [],
      "name": "owner",
      "outputs": [
        {
          "internalType": "address",
          "name": "",
          "type": "address"
        }
      ],
      "stateMutability": "view",
      "type": "function"
    },
    {
      "inputs": [],
      "name": "pair",
      "outputs": [
        {
          "internalType": "contract IUniswapV2Pair",
          "name": "",
          "type": "address"
        }
      ],
      "stateMutability": "view",
      "type": "function"
    },
    {
      "inputs": [],
      "name": "pcs_pool_to_circ_ratio",
      "outputs": [
        {
          "internalType": "uint256",
          "name": "",
          "type": "uint256"
        }
      ],
      "stateMutability": "view",
      "type": "function"
    },
    {
      "inputs": [],
      "name": "renounceOwnership",
      "outputs": [],
      "stateMutability": "nonpayable",
      "type": "function"
    },
    {
      "inputs": [],
      "name": "router",
      "outputs": [
        {
          "internalType": "contract IUniswapV2Router02",
          "name": "",
          "type": "address"
        }
      ],
      "stateMutability": "view",
      "type": "function"
    },
    {
      "inputs": [
        {
          "internalType": "uint256",
          "name": "",
          "type": "uint256"
        }
      ],
      "name": "selling_taxes_rates",
      "outputs": [
        {
          "internalType": "uint8",
          "name": "",
          "type": "uint8"
        }
      ],
      "stateMutability": "view",
      "type": "function"
    },
    {
      "inputs": [
        {
          "internalType": "uint256",
          "name": "",
          "type": "uint256"
        }
      ],
      "name": "selling_taxes_tranches",
      "outputs": [
        {
          "internalType": "uint16",
          "name": "",
          "type": "uint16"
        }
      ],
      "stateMutability": "view",
      "type": "function"
    },
    {
      "inputs": [],
      "name": "swap_for_liquidity_threshold",
      "outputs": [
        {
          "internalType": "uint256",
          "name": "",
          "type": "uint256"
        }
      ],
      "stateMutability": "view",
      "type": "function"
    },
    {
      "inputs": [],
      "name": "swap_for_reward_threshold",
      "outputs": [
        {
          "internalType": "uint256",
          "name": "",
          "type": "uint256"
        }
      ],
      "stateMutability": "view",
      "type": "function"
    },
    {
      "inputs": [
        {
          "internalType": "address",
          "name": "newOwner",
          "type": "address"
        }
      ],
      "name": "transferOwnership",
      "outputs": [],
      "stateMutability": "nonpayable",
      "type": "function"
    },
    {
      "stateMutability": "payable",
      "type": "receive"
    },
    {
      "inputs": [],
      "name": "decimals",
      "outputs": [
        {
          "internalType": "uint256",
          "name": "",
          "type": "uint256"
        }
      ],
      "stateMutability": "view",
      "type": "function"
    },
    {
      "inputs": [],
      "name": "name",
      "outputs": [
        {
          "internalType": "string",
          "name": "",
          "type": "string"
        }
      ],
      "stateMutability": "view",
      "type": "function"
    },
    {
      "inputs": [],
      "name": "symbol",
      "outputs": [
        {
          "internalType": "string",
          "name": "",
          "type": "string"
        }
      ],
      "stateMutability": "view",
      "type": "function"
    },
    {
      "inputs": [],
      "name": "totalSupply",
      "outputs": [
        {
          "internalType": "uint256",
          "name": "",
          "type": "uint256"
        }
      ],
      "stateMutability": "view",
      "type": "function"
    },
    {
      "inputs": [
        {
          "internalType": "address",
          "name": "account",
          "type": "address"
        }
      ],
      "name": "balanceOf",
      "outputs": [
        {
          "internalType": "uint256",
          "name": "",
          "type": "uint256"
        }
      ],
      "stateMutability": "view",
      "type": "function"
    },
    {
      "inputs": [
        {
          "internalType": "address",
          "name": "recipient",
          "type": "address"
        },
        {
          "internalType": "uint256",
          "name": "amount",
          "type": "uint256"
        }
      ],
      "name": "transfer",
      "outputs": [
        {
          "internalType": "bool",
          "name": "",
          "type": "bool"
        }
      ],
      "stateMutability": "nonpayable",
      "type": "function"
    },
    {
      "inputs": [
        {
          "internalType": "address",
          "name": "owner",
          "type": "address"
        },
        {
          "internalType": "address",
          "name": "spender",
          "type": "address"
        }
      ],
      "name": "allowance",
      "outputs": [
        {
          "internalType": "uint256",
          "name": "",
          "type": "uint256"
        }
      ],
      "stateMutability": "view",
      "type": "function"
    },
    {
      "inputs": [
        {
          "internalType": "address",
          "name": "spender",
          "type": "address"
        },
        {
          "internalType": "uint256",
          "name": "amount",
          "type": "uint256"
        }
      ],
      "name": "approve",
      "outputs": [
        {
          "internalType": "bool",
          "name": "",
          "type": "bool"
        }
      ],
      "stateMutability": "nonpayable",
      "type": "function"
    },
    {
      "inputs": [
        {
          "internalType": "address",
          "name": "sender",
          "type": "address"
        },
        {
          "internalType": "address",
          "name": "recipient",
          "type": "address"
        },
        {
          "internalType": "uint256",
          "name": "amount",
          "type": "uint256"
        }
      ],
      "name": "transferFrom",
      "outputs": [
        {
          "internalType": "bool",
          "name": "",
          "type": "bool"
        }
      ],
      "stateMutability": "nonpayable",
      "type": "function"
    },
    {
      "inputs": [
        {
          "internalType": "address",
          "name": "spender",
          "type": "address"
        },
        {
          "internalType": "uint256",
          "name": "addedValue",
          "type": "uint256"
        }
      ],
      "name": "increaseAllowance",
      "outputs": [
        {
          "internalType": "bool",
          "name": "",
          "type": "bool"
        }
      ],
      "stateMutability": "nonpayable",
      "type": "function"
    },
    {
      "inputs": [
        {
          "internalType": "address",
          "name": "spender",
          "type": "address"
        },
        {
          "internalType": "uint256",
          "name": "subtractedValue",
          "type": "uint256"
        }
      ],
      "name": "decreaseAllowance",
      "outputs": [
        {
          "internalType": "bool",
          "name": "",
          "type": "bool"
        }
      ],
      "stateMutability": "nonpayable",
      "type": "function"
    },
    {
      "inputs": [
        {
          "internalType": "uint256",
          "name": "amount",
          "type": "uint256"
        },
        {
          "internalType": "uint256",
          "name": "pool_balance",
          "type": "uint256"
        }
      ],
      "name": "balancer",
      "outputs": [],
      "stateMutability": "nonpayable",
      "type": "function"
    },
    {
      "inputs": [],
      "name": "computeReward",
      "outputs": [
        {
          "internalType": "uint256",
          "name": "",
          "type": "uint256"
        },
        {
          "internalType": "uint256",
          "name": "",
          "type": "uint256"
        }
      ],
      "stateMutability": "view",
      "type": "function"
    },
    {
      "inputs": [
        {
          "internalType": "uint256",
          "name": "amount",
          "type": "uint256"
        }
      ],
      "name": "taxOnClaim",
      "outputs": [
        {
          "internalType": "uint256",
          "name": "tax",
          "type": "uint256"
        }
      ],
      "stateMutability": "view",
      "type": "function"
    },
    {
      "inputs": [],
      "name": "endOfPeriod",
      "outputs": [
        {
          "internalType": "uint256",
          "name": "",
          "type": "uint256"
        }
      ],
      "stateMutability": "view",
      "type": "function"
    },
    {
      "inputs": [],
      "name": "claimReward",
      "outputs": [],
      "stateMutability": "nonpayable",
      "type": "function"
    },
    {
      "inputs": [
        {
          "internalType": "uint256",
          "name": "nb_token",
          "type": "uint256"
        }
      ],
      "name": "getQuoteInBNB",
      "outputs": [
        {
          "internalType": "uint256",
          "name": "",
          "type": "uint256"
        }
      ],
      "stateMutability": "view",
      "type": "function"
    },
    {
      "inputs": [
        {
          "internalType": "uint256",
          "name": "token_amount",
          "type": "uint256"
        },
        {
          "internalType": "address",
          "name": "receiver",
          "type": "address"
        }
      ],
      "name": "swapForBNB",
      "outputs": [
        {
          "internalType": "uint256",
          "name": "",
          "type": "uint256"
        }
      ],
      "stateMutability": "nonpayable",
      "type": "function"
    },
    {
      "inputs": [
        {
          "internalType": "address",
          "name": "adr",
          "type": "address"
        }
      ],
      "name": "excludeFromTaxes",
      "outputs": [],
      "stateMutability": "nonpayable",
      "type": "function"
    },
    {
      "inputs": [
        {
          "internalType": "address",
          "name": "adr",
          "type": "address"
        }
      ],
      "name": "includeInTaxes",
      "outputs": [],
      "stateMutability": "nonpayable",
      "type": "function"
    },
    {
      "inputs": [],
      "name": "resetBalancer",
      "outputs": [],
      "stateMutability": "nonpayable",
      "type": "function"
    },
    {
      "inputs": [
        {
          "internalType": "bool",
          "name": "status",
          "type": "bool"
        }
      ],
      "name": "setCircuitBreaker",
      "outputs": [],
      "stateMutability": "nonpayable",
      "type": "function"
    },
    {
      "inputs": [
        {
          "internalType": "address",
          "name": "_LP_recipient",
          "type": "address"
        }
      ],
      "name": "setLPContract",
      "outputs": [],
      "stateMutability": "nonpayable",
      "type": "function"
    },
    {
      "inputs": [
        {
          "internalType": "address",
          "name": "_devWallet",
          "type": "address"
        }
      ],
      "name": "setDevWallet",
      "outputs": [],
      "stateMutability": "nonpayable",
      "type": "function"
    },
    {
      "inputs": [
        {
          "internalType": "uint256",
          "name": "threshold_in_token",
          "type": "uint256"
        }
      ],
      "name": "setSwapFor_Liq_Threshold",
      "outputs": [],
      "stateMutability": "nonpayable",
      "type": "function"
    },
    {
      "inputs": [
        {
          "internalType": "uint256",
          "name": "threshold_in_token",
          "type": "uint256"
        }
      ],
      "name": "setSwapFor_Reward_Threshold",
      "outputs": [],
      "stateMutability": "nonpayable",
      "type": "function"
    },
    {
      "inputs": [
        {
          "internalType": "uint16[5]",
          "name": "new_tranches",
          "type": "uint16[5]"
        }
      ],
      "name": "setSellingTaxesTranches",
      "outputs": [],
      "stateMutability": "nonpayable",
      "type": "function"
    },
    {
      "inputs": [
        {
          "internalType": "uint8[4]",
          "name": "new_amounts",
          "type": "uint8[4]"
        }
      ],
      "name": "setSellingTaxesrates",
      "outputs": [],
      "stateMutability": "nonpayable",
      "type": "function"
    },
    {
      "inputs": [
        {
          "internalType": "uint8[5]",
          "name": "new_tranches",
          "type": "uint8[5]"
        }
      ],
      "name": "setRewardTaxesTranches",
      "outputs": [],
      "stateMutability": "nonpayable",
      "type": "function"
    }
  ],
  "bytecode": "0x6080604052600960058190556200001890600a6200068d565b6200002b9066038d7ea4c6800062000775565b6006556005546200003e90600a6200068d565b62000050906509184e72a00062000775565b6007556005546200006390600a6200068d565b62000075906509184e72a00062000775565b6008908155600a600981905560408051608081018252600281526004602082018190526006928201929092526060810193909352620000b592906200043f565b506040805160a081018252600281526004602082015260069181019190915260086060820152600f6080820152620000f290600b9060056200043f565b506040805160a081018252607d815260fa60208201526101f4918101919091526102ee60608201526103e860808201526200013290600c906005620004d9565b506040805180820190915260048082526334a1272160e11b60209092019182526200016091600e9162000562565b506040805180820190915260048082526334a1272160e11b60209092019182526200018e91600f9162000562565b503480156200019c57600080fd5b5060405162003a3f38038062003a3f833981016040819052620001bf91620005f6565b6000620001cb6200043b565b600080546001600160a01b0319166001600160a01b0383169081178255604051929350917f8be0079c531659141344cd1fd0a4f28419497f9722a3daafe3b4186f6b6457e0908290a35060065433600090815260016020908152604080832093909355601380546001600160a01b0319166001600160a01b038681169190911791829055845163c45a015560e01b81529451939491169263c45a015592600480840193919291829003018186803b1580156200028657600080fd5b505afa1580156200029b573d6000803e3d6000fd5b505050506040513d601f19601f82011682018060405250810190620002c19190620005f6565b9050806001600160a01b031663c9c6539630601360009054906101000a90046001600160a01b03166001600160a01b031663ad5c46486040518163ffffffff1660e01b815260040160206040518083038186803b1580156200032257600080fd5b505afa15801562000337573d6000803e3d6000fd5b505050506040513d601f19601f820116820180604052508101906200035d9190620005f6565b6040518363ffffffff1660e01b81526004016200037c92919062000626565b602060405180830381600087803b1580156200039757600080fd5b505af1158015620003ac573d6000803e3d6000fd5b505050506040513d601f19601f82011682018060405250810190620003d29190620005f6565b601280546001600160a01b03929092166001600160a01b03199283161790556010805482169055601180549091169055505033600090815260046020526040808220805460ff1990811660019081179092553084529190922080549091169091179055620007ea565b3390565b600183019183908215620004c75791602002820160005b838211156200049657835183826101000a81548160ff021916908360ff160217905550926020019260010160208160000104928301926001030262000456565b8015620004c55782816101000a81549060ff021916905560010160208160000104928301926001030262000496565b505b50620004d5929150620005df565b5090565b600183019183908215620004c75791602002820160005b838211156200053257835183826101000a81548161ffff021916908361ffff1602179055509260200192600201602081600101049283019260010302620004f0565b8015620004c55782816101000a81549061ffff021916905560020160208160010104928301926001030262000532565b828054620005709062000797565b90600052602060002090601f016020900481019282620005945760008555620004c7565b82601f10620005af57805160ff1916838001178555620004c7565b82800160010185558215620004c7579182015b82811115620004c7578251825591602001919060010190620005c2565b5b80821115620004d55760008155600101620005e0565b60006020828403121562000608578081fd5b81516001600160a01b03811681146200061f578182fd5b9392505050565b6001600160a01b0392831681529116602082015260400190565b80825b600180861162000654575062000684565b818704821115620006695762000669620007d4565b808616156200067757918102915b9490941c93800262000643565b94509492505050565b60006200061f6000198484600082620006a9575060016200061f565b81620006b8575060006200061f565b8160018114620006d15760028114620006dc5762000710565b60019150506200061f565b60ff841115620006f057620006f0620007d4565b6001841b915084821115620007095762000709620007d4565b506200061f565b5060208310610133831016604e8410600b841016171562000748575081810a83811115620007425762000742620007d4565b6200061f565b62000757848484600162000640565b8086048211156200076c576200076c620007d4565b02949350505050565b6000816000190483118215151615620007925762000792620007d4565b500290565b600281046001821680620007ac57607f821691505b60208210811415620007ce57634e487b7160e01b600052602260045260246000fd5b50919050565b634e487b7160e01b600052601160045260246000fd5b61324580620007fa6000396000f3fe6080604052600436106102815760003560e01c806370a082311161014f578063a9059cbb116100c1578063ea9180ec1161007a578063ea9180ec14610753578063f22b108414610768578063f2fde38b14610788578063f887ea40146107a8578063fa04a970146107bd578063fb3fbc12146107dd57610288565b8063a9059cbb1461069b578063b88a802f146106bb578063ca882eda146106d0578063d9a86cdf146106f0578063dd62ed3e14610710578063e0e283361461073057610288565b806395d89b411161011357806395d89b41146105fc578063961a31ce14610611578063983e9158146106265780639bb9079414610646578063a457c2d714610666578063a8aa1b311461068657610288565b806370a082311461057d578063715018a61461059d57806384d8f1dc146105b25780638da5cb5b146105d25780638ea5220f146105e757610288565b8063222b03f6116101f35780633dbbc80f116101ac5780633dbbc80f146104b95780633ebb7cb2146104d95780634250644914610508578063429cead11461052857806345abb3831461054857806367250b591461056857610288565b8063222b03f61461040d57806323b872dd1461042257806328f4cdfc14610442578063313ce5671461046257806332fb782b14610477578063395093511461049957610288565b806313a55aa51161024557806313a55aa51461035657806316e6fa101461037657806318160ddd146103a35780631e776cbf146103b85780631f53ac02146103cd5780631fc74723146103ed57610288565b80630281d18e1461028d57806306fdde03146102c3578063095ea7b3146102e55780630ce6bb6f14610312578063131e00b71461033457610288565b3661028857005b600080fd5b34801561029957600080fd5b506102ad6102a8366004612955565b6107f2565b6040516102ba9190612ee3565b60405180910390f35b3480156102cf57600080fd5b506102d861081c565b6040516102ba9190612a91565b3480156102f157600080fd5b50610305610300366004612780565b6108af565b6040516102ba9190612a86565b34801561031e57600080fd5b506103276108cd565b6040516102ba9190612e27565b34801561034057600080fd5b5061035461034f3660046126d0565b6108d3565b005b34801561036257600080fd5b50610354610371366004612884565b610978565b34801561038257600080fd5b50610396610391366004612955565b6109f1565b6040516102ba9190612e18565b3480156103af57600080fd5b50610327610a1f565b3480156103c457600080fd5b50610327610a25565b3480156103d957600080fd5b506103546103e83660046126d0565b610a2b565b3480156103f957600080fd5b50610327610408366004612985565b610a8c565b34801561041957600080fd5b50610327610d22565b34801561042e57600080fd5b5061030561043d366004612740565b610d28565b34801561044e57600080fd5b5061032761045d366004612955565b610dc1565b34801561046e57600080fd5b50610327610f7f565b34801561048357600080fd5b5061048c610f85565b6040516102ba9190612a13565b3480156104a557600080fd5b506103056104b4366004612780565b610f94565b3480156104c557600080fd5b506103546104d4366004612955565b610fe3565b3480156104e557600080fd5b506104f96104f43660046126d0565b611040565b6040516102ba93929190612ecd565b34801561051457600080fd5b506103546105233660046128e7565b611060565b34801561053457600080fd5b506103056105433660046126d0565b6110b2565b34801561055457600080fd5b506103546105633660046129a9565b6110c7565b34801561057457600080fd5b506103546112c3565b34801561058957600080fd5b506103276105983660046126d0565b61136d565b3480156105a957600080fd5b50610354611388565b3480156105be57600080fd5b506103546105cd366004612955565b611411565b3480156105de57600080fd5b5061048c61146e565b3480156105f357600080fd5b5061048c61147d565b34801561060857600080fd5b506102d861148c565b34801561061d57600080fd5b5061032761149b565b34801561063257600080fd5b506103546106413660046126d0565b6114c0565b34801561065257600080fd5b506103546106613660046126d0565b611558565b34801561067257600080fd5b50610305610681366004612780565b6115b9565b34801561069257600080fd5b5061048c611634565b3480156106a757600080fd5b506103056106b6366004612780565b611643565b3480156106c757600080fd5b50610354611657565b3480156106dc57600080fd5b506103546106eb3660046127ab565b6116cb565b3480156106fc57600080fd5b5061035461070b366004612821565b611744565b34801561071c57600080fd5b5061032761072b366004612708565b611790565b34801561073c57600080fd5b506107456117bb565b6040516102ba929190612ebf565b34801561075f57600080fd5b50610745611905565b34801561077457600080fd5b506102ad610783366004612955565b61190e565b34801561079457600080fd5b506103546107a33660046126d0565b61191e565b3480156107b457600080fd5b5061048c6119de565b3480156107c957600080fd5b506103276107d8366004612955565b6119ed565b3480156107e957600080fd5b50610305611abb565b600a816004811061080257600080fd5b60209182820401919006915054906101000a900460ff1681565b6060600e805461082b906130db565b80601f0160208091040260200160405190810160405280929190818152602001828054610857906130db565b80156108a45780601f10610879576101008083540402835291602001916108a4565b820191906000526020600020905b81548152906001019060200180831161088757829003601f168201915b505050505090505b90565b60006108c36108bc611ac4565b8484611ac8565b5060015b92915050565b60085481565b6108db611ac4565b6001600160a01b03166108ec61146e565b6001600160a01b03161461091b5760405162461bcd60e51b815260040161091290612c25565b60405180910390fd5b6001600160a01b03811660009081526004602052604090205460ff16156109545760405162461bcd60e51b815260040161091290612da9565b6001600160a01b03166000908152600460205260409020805460ff19166001179055565b610980611ac4565b6001600160a01b031661099161146e565b6001600160a01b0316146109b75760405162461bcd60e51b815260040161091290612c25565b6109c4600b82600561257c565b506040517ffa718b2e3c4eff6c1ad7f30d8799d768c9c9c172a31e28102f58e23bdf2550c790600090a150565b600c8160058110610a0157600080fd5b60109182820401919006600202915054906101000a900461ffff1681565b60065490565b60095481565b610a33611ac4565b6001600160a01b0316610a4461146e565b6001600160a01b031614610a6a5760405162461bcd60e51b815260040161091290612c25565b601180546001600160a01b0319166001600160a01b0392909216919091179055565b604080516002808252606082018352600092839291906020830190803683370190505090503081600081518110610ad357634e487b7160e01b600052603260045260246000fd5b6001600160a01b03928316602091820292909201810191909152601354604080516315ab88c960e31b81529051919093169263ad5c4648926004808301939192829003018186803b158015610b2757600080fd5b505afa158015610b3b573d6000803e3d6000fd5b505050506040513d601f19601f82011682018060405250810190610b5f91906126ec565b81600181518110610b8057634e487b7160e01b600052603260045260246000fd5b6001600160a01b0392831660209182029290920101526013548591610ba791309116611790565b1015610c1d57306000818152600360209081526040808320601380546001600160a01b039081168652919093529281902060001990819055915490517f8c5be1e5ebec7d5bd14f71427d1e84f3dd0314c0f7b2291e5b200ac8c7c3b92594610c1494909392169190612a27565b60405180910390a15b60135460405163791ac94760e01b81526001600160a01b039091169063791ac94790610c56908790600090869089904290600401612e30565b600060405180830381600087803b158015610c7057600080fd5b505af1925050508015610c81575060015b610ce457610c8d613132565b80610c985750610cda565b7f63f96232640ee3b5914be68a756c36599d36b83c5f2ca097c9c40afdf6f7fc2d81604051610cc79190612a91565b60405180910390a16000925050506108c7565b3d6000803e3d6000fd5b7f63f96232640ee3b5914be68a756c36599d36b83c5f2ca097c9c40afdf6f7fc2d604051610d1190612cfc565b60405180910390a1839150506108c7565b60075481565b6000610d35848484611b7d565b6001600160a01b038416600090815260036020526040812081610d56611ac4565b6001600160a01b03166001600160a01b0316815260200190815260200160002054905082811015610d995760405162461bcd60e51b815260040161091290612bdd565b610db485610da5611ac4565b610daf8685613094565b611ac8565b60019150505b9392505050565b6000806000601260009054906101000a90046001600160a01b03166001600160a01b0316630902f1ac6040518163ffffffff1660e01b815260040160606040518083038186803b158015610e1457600080fd5b505afa158015610e28573d6000803e3d6000fd5b505050506040513d601f19601f82011682018060405250810190610e4c9190612907565b5091509150601260009054906101000a90046001600160a01b03166001600160a01b0316630dfe16816040518163ffffffff1660e01b815260040160206040518083038186803b158015610e9f57600080fd5b505afa158015610eb3573d6000803e3d6000fd5b505050506040513d601f19601f82011682018060405250810190610ed791906126ec565b6001600160a01b0316306001600160a01b031614610ef157905b601354604051630153543560e21b81526001600160a01b039091169063054d50d490610f2590879086908690600401612ea0565b60206040518083038186803b158015610f3d57600080fd5b505afa158015610f51573d6000803e3d6000fd5b505050506040513d601f19601f82011682018060405250810190610f75919061296d565b925050505b919050565b60055490565b6010546001600160a01b031681565b60006108c3610fa1611ac4565b848460036000610faf611ac4565b6001600160a01b03908116825260208083019390935260409182016000908120918b1681529252902054610daf9190612f29565b610feb611ac4565b6001600160a01b0316610ffc61146e565b6001600160a01b0316146110225760405162461bcd60e51b815260040161091290612c25565b60055461103090600a612fa7565b61103a9082613075565b60085550565b600260208190526000918252604090912080546001820154919092015483565b611068611ac4565b6001600160a01b031661107961146e565b6001600160a01b03161461109f5760405162461bcd60e51b815260040161091290612c25565b600d805460ff1916911515919091179055565b60046020526000908152604090205460ff1681565b61dead600081815260016020527fb34209a263f6c38fe55f099e9e70f9d67e93982480ff3234a5e0108028ad164d5461110890611102610a1f565b90611f45565b9050600060646009548361111c9190613075565b6111269190612f41565b8410611132578361114c565b6064600954836111429190613075565b61114c9190612f41565b905060006111728261116c633b9aca00611166838a611f45565b90611f51565b90611f5d565b905060006111968361116c633b9aca0061116661118f848c611f45565b8890611f45565b90506111ba633b9aca0061116c8581836111666111b3848e611f45565b8e90611f51565b601580546000906111cc908490612f29565b909155506111f79050633b9aca0061116c8581836111666111b36111f0858f611f45565b8b90611f45565b60148054600090611209908490612f29565b909155505060075460155410611247576000611229601460010154611f69565b905080601460010160008282546112409190613094565b9091555050505b6008546014541061128157600061126360146000015430610a8c565b9050806014600001600082825461127a9190613094565b9091555050505b7fe3cfbc19c9b2799117ecb6d44aebbcf7204606ea626d36d9535314a9f20c270282826040516112b2929190612ebf565b60405180910390a150505050505050565b6112cb611ac4565b6001600160a01b03166112dc61146e565b6001600160a01b0316146113025760405162461bcd60e51b815260040161091290612c25565b3060009081526001602052604090205461131d816002611f5d565b60145561132b816002611f5d565b60158190556014546040517feac7c420776212140a54f51e3179e218232d622b4fa6556ab2ef0b973c0f5ab0926113629291612ebf565b60405180910390a150565b6001600160a01b031660009081526001602052604090205490565b611390611ac4565b6001600160a01b03166113a161146e565b6001600160a01b0316146113c75760405162461bcd60e51b815260040161091290612c25565b600080546040516001600160a01b03909116907f8be0079c531659141344cd1fd0a4f28419497f9722a3daafe3b4186f6b6457e0908390a3600080546001600160a01b0319169055565b611419611ac4565b6001600160a01b031661142a61146e565b6001600160a01b0316146114505760405162461bcd60e51b815260040161091290612c25565b60055461145e90600a612fa7565b6114689082613075565b60075550565b6000546001600160a01b031690565b6011546001600160a01b031681565b6060600f805461082b906130db565b336000908152600260208190526040822001546114bb9062015180612f29565b905090565b6114c8611ac4565b6001600160a01b03166114d961146e565b6001600160a01b0316146114ff5760405162461bcd60e51b815260040161091290612c25565b6001600160a01b03811660009081526004602052604090205460ff166115375760405162461bcd60e51b815260040161091290612bb6565b6001600160a01b03166000908152600460205260409020805460ff19169055565b611560611ac4565b6001600160a01b031661157161146e565b6001600160a01b0316146115975760405162461bcd60e51b815260040161091290612c25565b601080546001600160a01b0319166001600160a01b0392909216919091179055565b600080600360006115c8611ac4565b6001600160a01b03908116825260208083019390935260409182016000908120918816815292529020549050828110156116145760405162461bcd60e51b815260040161091290612dd3565b61162a61161f611ac4565b85610daf8685613094565b5060019392505050565b6012546001600160a01b031681565b60006108c3611650611ac4565b8484611b7d565b6000806116626117bb565b33600090815260026020819052604082204291015560148054939550919350839261168e908490612f29565b90915550506040516000805160206131f0833981519152906116b590339030908590612a27565b60405180910390a16116c733836122a4565b5050565b6116d3611ac4565b6001600160a01b03166116e461146e565b6001600160a01b03161461170a5760405162461bcd60e51b815260040161091290612c25565b611717600c82600561260f565b506040517f3aaf767b2e63f4c5f274684ce36da44af23d293465914ee94908682af41e652790600090a150565b61174c611ac4565b6001600160a01b031661175d61146e565b6001600160a01b0316146117835760405162461bcd60e51b815260040161091290612c25565b611717600a82600461257c565b6001600160a01b03918216600090815260036020908152604080832093909416825291909152205490565b336000908152600260208181526040808420815160608101835281548152600182015493810193909352909201549181018290528291426117ff8262015180612f29565b111561181357600080935093505050611901565b6012546001600160a01b031660009081526001602052604081205461dead8083527fb34209a263f6c38fe55f099e9e70f9d67e93982480ff3234a5e0108028ad164d54909291611867916111029081610a1f565b905060006118a085602001514261187e9190613094565b61116661188a3061136d565b3360009081526001602052604090205490611f51565b905060006118b18362015180611f51565b905060006118bf8383611f5d565b905080156118f25760006118d56107d883610dc1565b90506118e18282611f45565b995097506119019650505050505050565b60008098509850505050505050505b9091565b60145460155482565b600b816005811061080257600080fd5b611926611ac4565b6001600160a01b031661193761146e565b6001600160a01b03161461195d5760405162461bcd60e51b815260040161091290612c25565b6001600160a01b0381166119835760405162461bcd60e51b815260040161091290612ac4565b600080546040516001600160a01b03808516939216917f8be0079c531659141344cd1fd0a4f28419497f9722a3daafe3b4186f6b6457e091a3600080546001600160a01b0319166001600160a01b0392909216919091179055565b6013546001600160a01b031681565b6000671bc16d674ec80000821115611a2f57611a28606461116c600b60045b6020810491909101548691601f166101000a900460ff16611f51565b9050610f7a565b6714d1120d7b160000821115611a5057611a28606461116c600b6003611a0c565b670de0b6b3a7640000821115611a7157611a28606461116c600b6002611a0c565b6706f05b59d3b20000821115611a9257611a28606461116c600b6001611a0c565b6703782dace9d90000821115611ab357611a28606461116c600b6000611a0c565b506000610f7a565b600d5460ff1681565b3390565b6001600160a01b038316611aee5760405162461bcd60e51b815260040161091290612d22565b6001600160a01b038216611b145760405162461bcd60e51b815260040161091290612b0a565b6001600160a01b0380841660009081526003602090815260408083209386168352929052819020829055517f8c5be1e5ebec7d5bd14f71427d1e84f3dd0314c0f7b2291e5b200ac8c7c3b92590611b7090859085908590612a27565b60405180910390a1505050565b6001600160a01b038316611ba35760405162461bcd60e51b815260040161091290612c91565b6001600160a01b03831660009081526001602052604090205481811015611bdc5760405162461bcd60e51b815260040161091290612b4c565b6001600160a01b0384166000908152600460205260408120548190819060ff16158015611c2257506001600160a01b03861660009081526004602052604090205460ff16155b8015611c315750600d5460ff16155b15611e1357600080601260009054906101000a90046001600160a01b03166001600160a01b0316630902f1ac6040518163ffffffff1660e01b815260040160606040518083038186803b158015611c8757600080fd5b505afa158015611c9b573d6000803e3d6000fd5b505050506040513d601f19601f82011682018060405250810190611cbf9190612907565b5091509150601260009054906101000a90046001600160a01b03166001600160a01b0316630dfe16816040518163ffffffff1660e01b815260040160206040518083038186803b158015611d1257600080fd5b505afa158015611d26573d6000803e3d6000fd5b505050506040513d601f19601f82011682018060405250810190611d4a91906126ec565b6001600160a01b0316306001600160a01b031614611d6457905b611d788988846001600160701b0316612336565b9450611d86876103e8611f5d565b9350611d996103e861116c896063611f51565b9250611dae83836001600160701b03166110c7565b611db88584612570565b3060009081526001602052604081208054909190611dd7908490612f29565b90915550506011546001600160a01b031660009081526001602052604081208054869290611e06908490612f29565b90915550611e1d92505050565b5060009150819050805b6001600160a01b038616600090815260026020526040902042600190910155611e468486611f45565b6001600160a01b038816600090815260016020526040902055611e6f8161110284818988611f45565b6001600160a01b03871660009081526001602052604081208054909190611e97908490612f29565b90915550506040516000805160206131f083398151915290611ebe90899089908990612a27565b60405180910390a16000805160206131f0833981519152873085604051611ee793929190612a27565b60405180910390a16000805160206131f0833981519152873083604051611f1093929190612a27565b60405180910390a16011546040516000805160206131f0833981519152916112b2918a916001600160a01b0316908690612a27565b6000610dba8284613094565b6000610dba8284613075565b6000610dba8284612f41565b6040805160028082526060820183526000924792849290916020830190803683370190505090503081600081518110611fb257634e487b7160e01b600052603260045260246000fd5b6001600160a01b03928316602091820292909201810191909152601354604080516315ab88c960e31b81529051919093169263ad5c4648926004808301939192829003018186803b15801561200657600080fd5b505afa15801561201a573d6000803e3d6000fd5b505050506040513d601f19601f8201168201806040525081019061203e91906126ec565b8160018151811061205f57634e487b7160e01b600052603260045260246000fd5b6001600160a01b039283166020918202929092010152601354859161208691309116611790565b10156120fc57306000818152600360209081526040808320601380546001600160a01b039081168652919093529281902060001990819055915490517f8c5be1e5ebec7d5bd14f71427d1e84f3dd0314c0f7b2291e5b200ac8c7c3b925946120f394909392169190612a27565b60405180910390a15b6013546001600160a01b031663791ac947612118866002611f5d565b60008430426040518663ffffffff1660e01b815260040161213d959493929190612e30565b600060405180830381600087803b15801561215757600080fd5b505af1925050508015612168575060015b6121ac577facabbd54c23d6a523d8111565d14ae729de6bbe5ea4707cb6162c24d4fae03f460405161219990612cd6565b60405180910390a1600092505050610f7a565b60006121b84784611f45565b6013549091506001600160a01b031663f305d71982306121d9896002611f5d565b6010546040516001600160e01b031960e087901b16815261220f93929160009182916001600160a01b0316904290600401612a4b565b6060604051808303818588803b15801561222857600080fd5b505af115801561223c573d6000803e3d6000fd5b50505050506040513d601f19601f8201168201806040525081019061226191906129ca565b5050507facabbd54c23d6a523d8111565d14ae729de6bbe5ea4707cb6162c24d4fae03f460405161229190612b92565b60405180910390a1849350505050610f7a565b604080516000808252602082019092526001600160a01b0384169083906040516122ce91906129f7565b60006040518083038185875af1925050503d806000811461230b576040519150601f19603f3d011682016040523d82523d6000602084013e612310565b606091505b50509050806123315760405162461bcd60e51b815260040161091290612d66565b505050565b6040805160a0810191829052600091829190600c906005908285855b82829054906101000a900461ffff1661ffff168152602001906002019060208260010104928301926001038202915080841161235257505050506001600160a01b0388166000908152600260208181526040808420815160608101835281548152600182015493810184905293015490830152949550939092506123da915062015180612f29565b4211156123fb576001600160a01b0387166000908152600260205260408120555b6001600160a01b03871660009081526002602052604081205461241f908890612570565b905061243e61271061116c8660045b6020020151899061ffff16611f51565b81111561245d5760405162461bcd60e51b815260040161091290612c5a565b61246e61271061116c86600361242e565b8111156124a55761249e606461116c600a60035b6020810491909101548b91601f166101000a900460ff16611f51565b9150612525565b6124b661271061116c86600261242e565b8111156124ce5761249e606461116c600a6002612482565b6124df61271061116c86600161242e565b8111156124f75761249e606461116c600a6001612482565b61250861271061116c86600061242e565b8111156125205761249e606461116c600a6000612482565b600091505b82516125319088612570565b6001600160a01b0389166000908152600260205260408120919091556014805484929061255f908490612f29565b909155509198975050505050505050565b6000610dba8284612f29565b6001830191839082156125ff5791602002820160005b838211156125d057835183826101000a81548160ff021916908360ff1602179055509260200192600101602081600001049283019260010302612592565b80156125fd5782816101000a81549060ff02191690556001016020816000010492830192600103026125d0565b505b5061260b929150612693565b5090565b6001830191839082156125ff5791602002820160005b8382111561266557835183826101000a81548161ffff021916908361ffff1602179055509260200192600201602081600101049283019260010302612625565b80156125fd5782816101000a81549061ffff0219169055600201602081600101049283019260010302612665565b5b8082111561260b5760008155600101612694565b80516001600160701b0381168114610f7a57600080fd5b803560ff81168114610f7a57600080fd5b6000602082840312156126e1578081fd5b8135610dba816131d7565b6000602082840312156126fd578081fd5b8151610dba816131d7565b6000806040838503121561271a578081fd5b8235612725816131d7565b91506020830135612735816131d7565b809150509250929050565b600080600060608486031215612754578081fd5b833561275f816131d7565b9250602084013561276f816131d7565b929592945050506040919091013590565b60008060408385031215612792578182fd5b823561279d816131d7565b946020939093013593505050565b600060a082840312156127bc578081fd5b82601f8301126127ca578081fd5b6127d460a0612ef1565b80838560a0860111156127e5578384fd5b835b600581101561281657813561ffff81168114612801578586fd5b845260209384019391909101906001016127e7565b509095945050505050565b600060808284031215612832578081fd5b82601f830112612840578081fd5b61284a6080612ef1565b80838560808601111561285b578384fd5b835b60048110156128165761286f826126bf565b8452602093840193919091019060010161285d565b600060a08284031215612895578081fd5b82601f8301126128a3578081fd5b6128ad60a0612ef1565b80838560a0860111156128be578384fd5b835b6005811015612816576128d2826126bf565b845260209384019391909101906001016128c0565b6000602082840312156128f8578081fd5b81358015158114610dba578182fd5b60008060006060848603121561291b578283fd5b612924846126a8565b9250612932602085016126a8565b9150604084015163ffffffff8116811461294a578182fd5b809150509250925092565b600060208284031215612966578081fd5b5035919050565b60006020828403121561297e578081fd5b5051919050565b60008060408385031215612997578182fd5b823591506020830135612735816131d7565b600080604083850312156129bb578182fd5b50508035926020909101359150565b6000806000606084860312156129de578081fd5b8351925060208401519150604084015190509250925092565b60008251612a098184602087016130ab565b9190910192915050565b6001600160a01b0391909116815260200190565b6001600160a01b039384168152919092166020820152604081019190915260600190565b6001600160a01b039687168152602081019590955260408501939093526060840191909152909216608082015260a081019190915260c00190565b901515815260200190565b6000602082528251806020840152612ab08160408501602087016130ab565b601f01601f19169190910160400192915050565b60208082526026908201527f4f776e61626c653a206e6577206f776e657220697320746865207a65726f206160408201526564647265737360d01b606082015260800190565b60208082526022908201527f45524332303a20617070726f766520746f20746865207a65726f206164647265604082015261737360f01b606082015260800190565b60208082526026908201527f45524332303a207472616e7366657220616d6f756e7420657863656564732062604082015265616c616e636560d01b606082015260800190565b6020808252600a90820152696164644c69713a206f6b60b01b604082015260600190565b6020808252600d908201526c185b1c9958591e481d185e1959609a1b604082015260600190565b60208082526028908201527f45524332303a207472616e7366657220616d6f756e74206578636565647320616040820152676c6c6f77616e636560c01b606082015260800190565b6020808252818101527f4f776e61626c653a2063616c6c6572206973206e6f7420746865206f776e6572604082015260600190565b6020808252601d908201527f53656c6c696e67207461783a2061626f7665206d617820616d6f756e74000000604082015260600190565b60208082526025908201527f45524332303a207472616e736665722066726f6d20746865207a65726f206164604082015264647265737360d81b606082015260800190565b6020808252600c908201526b185919131a5c4e8819985a5b60a21b604082015260600190565b6020808252600c908201526b53776170207375636365737360a01b604082015260600190565b60208082526024908201527f45524332303a20617070726f76652066726f6d20746865207a65726f206164646040820152637265737360e01b606082015260800190565b60208082526023908201527f5472616e7366657248656c7065723a204554485f5452414e534645525f46414960408201526213115160ea1b606082015260800190565b60208082526010908201526f185b1c9958591e48195e18db1d59195960821b604082015260600190565b60208082526025908201527f45524332303a2064656372656173656420616c6c6f77616e63652062656c6f77604082015264207a65726f60d81b606082015260800190565b61ffff91909116815260200190565b90815260200190565b600060a082018783526020878185015260a0604085015281875180845260c0860191508289019350845b81811015612e7f5784516001600160a01b031683529383019391830191600101612e5a565b50506001600160a01b03969096166060850152505050608001529392505050565b9283526001600160701b03918216602084015216604082015260600190565b918252602082015260400190565b9283526020830191909152604082015260600190565b60ff91909116815260200190565b60405181810167ffffffffffffffff81118282101715612f2157634e487b7160e01b600052604160045260246000fd5b604052919050565b60008219821115612f3c57612f3c613116565b500190565b600082612f5c57634e487b7160e01b81526012600452602481fd5b500490565b80825b6001808611612f735750612f9e565b818704821115612f8557612f85613116565b80861615612f9257918102915b9490941c938002612f64565b94509492505050565b6000610dba6000198484600082612fc057506001610dba565b81612fcd57506000610dba565b8160018114612fe35760028114612fed5761301a565b6001915050610dba565b60ff841115612ffe57612ffe613116565b6001841b91508482111561301457613014613116565b50610dba565b5060208310610133831016604e8410600b841016171561304d575081810a8381111561304857613048613116565b610dba565b61305a8484846001612f61565b80860482111561306c5761306c613116565b02949350505050565b600081600019048311821515161561308f5761308f613116565b500290565b6000828210156130a6576130a6613116565b500390565b60005b838110156130c65781810151838201526020016130ae565b838111156130d5576000848401525b50505050565b6002810460018216806130ef57607f821691505b6020821081141561311057634e487b7160e01b600052602260045260246000fd5b50919050565b634e487b7160e01b600052601160045260246000fd5b60e01c90565b600060443d1015613142576108ac565b600481823e6308c379a0613156825161312c565b14613160576108ac565b6040513d600319016004823e80513d67ffffffffffffffff816024840111818411171561319057505050506108ac565b828401925082519150808211156131aa57505050506108ac565b503d830160208284010111156131c2575050506108ac565b601f01601f1916810160200160405291505090565b6001600160a01b03811681146131ec57600080fd5b5056feddf252ad1be2c89b69c2b068fc378daa952ba7f163c4a11628f55a4df523b3efa26469706673582212203cd780f2483615b9940f614dba708351833ce7f0dac407e03edbc424a9473a2e64736f6c63430008000033",
  "immutableReferences": {},
  "source": "// SPDX-License-Identifier: GPL\n\npragma solidity 0.8.0;\n\nimport \"@openzeppelin/contracts/utils/math/SafeMath.sol\";\nimport \"@openzeppelin/contracts/access/Ownable.sol\";\nimport \"@uniswap/v2-periphery/contracts/interfaces/IUniswapV2Router02.sol\";\nimport \"@uniswap/v2-core/contracts/interfaces/IUniswapV2Factory.sol\";\nimport \"@uniswap/v2-core/contracts/interfaces/IUniswapV2Pair.sol\";\n\n/**\n * @dev iBNB\n *\n *\n *\n *\n */\n\ncontract iBNB is Ownable {\n    using SafeMath for uint256;\n\n\n//TODO BEFORE DEPLOYMENT: Reduce visibility as needed --\n//FUNCTION ARE ALL PUBLIC FOR DEBUGGING PURPOSES\n\n\n    struct past_tx {\n      uint256 cum_transfer; //this is not what you think, you perv\n      uint256 last_timestamp;\n      uint256 last_claim;\n    }\n\n    struct prop_balances {\n      uint256 reward_pool;\n      uint256 liquidity_pool;\n    }\n\n    mapping (address => uint256) private _balances;\n    mapping (address => past_tx) public _last_tx;\n    mapping (address => mapping (address => uint256)) private _allowances;\n    mapping (address => bool) public excluded;\n\n    uint256 private _decimals = 9;\n    uint256 private _totalSupply = 10**15 * 10**_decimals;\n    uint256 public swap_for_liquidity_threshold = 10**13 * 10**_decimals; //1%\n    uint256 public swap_for_reward_threshold = 10**13 * 10**_decimals;\n    uint256 public pcs_pool_to_circ_ratio = 10;\n\n//TODO gas optim:\n\n    uint8[4] public selling_taxes_rates = [2, 4, 6, 8];\n    uint8[5] public claiming_taxes_rates = [2, 4, 6, 8, 15];\n    uint16[5] public selling_taxes_tranches = [125, 250, 500, 750, 1000]; // % and div by 10**4 0.0125% -0.025% -(...)\n\n    bool public circuit_breaker;\n\n    string private _name = \"iBNB\";\n    string private _symbol = \"iBNB\";\n\n    address public LP_recipient;\n    address public devWallet;\n\n    IUniswapV2Pair public pair;\n    IUniswapV2Router02 public router;\n\n    prop_balances public balancer_balances;\n\n    event Approval(address, address, uint256);\n    event Transfer(address, address, uint256);\n    event TaxRatesChanged();\n    event SwapForBNB(string);\n    event BalancerRatio(uint256,uint256);\n    event RewardTaxChanged();\n    event AddLiq(string);\n    event balancerReset(uint256, uint256);\n\n    constructor (address _router) {\n\n         _balances[msg.sender] = _totalSupply;\n\n         //create pair to get the pair address\n         router = IUniswapV2Router02(_router);\n         IUniswapV2Factory factory = IUniswapV2Factory(router.factory());\n         pair = IUniswapV2Pair(factory.createPair(address(this), router.WETH()));\n\n         LP_recipient = address(0);\n         devWallet = address(0);\n\n         excluded[msg.sender] = true;\n         excluded[address(this)] = true;\n\n         circuit_breaker == false;\n    }\n\n    function decimals() public view returns (uint256) {\n         return _decimals;\n    }\n    function name() public view returns (string memory) {\n        return _name;\n    }\n    function symbol() public view returns (string memory) {\n        return _symbol;\n    }\n    function totalSupply() public view virtual  returns (uint256) {\n        return _totalSupply;\n    }\n    function balanceOf(address account) public view virtual  returns (uint256) {\n        return _balances[account];\n    }\n    function transfer(address recipient, uint256 amount) public virtual  returns (bool) {\n        _transfer(_msgSender(), recipient, amount);\n        return true;\n    }\n    function allowance(address owner, address spender) public view virtual  returns (uint256) {\n        return _allowances[owner][spender];\n    }\n    function approve(address spender, uint256 amount) public virtual  returns (bool) {\n        _approve(_msgSender(), spender, amount);\n        return true;\n    }\n    function transferFrom(address sender, address recipient, uint256 amount) public virtual  returns (bool) {\n        _transfer(sender, recipient, amount);\n\n        uint256 currentAllowance = _allowances[sender][_msgSender()];\n        require(currentAllowance >= amount, \"ERC20: transfer amount exceeds allowance\");\n        _approve(sender, _msgSender(), currentAllowance - amount);\n\n        return true;\n    }\n    function increaseAllowance(address spender, uint256 addedValue) public virtual returns (bool) {\n        _approve(_msgSender(), spender, _allowances[_msgSender()][spender] + addedValue);\n        return true;\n    }\n    function decreaseAllowance(address spender, uint256 subtractedValue) public virtual returns (bool) {\n        uint256 currentAllowance = _allowances[_msgSender()][spender];\n        require(currentAllowance >= subtractedValue, \"ERC20: decreased allowance below zero\");\n        _approve(_msgSender(), spender, currentAllowance - subtractedValue);\n\n        return true;\n    }\n    function _approve(address owner, address spender, uint256 amount) internal virtual {\n        require(owner != address(0), \"ERC20: approve from the zero address\");\n        require(spender != address(0), \"ERC20: approve to the zero address\");\n\n        _allowances[owner][spender] = amount;\n        emit Approval(owner, spender, amount);\n    }\n\n\n    function _transfer(address sender, address recipient, uint256 amount) internal virtual {\n        require(sender != address(0), \"ERC20: transfer from the zero address\");\n\n        uint256 senderBalance = _balances[sender]; // gas SLOAD: 200 vs MLOAD: 3 ...\n        require(senderBalance >= amount, \"ERC20: transfer amount exceeds balance\");\n\n        uint256 sell_tax;\n        uint256 dev_tax;\n        uint256 balancer_amount;\n\n        if(excluded[sender] == false && excluded[recipient] == false && circuit_breaker == false) {\n\n        // ----  Sell tax  ----\n          (uint112 _reserve0, uint112 _reserve1,) = pair.getReserves(); // returns reserve0, reserve1, timestamp last tx\n          if(address(this) != pair.token0()) { // 0 := iBNB\n            (_reserve0, _reserve1) = (_reserve1, _reserve0);\n          }\n          sell_tax = sellingTax(sender, amount, _reserve0); //will update the balancer ledger too\n\n        // ------ dev tax 0.1% -------\n          dev_tax = amount.div(1000);\n\n        // ------ balancer tax 9.9% ------\n          balancer_amount = amount.mul(99).div(1000);\n          balancer(balancer_amount, _reserve0);\n\n          //@dev every extra token are collected into address(this), it's the balancer job to then split them\n          //between pool and reward, using the dedicated struct\n          _balances[address(this)] += sell_tax.add(balancer_amount);\n          _balances[devWallet] += dev_tax;\n        }\n        else {\n          sell_tax = 0;\n          dev_tax = 0;\n          balancer_amount = 0;\n        }\n\n        //reward reinit\n        _last_tx[recipient].last_timestamp = block.timestamp;\n\n        _balances[sender] = senderBalance.sub(amount);\n        _balances[recipient] += amount.sub(sell_tax).sub(dev_tax).sub(balancer_amount);\n\n        emit Transfer(sender, recipient, amount);\n        emit Transfer(sender, address(this), sell_tax);\n        emit Transfer(sender, address(this), balancer_amount);\n        emit Transfer(sender, devWallet, dev_tax);\n    }\n\n    //@dev take a selling tax if transfer from a non-excluded address or from the pair contract exceed\n    //the thresholds defined in selling_taxes_thresholds on 24h floating window\n    function sellingTax(address sender, uint256 amount, uint256 pool_balance) private returns(uint256) {\n        uint16[5] memory _tax_tranches = selling_taxes_tranches;\n        past_tx memory sender_last_tx = _last_tx[sender];\n\n        uint256 sell_tax;\n\n        //>1 day since last tx\n        if(block.timestamp > sender_last_tx.last_timestamp + 1 days) {\n          _last_tx[sender].cum_transfer = 0; // a.k.a The Virgin\n        }\n\n        uint256 new_cum_sum = amount.add(_last_tx[sender].cum_transfer);\n\n        if(new_cum_sum > pool_balance.mul(_tax_tranches[4]).div(10**4)) {\n          revert(\"Selling tax: above max amount\");\n        }\n        else if(new_cum_sum > pool_balance.mul(_tax_tranches[3]).div(10**4)) {\n          sell_tax = amount.mul(selling_taxes_rates[3]).div(100);\n        }\n        else if(new_cum_sum > pool_balance.mul(_tax_tranches[2]).div(10**4)) {\n          sell_tax = amount.mul(selling_taxes_rates[2]).div(100);\n        }\n        else if(new_cum_sum > pool_balance.mul(_tax_tranches[1]).div(10**4)) {\n          sell_tax = amount.mul(selling_taxes_rates[1]).div(100);\n        }\n        else if(new_cum_sum > pool_balance.mul(_tax_tranches[0]).div(10**4)) {\n          sell_tax = amount.mul(selling_taxes_rates[0]).div(100);\n        }\n        else { sell_tax = 0; }\n\n        _last_tx[sender].cum_transfer = sender_last_tx.cum_transfer.add(amount);\n\n        balancer_balances.reward_pool += sell_tax; //sell tax is for reward:)\n\n        return sell_tax;\n    }\n\n    //@dev take the 9.9% taxes as input, split it between reward and liq subpools\n    //    according to pool condition -> circ-pool/circ supply closer to one implies\n    //    priority to the reward pool\n    function balancer(uint256 amount, uint256 pool_balance) public {\n\n        address DEAD = address(0x000000000000000000000000000000000000dEaD);\n        uint256 unwght_circ_supply = totalSupply().sub(_balances[DEAD]);\n\n        uint256 circ_supply = (pool_balance < unwght_circ_supply * pcs_pool_to_circ_ratio / 100) ? unwght_circ_supply * pcs_pool_to_circ_ratio / 100 : pool_balance;\n\n        uint256 liq_ratio = (circ_supply.sub(pool_balance)).mul(10**9).div(circ_supply);\n        uint256 rew_ratio = (circ_supply.sub((circ_supply.sub(pool_balance)))).mul(10**9).div(circ_supply);\n\n        balancer_balances.liquidity_pool += (amount.mul(circ_supply.sub(pool_balance)).mul(10**9).div(circ_supply)).div(10**9);\n        balancer_balances.reward_pool += (amount.mul(circ_supply.sub((circ_supply.sub(pool_balance)))).mul(10**9).div(circ_supply)).div(10**9);\n\n        if(balancer_balances.liquidity_pool >= swap_for_liquidity_threshold) {\n            uint256 token_out = addLiquidity(balancer_balances.liquidity_pool);\n            balancer_balances.liquidity_pool -= token_out; //not balanceOf, in case addLiq revert\n        }\n\n        if(balancer_balances.reward_pool >= swap_for_reward_threshold) {\n            uint256 token_out = swapForBNB(balancer_balances.reward_pool, address(this));\n            balancer_balances.reward_pool -= token_out;\n        }\n\n        emit BalancerRatio(liq_ratio, rew_ratio);\n    }\n\n    //@dev when triggered, will swap and provide liquidity\n    //    BNBfromSwap being the difference between and after the swap, slippage\n    //    will result in extra-BNB for the reward pool (free money for the guys:)\n    function addLiquidity(uint256 token_amount) internal returns (uint256) {\n      uint256 BNBfromReward = address(this).balance;\n\n      address[] memory route = new address[](2);\n      route[0] = address(this);\n      route[1] = router.WETH();\n\n      if(allowance(address(this), address(router)) < token_amount) {\n        _allowances[address(this)][address(router)] = ~uint256(0);\n        emit Approval(address(this), address(router), ~uint256(0));\n      }\n\n      try router.swapExactTokensForETHSupportingFeeOnTransferTokens(token_amount.div(2), 0, route, address(this), block.timestamp) {\n        uint256 BNBfromSwap = address(this).balance.sub(BNBfromReward);\n        router.addLiquidityETH{value: BNBfromSwap}(address(this), token_amount.div(2), 0, 0, LP_recipient, block.timestamp); //will not be catched\n        emit AddLiq(\"addLiq: ok\");\n        return token_amount;\n      }\n      catch {\n        emit AddLiq(\"addLiq: fail\");\n        return 0;\n      }\n    }\n\n    //@dev individual reward is growing linearly througout 24h, and is the portion of the reward pool\n    //     weighted by the circ. supply owned.\n    //     reward = (balance/circ supply) * [(now - lastClaim) / 1d] * BNB_balance\n    //     If an extra-buy occurs in the last 24h, reset 24h timer (in sell tax)\n    //     (frontend will automatize claim then buy)\n    function computeReward() public view returns(uint256, uint256) {\n\n      past_tx memory sender_last_tx = _last_tx[msg.sender];\n      uint256 last_claim = sender_last_tx.last_claim;\n\n      if(last_claim + 1 days > block.timestamp) { // 1 claim every 24h max\n        return (0, 0);\n      }\n\n      address DEAD = address(0x000000000000000000000000000000000000dEaD);\n\n      uint256 circulating_supply = totalSupply().sub(_balances[DEAD]).sub(_balances[address(pair)]);\n\n      uint256 _nom = _balances[msg.sender].mul(balanceOf(address(this))).mul(block.timestamp - sender_last_tx.last_timestamp);\n      uint256 _denom = circulating_supply.mul(1 days);\n\n      uint256 reward_without_penalty = _nom.div(_denom);\n      //@dev uni revert on 0\n      if(reward_without_penalty > 0) {\n        uint256 tax_to_pay = taxOnClaim(getQuoteInBNB(reward_without_penalty));\n        return (reward_without_penalty.sub(tax_to_pay), tax_to_pay);\n      }\n\n      return (0,0); //too small (that's what she said)\n    }\n\n    //@dev Compute the tax on claimed reward - labelled in BNB (as per team agreement)\n    function taxOnClaim(uint256 amount) public view returns(uint256 tax){\n\n      if(amount > 2 ether) { return amount.mul(claiming_taxes_rates[4]).div(100); } //GIVE US FINNEY'S BACK\n      else if(amount > 1.50 ether) { return amount.mul(claiming_taxes_rates[3]).div(100); }\n      else if(amount > 1 ether) { return amount.mul(claiming_taxes_rates[2]).div(100); }\n      else if(amount > 0.5 ether) { return amount.mul(claiming_taxes_rates[1]).div(100); }\n      else if(amount > 0.25 ether) { return amount.mul(claiming_taxes_rates[0]).div(100); }\n      else { return 0; }\n\n    }\n\n    //@dev frontend integration\n    function endOfPeriod() public view returns (uint256) {\n      return _last_tx[msg.sender].last_claim + 1 days;\n    }\n\n    //@dev computeReward check if last claim is less than 1d ago\n    function claimReward() public {\n      (uint256 claimable, uint256 tax) = computeReward();\n      //require(claimable > 0, \"Claim: 0\");\n      _last_tx[msg.sender].last_claim = block.timestamp;\n      balancer_balances.reward_pool += tax;\n      emit Transfer(msg.sender, address(this), tax);\n      safeTransferETH(msg.sender, claimable);\n    }\n\n    function getQuoteInBNB(uint256 nb_token) public view returns (uint256) {\n      (uint112 _reserve0, uint112 _reserve1,) = pair.getReserves(); // returns reserve0, reserve1, timestamp last tx\n      if(address(this) != pair.token0()) { // 0 <- iBNB\n        (_reserve0, _reserve1) = (_reserve1, _reserve0);\n      }\n      return router.getAmountOut(nb_token, _reserve0, _reserve1);\n    }\n\n    function swapForBNB(uint256 token_amount, address receiver) public returns (uint256) {\n      address[] memory route = new address[](2);\n      route[0] = address(this);\n      route[1] = router.WETH();\n\n      if(allowance(address(this), address(router)) < token_amount) {\n        _allowances[address(this)][address(router)] = ~uint256(0);\n        emit Approval(address(this), address(router), ~uint256(0));\n      }\n\n      try router.swapExactTokensForETHSupportingFeeOnTransferTokens(token_amount, 0, route, receiver, block.timestamp) {\n        emit SwapForBNB(\"Swap success\");\n        return token_amount;\n      }\n      catch Error(string memory _err) {\n        emit SwapForBNB(_err);\n        return 0;\n      }\n    }\n\n    //@dev taken from uniswapV2 TransferHelper lib\n    function safeTransferETH(address to, uint value) internal {\n        (bool success,) = to.call{value:value}(new bytes(0));\n        require(success, 'TransferHelper: ETH_TRANSFER_FAILED');\n    }\n\n    function excludeFromTaxes(address adr) public onlyOwner {\n      require(!excluded[adr], \"already excluded\");\n      excluded[adr] = true;\n    }\n\n    function includeInTaxes(address adr) public onlyOwner {\n      require(excluded[adr], \"already taxed\");\n      excluded[adr] = false;\n    }\n\n    function resetBalancer() public onlyOwner {\n      uint256 _contract_balance = _balances[address(this)];\n      balancer_balances.reward_pool = _contract_balance.div(2);\n      balancer_balances.liquidity_pool = _contract_balance.div(2);\n      emit balancerReset(balancer_balances.reward_pool, balancer_balances.liquidity_pool);\n    }\n\n    //@dev will bypass all the taxes and act as erc20.\n    //     pools & balancer balances will remain untouched\n    function setCircuitBreaker(bool status) public onlyOwner {\n      circuit_breaker = status;\n    }\n\n    function setLPContract(address _LP_recipient) public onlyOwner {\n      LP_recipient = _LP_recipient;\n    }\n\n    function setDevWallet(address _devWallet) public onlyOwner {\n      devWallet = _devWallet;\n    }\n\n    function setSwapFor_Liq_Threshold(uint256 threshold_in_token) public onlyOwner {\n      swap_for_liquidity_threshold = threshold_in_token * 10**_decimals;\n    }\n\n    function setSwapFor_Reward_Threshold(uint256 threshold_in_token) public onlyOwner {\n      swap_for_reward_threshold = threshold_in_token * 10**_decimals;\n    }\n\n    function setSellingTaxesTranches(uint16[5] memory new_tranches) public onlyOwner {\n      selling_taxes_tranches = new_tranches;\n      emit TaxRatesChanged();\n    }\n\n    function setSellingTaxesrates(uint8[4] memory new_amounts) public onlyOwner {\n      selling_taxes_rates = new_amounts;\n      emit TaxRatesChanged();\n    }\n\n    function setRewardTaxesTranches(uint8[5] memory new_tranches) public onlyOwner {\n      claiming_taxes_rates = new_tranches;\n      emit RewardTaxChanged();\n    }\n\n    //@dev fallback in order to receive BNB from swapToBNB\n    receive () external payable {}\n}\n",
  "sourcePath": "/home/drgorilla/Documents/solidity/iBNB/contracts/iBNB.sol",
  "compiler": {
    "name": "solc",
    "version": "0.8.0+commit.c7dfd78e.Emscripten.clang"
  },
  "schemaVersion": "3.4.0",
  "updatedAt": "2021-06-14T22:39:01.758Z",
  "devdoc": {
    "details": "iBNB",
    "kind": "dev",
    "methods": {
      "owner()": {
        "details": "Returns the address of the current owner."
      },
      "renounceOwnership()": {
        "details": "Leaves the contract without owner. It will not be possible to call `onlyOwner` functions anymore. Can only be called by the current owner. NOTE: Renouncing ownership will leave the contract without an owner, thereby removing any functionality that is only available to the owner."
      },
      "transferOwnership(address)": {
        "details": "Transfers ownership of the contract to a new account (`newOwner`). Can only be called by the current owner."
      }
    },
    "version": 1
  },
  "userdoc": {
    "kind": "user",
    "methods": {},
    "version": 1
  }
}